{
  "contractName": "ECDSAMock",
  "abi": [
    {
      "inputs": [
        {
          "internalType": "bytes32",
          "name": "hash",
          "type": "bytes32"
        },
        {
          "internalType": "bytes",
          "name": "signature",
          "type": "bytes"
        }
      ],
      "name": "recover",
      "outputs": [
        {
          "internalType": "address",
          "name": "",
          "type": "address"
        }
      ],
      "stateMutability": "pure",
      "type": "function"
    },
    {
      "inputs": [
        {
          "internalType": "bytes32",
          "name": "hash",
          "type": "bytes32"
        },
        {
          "internalType": "uint8",
          "name": "v",
          "type": "uint8"
        },
        {
          "internalType": "bytes32",
          "name": "r",
          "type": "bytes32"
        },
        {
          "internalType": "bytes32",
          "name": "s",
          "type": "bytes32"
        }
      ],
      "name": "recover_v_r_s",
      "outputs": [
        {
          "internalType": "address",
          "name": "",
          "type": "address"
        }
      ],
      "stateMutability": "pure",
      "type": "function"
    },
    {
      "inputs": [
        {
          "internalType": "bytes32",
          "name": "hash",
          "type": "bytes32"
        },
        {
          "internalType": "bytes32",
          "name": "r",
          "type": "bytes32"
        },
        {
          "internalType": "bytes32",
          "name": "vs",
          "type": "bytes32"
        }
      ],
      "name": "recover_r_vs",
      "outputs": [
        {
          "internalType": "address",
          "name": "",
          "type": "address"
        }
      ],
      "stateMutability": "pure",
      "type": "function"
    },
    {
      "inputs": [
        {
          "internalType": "bytes32",
          "name": "hash",
          "type": "bytes32"
        }
      ],
      "name": "toEthSignedMessageHash",
      "outputs": [
        {
          "internalType": "bytes32",
          "name": "",
          "type": "bytes32"
        }
      ],
      "stateMutability": "pure",
      "type": "function"
    }
  ],
  "bytecode": "0x608060405234801561001057600080fd5b50610df4806100206000396000f3fe608060405234801561001057600080fd5b506004361061004c5760003560e01c8063126442731461005157806319045a2514610081578063918a15cf146100b1578063a005410b146100e1575b600080fd5b61006b600480360381019061006691906108bb565b610111565b6040516100789190610a37565b60405180910390f35b61009b60048036038101906100969190610867565b610134565b6040516100a89190610a37565b60405180910390f35b6100cb60048036038101906100c691906107ef565b610151565b6040516100d89190610a52565b60405180910390f35b6100fb60048036038101906100f69190610818565b610163565b6040516101089190610a37565b60405180910390f35b600061012a84848488610183909392919063ffffffff16565b9050949350505050565b600061014982846101ae90919063ffffffff16565b905092915050565b600061015c826101d5565b9050919050565b600061017a8383866102059092919063ffffffff16565b90509392505050565b60008060006101948787878761022e565b915091506101a18161033b565b8192505050949350505050565b60008060006101bd858561068c565b915091506101ca8161033b565b819250505092915050565b6000816040516020016101e89190610a11565b604051602081830303815290604052805190602001209050919050565b600080600061021586868661070f565b915091506102228161033b565b81925050509392505050565b6000807f7fffffffffffffffffffffffffffffff5d576e7357a4501ddfe92f46681b20a08360001c1115610269576000600391509150610332565b601b8560ff16141580156102815750601c8560ff1614155b15610293576000600491509150610332565b6000600187878787604051600081526020016040526040516102b89493929190610a6d565b6020604051602081039080840390855afa1580156102da573d6000803e3d6000fd5b505050602060405103519050600073ffffffffffffffffffffffffffffffffffffffff168173ffffffffffffffffffffffffffffffffffffffff16141561032957600060019250925050610332565b80600092509250505b94509492505050565b60006004811115610375577f4e487b7100000000000000000000000000000000000000000000000000000000600052602160045260246000fd5b8160048111156103ae577f4e487b7100000000000000000000000000000000000000000000000000000000600052602160045260246000fd5b14156103b957610689565b600160048111156103f3577f4e487b7100000000000000000000000000000000000000000000000000000000600052602160045260246000fd5b81600481111561042c577f4e487b7100000000000000000000000000000000000000000000000000000000600052602160045260246000fd5b141561046d576040517f08c379a000000000000000000000000000000000000000000000000000000000815260040161046490610ab2565b60405180910390fd5b600260048111156104a7577f4e487b7100000000000000000000000000000000000000000000000000000000600052602160045260246000fd5b8160048111156104e0577f4e487b7100000000000000000000000000000000000000000000000000000000600052602160045260246000fd5b1415610521576040517f08c379a000000000000000000000000000000000000000000000000000000000815260040161051890610ad2565b60405180910390fd5b6003600481111561055b577f4e487b7100000000000000000000000000000000000000000000000000000000600052602160045260246000fd5b816004811115610594577f4e487b7100000000000000000000000000000000000000000000000000000000600052602160045260246000fd5b14156105d5576040517f08c379a00000000000000000000000000000000000000000000000000000000081526004016105cc90610af2565b60405180910390fd5b60048081111561060e577f4e487b7100000000000000000000000000000000000000000000000000000000600052602160045260246000fd5b816004811115610647577f4e487b7100000000000000000000000000000000000000000000000000000000600052602160045260246000fd5b1415610688576040517f08c379a000000000000000000000000000000000000000000000000000000000815260040161067f90610b12565b60405180910390fd5b5b50565b6000806041835114156106ce5760008060006020860151925060408601519150606086015160001a90506106c28782858561022e565b94509450505050610708565b6040835114156106ff5760008060208501519150604085015190506106f486838361070f565b935093505050610708565b60006002915091505b9250929050565b6000806000807f7fffffffffffffffffffffffffffffffffffffffffffffffffffffffffffffff85169150601b8560ff1c01905061074f8782888561022e565b935093505050935093915050565b600061077061076b84610b57565b610b32565b90508281526020810184848401111561078857600080fd5b610793848285610bed565b509392505050565b6000813590506107aa81610d90565b92915050565b600082601f8301126107c157600080fd5b81356107d184826020860161075d565b91505092915050565b6000813590506107e981610da7565b92915050565b60006020828403121561080157600080fd5b600061080f8482850161079b565b91505092915050565b60008060006060848603121561082d57600080fd5b600061083b8682870161079b565b935050602061084c8682870161079b565b925050604061085d8682870161079b565b9150509250925092565b6000806040838503121561087a57600080fd5b60006108888582860161079b565b925050602083013567ffffffffffffffff8111156108a557600080fd5b6108b1858286016107b0565b9150509250929050565b600080600080608085870312156108d157600080fd5b60006108df8782880161079b565b94505060206108f0878288016107da565b93505060406109018782880161079b565b92505060606109128782880161079b565b91505092959194509250565b61092781610ba4565b82525050565b61093681610bb6565b82525050565b61094d61094882610bb6565b610c2d565b82525050565b6000610960601883610b88565b915061096b82610c77565b602082019050919050565b6000610983601f83610b88565b915061098e82610ca0565b602082019050919050565b60006109a6601c83610b99565b91506109b182610cc9565b601c82019050919050565b60006109c9602283610b88565b91506109d482610cf2565b604082019050919050565b60006109ec602283610b88565b91506109f782610d41565b604082019050919050565b610a0b81610be0565b82525050565b6000610a1c82610999565b9150610a28828461093c565b60208201915081905092915050565b6000602082019050610a4c600083018461091e565b92915050565b6000602082019050610a67600083018461092d565b92915050565b6000608082019050610a82600083018761092d565b610a8f6020830186610a02565b610a9c604083018561092d565b610aa9606083018461092d565b95945050505050565b60006020820190508181036000830152610acb81610953565b9050919050565b60006020820190508181036000830152610aeb81610976565b9050919050565b60006020820190508181036000830152610b0b816109bc565b9050919050565b60006020820190508181036000830152610b2b816109df565b9050919050565b6000610b3c610b4d565b9050610b488282610bfc565b919050565b6000604051905090565b600067ffffffffffffffff821115610b7257610b71610c37565b5b610b7b82610c66565b9050602081019050919050565b600082825260208201905092915050565b600081905092915050565b6000610baf82610bc0565b9050919050565b6000819050919050565b600073ffffffffffffffffffffffffffffffffffffffff82169050919050565b600060ff82169050919050565b82818337600083830152505050565b610c0582610c66565b810181811067ffffffffffffffff82111715610c2457610c23610c37565b5b80604052505050565b6000819050919050565b7f4e487b7100000000000000000000000000000000000000000000000000000000600052604160045260246000fd5b6000601f19601f8301169050919050565b7f45434453413a20696e76616c6964207369676e61747572650000000000000000600082015250565b7f45434453413a20696e76616c6964207369676e6174757265206c656e67746800600082015250565b7f19457468657265756d205369676e6564204d6573736167653a0a333200000000600082015250565b7f45434453413a20696e76616c6964207369676e6174757265202773272076616c60008201527f7565000000000000000000000000000000000000000000000000000000000000602082015250565b7f45434453413a20696e76616c6964207369676e6174757265202776272076616c60008201527f7565000000000000000000000000000000000000000000000000000000000000602082015250565b610d9981610bb6565b8114610da457600080fd5b50565b610db081610be0565b8114610dbb57600080fd5b5056fea26469706673582212205f3b416e33019b929dd628e32cfc658fda11251a78d98ed265f492cef053530f64736f6c63430008020033",
  "immutableReferences": {},
  "source": "// SPDX-License-Identifier: MIT\n\npragma solidity ^0.8.0;\n\nimport \"../utils/cryptography/ECDSA.sol\";\n\ncontract ECDSAMock {\n    using ECDSA for bytes32;\n\n    function recover(bytes32 hash, bytes memory signature) public pure returns (address) {\n        return hash.recover(signature);\n    }\n\n    // solhint-disable-next-line func-name-mixedcase\n    function recover_v_r_s(\n        bytes32 hash,\n        uint8 v,\n        bytes32 r,\n        bytes32 s\n    ) public pure returns (address) {\n        return hash.recover(v, r, s);\n    }\n\n    // solhint-disable-next-line func-name-mixedcase\n    function recover_r_vs(\n        bytes32 hash,\n        bytes32 r,\n        bytes32 vs\n    ) public pure returns (address) {\n        return hash.recover(r, vs);\n    }\n\n    function toEthSignedMessageHash(bytes32 hash) public pure returns (bytes32) {\n        return hash.toEthSignedMessageHash();\n    }\n}\n",
  "sourcePath": "D:\\marketplace\\frontend (2)\\contracts\\openzeppelin-solidity\\contracts\\mocks\\ECDSAMock.sol",
  "compiler": {
    "name": "solc",
    "version": "0.8.2+commit.661d1103.Emscripten.clang"
  },
  "schemaVersion": "3.4.4",
  "updatedAt": "2022-02-01T11:28:51.101Z",
  "devdoc": {
    "kind": "dev",
    "methods": {},
    "version": 1
  },
  "userdoc": {
    "kind": "user",
    "methods": {},
    "version": 1
  }
}