{
  "contractName": "ERC1271WalletMock",
  "abi": [
    {
      "inputs": [
        {
          "internalType": "address",
          "name": "originalOwner",
          "type": "address"
        }
      ],
      "stateMutability": "nonpayable",
      "type": "constructor"
    },
    {
      "anonymous": false,
      "inputs": [
        {
          "indexed": true,
          "internalType": "address",
          "name": "previousOwner",
          "type": "address"
        },
        {
          "indexed": true,
          "internalType": "address",
          "name": "newOwner",
          "type": "address"
        }
      ],
      "name": "OwnershipTransferred",
      "type": "event"
    },
    {
      "inputs": [],
      "name": "owner",
      "outputs": [
        {
          "internalType": "address",
          "name": "",
          "type": "address"
        }
      ],
      "stateMutability": "view",
      "type": "function"
    },
    {
      "inputs": [],
      "name": "renounceOwnership",
      "outputs": [],
      "stateMutability": "nonpayable",
      "type": "function"
    },
    {
      "inputs": [
        {
          "internalType": "address",
          "name": "newOwner",
          "type": "address"
        }
      ],
      "name": "transferOwnership",
      "outputs": [],
      "stateMutability": "nonpayable",
      "type": "function"
    },
    {
      "inputs": [
        {
          "internalType": "bytes32",
          "name": "hash",
          "type": "bytes32"
        },
        {
          "internalType": "bytes",
          "name": "signature",
          "type": "bytes"
        }
      ],
      "name": "isValidSignature",
      "outputs": [
        {
          "internalType": "bytes4",
          "name": "magicValue",
          "type": "bytes4"
        }
      ],
      "stateMutability": "view",
      "type": "function"
    }
  ],
  "bytecode": "0x60806040523480156200001157600080fd5b50604051620013a6380380620013a6833981810160405281019062000037919062000291565b620000576200004b6200006f60201b60201c565b6200007760201b60201c565b62000068816200013b60201b60201c565b5062000426565b600033905090565b60008060009054906101000a900473ffffffffffffffffffffffffffffffffffffffff169050816000806101000a81548173ffffffffffffffffffffffffffffffffffffffff021916908373ffffffffffffffffffffffffffffffffffffffff1602179055508173ffffffffffffffffffffffffffffffffffffffff168173ffffffffffffffffffffffffffffffffffffffff167f8be0079c531659141344cd1fd0a4f28419497f9722a3daafe3b4186f6b6457e060405160405180910390a35050565b6200014b6200006f60201b60201c565b73ffffffffffffffffffffffffffffffffffffffff16620001716200025160201b60201c565b73ffffffffffffffffffffffffffffffffffffffff1614620001ca576040517f08c379a0000000000000000000000000000000000000000000000000000000008152600401620001c1906200032d565b60405180910390fd5b600073ffffffffffffffffffffffffffffffffffffffff168173ffffffffffffffffffffffffffffffffffffffff1614156200023d576040517f08c379a000000000000000000000000000000000000000000000000000000000815260040162000234906200030b565b60405180910390fd5b6200024e816200007760201b60201c565b50565b60008060009054906101000a900473ffffffffffffffffffffffffffffffffffffffff16905090565b6000815190506200028b816200040c565b92915050565b600060208284031215620002a457600080fd5b6000620002b4848285016200027a565b91505092915050565b6000620002cc6026836200034f565b9150620002d98262000394565b604082019050919050565b6000620002f36020836200034f565b91506200030082620003e3565b602082019050919050565b600060208201905081810360008301526200032681620002bd565b9050919050565b600060208201905081810360008301526200034881620002e4565b9050919050565b600082825260208201905092915050565b60006200036d8262000374565b9050919050565b600073ffffffffffffffffffffffffffffffffffffffff82169050919050565b7f4f776e61626c653a206e6577206f776e657220697320746865207a65726f206160008201527f6464726573730000000000000000000000000000000000000000000000000000602082015250565b7f4f776e61626c653a2063616c6c6572206973206e6f7420746865206f776e6572600082015250565b620004178162000360565b81146200042357600080fd5b50565b610f7080620004366000396000f3fe608060405234801561001057600080fd5b506004361061004c5760003560e01c80631626ba7e14610051578063715018a6146100815780638da5cb5b1461008b578063f2fde38b146100a9575b600080fd5b61006b600480360381019061006691906109ab565b6100c5565b6040516100789190610b6d565b60405180910390f35b610089610125565b005b6100936101ad565b6040516100a09190610b0d565b60405180910390f35b6100c360048036038101906100be9190610982565b6101d6565b005b60006100cf6101ad565b73ffffffffffffffffffffffffffffffffffffffff166100ef84846102ce565b73ffffffffffffffffffffffffffffffffffffffff161461011457600060e01b61011d565b631626ba7e60e01b5b905092915050565b61012d6102f5565b73ffffffffffffffffffffffffffffffffffffffff1661014b6101ad565b73ffffffffffffffffffffffffffffffffffffffff16146101a1576040517f08c379a000000000000000000000000000000000000000000000000000000000815260040161019890610c28565b60405180910390fd5b6101ab60006102fd565b565b60008060009054906101000a900473ffffffffffffffffffffffffffffffffffffffff16905090565b6101de6102f5565b73ffffffffffffffffffffffffffffffffffffffff166101fc6101ad565b73ffffffffffffffffffffffffffffffffffffffff1614610252576040517f08c379a000000000000000000000000000000000000000000000000000000000815260040161024990610c28565b60405180910390fd5b600073ffffffffffffffffffffffffffffffffffffffff168173ffffffffffffffffffffffffffffffffffffffff1614156102c2576040517f08c379a00000000000000000000000000000000000000000000000000000000081526004016102b990610bc8565b60405180910390fd5b6102cb816102fd565b50565b60008060006102dd85856103c1565b915091506102ea81610444565b819250505092915050565b600033905090565b60008060009054906101000a900473ffffffffffffffffffffffffffffffffffffffff169050816000806101000a81548173ffffffffffffffffffffffffffffffffffffffff021916908373ffffffffffffffffffffffffffffffffffffffff1602179055508173ffffffffffffffffffffffffffffffffffffffff168173ffffffffffffffffffffffffffffffffffffffff167f8be0079c531659141344cd1fd0a4f28419497f9722a3daafe3b4186f6b6457e060405160405180910390a35050565b6000806041835114156104035760008060006020860151925060408601519150606086015160001a90506103f787828585610795565b9450945050505061043d565b6040835114156104345760008060208501519150604085015190506104298683836108a2565b93509350505061043d565b60006002915091505b9250929050565b6000600481111561047e577f4e487b7100000000000000000000000000000000000000000000000000000000600052602160045260246000fd5b8160048111156104b7577f4e487b7100000000000000000000000000000000000000000000000000000000600052602160045260246000fd5b14156104c257610792565b600160048111156104fc577f4e487b7100000000000000000000000000000000000000000000000000000000600052602160045260246000fd5b816004811115610535577f4e487b7100000000000000000000000000000000000000000000000000000000600052602160045260246000fd5b1415610576576040517f08c379a000000000000000000000000000000000000000000000000000000000815260040161056d90610b88565b60405180910390fd5b600260048111156105b0577f4e487b7100000000000000000000000000000000000000000000000000000000600052602160045260246000fd5b8160048111156105e9577f4e487b7100000000000000000000000000000000000000000000000000000000600052602160045260246000fd5b141561062a576040517f08c379a000000000000000000000000000000000000000000000000000000000815260040161062190610ba8565b60405180910390fd5b60036004811115610664577f4e487b7100000000000000000000000000000000000000000000000000000000600052602160045260246000fd5b81600481111561069d577f4e487b7100000000000000000000000000000000000000000000000000000000600052602160045260246000fd5b14156106de576040517f08c379a00000000000000000000000000000000000000000000000000000000081526004016106d590610be8565b60405180910390fd5b600480811115610717577f4e487b7100000000000000000000000000000000000000000000000000000000600052602160045260246000fd5b816004811115610750577f4e487b7100000000000000000000000000000000000000000000000000000000600052602160045260246000fd5b1415610791576040517f08c379a000000000000000000000000000000000000000000000000000000000815260040161078890610c08565b60405180910390fd5b5b50565b6000807f7fffffffffffffffffffffffffffffff5d576e7357a4501ddfe92f46681b20a08360001c11156107d0576000600391509150610899565b601b8560ff16141580156107e85750601c8560ff1614155b156107fa576000600491509150610899565b60006001878787876040516000815260200160405260405161081f9493929190610b28565b6020604051602081039080840390855afa158015610841573d6000803e3d6000fd5b505050602060405103519050600073ffffffffffffffffffffffffffffffffffffffff168173ffffffffffffffffffffffffffffffffffffffff16141561089057600060019250925050610899565b80600092509250505b94509492505050565b6000806000807f7fffffffffffffffffffffffffffffffffffffffffffffffffffffffffffffff85169150601b8560ff1c0190506108e287828885610795565b935093505050935093915050565b60006109036108fe84610c6d565b610c48565b90508281526020810184848401111561091b57600080fd5b610926848285610d24565b509392505050565b60008135905061093d81610f0c565b92915050565b60008135905061095281610f23565b92915050565b600082601f83011261096957600080fd5b81356109798482602086016108f0565b91505092915050565b60006020828403121561099457600080fd5b60006109a28482850161092e565b91505092915050565b600080604083850312156109be57600080fd5b60006109cc85828601610943565b925050602083013567ffffffffffffffff8111156109e957600080fd5b6109f585828601610958565b9150509250929050565b610a0881610caf565b82525050565b610a1781610cc1565b82525050565b610a2681610ccb565b82525050565b6000610a39601883610c9e565b9150610a4482610da4565b602082019050919050565b6000610a5c601f83610c9e565b9150610a6782610dcd565b602082019050919050565b6000610a7f602683610c9e565b9150610a8a82610df6565b604082019050919050565b6000610aa2602283610c9e565b9150610aad82610e45565b604082019050919050565b6000610ac5602283610c9e565b9150610ad082610e94565b604082019050919050565b6000610ae8602083610c9e565b9150610af382610ee3565b602082019050919050565b610b0781610d17565b82525050565b6000602082019050610b2260008301846109ff565b92915050565b6000608082019050610b3d6000830187610a0e565b610b4a6020830186610afe565b610b576040830185610a0e565b610b646060830184610a0e565b95945050505050565b6000602082019050610b826000830184610a1d565b92915050565b60006020820190508181036000830152610ba181610a2c565b9050919050565b60006020820190508181036000830152610bc181610a4f565b9050919050565b60006020820190508181036000830152610be181610a72565b9050919050565b60006020820190508181036000830152610c0181610a95565b9050919050565b60006020820190508181036000830152610c2181610ab8565b9050919050565b60006020820190508181036000830152610c4181610adb565b9050919050565b6000610c52610c63565b9050610c5e8282610d33565b919050565b6000604051905090565b600067ffffffffffffffff821115610c8857610c87610d64565b5b610c9182610d93565b9050602081019050919050565b600082825260208201905092915050565b6000610cba82610cf7565b9050919050565b6000819050919050565b60007fffffffff0000000000000000000000000000000000000000000000000000000082169050919050565b600073ffffffffffffffffffffffffffffffffffffffff82169050919050565b600060ff82169050919050565b82818337600083830152505050565b610d3c82610d93565b810181811067ffffffffffffffff82111715610d5b57610d5a610d64565b5b80604052505050565b7f4e487b7100000000000000000000000000000000000000000000000000000000600052604160045260246000fd5b6000601f19601f8301169050919050565b7f45434453413a20696e76616c6964207369676e61747572650000000000000000600082015250565b7f45434453413a20696e76616c6964207369676e6174757265206c656e67746800600082015250565b7f4f776e61626c653a206e6577206f776e657220697320746865207a65726f206160008201527f6464726573730000000000000000000000000000000000000000000000000000602082015250565b7f45434453413a20696e76616c6964207369676e6174757265202773272076616c60008201527f7565000000000000000000000000000000000000000000000000000000000000602082015250565b7f45434453413a20696e76616c6964207369676e6174757265202776272076616c60008201527f7565000000000000000000000000000000000000000000000000000000000000602082015250565b7f4f776e61626c653a2063616c6c6572206973206e6f7420746865206f776e6572600082015250565b610f1581610caf565b8114610f2057600080fd5b50565b610f2c81610cc1565b8114610f3757600080fd5b5056fea26469706673582212205ac7d79f7c5e2a7b750a75f0f698de4428793ed75134b05ebf61418a8dbf07d564736f6c63430008020033",
  "immutableReferences": {},
  "source": "// SPDX-License-Identifier: MIT\n\npragma solidity ^0.8.0;\n\nimport \"../access/Ownable.sol\";\nimport \"../interfaces/IERC1271.sol\";\nimport \"../utils/cryptography/ECDSA.sol\";\n\ncontract ERC1271WalletMock is Ownable, IERC1271 {\n    constructor(address originalOwner) {\n        transferOwnership(originalOwner);\n    }\n\n    function isValidSignature(bytes32 hash, bytes memory signature) public view override returns (bytes4 magicValue) {\n        return ECDSA.recover(hash, signature) == owner() ? this.isValidSignature.selector : bytes4(0);\n    }\n}\n",
  "sourcePath": "D:\\marketplace\\frontend (2)\\contracts\\openzeppelin-solidity\\contracts\\mocks\\ERC1271WalletMock.sol",
  "compiler": {
    "name": "solc",
    "version": "0.8.2+commit.661d1103.Emscripten.clang"
  },
  "schemaVersion": "3.4.4",
  "updatedAt": "2022-02-01T11:28:51.568Z",
  "devdoc": {
    "kind": "dev",
    "methods": {
      "isValidSignature(bytes32,bytes)": {
        "details": "Should return whether the signature provided is valid for the provided data",
        "params": {
          "hash": "Hash of the data to be signed",
          "signature": "Signature byte array associated with _data"
        }
      },
      "owner()": {
        "details": "Returns the address of the current owner."
      },
      "renounceOwnership()": {
        "details": "Leaves the contract without owner. It will not be possible to call `onlyOwner` functions anymore. Can only be called by the current owner. NOTE: Renouncing ownership will leave the contract without an owner, thereby removing any functionality that is only available to the owner."
      },
      "transferOwnership(address)": {
        "details": "Transfers ownership of the contract to a new account (`newOwner`). Can only be called by the current owner."
      }
    },
    "version": 1
  },
  "userdoc": {
    "kind": "user",
    "methods": {},
    "version": 1
  }
}