{
  "contractName": "GovernorTimelockCompoundMock",
  "abi": [
    {
      "inputs": [
        {
          "internalType": "string",
          "name": "name_",
          "type": "string"
        },
        {
          "internalType": "contract ERC20Votes",
          "name": "token_",
          "type": "address"
        },
        {
          "internalType": "uint256",
          "name": "votingDelay_",
          "type": "uint256"
        },
        {
          "internalType": "uint256",
          "name": "votingPeriod_",
          "type": "uint256"
        },
        {
          "internalType": "contract ICompoundTimelock",
          "name": "timelock_",
          "type": "address"
        },
        {
          "internalType": "uint256",
          "name": "quorumNumerator_",
          "type": "uint256"
        }
      ],
      "stateMutability": "nonpayable",
      "type": "constructor"
    },
    {
      "anonymous": false,
      "inputs": [
        {
          "indexed": false,
          "internalType": "uint256",
          "name": "proposalId",
          "type": "uint256"
        }
      ],
      "name": "ProposalCanceled",
      "type": "event"
    },
    {
      "anonymous": false,
      "inputs": [
        {
          "indexed": false,
          "internalType": "uint256",
          "name": "proposalId",
          "type": "uint256"
        },
        {
          "indexed": false,
          "internalType": "address",
          "name": "proposer",
          "type": "address"
        },
        {
          "indexed": false,
          "internalType": "address[]",
          "name": "targets",
          "type": "address[]"
        },
        {
          "indexed": false,
          "internalType": "uint256[]",
          "name": "values",
          "type": "uint256[]"
        },
        {
          "indexed": false,
          "internalType": "string[]",
          "name": "signatures",
          "type": "string[]"
        },
        {
          "indexed": false,
          "internalType": "bytes[]",
          "name": "calldatas",
          "type": "bytes[]"
        },
        {
          "indexed": false,
          "internalType": "uint256",
          "name": "startBlock",
          "type": "uint256"
        },
        {
          "indexed": false,
          "internalType": "uint256",
          "name": "endBlock",
          "type": "uint256"
        },
        {
          "indexed": false,
          "internalType": "string",
          "name": "description",
          "type": "string"
        }
      ],
      "name": "ProposalCreated",
      "type": "event"
    },
    {
      "anonymous": false,
      "inputs": [
        {
          "indexed": false,
          "internalType": "uint256",
          "name": "proposalId",
          "type": "uint256"
        }
      ],
      "name": "ProposalExecuted",
      "type": "event"
    },
    {
      "anonymous": false,
      "inputs": [
        {
          "indexed": false,
          "internalType": "uint256",
          "name": "proposalId",
          "type": "uint256"
        },
        {
          "indexed": false,
          "internalType": "uint256",
          "name": "eta",
          "type": "uint256"
        }
      ],
      "name": "ProposalQueued",
      "type": "event"
    },
    {
      "anonymous": false,
      "inputs": [
        {
          "indexed": false,
          "internalType": "uint256",
          "name": "oldQuorumNumerator",
          "type": "uint256"
        },
        {
          "indexed": false,
          "internalType": "uint256",
          "name": "newQuorumNumerator",
          "type": "uint256"
        }
      ],
      "name": "QuorumNumeratorUpdated",
      "type": "event"
    },
    {
      "anonymous": false,
      "inputs": [
        {
          "indexed": false,
          "internalType": "address",
          "name": "oldTimelock",
          "type": "address"
        },
        {
          "indexed": false,
          "internalType": "address",
          "name": "newTimelock",
          "type": "address"
        }
      ],
      "name": "TimelockChange",
      "type": "event"
    },
    {
      "anonymous": false,
      "inputs": [
        {
          "indexed": true,
          "internalType": "address",
          "name": "voter",
          "type": "address"
        },
        {
          "indexed": false,
          "internalType": "uint256",
          "name": "proposalId",
          "type": "uint256"
        },
        {
          "indexed": false,
          "internalType": "uint8",
          "name": "support",
          "type": "uint8"
        },
        {
          "indexed": false,
          "internalType": "uint256",
          "name": "weight",
          "type": "uint256"
        },
        {
          "indexed": false,
          "internalType": "string",
          "name": "reason",
          "type": "string"
        }
      ],
      "name": "VoteCast",
      "type": "event"
    },
    {
      "inputs": [],
      "name": "BALLOT_TYPEHASH",
      "outputs": [
        {
          "internalType": "bytes32",
          "name": "",
          "type": "bytes32"
        }
      ],
      "stateMutability": "view",
      "type": "function"
    },
    {
      "inputs": [],
      "name": "COUNTING_MODE",
      "outputs": [
        {
          "internalType": "string",
          "name": "",
          "type": "string"
        }
      ],
      "stateMutability": "pure",
      "type": "function"
    },
    {
      "inputs": [],
      "name": "__acceptAdmin",
      "outputs": [],
      "stateMutability": "nonpayable",
      "type": "function"
    },
    {
      "inputs": [
        {
          "internalType": "uint256",
          "name": "proposalId",
          "type": "uint256"
        },
        {
          "internalType": "uint8",
          "name": "support",
          "type": "uint8"
        }
      ],
      "name": "castVote",
      "outputs": [
        {
          "internalType": "uint256",
          "name": "",
          "type": "uint256"
        }
      ],
      "stateMutability": "nonpayable",
      "type": "function"
    },
    {
      "inputs": [
        {
          "internalType": "uint256",
          "name": "proposalId",
          "type": "uint256"
        },
        {
          "internalType": "uint8",
          "name": "support",
          "type": "uint8"
        },
        {
          "internalType": "uint8",
          "name": "v",
          "type": "uint8"
        },
        {
          "internalType": "bytes32",
          "name": "r",
          "type": "bytes32"
        },
        {
          "internalType": "bytes32",
          "name": "s",
          "type": "bytes32"
        }
      ],
      "name": "castVoteBySig",
      "outputs": [
        {
          "internalType": "uint256",
          "name": "",
          "type": "uint256"
        }
      ],
      "stateMutability": "nonpayable",
      "type": "function"
    },
    {
      "inputs": [
        {
          "internalType": "uint256",
          "name": "proposalId",
          "type": "uint256"
        },
        {
          "internalType": "uint8",
          "name": "support",
          "type": "uint8"
        },
        {
          "internalType": "string",
          "name": "reason",
          "type": "string"
        }
      ],
      "name": "castVoteWithReason",
      "outputs": [
        {
          "internalType": "uint256",
          "name": "",
          "type": "uint256"
        }
      ],
      "stateMutability": "nonpayable",
      "type": "function"
    },
    {
      "inputs": [
        {
          "internalType": "address[]",
          "name": "targets",
          "type": "address[]"
        },
        {
          "internalType": "uint256[]",
          "name": "values",
          "type": "uint256[]"
        },
        {
          "internalType": "bytes[]",
          "name": "calldatas",
          "type": "bytes[]"
        },
        {
          "internalType": "bytes32",
          "name": "descriptionHash",
          "type": "bytes32"
        }
      ],
      "name": "execute",
      "outputs": [
        {
          "internalType": "uint256",
          "name": "",
          "type": "uint256"
        }
      ],
      "stateMutability": "payable",
      "type": "function"
    },
    {
      "inputs": [
        {
          "internalType": "uint256",
          "name": "proposalId",
          "type": "uint256"
        },
        {
          "internalType": "address",
          "name": "account",
          "type": "address"
        }
      ],
      "name": "hasVoted",
      "outputs": [
        {
          "internalType": "bool",
          "name": "",
          "type": "bool"
        }
      ],
      "stateMutability": "view",
      "type": "function"
    },
    {
      "inputs": [
        {
          "internalType": "address[]",
          "name": "targets",
          "type": "address[]"
        },
        {
          "internalType": "uint256[]",
          "name": "values",
          "type": "uint256[]"
        },
        {
          "internalType": "bytes[]",
          "name": "calldatas",
          "type": "bytes[]"
        },
        {
          "internalType": "bytes32",
          "name": "descriptionHash",
          "type": "bytes32"
        }
      ],
      "name": "hashProposal",
      "outputs": [
        {
          "internalType": "uint256",
          "name": "",
          "type": "uint256"
        }
      ],
      "stateMutability": "pure",
      "type": "function"
    },
    {
      "inputs": [],
      "name": "name",
      "outputs": [
        {
          "internalType": "string",
          "name": "",
          "type": "string"
        }
      ],
      "stateMutability": "view",
      "type": "function"
    },
    {
      "inputs": [
        {
          "internalType": "uint256",
          "name": "proposalId",
          "type": "uint256"
        }
      ],
      "name": "proposalDeadline",
      "outputs": [
        {
          "internalType": "uint256",
          "name": "",
          "type": "uint256"
        }
      ],
      "stateMutability": "view",
      "type": "function"
    },
    {
      "inputs": [
        {
          "internalType": "uint256",
          "name": "proposalId",
          "type": "uint256"
        }
      ],
      "name": "proposalEta",
      "outputs": [
        {
          "internalType": "uint256",
          "name": "",
          "type": "uint256"
        }
      ],
      "stateMutability": "view",
      "type": "function"
    },
    {
      "inputs": [
        {
          "internalType": "uint256",
          "name": "proposalId",
          "type": "uint256"
        }
      ],
      "name": "proposalSnapshot",
      "outputs": [
        {
          "internalType": "uint256",
          "name": "",
          "type": "uint256"
        }
      ],
      "stateMutability": "view",
      "type": "function"
    },
    {
      "inputs": [
        {
          "internalType": "uint256",
          "name": "proposalId",
          "type": "uint256"
        }
      ],
      "name": "proposalVotes",
      "outputs": [
        {
          "internalType": "uint256",
          "name": "againstVotes",
          "type": "uint256"
        },
        {
          "internalType": "uint256",
          "name": "forVotes",
          "type": "uint256"
        },
        {
          "internalType": "uint256",
          "name": "abstainVotes",
          "type": "uint256"
        }
      ],
      "stateMutability": "view",
      "type": "function"
    },
    {
      "inputs": [
        {
          "internalType": "address[]",
          "name": "targets",
          "type": "address[]"
        },
        {
          "internalType": "uint256[]",
          "name": "values",
          "type": "uint256[]"
        },
        {
          "internalType": "bytes[]",
          "name": "calldatas",
          "type": "bytes[]"
        },
        {
          "internalType": "string",
          "name": "description",
          "type": "string"
        }
      ],
      "name": "propose",
      "outputs": [
        {
          "internalType": "uint256",
          "name": "",
          "type": "uint256"
        }
      ],
      "stateMutability": "nonpayable",
      "type": "function"
    },
    {
      "inputs": [
        {
          "internalType": "address[]",
          "name": "targets",
          "type": "address[]"
        },
        {
          "internalType": "uint256[]",
          "name": "values",
          "type": "uint256[]"
        },
        {
          "internalType": "bytes[]",
          "name": "calldatas",
          "type": "bytes[]"
        },
        {
          "internalType": "bytes32",
          "name": "descriptionHash",
          "type": "bytes32"
        }
      ],
      "name": "queue",
      "outputs": [
        {
          "internalType": "uint256",
          "name": "",
          "type": "uint256"
        }
      ],
      "stateMutability": "nonpayable",
      "type": "function"
    },
    {
      "inputs": [],
      "name": "quorumDenominator",
      "outputs": [
        {
          "internalType": "uint256",
          "name": "",
          "type": "uint256"
        }
      ],
      "stateMutability": "view",
      "type": "function"
    },
    {
      "inputs": [],
      "name": "quorumNumerator",
      "outputs": [
        {
          "internalType": "uint256",
          "name": "",
          "type": "uint256"
        }
      ],
      "stateMutability": "view",
      "type": "function"
    },
    {
      "inputs": [],
      "name": "timelock",
      "outputs": [
        {
          "internalType": "address",
          "name": "",
          "type": "address"
        }
      ],
      "stateMutability": "view",
      "type": "function"
    },
    {
      "inputs": [],
      "name": "token",
      "outputs": [
        {
          "internalType": "contract ERC20Votes",
          "name": "",
          "type": "address"
        }
      ],
      "stateMutability": "view",
      "type": "function"
    },
    {
      "inputs": [
        {
          "internalType": "uint256",
          "name": "newQuorumNumerator",
          "type": "uint256"
        }
      ],
      "name": "updateQuorumNumerator",
      "outputs": [],
      "stateMutability": "nonpayable",
      "type": "function"
    },
    {
      "inputs": [
        {
          "internalType": "contract ICompoundTimelock",
          "name": "newTimelock",
          "type": "address"
        }
      ],
      "name": "updateTimelock",
      "outputs": [],
      "stateMutability": "nonpayable",
      "type": "function"
    },
    {
      "inputs": [],
      "name": "version",
      "outputs": [
        {
          "internalType": "string",
          "name": "",
          "type": "string"
        }
      ],
      "stateMutability": "view",
      "type": "function"
    },
    {
      "stateMutability": "payable",
      "type": "receive"
    },
    {
      "inputs": [
        {
          "internalType": "bytes4",
          "name": "interfaceId",
          "type": "bytes4"
        }
      ],
      "name": "supportsInterface",
      "outputs": [
        {
          "internalType": "bool",
          "name": "",
          "type": "bool"
        }
      ],
      "stateMutability": "view",
      "type": "function"
    },
    {
      "inputs": [],
      "name": "votingDelay",
      "outputs": [
        {
          "internalType": "uint256",
          "name": "",
          "type": "uint256"
        }
      ],
      "stateMutability": "view",
      "type": "function"
    },
    {
      "inputs": [],
      "name": "votingPeriod",
      "outputs": [
        {
          "internalType": "uint256",
          "name": "",
          "type": "uint256"
        }
      ],
      "stateMutability": "view",
      "type": "function"
    },
    {
      "inputs": [
        {
          "internalType": "uint256",
          "name": "blockNumber",
          "type": "uint256"
        }
      ],
      "name": "quorum",
      "outputs": [
        {
          "internalType": "uint256",
          "name": "",
          "type": "uint256"
        }
      ],
      "stateMutability": "view",
      "type": "function"
    },
    {
      "inputs": [
        {
          "internalType": "address[]",
          "name": "targets",
          "type": "address[]"
        },
        {
          "internalType": "uint256[]",
          "name": "values",
          "type": "uint256[]"
        },
        {
          "internalType": "bytes[]",
          "name": "calldatas",
          "type": "bytes[]"
        },
        {
          "internalType": "bytes32",
          "name": "salt",
          "type": "bytes32"
        }
      ],
      "name": "cancel",
      "outputs": [
        {
          "internalType": "uint256",
          "name": "proposalId",
          "type": "uint256"
        }
      ],
      "stateMutability": "nonpayable",
      "type": "function"
    },
    {
      "inputs": [
        {
          "internalType": "uint256",
          "name": "proposalId",
          "type": "uint256"
        }
      ],
      "name": "state",
      "outputs": [
        {
          "internalType": "enum IGovernor.ProposalState",
          "name": "",
          "type": "uint8"
        }
      ],
      "stateMutability": "view",
      "type": "function"
    },
    {
      "inputs": [
        {
          "internalType": "address",
          "name": "account",
          "type": "address"
        },
        {
          "internalType": "uint256",
          "name": "blockNumber",
          "type": "uint256"
        }
      ],
      "name": "getVotes",
      "outputs": [
        {
          "internalType": "uint256",
          "name": "",
          "type": "uint256"
        }
      ],
      "stateMutability": "view",
      "type": "function"
    }
  ],
  "bytecode": "0x6101806040523480156200001257600080fd5b506040516200605b3803806200605b83398181016040528101906200003891906200048b565b80858388806200004d6200015f60201b60201c565b60008280519060200120905060008280519060200120905060007f8b73c3c69bb8fe3d512ecc4cf759cc79239f7b179b0ffacaa9a75d522b39400f90508260c081815250508160e081815250504660a08181525050620000b58184846200019c60201b60201c565b6080818152505080610100818152505050505050508060009080519060200190620000e292919062000324565b5050620000f581620001d860201b60201c565b508073ffffffffffffffffffffffffffffffffffffffff166101208173ffffffffffffffffffffffffffffffffffffffff1660601b815250505062000140816200027960201b60201c565b5083610140818152505082610160818152505050505050505062000935565b60606040518060400160405280600181526020017f3100000000000000000000000000000000000000000000000000000000000000815250905090565b60008383834630604051602001620001b9959493929190620005c1565b6040516020818303038152906040528051906020012090509392505050565b7f08f74ea46ef7894f65eabfb5e6e695de773a000b47c529ab559178069b226401600260009054906101000a900473ffffffffffffffffffffffffffffffffffffffff16826040516200022d92919062000594565b60405180910390a180600260006101000a81548173ffffffffffffffffffffffffffffffffffffffff021916908373ffffffffffffffffffffffffffffffffffffffff16021790555050565b620002896200031b60201b60201c565b811115620002ce576040517f08c379a0000000000000000000000000000000000000000000000000000000008152600401620002c5906200061e565b60405180910390fd5b60006004549050816004819055507f0553476bf02ef2726e8ce5ced78d63e26e602e4a2257b1f559418e24b463399781836040516200030f92919062000640565b60405180910390a15050565b60006064905090565b828054620003329062000797565b90600052602060002090601f016020900481019282620003565760008555620003a2565b82601f106200037157805160ff1916838001178555620003a2565b82800160010185558215620003a2579182015b82811115620003a157825182559160200191906001019062000384565b5b509050620003b19190620003b5565b5090565b5b80821115620003d0576000816000905550600101620003b6565b5090565b6000620003eb620003e58462000696565b6200066d565b9050828152602081018484840111156200040457600080fd5b6200041184828562000761565b509392505050565b6000815190506200042a81620008e7565b92915050565b600081519050620004418162000901565b92915050565b600082601f8301126200045957600080fd5b81516200046b848260208601620003d4565b91505092915050565b60008151905062000485816200091b565b92915050565b60008060008060008060c08789031215620004a557600080fd5b600087015167ffffffffffffffff811115620004c057600080fd5b620004ce89828a0162000447565b9650506020620004e189828a0162000419565b9550506040620004f489828a0162000474565b94505060606200050789828a0162000474565b93505060806200051a89828a0162000430565b92505060a06200052d89828a0162000474565b9150509295509295509295565b6200054581620006dd565b82525050565b620005568162000705565b82525050565b60006200056b604383620006cc565b9150620005788262000872565b606082019050919050565b6200058e8162000757565b82525050565b6000604082019050620005ab60008301856200053a565b620005ba60208301846200053a565b9392505050565b600060a082019050620005d860008301886200054b565b620005e760208301876200054b565b620005f660408301866200054b565b62000605606083018562000583565b6200061460808301846200053a565b9695505050505050565b6000602082019050818103600083015262000639816200055c565b9050919050565b600060408201905062000657600083018562000583565b62000666602083018462000583565b9392505050565b6000620006796200068c565b9050620006878282620007cd565b919050565b6000604051905090565b600067ffffffffffffffff821115620006b457620006b362000832565b5b620006bf8262000861565b9050602081019050919050565b600082825260208201905092915050565b6000620006ea8262000737565b9050919050565b6000620006fe8262000737565b9050919050565b6000819050919050565b60006200071c82620006dd565b9050919050565b60006200073082620006f1565b9050919050565b600073ffffffffffffffffffffffffffffffffffffffff82169050919050565b6000819050919050565b60005b838110156200078157808201518184015260208101905062000764565b8381111562000791576000848401525b50505050565b60006002820490506001821680620007b057607f821691505b60208210811415620007c757620007c662000803565b5b50919050565b620007d88262000861565b810181811067ffffffffffffffff82111715620007fa57620007f962000832565b5b80604052505050565b7f4e487b7100000000000000000000000000000000000000000000000000000000600052602260045260246000fd5b7f4e487b7100000000000000000000000000000000000000000000000000000000600052604160045260246000fd5b6000601f19601f8301169050919050565b7f476f7665726e6f72566f74657351756f72756d4672616374696f6e3a2071756f60008201527f72756d4e756d657261746f72206f7665722071756f72756d44656e6f6d696e6160208201527f746f720000000000000000000000000000000000000000000000000000000000604082015250565b620008f2816200070f565b8114620008fe57600080fd5b50565b6200090c8162000723565b81146200091857600080fd5b50565b620009268162000757565b81146200093257600080fd5b50565b60805160a05160c05160e051610100516101205160601c61014051610160516156af620009ac600039600061085a0152600061112f01526000818161193001528181611fa9015261206e0152600061241c0152600061245e0152600061243d015260006123c9015260006123f101526156af6000f3fe6080604052600436106101d15760003560e01c80637b3c71d3116100f7578063c01f9e3711610095578063deaaa7cc11610064578063deaaa7cc14610765578063eb9019d414610790578063f8ce560a146107cd578063fc0c546a1461080a57610217565b8063c01f9e3714610695578063c59057e4146106d2578063d33219b41461070f578063dd4e2ba51461073a57610217565b8063a7713a70116100d1578063a7713a70146105ed578063a890c91014610618578063ab58fb8e14610641578063b9a619611461067e57610217565b80637b3c71d3146105485780637d5e81e21461058557806397c3d334146105c257610217565b80633932abb11161016f578063452115d61161013e578063452115d614610464578063544ffc9c146104a157806354fd4d50146104e0578063567813881461050b57610217565b80633932abb1146103825780633bccf4fd146103ad5780633e4f49e6146103ea578063438596321461042757610217565b806306fdde03116101ab57806306fdde03146102ad578063160cbed7146102d85780632656227d146103155780632d63f6931461034557610217565b806301ffc9a71461021c57806302a251a31461025957806306f3f9e61461028457610217565b36610217573073ffffffffffffffffffffffffffffffffffffffff166101f5610835565b73ffffffffffffffffffffffffffffffffffffffff161461021557600080fd5b005b600080fd5b34801561022857600080fd5b50610243600480360381019061023e91906139e0565b610844565b6040516102509190614446565b60405180910390f35b34801561026557600080fd5b5061026e610856565b60405161027b9190614823565b60405180910390f35b34801561029057600080fd5b506102ab60048036038101906102a69190613a73565b61087e565b005b3480156102b957600080fd5b506102c2610906565b6040516102cf9190614581565b60405180910390f35b3480156102e457600080fd5b506102ff60048036038101906102fa9190613820565b610998565b60405161030c9190614823565b60405180910390f35b61032f600480360381019061032a9190613820565b610ef2565b60405161033c9190614823565b60405180910390f35b34801561035157600080fd5b5061036c60048036038101906103679190613a73565b6110bd565b6040516103799190614823565b60405180910390f35b34801561038e57600080fd5b5061039761112b565b6040516103a49190614823565b60405180910390f35b3480156103b957600080fd5b506103d460048036038101906103cf9190613ba9565b611153565b6040516103e19190614823565b60405180910390f35b3480156103f657600080fd5b50610411600480360381019061040c9190613a73565b6111dd565b60405161041e9190614566565b60405180910390f35b34801561043357600080fd5b5061044e60048036038101906104499190613ac5565b6111ef565b60405161045b9190614446565b60405180910390f35b34801561047057600080fd5b5061048b60048036038101906104869190613820565b61125a565b6040516104989190614823565b60405180910390f35b3480156104ad57600080fd5b506104c860048036038101906104c39190613a73565b611272565b6040516104d793929190614917565b60405180910390f35b3480156104ec57600080fd5b506104f56112aa565b6040516105029190614581565b60405180910390f35b34801561051757600080fd5b50610532600480360381019061052d9190613b01565b6112e7565b60405161053f9190614823565b60405180910390f35b34801561055457600080fd5b5061056f600480360381019061056a9190613b3d565b611318565b60405161057c9190614823565b60405180910390f35b34801561059157600080fd5b506105ac60048036038101906105a791906138cb565b611380565b6040516105b99190614823565b60405180910390f35b3480156105ce57600080fd5b506105d7611646565b6040516105e49190614823565b60405180910390f35b3480156105f957600080fd5b5061060261164f565b60405161060f9190614823565b60405180910390f35b34801561062457600080fd5b5061063f600480360381019061063a9190613a4a565b611659565b005b34801561064d57600080fd5b5061066860048036038101906106639190613a73565b6116e1565b6040516106759190614823565b60405180910390f35b34801561068a57600080fd5b5061069361174f565b005b3480156106a157600080fd5b506106bc60048036038101906106b79190613a73565b6117d3565b6040516106c99190614823565b60405180910390f35b3480156106de57600080fd5b506106f960048036038101906106f49190613820565b611841565b6040516107069190614823565b60405180910390f35b34801561071b57600080fd5b5061072461187d565b6040516107319190614320565b60405180910390f35b34801561074657600080fd5b5061074f6118a7565b60405161075c9190614581565b60405180910390f35b34801561077157600080fd5b5061077a6118e4565b6040516107879190614461565b60405180910390f35b34801561079c57600080fd5b506107b760048036038101906107b291906137e4565b611908565b6040516107c49190614823565b60405180910390f35b3480156107d957600080fd5b506107f460048036038101906107ef9190613a73565b61191c565b6040516108019190614823565b60405180910390f35b34801561081657600080fd5b5061081f61192e565b60405161082c919061454b565b60405180910390f35b600061083f611952565b905090565b600061084f8261197c565b9050919050565b60007f0000000000000000000000000000000000000000000000000000000000000000905090565b610886610835565b73ffffffffffffffffffffffffffffffffffffffff166108a46119f6565b73ffffffffffffffffffffffffffffffffffffffff16146108fa576040517f08c379a00000000000000000000000000000000000000000000000000000000081526004016108f1906145c3565b60405180910390fd5b610903816119fe565b50565b60606000805461091590614e78565b80601f016020809104026020016040519081016040528092919081815260200182805461094190614e78565b801561098e5780601f106109635761010080835404028352916020019161098e565b820191906000526020600020905b81548152906001019060200180831161097157829003601f168201915b5050505050905090565b6000806109a786868686611841565b9050600460078111156109e3577f4e487b7100000000000000000000000000000000000000000000000000000000600052602160045260246000fd5b6109ec826111dd565b6007811115610a24577f4e487b7100000000000000000000000000000000000000000000000000000000600052602160045260246000fd5b14610a64576040517f08c379a0000000000000000000000000000000000000000000000000000000008152600401610a5b90614783565b60405180910390fd5b6000600260009054906101000a900473ffffffffffffffffffffffffffffffffffffffff1673ffffffffffffffffffffffffffffffffffffffff16636a42b8f86040518163ffffffff1660e01b815260040160206040518083038186803b158015610ace57600080fd5b505afa158015610ae2573d6000803e3d6000fd5b505050506040513d601f19601f82011682018060405250810190610b069190613a9c565b42610b119190614bf9565b9050610b43610b1f82611a93565b60036000858152602001908152602001600020600001611aea90919063ffffffff16565b60005b8751811015610eab57600260009054906101000a900473ffffffffffffffffffffffffffffffffffffffff1673ffffffffffffffffffffffffffffffffffffffff1663f2b06537898381518110610bc6577f4e487b7100000000000000000000000000000000000000000000000000000000600052603260045260246000fd5b6020026020010151898481518110610c07577f4e487b7100000000000000000000000000000000000000000000000000000000600052603260045260246000fd5b6020026020010151898581518110610c48577f4e487b7100000000000000000000000000000000000000000000000000000000600052603260045260246000fd5b602002602001015186604051602001610c64949392919061438d565b604051602081830303815290604052805190602001206040518263ffffffff1660e01b8152600401610c969190614461565b60206040518083038186803b158015610cae57600080fd5b505afa158015610cc2573d6000803e3d6000fd5b505050506040513d601f19601f82011682018060405250810190610ce6919061398e565b15610d26576040517f08c379a0000000000000000000000000000000000000000000000000000000008152600401610d1d90614643565b60405180910390fd5b600260009054906101000a900473ffffffffffffffffffffffffffffffffffffffff1673ffffffffffffffffffffffffffffffffffffffff16633a66f901898381518110610d9d577f4e487b7100000000000000000000000000000000000000000000000000000000600052603260045260246000fd5b6020026020010151898481518110610dde577f4e487b7100000000000000000000000000000000000000000000000000000000600052603260045260246000fd5b6020026020010151898581518110610e1f577f4e487b7100000000000000000000000000000000000000000000000000000000600052603260045260246000fd5b6020026020010151866040518563ffffffff1660e01b8152600401610e47949392919061438d565b602060405180830381600087803b158015610e6157600080fd5b505af1158015610e75573d6000803e3d6000fd5b505050506040513d601f19601f82011682018060405250810190610e9991906139b7565b5080610ea490614edb565b9050610b46565b507f9a2e42fd6722813d69113e7d0079d3d940171428df7373df9c7f7617cfda28928282604051610edd9291906148ee565b60405180910390a18192505050949350505050565b600080610f0186868686611841565b90506000610f0e826111dd565b905060046007811115610f4a577f4e487b7100000000000000000000000000000000000000000000000000000000600052602160045260246000fd5b816007811115610f83577f4e487b7100000000000000000000000000000000000000000000000000000000600052602160045260246000fd5b1480610fff575060056007811115610fc4577f4e487b7100000000000000000000000000000000000000000000000000000000600052602160045260246000fd5b816007811115610ffd577f4e487b7100000000000000000000000000000000000000000000000000000000600052602160045260246000fd5b145b61103e576040517f08c379a000000000000000000000000000000000000000000000000000000000815260040161103590614783565b60405180910390fd5b600180600084815260200190815260200160002060020160006101000a81548160ff0219169083151502179055507f712ae1383f79ac853f8d882153778e0260ef8f03b504e2866e0593e04d2b291f8260405161109b9190614823565b60405180910390a16110b08288888888611b19565b8192505050949350505050565b600061111a600160008481526020019081526020016000206000016040518060200160405290816000820160009054906101000a900467ffffffffffffffff1667ffffffffffffffff1667ffffffffffffffff1681525050611b2d565b67ffffffffffffffff169050919050565b60007f0000000000000000000000000000000000000000000000000000000000000000905090565b6000806111b46111ac7f150214d74d59b7d1e90c73fc22ef3d991dd0a76b046543d4d80ab92d2a50328f8989604051602001611191939291906144cf565b60405160208183030381529060405280519060200120611b3b565b868686611b55565b90506111d187828860405180602001604052806000815250611b80565b91505095945050505050565b60006111e882611d20565b9050919050565b60006005600084815260200190815260200160002060030160008373ffffffffffffffffffffffffffffffffffffffff1673ffffffffffffffffffffffffffffffffffffffff16815260200190815260200160002060009054906101000a900460ff16905092915050565b600061126885858585611e97565b9050949350505050565b600080600080600560008681526020019081526020016000209050806000015481600101548260020154935093509350509193909250565b60606040518060400160405280600181526020017f3100000000000000000000000000000000000000000000000000000000000000815250905090565b6000806112f26119f6565b905061130f84828560405180602001604052806000815250611b80565b91505092915050565b6000806113236119f6565b905061137586828787878080601f016020809104026020016040519081016040528093929190818152602001838380828437600081840152601f19601f82011690508083019250505050505050611b80565b915050949350505050565b6000806113968686868680519060200120611841565b905084518651146113dc576040517f08c379a00000000000000000000000000000000000000000000000000000000081526004016113d390614623565b60405180910390fd5b8351865114611420576040517f08c379a000000000000000000000000000000000000000000000000000000000815260040161141790614623565b60405180910390fd5b6000865111611464576040517f08c379a000000000000000000000000000000000000000000000000000000000815260040161145b90614703565b60405180910390fd5b60006001600083815260200190815260200160002090506114c4816000016040518060200160405290816000820160009054906101000a900467ffffffffffffffff1667ffffffffffffffff1667ffffffffffffffff1681525050611eaf565b611503576040517f08c379a00000000000000000000000000000000000000000000000000000000081526004016114fa90614803565b60405180910390fd5b600061151561151061112b565b611a93565b61151e43611a93565b6115289190614c4f565b9050600061153c611537610856565b611a93565b826115479190614c4f565b905061155f8284600001611ec990919063ffffffff16565b6115758184600101611ec990919063ffffffff16565b7f7d84a6263ae0d98d3329bd7b46bb4e8d6f98cd35a7adb45c274c8b7fd5ebd5e08461159f6119f6565b8b8b8d5167ffffffffffffffff8111156115e2577f4e487b7100000000000000000000000000000000000000000000000000000000600052604160045260246000fd5b60405190808252806020026020018201604052801561161557816020015b60608152602001906001900390816116005790505b508c88888e60405161162f9998979695949392919061483e565b60405180910390a183945050505050949350505050565b60006064905090565b6000600454905090565b611661610835565b73ffffffffffffffffffffffffffffffffffffffff1661167f6119f6565b73ffffffffffffffffffffffffffffffffffffffff16146116d5576040517f08c379a00000000000000000000000000000000000000000000000000000000081526004016116cc906145c3565b60405180910390fd5b6116de81611ef8565b50565b600061173e600360008481526020019081526020016000206000016040518060200160405290816000820160009054906101000a900467ffffffffffffffff1667ffffffffffffffff1667ffffffffffffffff1681525050611f97565b67ffffffffffffffff169050919050565b600260009054906101000a900473ffffffffffffffffffffffffffffffffffffffff1673ffffffffffffffffffffffffffffffffffffffff16630e18b6816040518163ffffffff1660e01b8152600401600060405180830381600087803b1580156117b957600080fd5b505af11580156117cd573d6000803e3d6000fd5b50505050565b6000611830600160008481526020019081526020016000206001016040518060200160405290816000820160009054906101000a900467ffffffffffffffff1667ffffffffffffffff1667ffffffffffffffff1681525050611b2d565b67ffffffffffffffff169050919050565b60008484848460405160200161185a94939291906143ec565b6040516020818303038152906040528051906020012060001c9050949350505050565b6000600260009054906101000a900473ffffffffffffffffffffffffffffffffffffffff16905090565b60606040518060400160405280602081526020017f737570706f72743d627261766f2671756f72756d3d666f722c6162737461696e815250905090565b7f150214d74d59b7d1e90c73fc22ef3d991dd0a76b046543d4d80ab92d2a50328f81565b60006119148383611fa5565b905092915050565b60006119278261205a565b9050919050565b7f000000000000000000000000000000000000000000000000000000000000000081565b6000600260009054906101000a900473ffffffffffffffffffffffffffffffffffffffff16905090565b60007f6e665ced000000000000000000000000000000000000000000000000000000007bffffffffffffffffffffffffffffffffffffffffffffffffffffffff1916827bffffffffffffffffffffffffffffffffffffffffffffffffffffffff191614806119ef57506119ee82612130565b5b9050919050565b600033905090565b611a06611646565b811115611a48576040517f08c379a0000000000000000000000000000000000000000000000000000000008152600401611a3f906145e3565b60405180910390fd5b60006004549050816004819055507f0553476bf02ef2726e8ce5ced78d63e26e602e4a2257b1f559418e24b46339978183604051611a879291906148ee565b60405180910390a15050565b600067ffffffffffffffff8016821115611ae2576040517f08c379a0000000000000000000000000000000000000000000000000000000008152600401611ad990614743565b60405180910390fd5b819050919050565b808260000160006101000a81548167ffffffffffffffff021916908367ffffffffffffffff1602179055505050565b611b2685858585856121aa565b5050505050565b600081600001519050919050565b6000611b4e611b486123c5565b83612488565b9050919050565b6000806000611b66878787876124bb565b91509150611b73816125c8565b8192505050949350505050565b60008060016000878152602001908152602001600020905060016007811115611bd2577f4e487b7100000000000000000000000000000000000000000000000000000000600052602160045260246000fd5b611bdb876111dd565b6007811115611c13577f4e487b7100000000000000000000000000000000000000000000000000000000600052602160045260246000fd5b14611c53576040517f08c379a0000000000000000000000000000000000000000000000000000000008152600401611c4a906146e3565b60405180910390fd5b6000611cb186611ca2846000016040518060200160405290816000820160009054906101000a900467ffffffffffffffff1667ffffffffffffffff1667ffffffffffffffff1681525050611b2d565b67ffffffffffffffff16611908565b9050611cbf87878784612919565b8573ffffffffffffffffffffffffffffffffffffffff167fb8e138887d0aa13bab447e82de9d5c1777041ecd21ca36ba824ff1e6c07ddda488878488604051611d0b949392919061494e565b60405180910390a28092505050949350505050565b600080611d2c83612b91565b905060046007811115611d68577f4e487b7100000000000000000000000000000000000000000000000000000000600052602160045260246000fd5b816007811115611da1577f4e487b7100000000000000000000000000000000000000000000000000000000600052602160045260246000fd5b14611daf5780915050611e92565b6000611dba846116e1565b90506000811415611dcf578192505050611e92565b600260009054906101000a900473ffffffffffffffffffffffffffffffffffffffff1673ffffffffffffffffffffffffffffffffffffffff1663c1a287e26040518163ffffffff1660e01b815260040160206040518083038186803b158015611e3757600080fd5b505afa158015611e4b573d6000803e3d6000fd5b505050506040513d601f19601f82011682018060405250810190611e6f9190613a9c565b81611e7a9190614bf9565b4210611e8b57600692505050611e92565b6005925050505b919050565b6000611ea585858585612d58565b9050949350505050565b600080826000015167ffffffffffffffff16149050919050565b808260000160006101000a81548167ffffffffffffffff021916908367ffffffffffffffff1602179055505050565b7f08f74ea46ef7894f65eabfb5e6e695de773a000b47c529ab559178069b226401600260009054906101000a900473ffffffffffffffffffffffffffffffffffffffff1682604051611f4b92919061433b565b60405180910390a180600260006101000a81548173ffffffffffffffffffffffffffffffffffffffff021916908373ffffffffffffffffffffffffffffffffffffffff16021790555050565b600081600001519050919050565b60007f000000000000000000000000000000000000000000000000000000000000000073ffffffffffffffffffffffffffffffffffffffff16633a46b1a884846040518363ffffffff1660e01b8152600401612002929190614364565b60206040518083038186803b15801561201a57600080fd5b505afa15801561202e573d6000803e3d6000fd5b505050506040513d601f19601f820116820180604052508101906120529190613a9c565b905092915050565b6000612064611646565b61206c61164f565b7f000000000000000000000000000000000000000000000000000000000000000073ffffffffffffffffffffffffffffffffffffffff16638e539e8c856040518263ffffffff1660e01b81526004016120c59190614823565b60206040518083038186803b1580156120dd57600080fd5b505afa1580156120f1573d6000803e3d6000fd5b505050506040513d601f19601f820116820180604052508101906121159190613a9c565b61211f9190614cbe565b6121299190614c8d565b9050919050565b60007fbf26d897000000000000000000000000000000000000000000000000000000007bffffffffffffffffffffffffffffffffffffffffffffffffffffffff1916827bffffffffffffffffffffffffffffffffffffffffffffffffffffffff191614806121a357506121a282612f1c565b5b9050919050565b60006121b5866116e1565b9050600081116121fa576040517f08c379a00000000000000000000000000000000000000000000000000000000081526004016121f1906147a3565b60405180910390fd5b612226600260009054906101000a900473ffffffffffffffffffffffffffffffffffffffff1634612f86565b60005b85518110156123bc57600260009054906101000a900473ffffffffffffffffffffffffffffffffffffffff1673ffffffffffffffffffffffffffffffffffffffff16630825f38f8783815181106122a9577f4e487b7100000000000000000000000000000000000000000000000000000000600052603260045260246000fd5b60200260200101518784815181106122ea577f4e487b7100000000000000000000000000000000000000000000000000000000600052603260045260246000fd5b602002602001015187858151811061232b577f4e487b7100000000000000000000000000000000000000000000000000000000600052603260045260246000fd5b6020026020010151866040518563ffffffff1660e01b8152600401612353949392919061438d565b600060405180830381600087803b15801561236d57600080fd5b505af1158015612381573d6000803e3d6000fd5b505050506040513d6000823e3d601f19601f820116820180604052508101906123aa9190613a09565b50806123b590614edb565b9050612229565b50505050505050565b60007f0000000000000000000000000000000000000000000000000000000000000000461415612417577f00000000000000000000000000000000000000000000000000000000000000009050612485565b6124827f00000000000000000000000000000000000000000000000000000000000000007f00000000000000000000000000000000000000000000000000000000000000007f000000000000000000000000000000000000000000000000000000000000000061307a565b90505b90565b6000828260405160200161249d9291906142d4565b60405160208183030381529060405280519060200120905092915050565b6000807f7fffffffffffffffffffffffffffffff5d576e7357a4501ddfe92f46681b20a08360001c11156124f65760006003915091506125bf565b601b8560ff161415801561250e5750601c8560ff1614155b156125205760006004915091506125bf565b6000600187878787604051600081526020016040526040516125459493929190614506565b6020604051602081039080840390855afa158015612567573d6000803e3d6000fd5b505050602060405103519050600073ffffffffffffffffffffffffffffffffffffffff168173ffffffffffffffffffffffffffffffffffffffff1614156125b6576000600192509250506125bf565b80600092509250505b94509492505050565b60006004811115612602577f4e487b7100000000000000000000000000000000000000000000000000000000600052602160045260246000fd5b81600481111561263b577f4e487b7100000000000000000000000000000000000000000000000000000000600052602160045260246000fd5b141561264657612916565b60016004811115612680577f4e487b7100000000000000000000000000000000000000000000000000000000600052602160045260246000fd5b8160048111156126b9577f4e487b7100000000000000000000000000000000000000000000000000000000600052602160045260246000fd5b14156126fa576040517f08c379a00000000000000000000000000000000000000000000000000000000081526004016126f1906145a3565b60405180910390fd5b60026004811115612734577f4e487b7100000000000000000000000000000000000000000000000000000000600052602160045260246000fd5b81600481111561276d577f4e487b7100000000000000000000000000000000000000000000000000000000600052602160045260246000fd5b14156127ae576040517f08c379a00000000000000000000000000000000000000000000000000000000081526004016127a590614603565b60405180910390fd5b600360048111156127e8577f4e487b7100000000000000000000000000000000000000000000000000000000600052602160045260246000fd5b816004811115612821577f4e487b7100000000000000000000000000000000000000000000000000000000600052602160045260246000fd5b1415612862576040517f08c379a000000000000000000000000000000000000000000000000000000000815260040161285990614683565b60405180910390fd5b60048081111561289b577f4e487b7100000000000000000000000000000000000000000000000000000000600052602160045260246000fd5b8160048111156128d4577f4e487b7100000000000000000000000000000000000000000000000000000000600052602160045260246000fd5b1415612915576040517f08c379a000000000000000000000000000000000000000000000000000000000815260040161290c90614723565b60405180910390fd5b5b50565b60006005600086815260200190815260200160002090508060030160008573ffffffffffffffffffffffffffffffffffffffff1673ffffffffffffffffffffffffffffffffffffffff16815260200190815260200160002060009054906101000a900460ff16156129bf576040517f08c379a00000000000000000000000000000000000000000000000000000000081526004016129b6906146a3565b60405180910390fd5b60018160030160008673ffffffffffffffffffffffffffffffffffffffff1673ffffffffffffffffffffffffffffffffffffffff16815260200190815260200160002060006101000a81548160ff02191690831515021790555060006002811115612a53577f4e487b7100000000000000000000000000000000000000000000000000000000600052602160045260246000fd5b60ff168360ff161415612a805781816000016000828254612a749190614bf9565b92505081905550612b8a565b60016002811115612aba577f4e487b7100000000000000000000000000000000000000000000000000000000600052602160045260246000fd5b60ff168360ff161415612ae75781816001016000828254612adb9190614bf9565b92505081905550612b89565b600280811115612b20577f4e487b7100000000000000000000000000000000000000000000000000000000600052602160045260246000fd5b60ff168360ff161415612b4d5781816002016000828254612b419190614bf9565b92505081905550612b88565b6040517f08c379a0000000000000000000000000000000000000000000000000000000008152600401612b7f906147e3565b60405180910390fd5b5b5b5050505050565b60008060016000848152602001908152602001600020604051806080016040529081600082016040518060200160405290816000820160009054906101000a900467ffffffffffffffff1667ffffffffffffffff1667ffffffffffffffff16815250508152602001600182016040518060200160405290816000820160009054906101000a900467ffffffffffffffff1667ffffffffffffffff1667ffffffffffffffff168152505081526020016002820160009054906101000a900460ff161515151581526020016002820160019054906101000a900460ff1615151515815250509050806040015115612c8a576007915050612d53565b806060015115612c9e576002915050612d53565b612cab81600001516130b4565b15612cba576000915050612d53565b612cc781602001516130b4565b15612cd6576001915050612d53565b612ce381602001516130ce565b15612d1857612cf1836130fa565b8015612d025750612d0183613141565b5b612d0d576003612d10565b60045b915050612d53565b6040517f08c379a0000000000000000000000000000000000000000000000000000000008152600401612d4a906147c3565b60405180910390fd5b919050565b600080612d678686868661316c565b90506000612d74826116e1565b90506000811115612f0f5760005b8751811015612eef57600260009054906101000a900473ffffffffffffffffffffffffffffffffffffffff1673ffffffffffffffffffffffffffffffffffffffff1663591fcdfe898381518110612e02577f4e487b7100000000000000000000000000000000000000000000000000000000600052603260045260246000fd5b6020026020010151898481518110612e43577f4e487b7100000000000000000000000000000000000000000000000000000000600052603260045260246000fd5b6020026020010151898581518110612e84577f4e487b7100000000000000000000000000000000000000000000000000000000600052603260045260246000fd5b6020026020010151866040518563ffffffff1660e01b8152600401612eac949392919061438d565b600060405180830381600087803b158015612ec657600080fd5b505af1158015612eda573d6000803e3d6000fd5b5050505080612ee890614edb565b9050612d82565b50612f0e600360008481526020019081526020016000206000016133a9565b5b8192505050949350505050565b60007f01ffc9a7000000000000000000000000000000000000000000000000000000007bffffffffffffffffffffffffffffffffffffffffffffffffffffffff1916827bffffffffffffffffffffffffffffffffffffffffffffffffffffffff1916149050919050565b80471015612fc9576040517f08c379a0000000000000000000000000000000000000000000000000000000008152600401612fc0906146c3565b60405180910390fd5b60008273ffffffffffffffffffffffffffffffffffffffff1682604051612fef9061430b565b60006040518083038185875af1925050503d806000811461302c576040519150601f19603f3d011682016040523d82523d6000602084013e613031565b606091505b5050905080613075576040517f08c379a000000000000000000000000000000000000000000000000000000000815260040161306c90614663565b60405180910390fd5b505050565b6000838383463060405160200161309595949392919061447c565b6040516020818303038152906040528051906020012090509392505050565b600043826000015167ffffffffffffffff16119050919050565b60006130d9826133d8565b80156130f3575043826000015167ffffffffffffffff1611155b9050919050565b600080600560008481526020019081526020016000209050806002015481600101546131269190614bf9565b613137613132856110bd565b61191c565b1115915050919050565b6000806005600084815260200190815260200160002090508060000154816001015411915050919050565b60008061317b86868686611841565b90506000613188826111dd565b9050600260078111156131c4577f4e487b7100000000000000000000000000000000000000000000000000000000600052602160045260246000fd5b8160078111156131fd577f4e487b7100000000000000000000000000000000000000000000000000000000600052602160045260246000fd5b1415801561327c575060066007811115613240577f4e487b7100000000000000000000000000000000000000000000000000000000600052602160045260246000fd5b816007811115613279577f4e487b7100000000000000000000000000000000000000000000000000000000600052602160045260246000fd5b14155b80156132f857506007808111156132bc577f4e487b7100000000000000000000000000000000000000000000000000000000600052602160045260246000fd5b8160078111156132f5577f4e487b7100000000000000000000000000000000000000000000000000000000600052602160045260246000fd5b14155b613337576040517f08c379a000000000000000000000000000000000000000000000000000000000815260040161332e90614763565b60405180910390fd5b600180600084815260200190815260200160002060020160016101000a81548160ff0219169083151502179055507f789cf55be980739dad1d0699b93b58e806b51c9d96619bfa8fe0a28abaa7b30c826040516133949190614823565b60405180910390a18192505050949350505050565b60008160000160006101000a81548167ffffffffffffffff021916908367ffffffffffffffff16021790555050565b600080826000015167ffffffffffffffff16119050919050565b6000613405613400846149bf565b61499a565b9050808382526020820190508285602086028201111561342457600080fd5b60005b85811015613454578161343a88826135e1565b845260208401935060208301925050600181019050613427565b5050509392505050565b600061347161346c846149eb565b61499a565b9050808382526020820190508260005b858110156134b1578135850161349788826136c8565b845260208401935060208301925050600181019050613481565b5050509392505050565b60006134ce6134c984614a17565b61499a565b905080838252602082019050828560208602820111156134ed57600080fd5b60005b8581101561351d578161350388826137a5565b8452602084019350602083019250506001810190506134f0565b5050509392505050565b600061353a61353584614a43565b61499a565b90508281526020810184848401111561355257600080fd5b61355d848285614e36565b509392505050565b600061357861357384614a43565b61499a565b90508281526020810184848401111561359057600080fd5b61359b848285614e45565b509392505050565b60006135b66135b184614a74565b61499a565b9050828152602081018484840111156135ce57600080fd5b6135d9848285614e36565b509392505050565b6000813590506135f0816155d8565b92915050565b600082601f83011261360757600080fd5b81356136178482602086016133f2565b91505092915050565b600082601f83011261363157600080fd5b813561364184826020860161345e565b91505092915050565b600082601f83011261365b57600080fd5b813561366b8482602086016134bb565b91505092915050565b600081519050613683816155ef565b92915050565b60008135905061369881615606565b92915050565b6000815190506136ad81615606565b92915050565b6000813590506136c28161561d565b92915050565b600082601f8301126136d957600080fd5b81356136e9848260208601613527565b91505092915050565b600082601f83011261370357600080fd5b8151613713848260208601613565565b91505092915050565b60008135905061372b81615634565b92915050565b60008083601f84011261374357600080fd5b8235905067ffffffffffffffff81111561375c57600080fd5b60208301915083600182028301111561377457600080fd5b9250929050565b600082601f83011261378c57600080fd5b813561379c8482602086016135a3565b91505092915050565b6000813590506137b48161564b565b92915050565b6000815190506137c98161564b565b92915050565b6000813590506137de81615662565b92915050565b600080604083850312156137f757600080fd5b6000613805858286016135e1565b9250506020613816858286016137a5565b9150509250929050565b6000806000806080858703121561383657600080fd5b600085013567ffffffffffffffff81111561385057600080fd5b61385c878288016135f6565b945050602085013567ffffffffffffffff81111561387957600080fd5b6138858782880161364a565b935050604085013567ffffffffffffffff8111156138a257600080fd5b6138ae87828801613620565b92505060606138bf87828801613689565b91505092959194509250565b600080600080608085870312156138e157600080fd5b600085013567ffffffffffffffff8111156138fb57600080fd5b613907878288016135f6565b945050602085013567ffffffffffffffff81111561392457600080fd5b6139308782880161364a565b935050604085013567ffffffffffffffff81111561394d57600080fd5b61395987828801613620565b925050606085013567ffffffffffffffff81111561397657600080fd5b6139828782880161377b565b91505092959194509250565b6000602082840312156139a057600080fd5b60006139ae84828501613674565b91505092915050565b6000602082840312156139c957600080fd5b60006139d78482850161369e565b91505092915050565b6000602082840312156139f257600080fd5b6000613a00848285016136b3565b91505092915050565b600060208284031215613a1b57600080fd5b600082015167ffffffffffffffff811115613a3557600080fd5b613a41848285016136f2565b91505092915050565b600060208284031215613a5c57600080fd5b6000613a6a8482850161371c565b91505092915050565b600060208284031215613a8557600080fd5b6000613a93848285016137a5565b91505092915050565b600060208284031215613aae57600080fd5b6000613abc848285016137ba565b91505092915050565b60008060408385031215613ad857600080fd5b6000613ae6858286016137a5565b9250506020613af7858286016135e1565b9150509250929050565b60008060408385031215613b1457600080fd5b6000613b22858286016137a5565b9250506020613b33858286016137cf565b9150509250929050565b60008060008060608587031215613b5357600080fd5b6000613b61878288016137a5565b9450506020613b72878288016137cf565b935050604085013567ffffffffffffffff811115613b8f57600080fd5b613b9b87828801613731565b925092505092959194509250565b600080600080600060a08688031215613bc157600080fd5b6000613bcf888289016137a5565b9550506020613be0888289016137cf565b9450506040613bf1888289016137cf565b9350506060613c0288828901613689565b9250506080613c1388828901613689565b9150509295509295909350565b6000613c2c8383613c78565b60208301905092915050565b6000613c448383613e71565b905092915050565b6000613c588383613f01565b905092915050565b6000613c6c8383614298565b60208301905092915050565b613c8181614d18565b82525050565b613c9081614d18565b82525050565b6000613ca182614ae5565b613cab8185614b5b565b9350613cb683614aa5565b8060005b83811015613ce7578151613cce8882613c20565b9750613cd983614b27565b925050600181019050613cba565b5085935050505092915050565b6000613cff82614af0565b613d098185614b6c565b935083602082028501613d1b85614ab5565b8060005b85811015613d575784840389528151613d388582613c38565b9450613d4383614b34565b925060208a01995050600181019050613d1f565b50829750879550505050505092915050565b6000613d7482614afb565b613d7e8185614b7d565b935083602082028501613d9085614ac5565b8060005b85811015613dcc5784840389528151613dad8582613c4c565b9450613db883614b41565b925060208a01995050600181019050613d94565b50829750879550505050505092915050565b6000613de982614b06565b613df38185614b8e565b9350613dfe83614ad5565b8060005b83811015613e2f578151613e168882613c60565b9750613e2183614b4e565b925050600181019050613e02565b5085935050505092915050565b613e4581614d3c565b82525050565b613e5481614d48565b82525050565b613e6b613e6682614d48565b614f24565b82525050565b6000613e7c82614b11565b613e868185614b9f565b9350613e96818560208601614e45565b613e9f81615019565b840191505092915050565b6000613eb582614b11565b613ebf8185614bb0565b9350613ecf818560208601614e45565b613ed881615019565b840191505092915050565b613eec81614dee565b82525050565b613efb81614e12565b82525050565b6000613f0c82614b1c565b613f168185614bcc565b9350613f26818560208601614e45565b613f2f81615019565b840191505092915050565b6000613f4582614b1c565b613f4f8185614bdd565b9350613f5f818560208601614e45565b613f6881615019565b840191505092915050565b6000613f80601883614bdd565b9150613f8b8261502a565b602082019050919050565b6000613fa3601883614bdd565b9150613fae82615053565b602082019050919050565b6000613fc6604383614bdd565b9150613fd18261507c565b606082019050919050565b6000613fe9601f83614bdd565b9150613ff4826150f1565b602082019050919050565b600061400c600283614bee565b91506140178261511a565b600282019050919050565b600061402f602183614bdd565b915061403a82615143565b604082019050919050565b6000614052604283614bdd565b915061405d82615192565b606082019050919050565b6000614075603a83614bdd565b915061408082615207565b604082019050919050565b6000614098602283614bdd565b91506140a382615256565b604082019050919050565b60006140bb602783614bdd565b91506140c6826152a5565b604082019050919050565b60006140de601d83614bdd565b91506140e9826152f4565b602082019050919050565b6000614101602383614bdd565b915061410c8261531d565b604082019050919050565b6000614124601883614bdd565b915061412f8261536c565b602082019050919050565b6000614147602283614bdd565b915061415282615395565b604082019050919050565b600061416a602683614bdd565b9150614175826153e4565b604082019050919050565b600061418d601d83614bdd565b915061419882615433565b602082019050919050565b60006141b0602183614bdd565b91506141bb8261545c565b604082019050919050565b60006141d3603183614bdd565b91506141de826154ab565b604082019050919050565b60006141f6601d83614bdd565b9150614201826154fa565b602082019050919050565b6000614219603583614bdd565b915061422482615523565b604082019050919050565b600061423c602183614bdd565b915061424782615572565b604082019050919050565b600061425f600083614bc1565b915061426a826155c1565b600082019050919050565b6000614282600083614bdd565b915061428d826155c1565b600082019050919050565b6142a181614dc3565b82525050565b6142b081614dc3565b82525050565b6142bf81614e24565b82525050565b6142ce81614de1565b82525050565b60006142df82613fff565b91506142eb8285613e5a565b6020820191506142fb8284613e5a565b6020820191508190509392505050565b600061431682614252565b9150819050919050565b60006020820190506143356000830184613c87565b92915050565b60006040820190506143506000830185613c87565b61435d6020830184613c87565b9392505050565b60006040820190506143796000830185613c87565b61438660208301846142a7565b9392505050565b600060a0820190506143a26000830187613c87565b6143af60208301866142a7565b81810360408301526143c081614275565b905081810360608301526143d48185613eaa565b90506143e360808301846142a7565b95945050505050565b600060808201905081810360008301526144068187613c96565b9050818103602083015261441a8186613dde565b9050818103604083015261442e8185613cf4565b905061443d6060830184613e4b565b95945050505050565b600060208201905061445b6000830184613e3c565b92915050565b60006020820190506144766000830184613e4b565b92915050565b600060a0820190506144916000830188613e4b565b61449e6020830187613e4b565b6144ab6040830186613e4b565b6144b860608301856142a7565b6144c56080830184613c87565b9695505050505050565b60006060820190506144e46000830186613e4b565b6144f160208301856142a7565b6144fe60408301846142c5565b949350505050565b600060808201905061451b6000830187613e4b565b61452860208301866142c5565b6145356040830185613e4b565b6145426060830184613e4b565b95945050505050565b60006020820190506145606000830184613ee3565b92915050565b600060208201905061457b6000830184613ef2565b92915050565b6000602082019050818103600083015261459b8184613f3a565b905092915050565b600060208201905081810360008301526145bc81613f73565b9050919050565b600060208201905081810360008301526145dc81613f96565b9050919050565b600060208201905081810360008301526145fc81613fb9565b9050919050565b6000602082019050818103600083015261461c81613fdc565b9050919050565b6000602082019050818103600083015261463c81614022565b9050919050565b6000602082019050818103600083015261465c81614045565b9050919050565b6000602082019050818103600083015261467c81614068565b9050919050565b6000602082019050818103600083015261469c8161408b565b9050919050565b600060208201905081810360008301526146bc816140ae565b9050919050565b600060208201905081810360008301526146dc816140d1565b9050919050565b600060208201905081810360008301526146fc816140f4565b9050919050565b6000602082019050818103600083015261471c81614117565b9050919050565b6000602082019050818103600083015261473c8161413a565b9050919050565b6000602082019050818103600083015261475c8161415d565b9050919050565b6000602082019050818103600083015261477c81614180565b9050919050565b6000602082019050818103600083015261479c816141a3565b9050919050565b600060208201905081810360008301526147bc816141c6565b9050919050565b600060208201905081810360008301526147dc816141e9565b9050919050565b600060208201905081810360008301526147fc8161420c565b9050919050565b6000602082019050818103600083015261481c8161422f565b9050919050565b600060208201905061483860008301846142a7565b92915050565b600061012082019050614854600083018c6142a7565b614861602083018b613c87565b8181036040830152614873818a613c96565b905081810360608301526148878189613dde565b9050818103608083015261489b8188613d69565b905081810360a08301526148af8187613cf4565b90506148be60c08301866142b6565b6148cb60e08301856142b6565b8181036101008301526148de8184613f3a565b90509a9950505050505050505050565b600060408201905061490360008301856142a7565b61491060208301846142a7565b9392505050565b600060608201905061492c60008301866142a7565b61493960208301856142a7565b61494660408301846142a7565b949350505050565b600060808201905061496360008301876142a7565b61497060208301866142c5565b61497d60408301856142a7565b818103606083015261498f8184613f3a565b905095945050505050565b60006149a46149b5565b90506149b08282614eaa565b919050565b6000604051905090565b600067ffffffffffffffff8211156149da576149d9614fea565b5b602082029050602081019050919050565b600067ffffffffffffffff821115614a0657614a05614fea565b5b602082029050602081019050919050565b600067ffffffffffffffff821115614a3257614a31614fea565b5b602082029050602081019050919050565b600067ffffffffffffffff821115614a5e57614a5d614fea565b5b614a6782615019565b9050602081019050919050565b600067ffffffffffffffff821115614a8f57614a8e614fea565b5b614a9882615019565b9050602081019050919050565b6000819050602082019050919050565b6000819050602082019050919050565b6000819050602082019050919050565b6000819050602082019050919050565b600081519050919050565b600081519050919050565b600081519050919050565b600081519050919050565b600081519050919050565b600081519050919050565b6000602082019050919050565b6000602082019050919050565b6000602082019050919050565b6000602082019050919050565b600082825260208201905092915050565b600082825260208201905092915050565b600082825260208201905092915050565b600082825260208201905092915050565b600082825260208201905092915050565b600082825260208201905092915050565b600081905092915050565b600082825260208201905092915050565b600082825260208201905092915050565b600081905092915050565b6000614c0482614dc3565b9150614c0f83614dc3565b9250827fffffffffffffffffffffffffffffffffffffffffffffffffffffffffffffffff03821115614c4457614c43614f2e565b5b828201905092915050565b6000614c5a82614dcd565b9150614c6583614dcd565b92508267ffffffffffffffff03821115614c8257614c81614f2e565b5b828201905092915050565b6000614c9882614dc3565b9150614ca383614dc3565b925082614cb357614cb2614f5d565b5b828204905092915050565b6000614cc982614dc3565b9150614cd483614dc3565b9250817fffffffffffffffffffffffffffffffffffffffffffffffffffffffffffffffff0483118215151615614d0d57614d0c614f2e565b5b828202905092915050565b6000614d2382614da3565b9050919050565b6000614d3582614da3565b9050919050565b60008115159050919050565b6000819050919050565b60007fffffffff0000000000000000000000000000000000000000000000000000000082169050919050565b6000614d8982614d2a565b9050919050565b6000819050614d9e826155c4565b919050565b600073ffffffffffffffffffffffffffffffffffffffff82169050919050565b6000819050919050565b600067ffffffffffffffff82169050919050565b600060ff82169050919050565b6000614df982614e00565b9050919050565b6000614e0b82614da3565b9050919050565b6000614e1d82614d90565b9050919050565b6000614e2f82614dcd565b9050919050565b82818337600083830152505050565b60005b83811015614e63578082015181840152602081019050614e48565b83811115614e72576000848401525b50505050565b60006002820490506001821680614e9057607f821691505b60208210811415614ea457614ea3614fbb565b5b50919050565b614eb382615019565b810181811067ffffffffffffffff82111715614ed257614ed1614fea565b5b80604052505050565b6000614ee682614dc3565b91507fffffffffffffffffffffffffffffffffffffffffffffffffffffffffffffffff821415614f1957614f18614f2e565b5b600182019050919050565b6000819050919050565b7f4e487b7100000000000000000000000000000000000000000000000000000000600052601160045260246000fd5b7f4e487b7100000000000000000000000000000000000000000000000000000000600052601260045260246000fd5b7f4e487b7100000000000000000000000000000000000000000000000000000000600052602160045260246000fd5b7f4e487b7100000000000000000000000000000000000000000000000000000000600052602260045260246000fd5b7f4e487b7100000000000000000000000000000000000000000000000000000000600052604160045260246000fd5b6000601f19601f8301169050919050565b7f45434453413a20696e76616c6964207369676e61747572650000000000000000600082015250565b7f476f7665726e6f723a206f6e6c79476f7665726e616e63650000000000000000600082015250565b7f476f7665726e6f72566f74657351756f72756d4672616374696f6e3a2071756f60008201527f72756d4e756d657261746f72206f7665722071756f72756d44656e6f6d696e6160208201527f746f720000000000000000000000000000000000000000000000000000000000604082015250565b7f45434453413a20696e76616c6964207369676e6174757265206c656e67746800600082015250565b7f1901000000000000000000000000000000000000000000000000000000000000600082015250565b7f476f7665726e6f723a20696e76616c69642070726f706f73616c206c656e677460008201527f6800000000000000000000000000000000000000000000000000000000000000602082015250565b7f476f7665726e6f7254696d656c6f636b436f6d706f756e643a206964656e746960008201527f63616c2070726f706f73616c20616374696f6e20616c7265616479207175657560208201527f6564000000000000000000000000000000000000000000000000000000000000604082015250565b7f416464726573733a20756e61626c6520746f2073656e642076616c75652c207260008201527f6563697069656e74206d61792068617665207265766572746564000000000000602082015250565b7f45434453413a20696e76616c6964207369676e6174757265202773272076616c60008201527f7565000000000000000000000000000000000000000000000000000000000000602082015250565b7f476f7665726e6f72566f74696e6753696d706c653a20766f746520616c72656160008201527f6479206361737400000000000000000000000000000000000000000000000000602082015250565b7f416464726573733a20696e73756666696369656e742062616c616e6365000000600082015250565b7f476f7665726e6f723a20766f7465206e6f742063757272656e746c792061637460008201527f6976650000000000000000000000000000000000000000000000000000000000602082015250565b7f476f7665726e6f723a20656d7074792070726f706f73616c0000000000000000600082015250565b7f45434453413a20696e76616c6964207369676e6174757265202776272076616c60008201527f7565000000000000000000000000000000000000000000000000000000000000602082015250565b7f53616665436173743a2076616c756520646f65736e27742066697420696e203660008201527f3420626974730000000000000000000000000000000000000000000000000000602082015250565b7f476f7665726e6f723a2070726f706f73616c206e6f7420616374697665000000600082015250565b7f476f7665726e6f723a2070726f706f73616c206e6f742073756363657373667560008201527f6c00000000000000000000000000000000000000000000000000000000000000602082015250565b7f476f7665726e6f7254696d656c6f636b436f6d706f756e643a2070726f706f7360008201527f616c206e6f742079657420717565756564000000000000000000000000000000602082015250565b7f476f7665726e6f723a20756e6b6e6f776e2070726f706f73616c206964000000600082015250565b7f476f7665726e6f72566f74696e6753696d706c653a20696e76616c696420766160008201527f6c756520666f7220656e756d20566f7465547970650000000000000000000000602082015250565b7f476f7665726e6f723a2070726f706f73616c20616c726561647920657869737460008201527f7300000000000000000000000000000000000000000000000000000000000000602082015250565b50565b600881106155d5576155d4614f8c565b5b50565b6155e181614d18565b81146155ec57600080fd5b50565b6155f881614d3c565b811461560357600080fd5b50565b61560f81614d48565b811461561a57600080fd5b50565b61562681614d52565b811461563157600080fd5b50565b61563d81614d7e565b811461564857600080fd5b50565b61565481614dc3565b811461565f57600080fd5b50565b61566b81614de1565b811461567657600080fd5b5056fea264697066735822122032e28cc97c9ecaa48f9f6ab4f2a1eb167e4a20eb32bcfae790d9371846e66e1364736f6c63430008020033",
  "immutableReferences": {
    "6702": [
      {
        "length": 32,
        "start": 6448
      },
      {
        "length": 32,
        "start": 8105
      },
      {
        "length": 32,
        "start": 8302
      }
    ],
    "11981": [
      {
        "length": 32,
        "start": 4399
      }
    ],
    "11983": [
      {
        "length": 32,
        "start": 2138
      }
    ],
    "25949": [
      {
        "length": 32,
        "start": 9201
      }
    ],
    "25951": [
      {
        "length": 32,
        "start": 9161
      }
    ],
    "25953": [
      {
        "length": 32,
        "start": 9277
      }
    ],
    "25955": [
      {
        "length": 32,
        "start": 9310
      }
    ],
    "25957": [
      {
        "length": 32,
        "start": 9244
      }
    ]
  },
  "source": "// SPDX-License-Identifier: MIT\n\npragma solidity ^0.8.0;\n\nimport \"../governance/extensions/GovernorTimelockCompound.sol\";\nimport \"../governance/extensions/GovernorCountingSimple.sol\";\nimport \"../governance/extensions/GovernorVotesQuorumFraction.sol\";\n\ncontract GovernorTimelockCompoundMock is GovernorTimelockCompound, GovernorVotesQuorumFraction, GovernorCountingSimple {\n    uint256 immutable _votingDelay;\n    uint256 immutable _votingPeriod;\n\n    constructor(\n        string memory name_,\n        ERC20Votes token_,\n        uint256 votingDelay_,\n        uint256 votingPeriod_,\n        ICompoundTimelock timelock_,\n        uint256 quorumNumerator_\n    )\n        Governor(name_)\n        GovernorTimelockCompound(timelock_)\n        GovernorVotes(token_)\n        GovernorVotesQuorumFraction(quorumNumerator_)\n    {\n        _votingDelay = votingDelay_;\n        _votingPeriod = votingPeriod_;\n    }\n\n    function supportsInterface(bytes4 interfaceId)\n        public\n        view\n        virtual\n        override(Governor, GovernorTimelockCompound)\n        returns (bool)\n    {\n        return super.supportsInterface(interfaceId);\n    }\n\n    function votingDelay() public view override returns (uint256) {\n        return _votingDelay;\n    }\n\n    function votingPeriod() public view override returns (uint256) {\n        return _votingPeriod;\n    }\n\n    function quorum(uint256 blockNumber)\n        public\n        view\n        override(IGovernor, GovernorVotesQuorumFraction)\n        returns (uint256)\n    {\n        return super.quorum(blockNumber);\n    }\n\n    function cancel(\n        address[] memory targets,\n        uint256[] memory values,\n        bytes[] memory calldatas,\n        bytes32 salt\n    ) public returns (uint256 proposalId) {\n        return _cancel(targets, values, calldatas, salt);\n    }\n\n    /**\n     * Overriding nightmare\n     */\n    function state(uint256 proposalId)\n        public\n        view\n        virtual\n        override(Governor, GovernorTimelockCompound)\n        returns (ProposalState)\n    {\n        return super.state(proposalId);\n    }\n\n    function _execute(\n        uint256 proposalId,\n        address[] memory targets,\n        uint256[] memory values,\n        bytes[] memory calldatas,\n        bytes32 descriptionHash\n    ) internal virtual override(Governor, GovernorTimelockCompound) {\n        super._execute(proposalId, targets, values, calldatas, descriptionHash);\n    }\n\n    function _cancel(\n        address[] memory targets,\n        uint256[] memory values,\n        bytes[] memory calldatas,\n        bytes32 salt\n    ) internal virtual override(Governor, GovernorTimelockCompound) returns (uint256 proposalId) {\n        return super._cancel(targets, values, calldatas, salt);\n    }\n\n    function getVotes(address account, uint256 blockNumber)\n        public\n        view\n        virtual\n        override(IGovernor, GovernorVotes)\n        returns (uint256)\n    {\n        return super.getVotes(account, blockNumber);\n    }\n\n    function _executor() internal view virtual override(Governor, GovernorTimelockCompound) returns (address) {\n        return super._executor();\n    }\n}\n",
  "sourcePath": "D:\\marketplace\\frontend (2)\\contracts\\openzeppelin-solidity\\contracts\\mocks\\GovernorTimelockCompoundMock.sol",
  "compiler": {
    "name": "solc",
    "version": "0.8.2+commit.661d1103.Emscripten.clang"
  },
  "schemaVersion": "3.4.4",
  "updatedAt": "2022-02-01T11:28:54.968Z",
  "devdoc": {
    "kind": "dev",
    "methods": {
      "COUNTING_MODE()": {
        "details": "See {IGovernor-COUNTING_MODE}."
      },
      "__acceptAdmin()": {
        "details": "Accept admin right over the timelock."
      },
      "castVote(uint256,uint8)": {
        "details": "See {IGovernor-castVote}."
      },
      "castVoteBySig(uint256,uint8,uint8,bytes32,bytes32)": {
        "details": "See {IGovernor-castVoteBySig}."
      },
      "castVoteWithReason(uint256,uint8,string)": {
        "details": "See {IGovernor-castVoteWithReason}."
      },
      "execute(address[],uint256[],bytes[],bytes32)": {
        "details": "See {IGovernor-execute}."
      },
      "hasVoted(uint256,address)": {
        "details": "See {IGovernor-hasVoted}."
      },
      "hashProposal(address[],uint256[],bytes[],bytes32)": {
        "details": "See {IGovernor-hashProposal}. The proposal id is produced by hashing the RLC encoded `targets` array, the `values` array, the `calldatas` array and the descriptionHash (bytes32 which itself is the keccak256 hash of the description string). This proposal id can be produced from the proposal data which is part of the {ProposalCreated} event. It can even be computed in advance, before the proposal is submitted. Note that the chainId and the governor address are not part of the proposal id computation. Consequently, the same proposal (with same operation and same description) will have the same id if submitted on multiple governors accross multiple networks. This also means that in order to execute the same operation twice (on the same governor) the proposer will have to change the description in order to avoid proposal id conflicts."
      },
      "name()": {
        "details": "See {IGovernor-name}."
      },
      "proposalDeadline(uint256)": {
        "details": "See {IGovernor-proposalDeadline}."
      },
      "proposalEta(uint256)": {
        "details": "Public accessor to check the eta of a queued proposal"
      },
      "proposalSnapshot(uint256)": {
        "details": "See {IGovernor-proposalSnapshot}."
      },
      "proposalVotes(uint256)": {
        "details": "Accessor to the internal vote counts."
      },
      "propose(address[],uint256[],bytes[],string)": {
        "details": "See {IGovernor-propose}."
      },
      "queue(address[],uint256[],bytes[],bytes32)": {
        "details": "Function to queue a proposal to the timelock."
      },
      "timelock()": {
        "details": "Public accessor to check the address of the timelock"
      },
      "updateTimelock(address)": {
        "details": "Public endpoint to update the underlying timelock instance. Restricted to the timelock itself, so updates must be proposed, scheduled and executed using the {Governor} workflow. For security reason, the timelock must be handed over to another admin before setting up a new one. The two operations (hand over the timelock) and do the update can be batched in a single proposal. Note that if the timelock admin has been handed over in a previous operation, we refuse updates made through the timelock if admin of the timelock has already been accepted and the operation is executed outside the scope of governance."
      },
      "version()": {
        "details": "See {IGovernor-version}."
      },
      "votingDelay()": {
        "details": "delay, in number of block, between the proposal is created and the vote starts. This can be increassed to leave time for users to buy voting power, of delegate it, before the voting of a proposal starts."
      },
      "votingPeriod()": {
        "details": "delay, in number of blocks, between the vote start and vote ends. Note: the {votingDelay} can delay the start of the vote. This must be considered when setting the voting duration compared to the voting delay."
      }
    },
    "version": 1
  },
  "userdoc": {
    "kind": "user",
    "methods": {
      "state(uint256)": {
        "notice": "Overriding nightmare"
      },
      "votingDelay()": {
        "notice": "module:user-config"
      },
      "votingPeriod()": {
        "notice": "module:user-config"
      }
    },
    "version": 1
  }
}