{
  "contractName": "GovernorCompatibilityBravoMock",
  "abi": [
    {
      "inputs": [
        {
          "internalType": "string",
          "name": "name_",
          "type": "string"
        },
        {
          "internalType": "contract ERC20VotesComp",
          "name": "token_",
          "type": "address"
        },
        {
          "internalType": "uint256",
          "name": "votingDelay_",
          "type": "uint256"
        },
        {
          "internalType": "uint256",
          "name": "votingPeriod_",
          "type": "uint256"
        },
        {
          "internalType": "uint256",
          "name": "proposalThreshold_",
          "type": "uint256"
        },
        {
          "internalType": "contract ICompoundTimelock",
          "name": "timelock_",
          "type": "address"
        }
      ],
      "stateMutability": "nonpayable",
      "type": "constructor"
    },
    {
      "anonymous": false,
      "inputs": [
        {
          "indexed": false,
          "internalType": "uint256",
          "name": "proposalId",
          "type": "uint256"
        }
      ],
      "name": "ProposalCanceled",
      "type": "event"
    },
    {
      "anonymous": false,
      "inputs": [
        {
          "indexed": false,
          "internalType": "uint256",
          "name": "proposalId",
          "type": "uint256"
        },
        {
          "indexed": false,
          "internalType": "address",
          "name": "proposer",
          "type": "address"
        },
        {
          "indexed": false,
          "internalType": "address[]",
          "name": "targets",
          "type": "address[]"
        },
        {
          "indexed": false,
          "internalType": "uint256[]",
          "name": "values",
          "type": "uint256[]"
        },
        {
          "indexed": false,
          "internalType": "string[]",
          "name": "signatures",
          "type": "string[]"
        },
        {
          "indexed": false,
          "internalType": "bytes[]",
          "name": "calldatas",
          "type": "bytes[]"
        },
        {
          "indexed": false,
          "internalType": "uint256",
          "name": "startBlock",
          "type": "uint256"
        },
        {
          "indexed": false,
          "internalType": "uint256",
          "name": "endBlock",
          "type": "uint256"
        },
        {
          "indexed": false,
          "internalType": "string",
          "name": "description",
          "type": "string"
        }
      ],
      "name": "ProposalCreated",
      "type": "event"
    },
    {
      "anonymous": false,
      "inputs": [
        {
          "indexed": false,
          "internalType": "uint256",
          "name": "proposalId",
          "type": "uint256"
        }
      ],
      "name": "ProposalExecuted",
      "type": "event"
    },
    {
      "anonymous": false,
      "inputs": [
        {
          "indexed": false,
          "internalType": "uint256",
          "name": "proposalId",
          "type": "uint256"
        },
        {
          "indexed": false,
          "internalType": "uint256",
          "name": "eta",
          "type": "uint256"
        }
      ],
      "name": "ProposalQueued",
      "type": "event"
    },
    {
      "anonymous": false,
      "inputs": [
        {
          "indexed": false,
          "internalType": "address",
          "name": "oldTimelock",
          "type": "address"
        },
        {
          "indexed": false,
          "internalType": "address",
          "name": "newTimelock",
          "type": "address"
        }
      ],
      "name": "TimelockChange",
      "type": "event"
    },
    {
      "anonymous": false,
      "inputs": [
        {
          "indexed": true,
          "internalType": "address",
          "name": "voter",
          "type": "address"
        },
        {
          "indexed": false,
          "internalType": "uint256",
          "name": "proposalId",
          "type": "uint256"
        },
        {
          "indexed": false,
          "internalType": "uint8",
          "name": "support",
          "type": "uint8"
        },
        {
          "indexed": false,
          "internalType": "uint256",
          "name": "weight",
          "type": "uint256"
        },
        {
          "indexed": false,
          "internalType": "string",
          "name": "reason",
          "type": "string"
        }
      ],
      "name": "VoteCast",
      "type": "event"
    },
    {
      "inputs": [],
      "name": "BALLOT_TYPEHASH",
      "outputs": [
        {
          "internalType": "bytes32",
          "name": "",
          "type": "bytes32"
        }
      ],
      "stateMutability": "view",
      "type": "function"
    },
    {
      "inputs": [],
      "name": "COUNTING_MODE",
      "outputs": [
        {
          "internalType": "string",
          "name": "",
          "type": "string"
        }
      ],
      "stateMutability": "pure",
      "type": "function"
    },
    {
      "inputs": [],
      "name": "__acceptAdmin",
      "outputs": [],
      "stateMutability": "nonpayable",
      "type": "function"
    },
    {
      "inputs": [
        {
          "internalType": "uint256",
          "name": "proposalId",
          "type": "uint256"
        },
        {
          "internalType": "uint8",
          "name": "support",
          "type": "uint8"
        }
      ],
      "name": "castVote",
      "outputs": [
        {
          "internalType": "uint256",
          "name": "",
          "type": "uint256"
        }
      ],
      "stateMutability": "nonpayable",
      "type": "function"
    },
    {
      "inputs": [
        {
          "internalType": "uint256",
          "name": "proposalId",
          "type": "uint256"
        },
        {
          "internalType": "uint8",
          "name": "support",
          "type": "uint8"
        },
        {
          "internalType": "uint8",
          "name": "v",
          "type": "uint8"
        },
        {
          "internalType": "bytes32",
          "name": "r",
          "type": "bytes32"
        },
        {
          "internalType": "bytes32",
          "name": "s",
          "type": "bytes32"
        }
      ],
      "name": "castVoteBySig",
      "outputs": [
        {
          "internalType": "uint256",
          "name": "",
          "type": "uint256"
        }
      ],
      "stateMutability": "nonpayable",
      "type": "function"
    },
    {
      "inputs": [
        {
          "internalType": "uint256",
          "name": "proposalId",
          "type": "uint256"
        },
        {
          "internalType": "uint8",
          "name": "support",
          "type": "uint8"
        },
        {
          "internalType": "string",
          "name": "reason",
          "type": "string"
        }
      ],
      "name": "castVoteWithReason",
      "outputs": [
        {
          "internalType": "uint256",
          "name": "",
          "type": "uint256"
        }
      ],
      "stateMutability": "nonpayable",
      "type": "function"
    },
    {
      "inputs": [
        {
          "internalType": "uint256",
          "name": "proposalId",
          "type": "uint256"
        }
      ],
      "name": "getActions",
      "outputs": [
        {
          "internalType": "address[]",
          "name": "targets",
          "type": "address[]"
        },
        {
          "internalType": "uint256[]",
          "name": "values",
          "type": "uint256[]"
        },
        {
          "internalType": "string[]",
          "name": "signatures",
          "type": "string[]"
        },
        {
          "internalType": "bytes[]",
          "name": "calldatas",
          "type": "bytes[]"
        }
      ],
      "stateMutability": "view",
      "type": "function"
    },
    {
      "inputs": [
        {
          "internalType": "uint256",
          "name": "proposalId",
          "type": "uint256"
        },
        {
          "internalType": "address",
          "name": "voter",
          "type": "address"
        }
      ],
      "name": "getReceipt",
      "outputs": [
        {
          "components": [
            {
              "internalType": "bool",
              "name": "hasVoted",
              "type": "bool"
            },
            {
              "internalType": "uint8",
              "name": "support",
              "type": "uint8"
            },
            {
              "internalType": "uint96",
              "name": "votes",
              "type": "uint96"
            }
          ],
          "internalType": "struct IGovernorCompatibilityBravo.Receipt",
          "name": "",
          "type": "tuple"
        }
      ],
      "stateMutability": "view",
      "type": "function"
    },
    {
      "inputs": [
        {
          "internalType": "uint256",
          "name": "proposalId",
          "type": "uint256"
        },
        {
          "internalType": "address",
          "name": "account",
          "type": "address"
        }
      ],
      "name": "hasVoted",
      "outputs": [
        {
          "internalType": "bool",
          "name": "",
          "type": "bool"
        }
      ],
      "stateMutability": "view",
      "type": "function"
    },
    {
      "inputs": [
        {
          "internalType": "address[]",
          "name": "targets",
          "type": "address[]"
        },
        {
          "internalType": "uint256[]",
          "name": "values",
          "type": "uint256[]"
        },
        {
          "internalType": "bytes[]",
          "name": "calldatas",
          "type": "bytes[]"
        },
        {
          "internalType": "bytes32",
          "name": "descriptionHash",
          "type": "bytes32"
        }
      ],
      "name": "hashProposal",
      "outputs": [
        {
          "internalType": "uint256",
          "name": "",
          "type": "uint256"
        }
      ],
      "stateMutability": "pure",
      "type": "function"
    },
    {
      "inputs": [],
      "name": "name",
      "outputs": [
        {
          "internalType": "string",
          "name": "",
          "type": "string"
        }
      ],
      "stateMutability": "view",
      "type": "function"
    },
    {
      "inputs": [
        {
          "internalType": "uint256",
          "name": "proposalId",
          "type": "uint256"
        }
      ],
      "name": "proposalDeadline",
      "outputs": [
        {
          "internalType": "uint256",
          "name": "",
          "type": "uint256"
        }
      ],
      "stateMutability": "view",
      "type": "function"
    },
    {
      "inputs": [
        {
          "internalType": "uint256",
          "name": "proposalId",
          "type": "uint256"
        }
      ],
      "name": "proposalSnapshot",
      "outputs": [
        {
          "internalType": "uint256",
          "name": "",
          "type": "uint256"
        }
      ],
      "stateMutability": "view",
      "type": "function"
    },
    {
      "inputs": [
        {
          "internalType": "uint256",
          "name": "proposalId",
          "type": "uint256"
        }
      ],
      "name": "proposals",
      "outputs": [
        {
          "internalType": "uint256",
          "name": "id",
          "type": "uint256"
        },
        {
          "internalType": "address",
          "name": "proposer",
          "type": "address"
        },
        {
          "internalType": "uint256",
          "name": "eta",
          "type": "uint256"
        },
        {
          "internalType": "uint256",
          "name": "startBlock",
          "type": "uint256"
        },
        {
          "internalType": "uint256",
          "name": "endBlock",
          "type": "uint256"
        },
        {
          "internalType": "uint256",
          "name": "forVotes",
          "type": "uint256"
        },
        {
          "internalType": "uint256",
          "name": "againstVotes",
          "type": "uint256"
        },
        {
          "internalType": "uint256",
          "name": "abstainVotes",
          "type": "uint256"
        },
        {
          "internalType": "bool",
          "name": "canceled",
          "type": "bool"
        },
        {
          "internalType": "bool",
          "name": "executed",
          "type": "bool"
        }
      ],
      "stateMutability": "view",
      "type": "function"
    },
    {
      "inputs": [],
      "name": "quorumVotes",
      "outputs": [
        {
          "internalType": "uint256",
          "name": "",
          "type": "uint256"
        }
      ],
      "stateMutability": "view",
      "type": "function"
    },
    {
      "inputs": [],
      "name": "timelock",
      "outputs": [
        {
          "internalType": "address",
          "name": "",
          "type": "address"
        }
      ],
      "stateMutability": "view",
      "type": "function"
    },
    {
      "inputs": [],
      "name": "token",
      "outputs": [
        {
          "internalType": "contract ERC20VotesComp",
          "name": "",
          "type": "address"
        }
      ],
      "stateMutability": "view",
      "type": "function"
    },
    {
      "inputs": [
        {
          "internalType": "contract ICompoundTimelock",
          "name": "newTimelock",
          "type": "address"
        }
      ],
      "name": "updateTimelock",
      "outputs": [],
      "stateMutability": "nonpayable",
      "type": "function"
    },
    {
      "inputs": [],
      "name": "version",
      "outputs": [
        {
          "internalType": "string",
          "name": "",
          "type": "string"
        }
      ],
      "stateMutability": "view",
      "type": "function"
    },
    {
      "stateMutability": "payable",
      "type": "receive"
    },
    {
      "inputs": [
        {
          "internalType": "bytes4",
          "name": "interfaceId",
          "type": "bytes4"
        }
      ],
      "name": "supportsInterface",
      "outputs": [
        {
          "internalType": "bool",
          "name": "",
          "type": "bool"
        }
      ],
      "stateMutability": "view",
      "type": "function"
    },
    {
      "inputs": [],
      "name": "votingDelay",
      "outputs": [
        {
          "internalType": "uint256",
          "name": "",
          "type": "uint256"
        }
      ],
      "stateMutability": "view",
      "type": "function"
    },
    {
      "inputs": [],
      "name": "votingPeriod",
      "outputs": [
        {
          "internalType": "uint256",
          "name": "",
          "type": "uint256"
        }
      ],
      "stateMutability": "view",
      "type": "function"
    },
    {
      "inputs": [],
      "name": "proposalThreshold",
      "outputs": [
        {
          "internalType": "uint256",
          "name": "",
          "type": "uint256"
        }
      ],
      "stateMutability": "view",
      "type": "function"
    },
    {
      "inputs": [
        {
          "internalType": "uint256",
          "name": "",
          "type": "uint256"
        }
      ],
      "name": "quorum",
      "outputs": [
        {
          "internalType": "uint256",
          "name": "",
          "type": "uint256"
        }
      ],
      "stateMutability": "pure",
      "type": "function"
    },
    {
      "inputs": [
        {
          "internalType": "uint256",
          "name": "proposalId",
          "type": "uint256"
        }
      ],
      "name": "state",
      "outputs": [
        {
          "internalType": "enum IGovernor.ProposalState",
          "name": "",
          "type": "uint8"
        }
      ],
      "stateMutability": "view",
      "type": "function"
    },
    {
      "inputs": [
        {
          "internalType": "uint256",
          "name": "proposalId",
          "type": "uint256"
        }
      ],
      "name": "proposalEta",
      "outputs": [
        {
          "internalType": "uint256",
          "name": "",
          "type": "uint256"
        }
      ],
      "stateMutability": "view",
      "type": "function"
    },
    {
      "inputs": [
        {
          "internalType": "address[]",
          "name": "targets",
          "type": "address[]"
        },
        {
          "internalType": "uint256[]",
          "name": "values",
          "type": "uint256[]"
        },
        {
          "internalType": "bytes[]",
          "name": "calldatas",
          "type": "bytes[]"
        },
        {
          "internalType": "string",
          "name": "description",
          "type": "string"
        }
      ],
      "name": "propose",
      "outputs": [
        {
          "internalType": "uint256",
          "name": "",
          "type": "uint256"
        }
      ],
      "stateMutability": "nonpayable",
      "type": "function"
    },
    {
      "inputs": [
        {
          "internalType": "address[]",
          "name": "targets",
          "type": "address[]"
        },
        {
          "internalType": "uint256[]",
          "name": "values",
          "type": "uint256[]"
        },
        {
          "internalType": "string[]",
          "name": "signatures",
          "type": "string[]"
        },
        {
          "internalType": "bytes[]",
          "name": "calldatas",
          "type": "bytes[]"
        },
        {
          "internalType": "string",
          "name": "description",
          "type": "string"
        }
      ],
      "name": "propose",
      "outputs": [
        {
          "internalType": "uint256",
          "name": "",
          "type": "uint256"
        }
      ],
      "stateMutability": "nonpayable",
      "type": "function"
    },
    {
      "inputs": [
        {
          "internalType": "address[]",
          "name": "targets",
          "type": "address[]"
        },
        {
          "internalType": "uint256[]",
          "name": "values",
          "type": "uint256[]"
        },
        {
          "internalType": "bytes[]",
          "name": "calldatas",
          "type": "bytes[]"
        },
        {
          "internalType": "bytes32",
          "name": "salt",
          "type": "bytes32"
        }
      ],
      "name": "queue",
      "outputs": [
        {
          "internalType": "uint256",
          "name": "",
          "type": "uint256"
        }
      ],
      "stateMutability": "nonpayable",
      "type": "function"
    },
    {
      "inputs": [
        {
          "internalType": "uint256",
          "name": "proposalId",
          "type": "uint256"
        }
      ],
      "name": "queue",
      "outputs": [],
      "stateMutability": "nonpayable",
      "type": "function"
    },
    {
      "inputs": [
        {
          "internalType": "address[]",
          "name": "targets",
          "type": "address[]"
        },
        {
          "internalType": "uint256[]",
          "name": "values",
          "type": "uint256[]"
        },
        {
          "internalType": "bytes[]",
          "name": "calldatas",
          "type": "bytes[]"
        },
        {
          "internalType": "bytes32",
          "name": "salt",
          "type": "bytes32"
        }
      ],
      "name": "execute",
      "outputs": [
        {
          "internalType": "uint256",
          "name": "",
          "type": "uint256"
        }
      ],
      "stateMutability": "payable",
      "type": "function"
    },
    {
      "inputs": [
        {
          "internalType": "uint256",
          "name": "proposalId",
          "type": "uint256"
        }
      ],
      "name": "execute",
      "outputs": [],
      "stateMutability": "payable",
      "type": "function"
    },
    {
      "inputs": [
        {
          "internalType": "uint256",
          "name": "proposalId",
          "type": "uint256"
        }
      ],
      "name": "cancel",
      "outputs": [],
      "stateMutability": "nonpayable",
      "type": "function"
    },
    {
      "inputs": [
        {
          "internalType": "address[]",
          "name": "targets",
          "type": "address[]"
        },
        {
          "internalType": "uint256[]",
          "name": "values",
          "type": "uint256[]"
        },
        {
          "internalType": "bytes[]",
          "name": "calldatas",
          "type": "bytes[]"
        },
        {
          "internalType": "bytes32",
          "name": "salt",
          "type": "bytes32"
        }
      ],
      "name": "cancel",
      "outputs": [
        {
          "internalType": "uint256",
          "name": "proposalId",
          "type": "uint256"
        }
      ],
      "stateMutability": "nonpayable",
      "type": "function"
    },
    {
      "inputs": [
        {
          "internalType": "address",
          "name": "account",
          "type": "address"
        },
        {
          "internalType": "uint256",
          "name": "blockNumber",
          "type": "uint256"
        }
      ],
      "name": "getVotes",
      "outputs": [
        {
          "internalType": "uint256",
          "name": "",
          "type": "uint256"
        }
      ],
      "stateMutability": "view",
      "type": "function"
    }
  ],
  "bytecode": "0x6101a06040523480156200001257600080fd5b50604051620079e4380380620079e48339818101604052810190620000389190620003d6565b848187806200004c6200015560201b60201c565b60008280519060200120905060008280519060200120905060007f8b73c3c69bb8fe3d512ecc4cf759cc79239f7b179b0ffacaa9a75d522b39400f90508260c081815250508160e081815250504660a08181525050620000b48184846200019260201b60201c565b6080818152505080610100818152505050505050508060009080519060200190620000e19291906200026f565b5050620000f481620001ce60201b60201c565b508073ffffffffffffffffffffffffffffffffffffffff166101208173ffffffffffffffffffffffffffffffffffffffff1660601b815250505083610140818152505082610160818152505081610180818152505050505050505062000784565b60606040518060400160405280600181526020017f3100000000000000000000000000000000000000000000000000000000000000815250905090565b60008383834630604051602001620001af959493929190620004e5565b6040516020818303038152906040528051906020012090509392505050565b7f08f74ea46ef7894f65eabfb5e6e695de773a000b47c529ab559178069b226401600360009054906101000a900473ffffffffffffffffffffffffffffffffffffffff168260405162000223929190620004b8565b60405180910390a180600360006101000a81548173ffffffffffffffffffffffffffffffffffffffff021916908373ffffffffffffffffffffffffffffffffffffffff16021790555050565b8280546200027d906200065b565b90600052602060002090601f016020900481019282620002a15760008555620002ed565b82601f10620002bc57805160ff1916838001178555620002ed565b82800160010185558215620002ed579182015b82811115620002ec578251825591602001919060010190620002cf565b5b509050620002fc919062000300565b5090565b5b808211156200031b57600081600090555060010162000301565b5090565b60006200033662000330846200056b565b62000542565b9050828152602081018484840111156200034f57600080fd5b6200035c84828562000625565b509392505050565b600081519050620003758162000736565b92915050565b6000815190506200038c8162000750565b92915050565b600082601f830112620003a457600080fd5b8151620003b68482602086016200031f565b91505092915050565b600081519050620003d0816200076a565b92915050565b60008060008060008060c08789031215620003f057600080fd5b600087015167ffffffffffffffff8111156200040b57600080fd5b6200041989828a0162000392565b96505060206200042c89828a0162000364565b95505060406200043f89828a01620003bf565b94505060606200045289828a01620003bf565b93505060806200046589828a01620003bf565b92505060a06200047889828a016200037b565b9150509295509295509295565b6200049081620005a1565b82525050565b620004a181620005c9565b82525050565b620004b2816200061b565b82525050565b6000604082019050620004cf600083018562000485565b620004de602083018462000485565b9392505050565b600060a082019050620004fc600083018862000496565b6200050b602083018762000496565b6200051a604083018662000496565b620005296060830185620004a7565b62000538608083018462000485565b9695505050505050565b60006200054e62000561565b90506200055c828262000691565b919050565b6000604051905090565b600067ffffffffffffffff821115620005895762000588620006f6565b5b620005948262000725565b9050602081019050919050565b6000620005ae82620005fb565b9050919050565b6000620005c282620005fb565b9050919050565b6000819050919050565b6000620005e082620005a1565b9050919050565b6000620005f482620005b5565b9050919050565b600073ffffffffffffffffffffffffffffffffffffffff82169050919050565b6000819050919050565b60005b838110156200064557808201518184015260208101905062000628565b8381111562000655576000848401525b50505050565b600060028204905060018216806200067457607f821691505b602082108114156200068b576200068a620006c7565b5b50919050565b6200069c8262000725565b810181811067ffffffffffffffff82111715620006be57620006bd620006f6565b5b80604052505050565b7f4e487b7100000000000000000000000000000000000000000000000000000000600052602260045260246000fd5b7f4e487b7100000000000000000000000000000000000000000000000000000000600052604160045260246000fd5b6000601f19601f8301169050919050565b6200074181620005d3565b81146200074d57600080fd5b50565b6200075b81620005e7565b81146200076757600080fd5b50565b62000775816200061b565b81146200078157600080fd5b50565b60805160a05160c05160e051610100516101205160601c6101405161016051610180516171e5620007ff60003960006115bf01526000610b2401526000610f55015260008181611b890152612ee7015260006131110152600061315301526000613132015260006130be015260006130e601526171e56000f3fe6080604052600436106102085760003560e01c80637b3c71d311610118578063da95691a116100a0578063e23a9a521161006f578063e23a9a5214610874578063eb9019d4146108b1578063f8ce560a146108ee578063fc0c546a1461092b578063fe0d94c1146109565761024e565b8063da95691a146107b8578063dd4e2ba5146107f5578063ddf0b00914610820578063deaaa7cc146108495761024e565b8063b58131b0116100e7578063b58131b0146106d1578063b9a61961146106fc578063c01f9e3714610713578063c59057e414610750578063d33219b41461078d5761024e565b80637b3c71d3146105f15780637d5e81e21461062e578063a890c9101461066b578063ab58fb8e146106945761024e565b8063328dd9821161019b57806340e58ee51161016a57806340e58ee5146104e6578063438596321461050f578063452115d61461054c57806354fd4d501461058957806356781388146105b45761024e565b8063328dd982146104015780633932abb1146104415780633bccf4fd1461046c5780633e4f49e6146104a95761024e565b8063160cbed7116101d7578063160cbed71461032c57806324bc1a64146103695780632656227d146103945780632d63f693146103c45761024e565b8063013cf08b1461025357806301ffc9a71461029957806302a251a3146102d657806306fdde03146103015761024e565b3661024e573073ffffffffffffffffffffffffffffffffffffffff1661022c610972565b73ffffffffffffffffffffffffffffffffffffffff161461024c57600080fd5b005b600080fd5b34801561025f57600080fd5b5061027a600480360381019061027591906152cd565b610981565b6040516102909a9998979695949392919061634c565b60405180910390f35b3480156102a557600080fd5b506102c060048036038101906102bb919061523a565b610b0e565b6040516102cd9190615e27565b60405180910390f35b3480156102e257600080fd5b506102eb610b20565b6040516102f89190616281565b60405180910390f35b34801561030d57600080fd5b50610316610b48565b6040516103239190615f84565b60405180910390f35b34801561033857600080fd5b50610353600480360381019061034e9190614f8b565b610bda565b6040516103609190616281565b60405180910390f35b34801561037557600080fd5b5061037e610bf2565b60405161038b9190616281565b60405180910390f35b6103ae60048036038101906103a99190614f8b565b610c0e565b6040516103bb9190616281565b60405180910390f35b3480156103d057600080fd5b506103eb60048036038101906103e691906152cd565b610c26565b6040516103f89190616281565b60405180910390f35b34801561040d57600080fd5b50610428600480360381019061042391906152cd565b610c94565b6040516104389493929190615dc6565b60405180910390f35b34801561044d57600080fd5b50610456610f51565b6040516104639190616281565b60405180910390f35b34801561047857600080fd5b50610493600480360381019061048e9190615403565b610f79565b6040516104a09190616281565b60405180910390f35b3480156104b557600080fd5b506104d060048036038101906104cb91906152cd565b611003565b6040516104dd9190615f69565b60405180910390f35b3480156104f257600080fd5b5061050d600480360381019061050891906152cd565b611015565b005b34801561051b57600080fd5b506105366004803603810190610531919061531f565b6113ad565b6040516105439190615e27565b60405180910390f35b34801561055857600080fd5b50610573600480360381019061056e9190614f8b565b61141b565b6040516105809190616281565b60405180910390f35b34801561059557600080fd5b5061059e611433565b6040516105ab9190615f84565b60405180910390f35b3480156105c057600080fd5b506105db60048036038101906105d6919061535b565b611470565b6040516105e89190616281565b60405180910390f35b3480156105fd57600080fd5b5061061860048036038101906106139190615397565b6114a1565b6040516106259190616281565b60405180910390f35b34801561063a57600080fd5b5061065560048036038101906106509190615036565b611509565b6040516106629190616281565b60405180910390f35b34801561067757600080fd5b50610692600480360381019061068d91906152a4565b611521565b005b3480156106a057600080fd5b506106bb60048036038101906106b691906152cd565b6115a9565b6040516106c89190616281565b60405180910390f35b3480156106dd57600080fd5b506106e66115bb565b6040516106f39190616281565b60405180910390f35b34801561070857600080fd5b506107116115e3565b005b34801561071f57600080fd5b5061073a600480360381019061073591906152cd565b611667565b6040516107479190616281565b60405180910390f35b34801561075c57600080fd5b5061077760048036038101906107729190614f8b565b6116d5565b6040516107849190616281565b60405180910390f35b34801561079957600080fd5b506107a2611711565b6040516107af9190615ca0565b60405180910390f35b3480156107c457600080fd5b506107df60048036038101906107da91906150f9565b61173b565b6040516107ec9190616281565b60405180910390f35b34801561080157600080fd5b5061080a611772565b6040516108179190615f84565b60405180910390f35b34801561082c57600080fd5b50610847600480360381019061084291906152cd565b6117af565b005b34801561085557600080fd5b5061085e611a64565b60405161086b9190615e42565b60405180910390f35b34801561088057600080fd5b5061089b6004803603810190610896919061531f565b611a88565b6040516108a89190616266565b60405180910390f35b3480156108bd57600080fd5b506108d860048036038101906108d39190614f4f565b611b6c565b6040516108e59190616281565b60405180910390f35b3480156108fa57600080fd5b50610915600480360381019061091091906152cd565b611b80565b6040516109229190616281565b60405180910390f35b34801561093757600080fd5b50610940611b87565b60405161094d9190615f4e565b60405180910390f35b610970600480360381019061096b91906152cd565b611bab565b005b600061097c611e60565b905090565b6000806000806000806000806000808a995061099c8b6115a9565b97506109a78b610c26565b96506109b28b611667565b95506000600260008d815260200190815260200160002090508060000160009054906101000a900473ffffffffffffffffffffffffffffffffffffffff1699508060050154955080600601549450806007015493506000610a128d611003565b905060026007811115610a4e577f4e487b7100000000000000000000000000000000000000000000000000000000600052602160045260246000fd5b816007811115610a87577f4e487b7100000000000000000000000000000000000000000000000000000000600052602160045260246000fd5b149350600780811115610ac3577f4e487b7100000000000000000000000000000000000000000000000000000000600052602160045260246000fd5b816007811115610afc577f4e487b7100000000000000000000000000000000000000000000000000000000600052602160045260246000fd5b14925050509193959799509193959799565b6000610b1982611e8a565b9050919050565b60007f0000000000000000000000000000000000000000000000000000000000000000905090565b606060008054610b5790616928565b80601f0160208091040260200160405190810160405280929190818152602001828054610b8390616928565b8015610bd05780601f10610ba557610100808354040283529160200191610bd0565b820191906000526020600020905b815481529060010190602001808311610bb357829003601f168201915b5050505050905090565b6000610be885858585611f04565b9050949350505050565b6000610c09600143610c04919061677c565b611b80565b905090565b6000610c1c8585858561245e565b9050949350505050565b6000610c83600160008481526020019081526020016000206000016040518060200160405290816000820160009054906101000a900467ffffffffffffffff1667ffffffffffffffff1667ffffffffffffffff1681525050612629565b67ffffffffffffffff169050919050565b60608060608060006002600087815260200190815260200160002090508060010181600201826003018360040183805480602002602001604051908101604052809291908181526020018280548015610d4257602002820191906000526020600020905b8160009054906101000a900473ffffffffffffffffffffffffffffffffffffffff1673ffffffffffffffffffffffffffffffffffffffff1681526020019060010190808311610cf8575b5050505050935082805480602002602001604051908101604052809291908181526020018280548015610d9457602002820191906000526020600020905b815481526020019060010190808311610d80575b5050505050925081805480602002602001604051908101604052809291908181526020016000905b82821015610e68578382906000526020600020018054610ddb90616928565b80601f0160208091040260200160405190810160405280929190818152602001828054610e0790616928565b8015610e545780601f10610e2957610100808354040283529160200191610e54565b820191906000526020600020905b815481529060010190602001808311610e3757829003601f168201915b505050505081526020019060010190610dbc565b50505050915080805480602002602001604051908101604052809291908181526020016000905b82821015610f3b578382906000526020600020018054610eae90616928565b80601f0160208091040260200160405190810160405280929190818152602001828054610eda90616928565b8015610f275780601f10610efc57610100808354040283529160200191610f27565b820191906000526020600020905b815481529060010190602001808311610f0a57829003601f168201915b505050505081526020019060010190610e8f565b5050505090509450945094509450509193509193565b60007f0000000000000000000000000000000000000000000000000000000000000000905090565b600080610fda610fd27f150214d74d59b7d1e90c73fc22ef3d991dd0a76b046543d4d80ab92d2a50328f8989604051602001610fb793929190615eb0565b60405160208183030381529060405280519060200120612637565b868686612651565b9050610ff78782886040518060200160405280600081525061267c565b91505095945050505050565b600061100e8261281c565b9050919050565b60006002600083815260200190815260200160002090508060000160009054906101000a900473ffffffffffffffffffffffffffffffffffffffff1673ffffffffffffffffffffffffffffffffffffffff1661106f612993565b73ffffffffffffffffffffffffffffffffffffffff1614806110d057506110946115bb565b6110ce8260000160009054906101000a900473ffffffffffffffffffffffffffffffffffffffff166001436110c9919061677c565b611b6c565b105b61110f576040517f08c379a000000000000000000000000000000000000000000000000000000000815260040161110690616226565b60405180910390fd5b6113a88160010180548060200260200160405190810160405280929190818152602001828054801561119657602002820191906000526020600020905b8160009054906101000a900473ffffffffffffffffffffffffffffffffffffffff1673ffffffffffffffffffffffffffffffffffffffff168152602001906001019080831161114c575b5050505050826002018054806020026020016040519081016040528092919081815260200182805480156111e957602002820191906000526020600020905b8154815260200190600101908083116111d5575b505050505061139e84600301805480602002602001604051908101604052809291908181526020016000905b828210156112c157838290600052602060002001805461123490616928565b80601f016020809104026020016040519081016040528092919081815260200182805461126090616928565b80156112ad5780601f10611282576101008083540402835291602001916112ad565b820191906000526020600020905b81548152906001019060200180831161129057829003601f168201915b505050505081526020019060010190611215565b5050505085600401805480602002602001604051908101604052809291908181526020016000905b8282101561139557838290600052602060002001805461130890616928565b80601f016020809104026020016040519081016040528092919081815260200182805461133490616928565b80156113815780601f1061135657610100808354040283529160200191611381565b820191906000526020600020905b81548152906001019060200180831161136457829003601f168201915b5050505050815260200190600101906112e9565b5050505061299b565b8460090154612c16565b505050565b60006002600084815260200190815260200160002060080160008373ffffffffffffffffffffffffffffffffffffffff1673ffffffffffffffffffffffffffffffffffffffff16815260200190815260200160002060000160009054906101000a900460ff16905092915050565b600061142985858585612c16565b9050949350505050565b60606040518060400160405280600181526020017f3100000000000000000000000000000000000000000000000000000000000000815250905090565b60008061147b612993565b90506114988482856040518060200160405280600081525061267c565b91505092915050565b6000806114ac612993565b90506114fe86828787878080601f016020809104026020016040519081016040528093929190818152602001838380828437600081840152601f19601f8201169050808301925050505050505061267c565b915050949350505050565b600061151785858585612c2e565b9050949350505050565b611529610972565b73ffffffffffffffffffffffffffffffffffffffff16611547612993565b73ffffffffffffffffffffffffffffffffffffffff161461159d576040517f08c379a000000000000000000000000000000000000000000000000000000000815260040161159490615fc6565b60405180910390fd5b6115a681612ccf565b50565b60006115b482612d6e565b9050919050565b60007f0000000000000000000000000000000000000000000000000000000000000000905090565b600360009054906101000a900473ffffffffffffffffffffffffffffffffffffffff1673ffffffffffffffffffffffffffffffffffffffff16630e18b6816040518163ffffffff1660e01b8152600401600060405180830381600087803b15801561164d57600080fd5b505af1158015611661573d6000803e3d6000fd5b50505050565b60006116c4600160008481526020019081526020016000206001016040518060200160405290816000820160009054906101000a900467ffffffffffffffff1667ffffffffffffffff1667ffffffffffffffff1681525050612629565b67ffffffffffffffff169050919050565b6000848484846040516020016116ee9493929190615d6c565b6040516020818303038152906040528051906020012060001c9050949350505050565b6000600360009054906101000a900473ffffffffffffffffffffffffffffffffffffffff16905090565b6000611752611748612993565b8787878787612ddc565b6117678686611761878761299b565b85611509565b905095945050505050565b60606040518060400160405280601a81526020017f737570706f72743d627261766f2671756f72756d3d627261766f000000000000815250905090565b6000600260008381526020019081526020016000209050611a5f8160010180548060200260200160405190810160405280929190818152602001828054801561184d57602002820191906000526020600020905b8160009054906101000a900473ffffffffffffffffffffffffffffffffffffffff1673ffffffffffffffffffffffffffffffffffffffff1681526020019060010190808311611803575b5050505050826002018054806020026020016040519081016040528092919081815260200182805480156118a057602002820191906000526020600020905b81548152602001906001019080831161188c575b5050505050611a5584600301805480602002602001604051908101604052809291908181526020016000905b828210156119785783829060005260206000200180546118eb90616928565b80601f016020809104026020016040519081016040528092919081815260200182805461191790616928565b80156119645780601f1061193957610100808354040283529160200191611964565b820191906000526020600020905b81548152906001019060200180831161194757829003601f168201915b5050505050815260200190600101906118cc565b5050505085600401805480602002602001604051908101604052809291908181526020016000905b82821015611a4c5783829060005260206000200180546119bf90616928565b80601f01602080910402602001604051908101604052809291908181526020018280546119eb90616928565b8015611a385780601f10611a0d57610100808354040283529160200191611a38565b820191906000526020600020905b815481529060010190602001808311611a1b57829003601f168201915b5050505050815260200190600101906119a0565b5050505061299b565b8460090154610bda565b505050565b7f150214d74d59b7d1e90c73fc22ef3d991dd0a76b046543d4d80ab92d2a50328f81565b611a90614705565b6002600084815260200190815260200160002060080160008373ffffffffffffffffffffffffffffffffffffffff1673ffffffffffffffffffffffffffffffffffffffff1681526020019081526020016000206040518060600160405290816000820160009054906101000a900460ff161515151581526020016000820160019054906101000a900460ff1660ff1660ff1681526020016000820160029054906101000a90046bffffffffffffffffffffffff166bffffffffffffffffffffffff166bffffffffffffffffffffffff1681525050905092915050565b6000611b788383612ee3565b905092915050565b6000919050565b7f000000000000000000000000000000000000000000000000000000000000000081565b6000600260008381526020019081526020016000209050611e5b81600101805480602002602001604051908101604052809291908181526020018280548015611c4957602002820191906000526020600020905b8160009054906101000a900473ffffffffffffffffffffffffffffffffffffffff1673ffffffffffffffffffffffffffffffffffffffff1681526020019060010190808311611bff575b505050505082600201805480602002602001604051908101604052809291908181526020018280548015611c9c57602002820191906000526020600020905b815481526020019060010190808311611c88575b5050505050611e5184600301805480602002602001604051908101604052809291908181526020016000905b82821015611d74578382906000526020600020018054611ce790616928565b80601f0160208091040260200160405190810160405280929190818152602001828054611d1390616928565b8015611d605780601f10611d3557610100808354040283529160200191611d60565b820191906000526020600020905b815481529060010190602001808311611d4357829003601f168201915b505050505081526020019060010190611cc8565b5050505085600401805480602002602001604051908101604052809291908181526020016000905b82821015611e48578382906000526020600020018054611dbb90616928565b80601f0160208091040260200160405190810160405280929190818152602001828054611de790616928565b8015611e345780601f10611e0957610100808354040283529160200191611e34565b820191906000526020600020905b815481529060010190602001808311611e1757829003601f168201915b505050505081526020019060010190611d9c565b5050505061299b565b8460090154610c0e565b505050565b6000600360009054906101000a900473ffffffffffffffffffffffffffffffffffffffff16905090565b60007f6e665ced000000000000000000000000000000000000000000000000000000007bffffffffffffffffffffffffffffffffffffffffffffffffffffffff1916827bffffffffffffffffffffffffffffffffffffffffffffffffffffffff19161480611efd5750611efc82612fa6565b5b9050919050565b600080611f13868686866116d5565b905060046007811115611f4f577f4e487b7100000000000000000000000000000000000000000000000000000000600052602160045260246000fd5b611f5882611003565b6007811115611f90577f4e487b7100000000000000000000000000000000000000000000000000000000600052602160045260246000fd5b14611fd0576040517f08c379a0000000000000000000000000000000000000000000000000000000008152600401611fc790616186565b60405180910390fd5b6000600360009054906101000a900473ffffffffffffffffffffffffffffffffffffffff1673ffffffffffffffffffffffffffffffffffffffff16636a42b8f86040518163ffffffff1660e01b815260040160206040518083038186803b15801561203a57600080fd5b505afa15801561204e573d6000803e3d6000fd5b505050506040513d601f19601f8201168201806040525081019061207291906152f6565b4261207d91906166e8565b90506120af61208b82613020565b6004600085815260200190815260200160002060000161307790919063ffffffff16565b60005b875181101561241757600360009054906101000a900473ffffffffffffffffffffffffffffffffffffffff1673ffffffffffffffffffffffffffffffffffffffff1663f2b06537898381518110612132577f4e487b7100000000000000000000000000000000000000000000000000000000600052603260045260246000fd5b6020026020010151898481518110612173577f4e487b7100000000000000000000000000000000000000000000000000000000600052603260045260246000fd5b60200260200101518985815181106121b4577f4e487b7100000000000000000000000000000000000000000000000000000000600052603260045260246000fd5b6020026020010151866040516020016121d09493929190615d0d565b604051602081830303815290604052805190602001206040518263ffffffff1660e01b81526004016122029190615e42565b60206040518083038186803b15801561221a57600080fd5b505afa15801561222e573d6000803e3d6000fd5b505050506040513d601f19601f8201168201806040525081019061225291906151e8565b15612292576040517f08c379a000000000000000000000000000000000000000000000000000000000815260040161228990616066565b60405180910390fd5b600360009054906101000a900473ffffffffffffffffffffffffffffffffffffffff1673ffffffffffffffffffffffffffffffffffffffff16633a66f901898381518110612309577f4e487b7100000000000000000000000000000000000000000000000000000000600052603260045260246000fd5b602002602001015189848151811061234a577f4e487b7100000000000000000000000000000000000000000000000000000000600052603260045260246000fd5b602002602001015189858151811061238b577f4e487b7100000000000000000000000000000000000000000000000000000000600052603260045260246000fd5b6020026020010151866040518563ffffffff1660e01b81526004016123b39493929190615d0d565b602060405180830381600087803b1580156123cd57600080fd5b505af11580156123e1573d6000803e3d6000fd5b505050506040513d601f19601f820116820180604052508101906124059190615211565b50806124109061698b565b90506120b2565b507f9a2e42fd6722813d69113e7d0079d3d940171428df7373df9c7f7617cfda289282826040516124499291906163e8565b60405180910390a18192505050949350505050565b60008061246d868686866116d5565b9050600061247a82611003565b9050600460078111156124b6577f4e487b7100000000000000000000000000000000000000000000000000000000600052602160045260246000fd5b8160078111156124ef577f4e487b7100000000000000000000000000000000000000000000000000000000600052602160045260246000fd5b148061256b575060056007811115612530577f4e487b7100000000000000000000000000000000000000000000000000000000600052602160045260246000fd5b816007811115612569577f4e487b7100000000000000000000000000000000000000000000000000000000600052602160045260246000fd5b145b6125aa576040517f08c379a00000000000000000000000000000000000000000000000000000000081526004016125a190616186565b60405180910390fd5b600180600084815260200190815260200160002060020160006101000a81548160ff0219169083151502179055507f712ae1383f79ac853f8d882153778e0260ef8f03b504e2866e0593e04d2b291f826040516126079190616281565b60405180910390a161261c82888888886130a6565b8192505050949350505050565b600081600001519050919050565b600061264a6126446130ba565b8361317d565b9050919050565b6000806000612662878787876131b0565b9150915061266f816132bd565b8192505050949350505050565b600080600160008781526020019081526020016000209050600160078111156126ce577f4e487b7100000000000000000000000000000000000000000000000000000000600052602160045260246000fd5b6126d787611003565b600781111561270f577f4e487b7100000000000000000000000000000000000000000000000000000000600052602160045260246000fd5b1461274f576040517f08c379a0000000000000000000000000000000000000000000000000000000008152600401612746906160e6565b60405180910390fd5b60006127ad8661279e846000016040518060200160405290816000820160009054906101000a900467ffffffffffffffff1667ffffffffffffffff1667ffffffffffffffff1681525050612629565b67ffffffffffffffff16611b6c565b90506127bb8787878461360e565b8573ffffffffffffffffffffffffffffffffffffffff167fb8e138887d0aa13bab447e82de9d5c1777041ecd21ca36ba824ff1e6c07ddda4888784886040516128079493929190616411565b60405180910390a28092505050949350505050565b600080612828836138aa565b905060046007811115612864577f4e487b7100000000000000000000000000000000000000000000000000000000600052602160045260246000fd5b81600781111561289d577f4e487b7100000000000000000000000000000000000000000000000000000000600052602160045260246000fd5b146128ab578091505061298e565b60006128b6846115a9565b905060008114156128cb57819250505061298e565b600360009054906101000a900473ffffffffffffffffffffffffffffffffffffffff1673ffffffffffffffffffffffffffffffffffffffff1663c1a287e26040518163ffffffff1660e01b815260040160206040518083038186803b15801561293357600080fd5b505afa158015612947573d6000803e3d6000fd5b505050506040513d601f19601f8201168201806040525081019061296b91906152f6565b8161297691906166e8565b42106129875760069250505061298e565b6005925050505b919050565b600033905090565b60606000825167ffffffffffffffff8111156129e0577f4e487b7100000000000000000000000000000000000000000000000000000000600052604160045260246000fd5b604051908082528060200260200182016040528015612a1357816020015b60608152602001906001900390816129fe5790505b50905060005b8451811015612c0b576000858281518110612a5d577f4e487b7100000000000000000000000000000000000000000000000000000000600052603260045260246000fd5b60200260200101515114612b7457848181518110612aa4577f4e487b7100000000000000000000000000000000000000000000000000000000600052603260045260246000fd5b6020026020010151848281518110612ae5577f4e487b7100000000000000000000000000000000000000000000000000000000600052603260045260246000fd5b6020026020010151604051602401612afd9190615f2c565b60405160208183030381529060405290604051612b1a9190615c3d565b60405180910390207bffffffffffffffffffffffffffffffffffffffffffffffffffffffff19166020820180517bffffffffffffffffffffffffffffffffffffffffffffffffffffffff8381831617835250505050612bb6565b838181518110612bad577f4e487b7100000000000000000000000000000000000000000000000000000000600052603260045260246000fd5b60200260200101515b828281518110612bef577f4e487b7100000000000000000000000000000000000000000000000000000000600052603260045260246000fd5b602002602001018190525080612c049061698b565b9050612a19565b508091505092915050565b6000612c2485858585613a71565b9050949350505050565b6000612cb9612c3b612993565b8686865167ffffffffffffffff811115612c7e577f4e487b7100000000000000000000000000000000000000000000000000000000600052604160045260246000fd5b604051908082528060200260200182016040528015612cb157816020015b6060815260200190600190039081612c9c5790505b508787612ddc565b612cc585858585613c35565b9050949350505050565b7f08f74ea46ef7894f65eabfb5e6e695de773a000b47c529ab559178069b226401600360009054906101000a900473ffffffffffffffffffffffffffffffffffffffff1682604051612d22929190615cbb565b60405180910390a180600360006101000a81548173ffffffffffffffffffffffffffffffffffffffff021916908373ffffffffffffffffffffffffffffffffffffffff16021790555050565b6000612dcb600460008481526020019081526020016000206000016040518060200160405290816000820160009054906101000a900467ffffffffffffffff1667ffffffffffffffff1667ffffffffffffffff1681525050613cac565b67ffffffffffffffff169050919050565b6000818051906020012090506000612dff8787612df9888861299b565b856116d5565b905060006002600083815260200190815260200160002090506000801b81600901541415612ed857888160000160006101000a81548173ffffffffffffffffffffffffffffffffffffffff021916908373ffffffffffffffffffffffffffffffffffffffff16021790555087816001019080519060200190612e82929190614739565b5086816002019080519060200190612e9b9291906147c3565b5085816003019080519060200190612eb4929190614810565b5084816004019080519060200190612ecd929190614870565b508281600901819055505b505050505050505050565b60007f000000000000000000000000000000000000000000000000000000000000000073ffffffffffffffffffffffffffffffffffffffff1663782d6fe184846040518363ffffffff1660e01b8152600401612f40929190615ce4565b60206040518083038186803b158015612f5857600080fd5b505afa158015612f6c573d6000803e3d6000fd5b505050506040513d601f19601f82011682018060405250810190612f90919061547a565b6bffffffffffffffffffffffff16905092915050565b60007fbf26d897000000000000000000000000000000000000000000000000000000007bffffffffffffffffffffffffffffffffffffffffffffffffffffffff1916827bffffffffffffffffffffffffffffffffffffffffffffffffffffffff19161480613019575061301882613cba565b5b9050919050565b600067ffffffffffffffff801682111561306f576040517f08c379a000000000000000000000000000000000000000000000000000000000815260040161306690616146565b60405180910390fd5b819050919050565b808260000160006101000a81548167ffffffffffffffff021916908367ffffffffffffffff1602179055505050565b6130b38585858585613d24565b5050505050565b60007f000000000000000000000000000000000000000000000000000000000000000046141561310c577f0000000000000000000000000000000000000000000000000000000000000000905061317a565b6131777f00000000000000000000000000000000000000000000000000000000000000007f00000000000000000000000000000000000000000000000000000000000000007f0000000000000000000000000000000000000000000000000000000000000000613f3f565b90505b90565b60008282604051602001613192929190615c54565b60405160208183030381529060405280519060200120905092915050565b6000807f7fffffffffffffffffffffffffffffff5d576e7357a4501ddfe92f46681b20a08360001c11156131eb5760006003915091506132b4565b601b8560ff16141580156132035750601c8560ff1614155b156132155760006004915091506132b4565b60006001878787876040516000815260200160405260405161323a9493929190615ee7565b6020604051602081039080840390855afa15801561325c573d6000803e3d6000fd5b505050602060405103519050600073ffffffffffffffffffffffffffffffffffffffff168173ffffffffffffffffffffffffffffffffffffffff1614156132ab576000600192509250506132b4565b80600092509250505b94509492505050565b600060048111156132f7577f4e487b7100000000000000000000000000000000000000000000000000000000600052602160045260246000fd5b816004811115613330577f4e487b7100000000000000000000000000000000000000000000000000000000600052602160045260246000fd5b141561333b5761360b565b60016004811115613375577f4e487b7100000000000000000000000000000000000000000000000000000000600052602160045260246000fd5b8160048111156133ae577f4e487b7100000000000000000000000000000000000000000000000000000000600052602160045260246000fd5b14156133ef576040517f08c379a00000000000000000000000000000000000000000000000000000000081526004016133e690615fa6565b60405180910390fd5b60026004811115613429577f4e487b7100000000000000000000000000000000000000000000000000000000600052602160045260246000fd5b816004811115613462577f4e487b7100000000000000000000000000000000000000000000000000000000600052602160045260246000fd5b14156134a3576040517f08c379a000000000000000000000000000000000000000000000000000000000815260040161349a90616026565b60405180910390fd5b600360048111156134dd577f4e487b7100000000000000000000000000000000000000000000000000000000600052602160045260246000fd5b816004811115613516577f4e487b7100000000000000000000000000000000000000000000000000000000600052602160045260246000fd5b1415613557576040517f08c379a000000000000000000000000000000000000000000000000000000000815260040161354e906160a6565b60405180910390fd5b600480811115613590577f4e487b7100000000000000000000000000000000000000000000000000000000600052602160045260246000fd5b8160048111156135c9577f4e487b7100000000000000000000000000000000000000000000000000000000600052602160045260246000fd5b141561360a576040517f08c379a000000000000000000000000000000000000000000000000000000000815260040161360190616126565b60405180910390fd5b5b50565b600060026000868152602001908152602001600020905060008160080160008673ffffffffffffffffffffffffffffffffffffffff1673ffffffffffffffffffffffffffffffffffffffff16815260200190815260200160002090508060000160009054906101000a900460ff16156136bc576040517f08c379a00000000000000000000000000000000000000000000000000000000081526004016136b390616246565b60405180910390fd5b60018160000160006101000a81548160ff021916908315150217905550838160000160016101000a81548160ff021916908360ff1602179055506136ff83613f79565b8160000160026101000a8154816bffffffffffffffffffffffff02191690836bffffffffffffffffffffffff1602179055506000600281111561376b577f4e487b7100000000000000000000000000000000000000000000000000000000600052602160045260246000fd5b60ff168460ff161415613798578282600601600082825461378c91906166e8565b925050819055506138a2565b600160028111156137d2577f4e487b7100000000000000000000000000000000000000000000000000000000600052602160045260246000fd5b60ff168460ff1614156137ff57828260050160008282546137f391906166e8565b925050819055506138a1565b600280811115613838577f4e487b7100000000000000000000000000000000000000000000000000000000600052602160045260246000fd5b60ff168460ff161415613865578282600701600082825461385991906166e8565b925050819055506138a0565b6040517f08c379a0000000000000000000000000000000000000000000000000000000008152600401613897906161c6565b60405180910390fd5b5b5b505050505050565b60008060016000848152602001908152602001600020604051806080016040529081600082016040518060200160405290816000820160009054906101000a900467ffffffffffffffff1667ffffffffffffffff1667ffffffffffffffff16815250508152602001600182016040518060200160405290816000820160009054906101000a900467ffffffffffffffff1667ffffffffffffffff1667ffffffffffffffff168152505081526020016002820160009054906101000a900460ff161515151581526020016002820160019054906101000a900460ff16151515158152505090508060400151156139a3576007915050613a6c565b8060600151156139b7576002915050613a6c565b6139c48160000151613fd4565b156139d3576000915050613a6c565b6139e08160200151613fd4565b156139ef576001915050613a6c565b6139fc8160200151613fee565b15613a3157613a0a8361401a565b8015613a1b5750613a1a83614051565b5b613a26576003613a29565b60045b915050613a6c565b6040517f08c379a0000000000000000000000000000000000000000000000000000000008152600401613a63906161e6565b60405180910390fd5b919050565b600080613a808686868661407c565b90506000613a8d826115a9565b90506000811115613c285760005b8751811015613c0857600360009054906101000a900473ffffffffffffffffffffffffffffffffffffffff1673ffffffffffffffffffffffffffffffffffffffff1663591fcdfe898381518110613b1b577f4e487b7100000000000000000000000000000000000000000000000000000000600052603260045260246000fd5b6020026020010151898481518110613b5c577f4e487b7100000000000000000000000000000000000000000000000000000000600052603260045260246000fd5b6020026020010151898581518110613b9d577f4e487b7100000000000000000000000000000000000000000000000000000000600052603260045260246000fd5b6020026020010151866040518563ffffffff1660e01b8152600401613bc59493929190615d0d565b600060405180830381600087803b158015613bdf57600080fd5b505af1158015613bf3573d6000803e3d6000fd5b5050505080613c019061698b565b9050613a9b565b50613c27600460008481526020019081526020016000206000016142b9565b5b8192505050949350505050565b6000613c3f6115bb565b613c5533600143613c50919061677c565b611b6c565b1015613c96576040517f08c379a0000000000000000000000000000000000000000000000000000000008152600401613c8d90616006565b60405180910390fd5b613ca2858585856142e8565b9050949350505050565b600081600001519050919050565b60007f01ffc9a7000000000000000000000000000000000000000000000000000000007bffffffffffffffffffffffffffffffffffffffffffffffffffffffff1916827bffffffffffffffffffffffffffffffffffffffffffffffffffffffff1916149050919050565b6000613d2f866115a9565b905060008111613d74576040517f08c379a0000000000000000000000000000000000000000000000000000000008152600401613d6b906161a6565b60405180910390fd5b613da0600360009054906101000a900473ffffffffffffffffffffffffffffffffffffffff16346145ae565b60005b8551811015613f3657600360009054906101000a900473ffffffffffffffffffffffffffffffffffffffff1673ffffffffffffffffffffffffffffffffffffffff16630825f38f878381518110613e23577f4e487b7100000000000000000000000000000000000000000000000000000000600052603260045260246000fd5b6020026020010151878481518110613e64577f4e487b7100000000000000000000000000000000000000000000000000000000600052603260045260246000fd5b6020026020010151878581518110613ea5577f4e487b7100000000000000000000000000000000000000000000000000000000600052603260045260246000fd5b6020026020010151866040518563ffffffff1660e01b8152600401613ecd9493929190615d0d565b600060405180830381600087803b158015613ee757600080fd5b505af1158015613efb573d6000803e3d6000fd5b505050506040513d6000823e3d601f19601f82011682018060405250810190613f249190615263565b5080613f2f9061698b565b9050613da3565b50505050505050565b60008383834630604051602001613f5a959493929190615e5d565b6040516020818303038152906040528051906020012090509392505050565b60006bffffffffffffffffffffffff8016821115613fcc576040517f08c379a0000000000000000000000000000000000000000000000000000000008152600401613fc390615fe6565b60405180910390fd5b819050919050565b600043826000015167ffffffffffffffff16119050919050565b6000613ff9826146a2565b8015614013575043826000015167ffffffffffffffff1611155b9050919050565b600080600260008481526020019081526020016000209050806005015461404861404385610c26565b611b80565b10915050919050565b6000806002600084815260200190815260200160002090508060060154816005015411915050919050565b60008061408b868686866116d5565b9050600061409882611003565b9050600260078111156140d4577f4e487b7100000000000000000000000000000000000000000000000000000000600052602160045260246000fd5b81600781111561410d577f4e487b7100000000000000000000000000000000000000000000000000000000600052602160045260246000fd5b1415801561418c575060066007811115614150577f4e487b7100000000000000000000000000000000000000000000000000000000600052602160045260246000fd5b816007811115614189577f4e487b7100000000000000000000000000000000000000000000000000000000600052602160045260246000fd5b14155b801561420857506007808111156141cc577f4e487b7100000000000000000000000000000000000000000000000000000000600052602160045260246000fd5b816007811115614205577f4e487b7100000000000000000000000000000000000000000000000000000000600052602160045260246000fd5b14155b614247576040517f08c379a000000000000000000000000000000000000000000000000000000000815260040161423e90616166565b60405180910390fd5b600180600084815260200190815260200160002060020160016101000a81548160ff0219169083151502179055507f789cf55be980739dad1d0699b93b58e806b51c9d96619bfa8fe0a28abaa7b30c826040516142a49190616281565b60405180910390a18192505050949350505050565b60008160000160006101000a81548167ffffffffffffffff021916908367ffffffffffffffff16021790555050565b6000806142fe86868686805190602001206116d5565b90508451865114614344576040517f08c379a000000000000000000000000000000000000000000000000000000000815260040161433b90616046565b60405180910390fd5b8351865114614388576040517f08c379a000000000000000000000000000000000000000000000000000000000815260040161437f90616046565b60405180910390fd5b60008651116143cc576040517f08c379a00000000000000000000000000000000000000000000000000000000081526004016143c390616106565b60405180910390fd5b600060016000838152602001908152602001600020905061442c816000016040518060200160405290816000820160009054906101000a900467ffffffffffffffff1667ffffffffffffffff1667ffffffffffffffff16815250506146bc565b61446b576040517f08c379a000000000000000000000000000000000000000000000000000000000815260040161446290616206565b60405180910390fd5b600061447d614478610f51565b613020565b61448643613020565b614490919061673e565b905060006144a461449f610b20565b613020565b826144af919061673e565b90506144c782846000016146d690919063ffffffff16565b6144dd81846001016146d690919063ffffffff16565b7f7d84a6263ae0d98d3329bd7b46bb4e8d6f98cd35a7adb45c274c8b7fd5ebd5e084614507612993565b8b8b8d5167ffffffffffffffff81111561454a577f4e487b7100000000000000000000000000000000000000000000000000000000600052604160045260246000fd5b60405190808252806020026020018201604052801561457d57816020015b60608152602001906001900390816145685790505b508c88888e6040516145979998979695949392919061629c565b60405180910390a183945050505050949350505050565b804710156145f1576040517f08c379a00000000000000000000000000000000000000000000000000000000081526004016145e8906160c6565b60405180910390fd5b60008273ffffffffffffffffffffffffffffffffffffffff168260405161461790615c8b565b60006040518083038185875af1925050503d8060008114614654576040519150601f19603f3d011682016040523d82523d6000602084013e614659565b606091505b505090508061469d576040517f08c379a000000000000000000000000000000000000000000000000000000000815260040161469490616086565b60405180910390fd5b505050565b600080826000015167ffffffffffffffff16119050919050565b600080826000015167ffffffffffffffff16149050919050565b808260000160006101000a81548167ffffffffffffffff021916908367ffffffffffffffff1602179055505050565b6040518060600160405280600015158152602001600060ff16815260200160006bffffffffffffffffffffffff1681525090565b8280548282559060005260206000209081019282156147b2579160200282015b828111156147b15782518260006101000a81548173ffffffffffffffffffffffffffffffffffffffff021916908373ffffffffffffffffffffffffffffffffffffffff16021790555091602001919060010190614759565b5b5090506147bf91906148d0565b5090565b8280548282559060005260206000209081019282156147ff579160200282015b828111156147fe5782518255916020019190600101906147e3565b5b50905061480c91906148d0565b5090565b82805482825590600052602060002090810192821561485f579160200282015b8281111561485e57825182908051906020019061484e9291906148ed565b5091602001919060010190614830565b5b50905061486c9190614973565b5090565b8280548282559060005260206000209081019282156148bf579160200282015b828111156148be5782518290805190602001906148ae929190614997565b5091602001919060010190614890565b5b5090506148cc9190614a1d565b5090565b5b808211156148e95760008160009055506001016148d1565b5090565b8280546148f990616928565b90600052602060002090601f01602090048101928261491b5760008555614962565b82601f1061493457805160ff1916838001178555614962565b82800160010185558215614962579182015b82811115614961578251825591602001919060010190614946565b5b50905061496f91906148d0565b5090565b5b80821115614993576000818161498a9190614a41565b50600101614974565b5090565b8280546149a390616928565b90600052602060002090601f0160209004810192826149c55760008555614a0c565b82601f106149de57805160ff1916838001178555614a0c565b82800160010185558215614a0c579182015b82811115614a0b5782518255916020019190600101906149f0565b5b509050614a1991906148d0565b5090565b5b80821115614a3d5760008181614a349190614a81565b50600101614a1e565b5090565b508054614a4d90616928565b6000825580601f10614a5f5750614a7e565b601f016020900490600052602060002090810190614a7d91906148d0565b5b50565b508054614a8d90616928565b6000825580601f10614a9f5750614abe565b601f016020900490600052602060002090810190614abd91906148d0565b5b50565b6000614ad4614acf84616482565b61645d565b90508083825260208201905082856020860282011115614af357600080fd5b60005b85811015614b235781614b098882614d0d565b845260208401935060208301925050600181019050614af6565b5050509392505050565b6000614b40614b3b846164ae565b61645d565b9050808382526020820190508260005b85811015614b805781358501614b668882614e1e565b845260208401935060208301925050600181019050614b50565b5050509392505050565b6000614b9d614b98846164da565b61645d565b9050808382526020820190508260005b85811015614bdd5781358501614bc38882614ed1565b845260208401935060208301925050600181019050614bad565b5050509392505050565b6000614bfa614bf584616506565b61645d565b90508083825260208201905082856020860282011115614c1957600080fd5b60005b85811015614c495781614c2f8882614efb565b845260208401935060208301925050600181019050614c1c565b5050509392505050565b6000614c66614c6184616532565b61645d565b905082815260208101848484011115614c7e57600080fd5b614c898482856168e6565b509392505050565b6000614ca4614c9f84616532565b61645d565b905082815260208101848484011115614cbc57600080fd5b614cc78482856168f5565b509392505050565b6000614ce2614cdd84616563565b61645d565b905082815260208101848484011115614cfa57600080fd5b614d058482856168e6565b509392505050565b600081359050614d1c816170f7565b92915050565b600082601f830112614d3357600080fd5b8135614d43848260208601614ac1565b91505092915050565b600082601f830112614d5d57600080fd5b8135614d6d848260208601614b2d565b91505092915050565b600082601f830112614d8757600080fd5b8135614d97848260208601614b8a565b91505092915050565b600082601f830112614db157600080fd5b8135614dc1848260208601614be7565b91505092915050565b600081519050614dd98161710e565b92915050565b600081359050614dee81617125565b92915050565b600081519050614e0381617125565b92915050565b600081359050614e188161713c565b92915050565b600082601f830112614e2f57600080fd5b8135614e3f848260208601614c53565b91505092915050565b600082601f830112614e5957600080fd5b8151614e69848260208601614c91565b91505092915050565b600081359050614e8181617153565b92915050565b60008083601f840112614e9957600080fd5b8235905067ffffffffffffffff811115614eb257600080fd5b602083019150836001820283011115614eca57600080fd5b9250929050565b600082601f830112614ee257600080fd5b8135614ef2848260208601614ccf565b91505092915050565b600081359050614f0a8161716a565b92915050565b600081519050614f1f8161716a565b92915050565b600081359050614f3481617181565b92915050565b600081519050614f4981617198565b92915050565b60008060408385031215614f6257600080fd5b6000614f7085828601614d0d565b9250506020614f8185828601614efb565b9150509250929050565b60008060008060808587031215614fa157600080fd5b600085013567ffffffffffffffff811115614fbb57600080fd5b614fc787828801614d22565b945050602085013567ffffffffffffffff811115614fe457600080fd5b614ff087828801614da0565b935050604085013567ffffffffffffffff81111561500d57600080fd5b61501987828801614d4c565b925050606061502a87828801614ddf565b91505092959194509250565b6000806000806080858703121561504c57600080fd5b600085013567ffffffffffffffff81111561506657600080fd5b61507287828801614d22565b945050602085013567ffffffffffffffff81111561508f57600080fd5b61509b87828801614da0565b935050604085013567ffffffffffffffff8111156150b857600080fd5b6150c487828801614d4c565b925050606085013567ffffffffffffffff8111156150e157600080fd5b6150ed87828801614ed1565b91505092959194509250565b600080600080600060a0868803121561511157600080fd5b600086013567ffffffffffffffff81111561512b57600080fd5b61513788828901614d22565b955050602086013567ffffffffffffffff81111561515457600080fd5b61516088828901614da0565b945050604086013567ffffffffffffffff81111561517d57600080fd5b61518988828901614d76565b935050606086013567ffffffffffffffff8111156151a657600080fd5b6151b288828901614d4c565b925050608086013567ffffffffffffffff8111156151cf57600080fd5b6151db88828901614ed1565b9150509295509295909350565b6000602082840312156151fa57600080fd5b600061520884828501614dca565b91505092915050565b60006020828403121561522357600080fd5b600061523184828501614df4565b91505092915050565b60006020828403121561524c57600080fd5b600061525a84828501614e09565b91505092915050565b60006020828403121561527557600080fd5b600082015167ffffffffffffffff81111561528f57600080fd5b61529b84828501614e48565b91505092915050565b6000602082840312156152b657600080fd5b60006152c484828501614e72565b91505092915050565b6000602082840312156152df57600080fd5b60006152ed84828501614efb565b91505092915050565b60006020828403121561530857600080fd5b600061531684828501614f10565b91505092915050565b6000806040838503121561533257600080fd5b600061534085828601614efb565b925050602061535185828601614d0d565b9150509250929050565b6000806040838503121561536e57600080fd5b600061537c85828601614efb565b925050602061538d85828601614f25565b9150509250929050565b600080600080606085870312156153ad57600080fd5b60006153bb87828801614efb565b94505060206153cc87828801614f25565b935050604085013567ffffffffffffffff8111156153e957600080fd5b6153f587828801614e87565b925092505092959194509250565b600080600080600060a0868803121561541b57600080fd5b600061542988828901614efb565b955050602061543a88828901614f25565b945050604061544b88828901614f25565b935050606061545c88828901614ddf565b925050608061546d88828901614ddf565b9150509295509295909350565b60006020828403121561548c57600080fd5b600061549a84828501614f3a565b91505092915050565b60006154af83836154fb565b60208301905092915050565b60006154c78383615703565b905092915050565b60006154db8383615793565b905092915050565b60006154ef8383615be3565b60208301905092915050565b615504816167b0565b82525050565b615513816167b0565b82525050565b6000615524826165d4565b61552e818561664a565b935061553983616594565b8060005b8381101561556a57815161555188826154a3565b975061555c83616616565b92505060018101905061553d565b5085935050505092915050565b6000615582826165df565b61558c818561665b565b93508360208202850161559e856165a4565b8060005b858110156155da57848403895281516155bb85826154bb565b94506155c683616623565b925060208a019950506001810190506155a2565b50829750879550505050505092915050565b60006155f7826165ea565b615601818561666c565b935083602082028501615613856165b4565b8060005b8581101561564f578484038952815161563085826154cf565b945061563b83616630565b925060208a01995050600181019050615617565b50829750879550505050505092915050565b600061566c826165f5565b615676818561667d565b9350615681836165c4565b8060005b838110156156b257815161569988826154e3565b97506156a48361663d565b925050600181019050615685565b5085935050505092915050565b6156c8816167d4565b82525050565b6156d7816167d4565b82525050565b6156e6816167e0565b82525050565b6156fd6156f8826167e0565b6169d4565b82525050565b600061570e82616600565b615718818561668e565b93506157288185602086016168f5565b61573181616a9a565b840191505092915050565b600061574782616600565b615751818561669f565b93506157618185602086016168f5565b61576a81616a9a565b840191505092915050565b61577e8161689e565b82525050565b61578d816168c2565b82525050565b600061579e8261660b565b6157a881856166bb565b93506157b88185602086016168f5565b6157c181616a9a565b840191505092915050565b60006157d78261660b565b6157e181856166cc565b93506157f18185602086016168f5565b6157fa81616a9a565b840191505092915050565b60006158108261660b565b61581a81856166dd565b935061582a8185602086016168f5565b80840191505092915050565b60006158436018836166cc565b915061584e82616aab565b602082019050919050565b60006158666018836166cc565b915061587182616ad4565b602082019050919050565b60006158896026836166cc565b915061589482616afd565b604082019050919050565b60006158ac6043836166cc565b91506158b782616b4c565b606082019050919050565b60006158cf601f836166cc565b91506158da82616bc1565b602082019050919050565b60006158f26002836166dd565b91506158fd82616bea565b600282019050919050565b60006159156021836166cc565b915061592082616c13565b604082019050919050565b60006159386042836166cc565b915061594382616c62565b606082019050919050565b600061595b603a836166cc565b915061596682616cd7565b604082019050919050565b600061597e6022836166cc565b915061598982616d26565b604082019050919050565b60006159a1601d836166cc565b91506159ac82616d75565b602082019050919050565b60006159c46023836166cc565b91506159cf82616d9e565b604082019050919050565b60006159e76018836166cc565b91506159f282616ded565b602082019050919050565b6000615a0a6022836166cc565b9150615a1582616e16565b604082019050919050565b6000615a2d6026836166cc565b9150615a3882616e65565b604082019050919050565b6000615a50601d836166cc565b9150615a5b82616eb4565b602082019050919050565b6000615a736021836166cc565b9150615a7e82616edd565b604082019050919050565b6000615a966031836166cc565b9150615aa182616f2c565b604082019050919050565b6000615ab9602d836166cc565b9150615ac482616f7b565b604082019050919050565b6000615adc601d836166cc565b9150615ae782616fca565b602082019050919050565b6000615aff6021836166cc565b9150615b0a82616ff3565b604082019050919050565b6000615b226000836166b0565b9150615b2d82617042565b600082019050919050565b6000615b456000836166cc565b9150615b5082617042565b600082019050919050565b6000615b686027836166cc565b9150615b7382617045565b604082019050919050565b6000615b8b602d836166cc565b9150615b9682617094565b604082019050919050565b606082016000820151615bb760008501826156bf565b506020820151615bca6020850182615c10565b506040820151615bdd6040850182615c2e565b50505050565b615bec8161685b565b82525050565b615bfb8161685b565b82525050565b615c0a816168d4565b82525050565b615c1981616879565b82525050565b615c2881616879565b82525050565b615c3781616886565b82525050565b6000615c498284615805565b915081905092915050565b6000615c5f826158e5565b9150615c6b82856156ec565b602082019150615c7b82846156ec565b6020820191508190509392505050565b6000615c9682615b15565b9150819050919050565b6000602082019050615cb5600083018461550a565b92915050565b6000604082019050615cd0600083018561550a565b615cdd602083018461550a565b9392505050565b6000604082019050615cf9600083018561550a565b615d066020830184615bf2565b9392505050565b600060a082019050615d22600083018761550a565b615d2f6020830186615bf2565b8181036040830152615d4081615b38565b90508181036060830152615d54818561573c565b9050615d636080830184615bf2565b95945050505050565b60006080820190508181036000830152615d868187615519565b90508181036020830152615d9a8186615661565b90508181036040830152615dae8185615577565b9050615dbd60608301846156dd565b95945050505050565b60006080820190508181036000830152615de08187615519565b90508181036020830152615df48186615661565b90508181036040830152615e0881856155ec565b90508181036060830152615e1c8184615577565b905095945050505050565b6000602082019050615e3c60008301846156ce565b92915050565b6000602082019050615e5760008301846156dd565b92915050565b600060a082019050615e7260008301886156dd565b615e7f60208301876156dd565b615e8c60408301866156dd565b615e996060830185615bf2565b615ea6608083018461550a565b9695505050505050565b6000606082019050615ec560008301866156dd565b615ed26020830185615bf2565b615edf6040830184615c1f565b949350505050565b6000608082019050615efc60008301876156dd565b615f096020830186615c1f565b615f1660408301856156dd565b615f2360608301846156dd565b95945050505050565b60006020820190508181036000830152615f46818461573c565b905092915050565b6000602082019050615f636000830184615775565b92915050565b6000602082019050615f7e6000830184615784565b92915050565b60006020820190508181036000830152615f9e81846157cc565b905092915050565b60006020820190508181036000830152615fbf81615836565b9050919050565b60006020820190508181036000830152615fdf81615859565b9050919050565b60006020820190508181036000830152615fff8161587c565b9050919050565b6000602082019050818103600083015261601f8161589f565b9050919050565b6000602082019050818103600083015261603f816158c2565b9050919050565b6000602082019050818103600083015261605f81615908565b9050919050565b6000602082019050818103600083015261607f8161592b565b9050919050565b6000602082019050818103600083015261609f8161594e565b9050919050565b600060208201905081810360008301526160bf81615971565b9050919050565b600060208201905081810360008301526160df81615994565b9050919050565b600060208201905081810360008301526160ff816159b7565b9050919050565b6000602082019050818103600083015261611f816159da565b9050919050565b6000602082019050818103600083015261613f816159fd565b9050919050565b6000602082019050818103600083015261615f81615a20565b9050919050565b6000602082019050818103600083015261617f81615a43565b9050919050565b6000602082019050818103600083015261619f81615a66565b9050919050565b600060208201905081810360008301526161bf81615a89565b9050919050565b600060208201905081810360008301526161df81615aac565b9050919050565b600060208201905081810360008301526161ff81615acf565b9050919050565b6000602082019050818103600083015261621f81615af2565b9050919050565b6000602082019050818103600083015261623f81615b5b565b9050919050565b6000602082019050818103600083015261625f81615b7e565b9050919050565b600060608201905061627b6000830184615ba1565b92915050565b60006020820190506162966000830184615bf2565b92915050565b6000610120820190506162b2600083018c615bf2565b6162bf602083018b61550a565b81810360408301526162d1818a615519565b905081810360608301526162e58189615661565b905081810360808301526162f981886155ec565b905081810360a083015261630d8187615577565b905061631c60c0830186615c01565b61632960e0830185615c01565b81810361010083015261633c81846157cc565b90509a9950505050505050505050565b600061014082019050616362600083018d615bf2565b61636f602083018c61550a565b61637c604083018b615bf2565b616389606083018a615bf2565b6163966080830189615bf2565b6163a360a0830188615bf2565b6163b060c0830187615bf2565b6163bd60e0830186615bf2565b6163cb6101008301856156ce565b6163d96101208301846156ce565b9b9a5050505050505050505050565b60006040820190506163fd6000830185615bf2565b61640a6020830184615bf2565b9392505050565b60006080820190506164266000830187615bf2565b6164336020830186615c1f565b6164406040830185615bf2565b818103606083015261645281846157cc565b905095945050505050565b6000616467616478565b9050616473828261695a565b919050565b6000604051905090565b600067ffffffffffffffff82111561649d5761649c616a6b565b5b602082029050602081019050919050565b600067ffffffffffffffff8211156164c9576164c8616a6b565b5b602082029050602081019050919050565b600067ffffffffffffffff8211156164f5576164f4616a6b565b5b602082029050602081019050919050565b600067ffffffffffffffff82111561652157616520616a6b565b5b602082029050602081019050919050565b600067ffffffffffffffff82111561654d5761654c616a6b565b5b61655682616a9a565b9050602081019050919050565b600067ffffffffffffffff82111561657e5761657d616a6b565b5b61658782616a9a565b9050602081019050919050565b6000819050602082019050919050565b6000819050602082019050919050565b6000819050602082019050919050565b6000819050602082019050919050565b600081519050919050565b600081519050919050565b600081519050919050565b600081519050919050565b600081519050919050565b600081519050919050565b6000602082019050919050565b6000602082019050919050565b6000602082019050919050565b6000602082019050919050565b600082825260208201905092915050565b600082825260208201905092915050565b600082825260208201905092915050565b600082825260208201905092915050565b600082825260208201905092915050565b600082825260208201905092915050565b600081905092915050565b600082825260208201905092915050565b600082825260208201905092915050565b600081905092915050565b60006166f38261685b565b91506166fe8361685b565b9250827fffffffffffffffffffffffffffffffffffffffffffffffffffffffffffffffff03821115616733576167326169de565b5b828201905092915050565b600061674982616865565b915061675483616865565b92508267ffffffffffffffff03821115616771576167706169de565b5b828201905092915050565b60006167878261685b565b91506167928361685b565b9250828210156167a5576167a46169de565b5b828203905092915050565b60006167bb8261683b565b9050919050565b60006167cd8261683b565b9050919050565b60008115159050919050565b6000819050919050565b60007fffffffff0000000000000000000000000000000000000000000000000000000082169050919050565b6000616821826167c2565b9050919050565b6000819050616836826170e3565b919050565b600073ffffffffffffffffffffffffffffffffffffffff82169050919050565b6000819050919050565b600067ffffffffffffffff82169050919050565b600060ff82169050919050565b60006bffffffffffffffffffffffff82169050919050565b60006168a9826168b0565b9050919050565b60006168bb8261683b565b9050919050565b60006168cd82616828565b9050919050565b60006168df82616865565b9050919050565b82818337600083830152505050565b60005b838110156169135780820151818401526020810190506168f8565b83811115616922576000848401525b50505050565b6000600282049050600182168061694057607f821691505b6020821081141561695457616953616a3c565b5b50919050565b61696382616a9a565b810181811067ffffffffffffffff8211171561698257616981616a6b565b5b80604052505050565b60006169968261685b565b91507fffffffffffffffffffffffffffffffffffffffffffffffffffffffffffffffff8214156169c9576169c86169de565b5b600182019050919050565b6000819050919050565b7f4e487b7100000000000000000000000000000000000000000000000000000000600052601160045260246000fd5b7f4e487b7100000000000000000000000000000000000000000000000000000000600052602160045260246000fd5b7f4e487b7100000000000000000000000000000000000000000000000000000000600052602260045260246000fd5b7f4e487b7100000000000000000000000000000000000000000000000000000000600052604160045260246000fd5b6000601f19601f8301169050919050565b7f45434453413a20696e76616c6964207369676e61747572650000000000000000600082015250565b7f476f7665726e6f723a206f6e6c79476f7665726e616e63650000000000000000600082015250565b7f53616665436173743a2076616c756520646f65736e27742066697420696e203960008201527f3620626974730000000000000000000000000000000000000000000000000000602082015250565b7f476f7665726e6f72436f6d7061746962696c697479427261766f3a2070726f7060008201527f6f73657220766f7465732062656c6f772070726f706f73616c2074687265736860208201527f6f6c640000000000000000000000000000000000000000000000000000000000604082015250565b7f45434453413a20696e76616c6964207369676e6174757265206c656e67746800600082015250565b7f1901000000000000000000000000000000000000000000000000000000000000600082015250565b7f476f7665726e6f723a20696e76616c69642070726f706f73616c206c656e677460008201527f6800000000000000000000000000000000000000000000000000000000000000602082015250565b7f476f7665726e6f7254696d656c6f636b436f6d706f756e643a206964656e746960008201527f63616c2070726f706f73616c20616374696f6e20616c7265616479207175657560208201527f6564000000000000000000000000000000000000000000000000000000000000604082015250565b7f416464726573733a20756e61626c6520746f2073656e642076616c75652c207260008201527f6563697069656e74206d61792068617665207265766572746564000000000000602082015250565b7f45434453413a20696e76616c6964207369676e6174757265202773272076616c60008201527f7565000000000000000000000000000000000000000000000000000000000000602082015250565b7f416464726573733a20696e73756666696369656e742062616c616e6365000000600082015250565b7f476f7665726e6f723a20766f7465206e6f742063757272656e746c792061637460008201527f6976650000000000000000000000000000000000000000000000000000000000602082015250565b7f476f7665726e6f723a20656d7074792070726f706f73616c0000000000000000600082015250565b7f45434453413a20696e76616c6964207369676e6174757265202776272076616c60008201527f7565000000000000000000000000000000000000000000000000000000000000602082015250565b7f53616665436173743a2076616c756520646f65736e27742066697420696e203660008201527f3420626974730000000000000000000000000000000000000000000000000000602082015250565b7f476f7665726e6f723a2070726f706f73616c206e6f7420616374697665000000600082015250565b7f476f7665726e6f723a2070726f706f73616c206e6f742073756363657373667560008201527f6c00000000000000000000000000000000000000000000000000000000000000602082015250565b7f476f7665726e6f7254696d656c6f636b436f6d706f756e643a2070726f706f7360008201527f616c206e6f742079657420717565756564000000000000000000000000000000602082015250565b7f476f7665726e6f72436f6d7061746962696c697479427261766f3a20696e766160008201527f6c696420766f7465207479706500000000000000000000000000000000000000602082015250565b7f476f7665726e6f723a20756e6b6e6f776e2070726f706f73616c206964000000600082015250565b7f476f7665726e6f723a2070726f706f73616c20616c726561647920657869737460008201527f7300000000000000000000000000000000000000000000000000000000000000602082015250565b50565b7f476f7665726e6f72427261766f3a2070726f706f7365722061626f766520746860008201527f726573686f6c6400000000000000000000000000000000000000000000000000602082015250565b7f476f7665726e6f72436f6d7061746962696c697479427261766f3a20766f746560008201527f20616c7265616479206361737400000000000000000000000000000000000000602082015250565b600881106170f4576170f3616a0d565b5b50565b617100816167b0565b811461710b57600080fd5b50565b617117816167d4565b811461712257600080fd5b50565b61712e816167e0565b811461713957600080fd5b50565b617145816167ea565b811461715057600080fd5b50565b61715c81616816565b811461716757600080fd5b50565b6171738161685b565b811461717e57600080fd5b50565b61718a81616879565b811461719557600080fd5b50565b6171a181616886565b81146171ac57600080fd5b5056fea2646970667358221220d9be45050aa13af6b2e7d9e7300a531d47e8154ef8b7678caf02d4191fb5ffaf64736f6c63430008020033",
  "immutableReferences": {
    "6742": [
      {
        "length": 32,
        "start": 7049
      },
      {
        "length": 32,
        "start": 12007
      }
    ],
    "11526": [
      {
        "length": 32,
        "start": 3925
      }
    ],
    "11528": [
      {
        "length": 32,
        "start": 2852
      }
    ],
    "11530": [
      {
        "length": 32,
        "start": 5567
      }
    ],
    "25949": [
      {
        "length": 32,
        "start": 12518
      }
    ],
    "25951": [
      {
        "length": 32,
        "start": 12478
      }
    ],
    "25953": [
      {
        "length": 32,
        "start": 12594
      }
    ],
    "25955": [
      {
        "length": 32,
        "start": 12627
      }
    ],
    "25957": [
      {
        "length": 32,
        "start": 12561
      }
    ]
  },
  "source": "// SPDX-License-Identifier: MIT\n\npragma solidity ^0.8.0;\n\nimport \"../governance/compatibility/GovernorCompatibilityBravo.sol\";\nimport \"../governance/extensions/GovernorVotesComp.sol\";\nimport \"../governance/extensions/GovernorTimelockCompound.sol\";\n\ncontract GovernorCompatibilityBravoMock is GovernorCompatibilityBravo, GovernorTimelockCompound, GovernorVotesComp {\n    uint256 immutable _votingDelay;\n    uint256 immutable _votingPeriod;\n    uint256 immutable _proposalThreshold;\n\n    constructor(\n        string memory name_,\n        ERC20VotesComp token_,\n        uint256 votingDelay_,\n        uint256 votingPeriod_,\n        uint256 proposalThreshold_,\n        ICompoundTimelock timelock_\n    ) Governor(name_) GovernorVotesComp(token_) GovernorTimelockCompound(timelock_) {\n        _votingDelay = votingDelay_;\n        _votingPeriod = votingPeriod_;\n        _proposalThreshold = proposalThreshold_;\n    }\n\n    function supportsInterface(bytes4 interfaceId)\n        public\n        view\n        virtual\n        override(IERC165, Governor, GovernorTimelockCompound)\n        returns (bool)\n    {\n        return super.supportsInterface(interfaceId);\n    }\n\n    function votingDelay() public view override returns (uint256) {\n        return _votingDelay;\n    }\n\n    function votingPeriod() public view override returns (uint256) {\n        return _votingPeriod;\n    }\n\n    function proposalThreshold() public view virtual override returns (uint256) {\n        return _proposalThreshold;\n    }\n\n    function quorum(uint256) public pure override returns (uint256) {\n        return 0;\n    }\n\n    function state(uint256 proposalId)\n        public\n        view\n        virtual\n        override(IGovernor, Governor, GovernorTimelockCompound)\n        returns (ProposalState)\n    {\n        return super.state(proposalId);\n    }\n\n    function proposalEta(uint256 proposalId)\n        public\n        view\n        virtual\n        override(IGovernorTimelock, GovernorTimelockCompound)\n        returns (uint256)\n    {\n        return super.proposalEta(proposalId);\n    }\n\n    function propose(\n        address[] memory targets,\n        uint256[] memory values,\n        bytes[] memory calldatas,\n        string memory description\n    ) public virtual override(IGovernor, Governor, GovernorCompatibilityBravo) returns (uint256) {\n        return super.propose(targets, values, calldatas, description);\n    }\n\n    function queue(\n        address[] memory targets,\n        uint256[] memory values,\n        bytes[] memory calldatas,\n        bytes32 salt\n    ) public virtual override(IGovernorTimelock, GovernorTimelockCompound) returns (uint256) {\n        return super.queue(targets, values, calldatas, salt);\n    }\n\n    function execute(\n        address[] memory targets,\n        uint256[] memory values,\n        bytes[] memory calldatas,\n        bytes32 salt\n    ) public payable virtual override(IGovernor, Governor) returns (uint256) {\n        return super.execute(targets, values, calldatas, salt);\n    }\n\n    function _execute(\n        uint256 proposalId,\n        address[] memory targets,\n        uint256[] memory values,\n        bytes[] memory calldatas,\n        bytes32 descriptionHash\n    ) internal virtual override(Governor, GovernorTimelockCompound) {\n        super._execute(proposalId, targets, values, calldatas, descriptionHash);\n    }\n\n    /**\n     * @notice WARNING: this is for mock purposes only. Ability to the _cancel function should be restricted for live\n     * deployments.\n     */\n    function cancel(\n        address[] memory targets,\n        uint256[] memory values,\n        bytes[] memory calldatas,\n        bytes32 salt\n    ) public returns (uint256 proposalId) {\n        return _cancel(targets, values, calldatas, salt);\n    }\n\n    function _cancel(\n        address[] memory targets,\n        uint256[] memory values,\n        bytes[] memory calldatas,\n        bytes32 salt\n    ) internal virtual override(Governor, GovernorTimelockCompound) returns (uint256 proposalId) {\n        return super._cancel(targets, values, calldatas, salt);\n    }\n\n    function getVotes(address account, uint256 blockNumber)\n        public\n        view\n        virtual\n        override(IGovernor, GovernorVotesComp)\n        returns (uint256)\n    {\n        return super.getVotes(account, blockNumber);\n    }\n\n    function _executor() internal view virtual override(Governor, GovernorTimelockCompound) returns (address) {\n        return super._executor();\n    }\n}\n",
  "sourcePath": "D:\\marketplace\\frontend (2)\\contracts\\openzeppelin-solidity\\contracts\\mocks\\GovernorCompatibilityBravoMock.sol",
  "compiler": {
    "name": "solc",
    "version": "0.8.2+commit.661d1103.Emscripten.clang"
  },
  "schemaVersion": "3.4.4",
  "updatedAt": "2022-02-01T11:28:54.822Z",
  "devdoc": {
    "kind": "dev",
    "methods": {
      "COUNTING_MODE()": {
        "details": "A description of the possible `support` values for {castVote} and the way these votes are counted, meant to be consumed by UIs to show correct vote options and interpret the results. The string is a URL-encoded sequence of key-value pairs that each describe one aspect, for example `support=bravo&quorum=for,abstain`. There are 2 standard keys: `support` and `quorum`. - `support=bravo` refers to the vote options 0 = For, 1 = Against, 2 = Abstain, as in `GovernorBravo`. - `quorum=bravo` means that only For votes are counted towards quorum. - `quorum=for,abstain` means that both For and Abstain votes are counted towards quorum. NOTE: The string can be decoded by the standard https://developer.mozilla.org/en-US/docs/Web/API/URLSearchParams[`URLSearchParams`] JavaScript class."
      },
      "__acceptAdmin()": {
        "details": "Accept admin right over the timelock."
      },
      "cancel(uint256)": {
        "details": "Cancels a proposal only if sender is the proposer, or proposer delegates dropped below proposal threshold."
      },
      "castVote(uint256,uint8)": {
        "details": "See {IGovernor-castVote}."
      },
      "castVoteBySig(uint256,uint8,uint8,bytes32,bytes32)": {
        "details": "See {IGovernor-castVoteBySig}."
      },
      "castVoteWithReason(uint256,uint8,string)": {
        "details": "See {IGovernor-castVoteWithReason}."
      },
      "execute(uint256)": {
        "details": "See {IGovernorCompatibilityBravo-execute}."
      },
      "getActions(uint256)": {
        "details": "See {IGovernorCompatibilityBravo-getActions}."
      },
      "getReceipt(uint256,address)": {
        "details": "See {IGovernorCompatibilityBravo-getReceipt}."
      },
      "hasVoted(uint256,address)": {
        "details": "See {IGovernor-hasVoted}."
      },
      "hashProposal(address[],uint256[],bytes[],bytes32)": {
        "details": "See {IGovernor-hashProposal}. The proposal id is produced by hashing the RLC encoded `targets` array, the `values` array, the `calldatas` array and the descriptionHash (bytes32 which itself is the keccak256 hash of the description string). This proposal id can be produced from the proposal data which is part of the {ProposalCreated} event. It can even be computed in advance, before the proposal is submitted. Note that the chainId and the governor address are not part of the proposal id computation. Consequently, the same proposal (with same operation and same description) will have the same id if submitted on multiple governors accross multiple networks. This also means that in order to execute the same operation twice (on the same governor) the proposer will have to change the description in order to avoid proposal id conflicts."
      },
      "name()": {
        "details": "See {IGovernor-name}."
      },
      "proposalDeadline(uint256)": {
        "details": "See {IGovernor-proposalDeadline}."
      },
      "proposalSnapshot(uint256)": {
        "details": "See {IGovernor-proposalSnapshot}."
      },
      "proposalThreshold()": {
        "details": "Part of the Governor Bravo's interface: _\"The number of votes required in order for a voter to become a proposer\"_."
      },
      "proposals(uint256)": {
        "details": "See {IGovernorCompatibilityBravo-proposals}."
      },
      "propose(address[],uint256[],string[],bytes[],string)": {
        "details": "See {IGovernorCompatibilityBravo-propose}."
      },
      "queue(uint256)": {
        "details": "See {IGovernorCompatibilityBravo-queue}."
      },
      "quorumVotes()": {
        "details": "See {IGovernorCompatibilityBravo-quorumVotes}."
      },
      "timelock()": {
        "details": "Public accessor to check the address of the timelock"
      },
      "updateTimelock(address)": {
        "details": "Public endpoint to update the underlying timelock instance. Restricted to the timelock itself, so updates must be proposed, scheduled and executed using the {Governor} workflow. For security reason, the timelock must be handed over to another admin before setting up a new one. The two operations (hand over the timelock) and do the update can be batched in a single proposal. Note that if the timelock admin has been handed over in a previous operation, we refuse updates made through the timelock if admin of the timelock has already been accepted and the operation is executed outside the scope of governance."
      },
      "version()": {
        "details": "See {IGovernor-version}."
      },
      "votingDelay()": {
        "details": "delay, in number of block, between the proposal is created and the vote starts. This can be increassed to leave time for users to buy voting power, of delegate it, before the voting of a proposal starts."
      },
      "votingPeriod()": {
        "details": "delay, in number of blocks, between the vote start and vote ends. Note: the {votingDelay} can delay the start of the vote. This must be considered when setting the voting duration compared to the voting delay."
      }
    },
    "version": 1
  },
  "userdoc": {
    "kind": "user",
    "methods": {
      "COUNTING_MODE()": {
        "notice": "module:voting"
      },
      "cancel(address[],uint256[],bytes[],bytes32)": {
        "notice": "WARNING: this is for mock purposes only. Ability to the _cancel function should be restricted for live deployments."
      },
      "votingDelay()": {
        "notice": "module:user-config"
      },
      "votingPeriod()": {
        "notice": "module:user-config"
      }
    },
    "version": 1
  }
}