{
  "contractName": "GovernorCompMock",
  "abi": [
    {
      "inputs": [
        {
          "internalType": "string",
          "name": "name_",
          "type": "string"
        },
        {
          "internalType": "contract ERC20VotesComp",
          "name": "token_",
          "type": "address"
        },
        {
          "internalType": "uint256",
          "name": "votingDelay_",
          "type": "uint256"
        },
        {
          "internalType": "uint256",
          "name": "votingPeriod_",
          "type": "uint256"
        }
      ],
      "stateMutability": "nonpayable",
      "type": "constructor"
    },
    {
      "anonymous": false,
      "inputs": [
        {
          "indexed": false,
          "internalType": "uint256",
          "name": "proposalId",
          "type": "uint256"
        }
      ],
      "name": "ProposalCanceled",
      "type": "event"
    },
    {
      "anonymous": false,
      "inputs": [
        {
          "indexed": false,
          "internalType": "uint256",
          "name": "proposalId",
          "type": "uint256"
        },
        {
          "indexed": false,
          "internalType": "address",
          "name": "proposer",
          "type": "address"
        },
        {
          "indexed": false,
          "internalType": "address[]",
          "name": "targets",
          "type": "address[]"
        },
        {
          "indexed": false,
          "internalType": "uint256[]",
          "name": "values",
          "type": "uint256[]"
        },
        {
          "indexed": false,
          "internalType": "string[]",
          "name": "signatures",
          "type": "string[]"
        },
        {
          "indexed": false,
          "internalType": "bytes[]",
          "name": "calldatas",
          "type": "bytes[]"
        },
        {
          "indexed": false,
          "internalType": "uint256",
          "name": "startBlock",
          "type": "uint256"
        },
        {
          "indexed": false,
          "internalType": "uint256",
          "name": "endBlock",
          "type": "uint256"
        },
        {
          "indexed": false,
          "internalType": "string",
          "name": "description",
          "type": "string"
        }
      ],
      "name": "ProposalCreated",
      "type": "event"
    },
    {
      "anonymous": false,
      "inputs": [
        {
          "indexed": false,
          "internalType": "uint256",
          "name": "proposalId",
          "type": "uint256"
        }
      ],
      "name": "ProposalExecuted",
      "type": "event"
    },
    {
      "anonymous": false,
      "inputs": [
        {
          "indexed": true,
          "internalType": "address",
          "name": "voter",
          "type": "address"
        },
        {
          "indexed": false,
          "internalType": "uint256",
          "name": "proposalId",
          "type": "uint256"
        },
        {
          "indexed": false,
          "internalType": "uint8",
          "name": "support",
          "type": "uint8"
        },
        {
          "indexed": false,
          "internalType": "uint256",
          "name": "weight",
          "type": "uint256"
        },
        {
          "indexed": false,
          "internalType": "string",
          "name": "reason",
          "type": "string"
        }
      ],
      "name": "VoteCast",
      "type": "event"
    },
    {
      "inputs": [],
      "name": "BALLOT_TYPEHASH",
      "outputs": [
        {
          "internalType": "bytes32",
          "name": "",
          "type": "bytes32"
        }
      ],
      "stateMutability": "view",
      "type": "function"
    },
    {
      "inputs": [],
      "name": "COUNTING_MODE",
      "outputs": [
        {
          "internalType": "string",
          "name": "",
          "type": "string"
        }
      ],
      "stateMutability": "pure",
      "type": "function"
    },
    {
      "inputs": [
        {
          "internalType": "uint256",
          "name": "proposalId",
          "type": "uint256"
        },
        {
          "internalType": "uint8",
          "name": "support",
          "type": "uint8"
        }
      ],
      "name": "castVote",
      "outputs": [
        {
          "internalType": "uint256",
          "name": "",
          "type": "uint256"
        }
      ],
      "stateMutability": "nonpayable",
      "type": "function"
    },
    {
      "inputs": [
        {
          "internalType": "uint256",
          "name": "proposalId",
          "type": "uint256"
        },
        {
          "internalType": "uint8",
          "name": "support",
          "type": "uint8"
        },
        {
          "internalType": "uint8",
          "name": "v",
          "type": "uint8"
        },
        {
          "internalType": "bytes32",
          "name": "r",
          "type": "bytes32"
        },
        {
          "internalType": "bytes32",
          "name": "s",
          "type": "bytes32"
        }
      ],
      "name": "castVoteBySig",
      "outputs": [
        {
          "internalType": "uint256",
          "name": "",
          "type": "uint256"
        }
      ],
      "stateMutability": "nonpayable",
      "type": "function"
    },
    {
      "inputs": [
        {
          "internalType": "uint256",
          "name": "proposalId",
          "type": "uint256"
        },
        {
          "internalType": "uint8",
          "name": "support",
          "type": "uint8"
        },
        {
          "internalType": "string",
          "name": "reason",
          "type": "string"
        }
      ],
      "name": "castVoteWithReason",
      "outputs": [
        {
          "internalType": "uint256",
          "name": "",
          "type": "uint256"
        }
      ],
      "stateMutability": "nonpayable",
      "type": "function"
    },
    {
      "inputs": [
        {
          "internalType": "address[]",
          "name": "targets",
          "type": "address[]"
        },
        {
          "internalType": "uint256[]",
          "name": "values",
          "type": "uint256[]"
        },
        {
          "internalType": "bytes[]",
          "name": "calldatas",
          "type": "bytes[]"
        },
        {
          "internalType": "bytes32",
          "name": "descriptionHash",
          "type": "bytes32"
        }
      ],
      "name": "execute",
      "outputs": [
        {
          "internalType": "uint256",
          "name": "",
          "type": "uint256"
        }
      ],
      "stateMutability": "payable",
      "type": "function"
    },
    {
      "inputs": [
        {
          "internalType": "uint256",
          "name": "proposalId",
          "type": "uint256"
        },
        {
          "internalType": "address",
          "name": "account",
          "type": "address"
        }
      ],
      "name": "hasVoted",
      "outputs": [
        {
          "internalType": "bool",
          "name": "",
          "type": "bool"
        }
      ],
      "stateMutability": "view",
      "type": "function"
    },
    {
      "inputs": [
        {
          "internalType": "address[]",
          "name": "targets",
          "type": "address[]"
        },
        {
          "internalType": "uint256[]",
          "name": "values",
          "type": "uint256[]"
        },
        {
          "internalType": "bytes[]",
          "name": "calldatas",
          "type": "bytes[]"
        },
        {
          "internalType": "bytes32",
          "name": "descriptionHash",
          "type": "bytes32"
        }
      ],
      "name": "hashProposal",
      "outputs": [
        {
          "internalType": "uint256",
          "name": "",
          "type": "uint256"
        }
      ],
      "stateMutability": "pure",
      "type": "function"
    },
    {
      "inputs": [],
      "name": "name",
      "outputs": [
        {
          "internalType": "string",
          "name": "",
          "type": "string"
        }
      ],
      "stateMutability": "view",
      "type": "function"
    },
    {
      "inputs": [
        {
          "internalType": "uint256",
          "name": "proposalId",
          "type": "uint256"
        }
      ],
      "name": "proposalDeadline",
      "outputs": [
        {
          "internalType": "uint256",
          "name": "",
          "type": "uint256"
        }
      ],
      "stateMutability": "view",
      "type": "function"
    },
    {
      "inputs": [
        {
          "internalType": "uint256",
          "name": "proposalId",
          "type": "uint256"
        }
      ],
      "name": "proposalSnapshot",
      "outputs": [
        {
          "internalType": "uint256",
          "name": "",
          "type": "uint256"
        }
      ],
      "stateMutability": "view",
      "type": "function"
    },
    {
      "inputs": [
        {
          "internalType": "uint256",
          "name": "proposalId",
          "type": "uint256"
        }
      ],
      "name": "proposalVotes",
      "outputs": [
        {
          "internalType": "uint256",
          "name": "againstVotes",
          "type": "uint256"
        },
        {
          "internalType": "uint256",
          "name": "forVotes",
          "type": "uint256"
        },
        {
          "internalType": "uint256",
          "name": "abstainVotes",
          "type": "uint256"
        }
      ],
      "stateMutability": "view",
      "type": "function"
    },
    {
      "inputs": [
        {
          "internalType": "address[]",
          "name": "targets",
          "type": "address[]"
        },
        {
          "internalType": "uint256[]",
          "name": "values",
          "type": "uint256[]"
        },
        {
          "internalType": "bytes[]",
          "name": "calldatas",
          "type": "bytes[]"
        },
        {
          "internalType": "string",
          "name": "description",
          "type": "string"
        }
      ],
      "name": "propose",
      "outputs": [
        {
          "internalType": "uint256",
          "name": "",
          "type": "uint256"
        }
      ],
      "stateMutability": "nonpayable",
      "type": "function"
    },
    {
      "inputs": [
        {
          "internalType": "uint256",
          "name": "proposalId",
          "type": "uint256"
        }
      ],
      "name": "state",
      "outputs": [
        {
          "internalType": "enum IGovernor.ProposalState",
          "name": "",
          "type": "uint8"
        }
      ],
      "stateMutability": "view",
      "type": "function"
    },
    {
      "inputs": [
        {
          "internalType": "bytes4",
          "name": "interfaceId",
          "type": "bytes4"
        }
      ],
      "name": "supportsInterface",
      "outputs": [
        {
          "internalType": "bool",
          "name": "",
          "type": "bool"
        }
      ],
      "stateMutability": "view",
      "type": "function"
    },
    {
      "inputs": [],
      "name": "token",
      "outputs": [
        {
          "internalType": "contract ERC20VotesComp",
          "name": "",
          "type": "address"
        }
      ],
      "stateMutability": "view",
      "type": "function"
    },
    {
      "inputs": [],
      "name": "version",
      "outputs": [
        {
          "internalType": "string",
          "name": "",
          "type": "string"
        }
      ],
      "stateMutability": "view",
      "type": "function"
    },
    {
      "stateMutability": "payable",
      "type": "receive"
    },
    {
      "inputs": [],
      "name": "votingDelay",
      "outputs": [
        {
          "internalType": "uint256",
          "name": "",
          "type": "uint256"
        }
      ],
      "stateMutability": "view",
      "type": "function"
    },
    {
      "inputs": [],
      "name": "votingPeriod",
      "outputs": [
        {
          "internalType": "uint256",
          "name": "",
          "type": "uint256"
        }
      ],
      "stateMutability": "view",
      "type": "function"
    },
    {
      "inputs": [
        {
          "internalType": "uint256",
          "name": "",
          "type": "uint256"
        }
      ],
      "name": "quorum",
      "outputs": [
        {
          "internalType": "uint256",
          "name": "",
          "type": "uint256"
        }
      ],
      "stateMutability": "pure",
      "type": "function"
    },
    {
      "inputs": [
        {
          "internalType": "address[]",
          "name": "targets",
          "type": "address[]"
        },
        {
          "internalType": "uint256[]",
          "name": "values",
          "type": "uint256[]"
        },
        {
          "internalType": "bytes[]",
          "name": "calldatas",
          "type": "bytes[]"
        },
        {
          "internalType": "bytes32",
          "name": "salt",
          "type": "bytes32"
        }
      ],
      "name": "cancel",
      "outputs": [
        {
          "internalType": "uint256",
          "name": "proposalId",
          "type": "uint256"
        }
      ],
      "stateMutability": "nonpayable",
      "type": "function"
    },
    {
      "inputs": [
        {
          "internalType": "address",
          "name": "account",
          "type": "address"
        },
        {
          "internalType": "uint256",
          "name": "blockNumber",
          "type": "uint256"
        }
      ],
      "name": "getVotes",
      "outputs": [
        {
          "internalType": "uint256",
          "name": "",
          "type": "uint256"
        }
      ],
      "stateMutability": "view",
      "type": "function"
    }
  ],
  "bytecode": "0x6101806040523480156200001257600080fd5b506040516200451e3803806200451e833981810160405281019062000038919062000300565b8284806200004b6200013760201b60201c565b60008280519060200120905060008280519060200120905060007f8b73c3c69bb8fe3d512ecc4cf759cc79239f7b179b0ffacaa9a75d522b39400f90508260c081815250508160e081815250504660a08181525050620000b38184846200017460201b60201c565b6080818152505080610100818152505050505050508060009080519060200190620000e0929190620001b0565b50508073ffffffffffffffffffffffffffffffffffffffff166101208173ffffffffffffffffffffffffffffffffffffffff1660601b81525050508161014081815250508061016081815250505050505062000615565b60606040518060400160405280600181526020017f3100000000000000000000000000000000000000000000000000000000000000815250905090565b6000838383463060405160200162000191959493929190620003b8565b6040516020818303038152906040528051906020012090509392505050565b828054620001be9062000506565b90600052602060002090601f016020900481019282620001e257600085556200022e565b82601f10620001fd57805160ff19168380011785556200022e565b828001600101855582156200022e579182015b828111156200022d57825182559160200191906001019062000210565b5b5090506200023d919062000241565b5090565b5b808211156200025c57600081600090555060010162000242565b5090565b60006200027762000271846200043e565b62000415565b9050828152602081018484840111156200029057600080fd5b6200029d848285620004d0565b509392505050565b600081519050620002b681620005e1565b92915050565b600082601f830112620002ce57600080fd5b8151620002e084826020860162000260565b91505092915050565b600081519050620002fa81620005fb565b92915050565b600080600080608085870312156200031757600080fd5b600085015167ffffffffffffffff8111156200033257600080fd5b6200034087828801620002bc565b94505060206200035387828801620002a5565b93505060406200036687828801620002e9565b92505060606200037987828801620002e9565b91505092959194509250565b620003908162000474565b82525050565b620003a18162000488565b82525050565b620003b281620004c6565b82525050565b600060a082019050620003cf600083018862000396565b620003de602083018762000396565b620003ed604083018662000396565b620003fc6060830185620003a7565b6200040b608083018462000385565b9695505050505050565b60006200042162000434565b90506200042f82826200053c565b919050565b6000604051905090565b600067ffffffffffffffff8211156200045c576200045b620005a1565b5b6200046782620005d0565b9050602081019050919050565b60006200048182620004a6565b9050919050565b6000819050919050565b60006200049f8262000474565b9050919050565b600073ffffffffffffffffffffffffffffffffffffffff82169050919050565b6000819050919050565b60005b83811015620004f0578082015181840152602081019050620004d3565b8381111562000500576000848401525b50505050565b600060028204905060018216806200051f57607f821691505b6020821081141562000536576200053562000572565b5b50919050565b6200054782620005d0565b810181811067ffffffffffffffff82111715620005695762000568620005a1565b5b80604052505050565b7f4e487b7100000000000000000000000000000000000000000000000000000000600052602260045260246000fd5b7f4e487b7100000000000000000000000000000000000000000000000000000000600052604160045260246000fd5b6000601f19601f8301169050919050565b620005ec8162000492565b8114620005f857600080fd5b50565b6200060681620004c6565b81146200061257600080fd5b50565b60805160a05160c05160e051610100516101205160601c6101405161016051613e996200068560003960006106bf015260006109b20152600081816111a6015261194701526000611ac401526000611b0601526000611ae501526000611a7101526000611a990152613e996000f3fe6080604052600436106101395760003560e01c806354fd4d50116100ab578063c59057e41161006f578063c59057e414610501578063dd4e2ba51461053e578063deaaa7cc14610569578063eb9019d414610594578063f8ce560a146105d1578063fc0c546a1461060e5761017f565b806354fd4d50146103e2578063567813881461040d5780637b3c71d31461044a5780637d5e81e214610487578063c01f9e37146104c45761017f565b80633932abb1116100fd5780633932abb1146102845780633bccf4fd146102af5780633e4f49e6146102ec5780634385963214610329578063452115d614610366578063544ffc9c146103a35761017f565b806301ffc9a71461018457806302a251a3146101c157806306fdde03146101ec5780632656227d146102175780632d63f693146102475761017f565b3661017f573073ffffffffffffffffffffffffffffffffffffffff1661015d610639565b73ffffffffffffffffffffffffffffffffffffffff161461017d57600080fd5b005b600080fd5b34801561019057600080fd5b506101ab60048036038101906101a69190612782565b610641565b6040516101b89190612fbd565b60405180910390f35b3480156101cd57600080fd5b506101d66106bb565b6040516101e391906132da565b60405180910390f35b3480156101f857600080fd5b506102016106e3565b60405161020e91906130f8565b60405180910390f35b610231600480360381019061022c9190612614565b610775565b60405161023e91906132da565b60405180910390f35b34801561025357600080fd5b5061026e600480360381019061026991906127ab565b610940565b60405161027b91906132da565b60405180910390f35b34801561029057600080fd5b506102996109ae565b6040516102a691906132da565b60405180910390f35b3480156102bb57600080fd5b506102d660048036038101906102d191906128b8565b6109d6565b6040516102e391906132da565b60405180910390f35b3480156102f857600080fd5b50610313600480360381019061030e91906127ab565b610a60565b60405161032091906130dd565b60405180910390f35b34801561033557600080fd5b50610350600480360381019061034b91906127d4565b610c27565b60405161035d9190612fbd565b60405180910390f35b34801561037257600080fd5b5061038d60048036038101906103889190612614565b610c92565b60405161039a91906132da565b60405180910390f35b3480156103af57600080fd5b506103ca60048036038101906103c591906127ab565b610caa565b6040516103d9939291906133a5565b60405180910390f35b3480156103ee57600080fd5b506103f7610ce2565b60405161040491906130f8565b60405180910390f35b34801561041957600080fd5b50610434600480360381019061042f9190612810565b610d1f565b60405161044191906132da565b60405180910390f35b34801561045657600080fd5b50610471600480360381019061046c919061284c565b610d50565b60405161047e91906132da565b60405180910390f35b34801561049357600080fd5b506104ae60048036038101906104a991906126bf565b610db8565b6040516104bb91906132da565b60405180910390f35b3480156104d057600080fd5b506104eb60048036038101906104e691906127ab565b61107e565b6040516104f891906132da565b60405180910390f35b34801561050d57600080fd5b5061052860048036038101906105239190612614565b6110ec565b60405161053591906132da565b60405180910390f35b34801561054a57600080fd5b50610553611128565b60405161056091906130f8565b60405180910390f35b34801561057557600080fd5b5061057e611165565b60405161058b9190612fd8565b60405180910390f35b3480156105a057600080fd5b506105bb60048036038101906105b691906125d8565b611189565b6040516105c891906132da565b60405180910390f35b3480156105dd57600080fd5b506105f860048036038101906105f391906127ab565b61119d565b60405161060591906132da565b60405180910390f35b34801561061a57600080fd5b506106236111a4565b60405161063091906130c2565b60405180910390f35b600030905090565b60007fbf26d897000000000000000000000000000000000000000000000000000000007bffffffffffffffffffffffffffffffffffffffffffffffffffffffff1916827bffffffffffffffffffffffffffffffffffffffffffffffffffffffff191614806106b457506106b3826111c8565b5b9050919050565b60007f0000000000000000000000000000000000000000000000000000000000000000905090565b6060600080546106f29061385e565b80601f016020809104026020016040519081016040528092919081815260200182805461071e9061385e565b801561076b5780601f106107405761010080835404028352916020019161076b565b820191906000526020600020905b81548152906001019060200180831161074e57829003601f168201915b5050505050905090565b600080610784868686866110ec565b9050600061079182610a60565b9050600460078111156107cd577f4e487b7100000000000000000000000000000000000000000000000000000000600052602160045260246000fd5b816007811115610806577f4e487b7100000000000000000000000000000000000000000000000000000000600052602160045260246000fd5b1480610882575060056007811115610847577f4e487b7100000000000000000000000000000000000000000000000000000000600052602160045260246000fd5b816007811115610880577f4e487b7100000000000000000000000000000000000000000000000000000000600052602160045260246000fd5b145b6108c1576040517f08c379a00000000000000000000000000000000000000000000000000000000081526004016108b89061325a565b60405180910390fd5b600180600084815260200190815260200160002060020160006101000a81548160ff0219169083151502179055507f712ae1383f79ac853f8d882153778e0260ef8f03b504e2866e0593e04d2b291f8260405161091e91906132da565b60405180910390a16109338288888888611232565b8192505050949350505050565b600061099d600160008481526020019081526020016000206000016040518060200160405290816000820160009054906101000a900467ffffffffffffffff1667ffffffffffffffff1667ffffffffffffffff16815250506113b3565b67ffffffffffffffff169050919050565b60007f0000000000000000000000000000000000000000000000000000000000000000905090565b600080610a37610a2f7f150214d74d59b7d1e90c73fc22ef3d991dd0a76b046543d4d80ab92d2a50328f8989604051602001610a1493929190613046565b604051602081830303815290604052805190602001206113c1565b8686866113db565b9050610a5487828860405180602001604052806000815250611406565b91505095945050505050565b60008060016000848152602001908152602001600020604051806080016040529081600082016040518060200160405290816000820160009054906101000a900467ffffffffffffffff1667ffffffffffffffff1667ffffffffffffffff16815250508152602001600182016040518060200160405290816000820160009054906101000a900467ffffffffffffffff1667ffffffffffffffff1667ffffffffffffffff168152505081526020016002820160009054906101000a900460ff161515151581526020016002820160019054906101000a900460ff1615151515815250509050806040015115610b59576007915050610c22565b806060015115610b6d576002915050610c22565b610b7a81600001516115a6565b15610b89576000915050610c22565b610b9681602001516115a6565b15610ba5576001915050610c22565b610bb281602001516115c0565b15610be757610bc0836115ec565b8015610bd15750610bd083611633565b5b610bdc576003610bdf565b60045b915050610c22565b6040517f08c379a0000000000000000000000000000000000000000000000000000000008152600401610c199061327a565b60405180910390fd5b919050565b60006002600084815260200190815260200160002060030160008373ffffffffffffffffffffffffffffffffffffffff1673ffffffffffffffffffffffffffffffffffffffff16815260200190815260200160002060009054906101000a900460ff16905092915050565b6000610ca08585858561165e565b9050949350505050565b600080600080600260008681526020019081526020016000209050806000015481600101548260020154935093509350509193909250565b60606040518060400160405280600181526020017f3100000000000000000000000000000000000000000000000000000000000000815250905090565b600080610d2a61189b565b9050610d4784828560405180602001604052806000815250611406565b91505092915050565b600080610d5b61189b565b9050610dad86828787878080601f016020809104026020016040519081016040528093929190818152602001838380828437600081840152601f19601f82011690508083019250505050505050611406565b915050949350505050565b600080610dce86868686805190602001206110ec565b90508451865114610e14576040517f08c379a0000000000000000000000000000000000000000000000000000000008152600401610e0b9061315a565b60405180910390fd5b8351865114610e58576040517f08c379a0000000000000000000000000000000000000000000000000000000008152600401610e4f9061315a565b60405180910390fd5b6000865111610e9c576040517f08c379a0000000000000000000000000000000000000000000000000000000008152600401610e93906131da565b60405180910390fd5b6000600160008381526020019081526020016000209050610efc816000016040518060200160405290816000820160009054906101000a900467ffffffffffffffff1667ffffffffffffffff1667ffffffffffffffff16815250506118a3565b610f3b576040517f08c379a0000000000000000000000000000000000000000000000000000000008152600401610f32906132ba565b60405180910390fd5b6000610f4d610f486109ae565b6118bd565b610f56436118bd565b610f6091906136cc565b90506000610f74610f6f6106bb565b6118bd565b82610f7f91906136cc565b9050610f97828460000161191490919063ffffffff16565b610fad818460010161191490919063ffffffff16565b7f7d84a6263ae0d98d3329bd7b46bb4e8d6f98cd35a7adb45c274c8b7fd5ebd5e084610fd761189b565b8b8b8d5167ffffffffffffffff81111561101a577f4e487b7100000000000000000000000000000000000000000000000000000000600052604160045260246000fd5b60405190808252806020026020018201604052801561104d57816020015b60608152602001906001900390816110385790505b508c88888e604051611067999897969594939291906132f5565b60405180910390a183945050505050949350505050565b60006110db600160008481526020019081526020016000206001016040518060200160405290816000820160009054906101000a900467ffffffffffffffff1667ffffffffffffffff1667ffffffffffffffff16815250506113b3565b67ffffffffffffffff169050919050565b6000848484846040516020016111059493929190612f63565b6040516020818303038152906040528051906020012060001c9050949350505050565b60606040518060400160405280602081526020017f737570706f72743d627261766f2671756f72756d3d666f722c6162737461696e815250905090565b7f150214d74d59b7d1e90c73fc22ef3d991dd0a76b046543d4d80ab92d2a50328f81565b60006111958383611943565b905092915050565b6000919050565b7f000000000000000000000000000000000000000000000000000000000000000081565b60007f01ffc9a7000000000000000000000000000000000000000000000000000000007bffffffffffffffffffffffffffffffffffffffffffffffffffffffff1916827bffffffffffffffffffffffffffffffffffffffffffffffffffffffff1916149050919050565b6000604051806060016040528060278152602001613e3d60279139905060005b85518110156113aa57600080878381518110611297577f4e487b7100000000000000000000000000000000000000000000000000000000600052603260045260246000fd5b602002602001015173ffffffffffffffffffffffffffffffffffffffff168784815181106112ee577f4e487b7100000000000000000000000000000000000000000000000000000000600052603260045260246000fd5b602002602001015187858151811061132f577f4e487b7100000000000000000000000000000000000000000000000000000000600052603260045260246000fd5b60200260200101516040516113449190612eec565b60006040518083038185875af1925050503d8060008114611381576040519150601f19603f3d011682016040523d82523d6000602084013e611386565b606091505b5091509150611396828286611a06565b505050806113a3906138c1565b9050611252565b50505050505050565b600081600001519050919050565b60006113d46113ce611a6d565b83611b30565b9050919050565b60008060006113ec87878787611b63565b915091506113f981611c70565b8192505050949350505050565b60008060016000878152602001908152602001600020905060016007811115611458577f4e487b7100000000000000000000000000000000000000000000000000000000600052602160045260246000fd5b61146187610a60565b6007811115611499577f4e487b7100000000000000000000000000000000000000000000000000000000600052602160045260246000fd5b146114d9576040517f08c379a00000000000000000000000000000000000000000000000000000000081526004016114d0906131ba565b60405180910390fd5b600061153786611528846000016040518060200160405290816000820160009054906101000a900467ffffffffffffffff1667ffffffffffffffff1667ffffffffffffffff16815250506113b3565b67ffffffffffffffff16611189565b905061154587878784611fc1565b8573ffffffffffffffffffffffffffffffffffffffff167fb8e138887d0aa13bab447e82de9d5c1777041ecd21ca36ba824ff1e6c07ddda48887848860405161159194939291906133dc565b60405180910390a28092505050949350505050565b600043826000015167ffffffffffffffff16119050919050565b60006115cb82612239565b80156115e5575043826000015167ffffffffffffffff1611155b9050919050565b600080600260008481526020019081526020016000209050806002015481600101546116189190613676565b61162961162485610940565b61119d565b1115915050919050565b6000806002600084815260200190815260200160002090508060000154816001015411915050919050565b60008061166d868686866110ec565b9050600061167a82610a60565b9050600260078111156116b6577f4e487b7100000000000000000000000000000000000000000000000000000000600052602160045260246000fd5b8160078111156116ef577f4e487b7100000000000000000000000000000000000000000000000000000000600052602160045260246000fd5b1415801561176e575060066007811115611732577f4e487b7100000000000000000000000000000000000000000000000000000000600052602160045260246000fd5b81600781111561176b577f4e487b7100000000000000000000000000000000000000000000000000000000600052602160045260246000fd5b14155b80156117ea57506007808111156117ae577f4e487b7100000000000000000000000000000000000000000000000000000000600052602160045260246000fd5b8160078111156117e7577f4e487b7100000000000000000000000000000000000000000000000000000000600052602160045260246000fd5b14155b611829576040517f08c379a00000000000000000000000000000000000000000000000000000000081526004016118209061323a565b60405180910390fd5b600180600084815260200190815260200160002060020160016101000a81548160ff0219169083151502179055507f789cf55be980739dad1d0699b93b58e806b51c9d96619bfa8fe0a28abaa7b30c8260405161188691906132da565b60405180910390a18192505050949350505050565b600033905090565b600080826000015167ffffffffffffffff16149050919050565b600067ffffffffffffffff801682111561190c576040517f08c379a00000000000000000000000000000000000000000000000000000000081526004016119039061321a565b60405180910390fd5b819050919050565b808260000160006101000a81548167ffffffffffffffff021916908367ffffffffffffffff1602179055505050565b60007f000000000000000000000000000000000000000000000000000000000000000073ffffffffffffffffffffffffffffffffffffffff1663782d6fe184846040518363ffffffff1660e01b81526004016119a0929190612f3a565b60206040518083038186803b1580156119b857600080fd5b505afa1580156119cc573d6000803e3d6000fd5b505050506040513d601f19601f820116820180604052508101906119f0919061292f565b6bffffffffffffffffffffffff16905092915050565b60608315611a1657829050611a66565b600083511115611a295782518084602001fd5b816040517f08c379a0000000000000000000000000000000000000000000000000000000008152600401611a5d91906130f8565b60405180910390fd5b9392505050565b60007f0000000000000000000000000000000000000000000000000000000000000000461415611abf577f00000000000000000000000000000000000000000000000000000000000000009050611b2d565b611b2a7f00000000000000000000000000000000000000000000000000000000000000007f00000000000000000000000000000000000000000000000000000000000000007f0000000000000000000000000000000000000000000000000000000000000000612253565b90505b90565b60008282604051602001611b45929190612f03565b60405160208183030381529060405280519060200120905092915050565b6000807f7fffffffffffffffffffffffffffffff5d576e7357a4501ddfe92f46681b20a08360001c1115611b9e576000600391509150611c67565b601b8560ff1614158015611bb65750601c8560ff1614155b15611bc8576000600491509150611c67565b600060018787878760405160008152602001604052604051611bed949392919061307d565b6020604051602081039080840390855afa158015611c0f573d6000803e3d6000fd5b505050602060405103519050600073ffffffffffffffffffffffffffffffffffffffff168173ffffffffffffffffffffffffffffffffffffffff161415611c5e57600060019250925050611c67565b80600092509250505b94509492505050565b60006004811115611caa577f4e487b7100000000000000000000000000000000000000000000000000000000600052602160045260246000fd5b816004811115611ce3577f4e487b7100000000000000000000000000000000000000000000000000000000600052602160045260246000fd5b1415611cee57611fbe565b60016004811115611d28577f4e487b7100000000000000000000000000000000000000000000000000000000600052602160045260246000fd5b816004811115611d61577f4e487b7100000000000000000000000000000000000000000000000000000000600052602160045260246000fd5b1415611da2576040517f08c379a0000000000000000000000000000000000000000000000000000000008152600401611d999061311a565b60405180910390fd5b60026004811115611ddc577f4e487b7100000000000000000000000000000000000000000000000000000000600052602160045260246000fd5b816004811115611e15577f4e487b7100000000000000000000000000000000000000000000000000000000600052602160045260246000fd5b1415611e56576040517f08c379a0000000000000000000000000000000000000000000000000000000008152600401611e4d9061313a565b60405180910390fd5b60036004811115611e90577f4e487b7100000000000000000000000000000000000000000000000000000000600052602160045260246000fd5b816004811115611ec9577f4e487b7100000000000000000000000000000000000000000000000000000000600052602160045260246000fd5b1415611f0a576040517f08c379a0000000000000000000000000000000000000000000000000000000008152600401611f019061317a565b60405180910390fd5b600480811115611f43577f4e487b7100000000000000000000000000000000000000000000000000000000600052602160045260246000fd5b816004811115611f7c577f4e487b7100000000000000000000000000000000000000000000000000000000600052602160045260246000fd5b1415611fbd576040517f08c379a0000000000000000000000000000000000000000000000000000000008152600401611fb4906131fa565b60405180910390fd5b5b50565b60006002600086815260200190815260200160002090508060030160008573ffffffffffffffffffffffffffffffffffffffff1673ffffffffffffffffffffffffffffffffffffffff16815260200190815260200160002060009054906101000a900460ff1615612067576040517f08c379a000000000000000000000000000000000000000000000000000000000815260040161205e9061319a565b60405180910390fd5b60018160030160008673ffffffffffffffffffffffffffffffffffffffff1673ffffffffffffffffffffffffffffffffffffffff16815260200190815260200160002060006101000a81548160ff021916908315150217905550600060028111156120fb577f4e487b7100000000000000000000000000000000000000000000000000000000600052602160045260246000fd5b60ff168360ff161415612128578181600001600082825461211c9190613676565b92505081905550612232565b60016002811115612162577f4e487b7100000000000000000000000000000000000000000000000000000000600052602160045260246000fd5b60ff168360ff16141561218f57818160010160008282546121839190613676565b92505081905550612231565b6002808111156121c8577f4e487b7100000000000000000000000000000000000000000000000000000000600052602160045260246000fd5b60ff168360ff1614156121f557818160020160008282546121e99190613676565b92505081905550612230565b6040517f08c379a00000000000000000000000000000000000000000000000000000000081526004016122279061329a565b60405180910390fd5b5b5b5050505050565b600080826000015167ffffffffffffffff16119050919050565b6000838383463060405160200161226e959493929190612ff3565b6040516020818303038152906040528051906020012090509392505050565b60006122a061229b8461344d565b613428565b905080838252602082019050828560208602820111156122bf57600080fd5b60005b858110156122ef57816122d5888261243e565b8452602084019350602083019250506001810190506122c2565b5050509392505050565b600061230c61230784613479565b613428565b9050808382526020820190508260005b8581101561234c578135850161233288826124fb565b84526020840193506020830192505060018101905061231c565b5050509392505050565b6000612369612364846134a5565b613428565b9050808382526020820190508285602086028201111561238857600080fd5b60005b858110156123b8578161239e8882612599565b84526020840193506020830192505060018101905061238b565b5050509392505050565b60006123d56123d0846134d1565b613428565b9050828152602081018484840111156123ed57600080fd5b6123f884828561381c565b509392505050565b600061241361240e84613502565b613428565b90508281526020810184848401111561242b57600080fd5b61243684828561381c565b509392505050565b60008135905061244d81613db2565b92915050565b600082601f83011261246457600080fd5b813561247484826020860161228d565b91505092915050565b600082601f83011261248e57600080fd5b813561249e8482602086016122f9565b91505092915050565b600082601f8301126124b857600080fd5b81356124c8848260208601612356565b91505092915050565b6000813590506124e081613dc9565b92915050565b6000813590506124f581613de0565b92915050565b600082601f83011261250c57600080fd5b813561251c8482602086016123c2565b91505092915050565b60008083601f84011261253757600080fd5b8235905067ffffffffffffffff81111561255057600080fd5b60208301915083600182028301111561256857600080fd5b9250929050565b600082601f83011261258057600080fd5b8135612590848260208601612400565b91505092915050565b6000813590506125a881613df7565b92915050565b6000813590506125bd81613e0e565b92915050565b6000815190506125d281613e25565b92915050565b600080604083850312156125eb57600080fd5b60006125f98582860161243e565b925050602061260a85828601612599565b9150509250929050565b6000806000806080858703121561262a57600080fd5b600085013567ffffffffffffffff81111561264457600080fd5b61265087828801612453565b945050602085013567ffffffffffffffff81111561266d57600080fd5b612679878288016124a7565b935050604085013567ffffffffffffffff81111561269657600080fd5b6126a28782880161247d565b92505060606126b3878288016124d1565b91505092959194509250565b600080600080608085870312156126d557600080fd5b600085013567ffffffffffffffff8111156126ef57600080fd5b6126fb87828801612453565b945050602085013567ffffffffffffffff81111561271857600080fd5b612724878288016124a7565b935050604085013567ffffffffffffffff81111561274157600080fd5b61274d8782880161247d565b925050606085013567ffffffffffffffff81111561276a57600080fd5b6127768782880161256f565b91505092959194509250565b60006020828403121561279457600080fd5b60006127a2848285016124e6565b91505092915050565b6000602082840312156127bd57600080fd5b60006127cb84828501612599565b91505092915050565b600080604083850312156127e757600080fd5b60006127f585828601612599565b92505060206128068582860161243e565b9150509250929050565b6000806040838503121561282357600080fd5b600061283185828601612599565b9250506020612842858286016125ae565b9150509250929050565b6000806000806060858703121561286257600080fd5b600061287087828801612599565b9450506020612881878288016125ae565b935050604085013567ffffffffffffffff81111561289e57600080fd5b6128aa87828801612525565b925092505092959194509250565b600080600080600060a086880312156128d057600080fd5b60006128de88828901612599565b95505060206128ef888289016125ae565b9450506040612900888289016125ae565b9350506060612911888289016124d1565b9250506080612922888289016124d1565b9150509295509295909350565b60006020828403121561294157600080fd5b600061294f848285016125c3565b91505092915050565b600061296483836129b0565b60208301905092915050565b600061297c8383612ba9565b905092915050565b60006129908383612c31565b905092915050565b60006129a48383612eb0565b60208301905092915050565b6129b98161370a565b82525050565b6129c88161370a565b82525050565b60006129d982613573565b6129e381856135e9565b93506129ee83613533565b8060005b83811015612a1f578151612a068882612958565b9750612a11836135b5565b9250506001810190506129f2565b5085935050505092915050565b6000612a378261357e565b612a4181856135fa565b935083602082028501612a5385613543565b8060005b85811015612a8f5784840389528151612a708582612970565b9450612a7b836135c2565b925060208a01995050600181019050612a57565b50829750879550505050505092915050565b6000612aac82613589565b612ab6818561360b565b935083602082028501612ac885613553565b8060005b85811015612b045784840389528151612ae58582612984565b9450612af0836135cf565b925060208a01995050600181019050612acc565b50829750879550505050505092915050565b6000612b2182613594565b612b2b818561361c565b9350612b3683613563565b8060005b83811015612b67578151612b4e8882612998565b9750612b59836135dc565b925050600181019050612b3a565b5085935050505092915050565b612b7d8161371c565b82525050565b612b8c81613728565b82525050565b612ba3612b9e82613728565b61390a565b82525050565b6000612bb48261359f565b612bbe818561362d565b9350612bce81856020860161382b565b612bd7816139d0565b840191505092915050565b6000612bed8261359f565b612bf7818561363e565b9350612c0781856020860161382b565b80840191505092915050565b612c1c816137d4565b82525050565b612c2b816137f8565b82525050565b6000612c3c826135aa565b612c468185613649565b9350612c5681856020860161382b565b612c5f816139d0565b840191505092915050565b6000612c75826135aa565b612c7f818561365a565b9350612c8f81856020860161382b565b612c98816139d0565b840191505092915050565b6000612cb060188361365a565b9150612cbb826139e1565b602082019050919050565b6000612cd3601f8361365a565b9150612cde82613a0a565b602082019050919050565b6000612cf660028361366b565b9150612d0182613a33565b600282019050919050565b6000612d1960218361365a565b9150612d2482613a5c565b604082019050919050565b6000612d3c60228361365a565b9150612d4782613aab565b604082019050919050565b6000612d5f60278361365a565b9150612d6a82613afa565b604082019050919050565b6000612d8260238361365a565b9150612d8d82613b49565b604082019050919050565b6000612da560188361365a565b9150612db082613b98565b602082019050919050565b6000612dc860228361365a565b9150612dd382613bc1565b604082019050919050565b6000612deb60268361365a565b9150612df682613c10565b604082019050919050565b6000612e0e601d8361365a565b9150612e1982613c5f565b602082019050919050565b6000612e3160218361365a565b9150612e3c82613c88565b604082019050919050565b6000612e54601d8361365a565b9150612e5f82613cd7565b602082019050919050565b6000612e7760358361365a565b9150612e8282613d00565b604082019050919050565b6000612e9a60218361365a565b9150612ea582613d4f565b604082019050919050565b612eb981613791565b82525050565b612ec881613791565b82525050565b612ed78161380a565b82525050565b612ee6816137af565b82525050565b6000612ef88284612be2565b915081905092915050565b6000612f0e82612ce9565b9150612f1a8285612b92565b602082019150612f2a8284612b92565b6020820191508190509392505050565b6000604082019050612f4f60008301856129bf565b612f5c6020830184612ebf565b9392505050565b60006080820190508181036000830152612f7d81876129ce565b90508181036020830152612f918186612b16565b90508181036040830152612fa58185612a2c565b9050612fb46060830184612b83565b95945050505050565b6000602082019050612fd26000830184612b74565b92915050565b6000602082019050612fed6000830184612b83565b92915050565b600060a0820190506130086000830188612b83565b6130156020830187612b83565b6130226040830186612b83565b61302f6060830185612ebf565b61303c60808301846129bf565b9695505050505050565b600060608201905061305b6000830186612b83565b6130686020830185612ebf565b6130756040830184612edd565b949350505050565b60006080820190506130926000830187612b83565b61309f6020830186612edd565b6130ac6040830185612b83565b6130b96060830184612b83565b95945050505050565b60006020820190506130d76000830184612c13565b92915050565b60006020820190506130f26000830184612c22565b92915050565b600060208201905081810360008301526131128184612c6a565b905092915050565b6000602082019050818103600083015261313381612ca3565b9050919050565b6000602082019050818103600083015261315381612cc6565b9050919050565b6000602082019050818103600083015261317381612d0c565b9050919050565b6000602082019050818103600083015261319381612d2f565b9050919050565b600060208201905081810360008301526131b381612d52565b9050919050565b600060208201905081810360008301526131d381612d75565b9050919050565b600060208201905081810360008301526131f381612d98565b9050919050565b6000602082019050818103600083015261321381612dbb565b9050919050565b6000602082019050818103600083015261323381612dde565b9050919050565b6000602082019050818103600083015261325381612e01565b9050919050565b6000602082019050818103600083015261327381612e24565b9050919050565b6000602082019050818103600083015261329381612e47565b9050919050565b600060208201905081810360008301526132b381612e6a565b9050919050565b600060208201905081810360008301526132d381612e8d565b9050919050565b60006020820190506132ef6000830184612ebf565b92915050565b60006101208201905061330b600083018c612ebf565b613318602083018b6129bf565b818103604083015261332a818a6129ce565b9050818103606083015261333e8189612b16565b905081810360808301526133528188612aa1565b905081810360a08301526133668187612a2c565b905061337560c0830186612ece565b61338260e0830185612ece565b8181036101008301526133958184612c6a565b90509a9950505050505050505050565b60006060820190506133ba6000830186612ebf565b6133c76020830185612ebf565b6133d46040830184612ebf565b949350505050565b60006080820190506133f16000830187612ebf565b6133fe6020830186612edd565b61340b6040830185612ebf565b818103606083015261341d8184612c6a565b905095945050505050565b6000613432613443565b905061343e8282613890565b919050565b6000604051905090565b600067ffffffffffffffff821115613468576134676139a1565b5b602082029050602081019050919050565b600067ffffffffffffffff821115613494576134936139a1565b5b602082029050602081019050919050565b600067ffffffffffffffff8211156134c0576134bf6139a1565b5b602082029050602081019050919050565b600067ffffffffffffffff8211156134ec576134eb6139a1565b5b6134f5826139d0565b9050602081019050919050565b600067ffffffffffffffff82111561351d5761351c6139a1565b5b613526826139d0565b9050602081019050919050565b6000819050602082019050919050565b6000819050602082019050919050565b6000819050602082019050919050565b6000819050602082019050919050565b600081519050919050565b600081519050919050565b600081519050919050565b600081519050919050565b600081519050919050565b600081519050919050565b6000602082019050919050565b6000602082019050919050565b6000602082019050919050565b6000602082019050919050565b600082825260208201905092915050565b600082825260208201905092915050565b600082825260208201905092915050565b600082825260208201905092915050565b600082825260208201905092915050565b600081905092915050565b600082825260208201905092915050565b600082825260208201905092915050565b600081905092915050565b600061368182613791565b915061368c83613791565b9250827fffffffffffffffffffffffffffffffffffffffffffffffffffffffffffffffff038211156136c1576136c0613914565b5b828201905092915050565b60006136d78261379b565b91506136e28361379b565b92508267ffffffffffffffff038211156136ff576136fe613914565b5b828201905092915050565b600061371582613771565b9050919050565b60008115159050919050565b6000819050919050565b60007fffffffff0000000000000000000000000000000000000000000000000000000082169050919050565b600081905061376c82613d9e565b919050565b600073ffffffffffffffffffffffffffffffffffffffff82169050919050565b6000819050919050565b600067ffffffffffffffff82169050919050565b600060ff82169050919050565b60006bffffffffffffffffffffffff82169050919050565b60006137df826137e6565b9050919050565b60006137f182613771565b9050919050565b60006138038261375e565b9050919050565b60006138158261379b565b9050919050565b82818337600083830152505050565b60005b8381101561384957808201518184015260208101905061382e565b83811115613858576000848401525b50505050565b6000600282049050600182168061387657607f821691505b6020821081141561388a57613889613972565b5b50919050565b613899826139d0565b810181811067ffffffffffffffff821117156138b8576138b76139a1565b5b80604052505050565b60006138cc82613791565b91507fffffffffffffffffffffffffffffffffffffffffffffffffffffffffffffffff8214156138ff576138fe613914565b5b600182019050919050565b6000819050919050565b7f4e487b7100000000000000000000000000000000000000000000000000000000600052601160045260246000fd5b7f4e487b7100000000000000000000000000000000000000000000000000000000600052602160045260246000fd5b7f4e487b7100000000000000000000000000000000000000000000000000000000600052602260045260246000fd5b7f4e487b7100000000000000000000000000000000000000000000000000000000600052604160045260246000fd5b6000601f19601f8301169050919050565b7f45434453413a20696e76616c6964207369676e61747572650000000000000000600082015250565b7f45434453413a20696e76616c6964207369676e6174757265206c656e67746800600082015250565b7f1901000000000000000000000000000000000000000000000000000000000000600082015250565b7f476f7665726e6f723a20696e76616c69642070726f706f73616c206c656e677460008201527f6800000000000000000000000000000000000000000000000000000000000000602082015250565b7f45434453413a20696e76616c6964207369676e6174757265202773272076616c60008201527f7565000000000000000000000000000000000000000000000000000000000000602082015250565b7f476f7665726e6f72566f74696e6753696d706c653a20766f746520616c72656160008201527f6479206361737400000000000000000000000000000000000000000000000000602082015250565b7f476f7665726e6f723a20766f7465206e6f742063757272656e746c792061637460008201527f6976650000000000000000000000000000000000000000000000000000000000602082015250565b7f476f7665726e6f723a20656d7074792070726f706f73616c0000000000000000600082015250565b7f45434453413a20696e76616c6964207369676e6174757265202776272076616c60008201527f7565000000000000000000000000000000000000000000000000000000000000602082015250565b7f53616665436173743a2076616c756520646f65736e27742066697420696e203660008201527f3420626974730000000000000000000000000000000000000000000000000000602082015250565b7f476f7665726e6f723a2070726f706f73616c206e6f7420616374697665000000600082015250565b7f476f7665726e6f723a2070726f706f73616c206e6f742073756363657373667560008201527f6c00000000000000000000000000000000000000000000000000000000000000602082015250565b7f476f7665726e6f723a20756e6b6e6f776e2070726f706f73616c206964000000600082015250565b7f476f7665726e6f72566f74696e6753696d706c653a20696e76616c696420766160008201527f6c756520666f7220656e756d20566f7465547970650000000000000000000000602082015250565b7f476f7665726e6f723a2070726f706f73616c20616c726561647920657869737460008201527f7300000000000000000000000000000000000000000000000000000000000000602082015250565b60088110613daf57613dae613943565b5b50565b613dbb8161370a565b8114613dc657600080fd5b50565b613dd281613728565b8114613ddd57600080fd5b50565b613de981613732565b8114613df457600080fd5b50565b613e0081613791565b8114613e0b57600080fd5b50565b613e17816137af565b8114613e2257600080fd5b50565b613e2e816137bc565b8114613e3957600080fd5b5056fe476f7665726e6f723a2063616c6c20726576657274656420776974686f7574206d657373616765a2646970667358221220efbe796d0e0de4c319d501883fdda62d2853422ec80c9c67ab5d12fc2babbadc64736f6c63430008020033",
  "immutableReferences": {
    "6742": [
      {
        "length": 32,
        "start": 4518
      },
      {
        "length": 32,
        "start": 6471
      }
    ],
    "11411": [
      {
        "length": 32,
        "start": 2482
      }
    ],
    "11413": [
      {
        "length": 32,
        "start": 1727
      }
    ],
    "25949": [
      {
        "length": 32,
        "start": 6809
      }
    ],
    "25951": [
      {
        "length": 32,
        "start": 6769
      }
    ],
    "25953": [
      {
        "length": 32,
        "start": 6885
      }
    ],
    "25955": [
      {
        "length": 32,
        "start": 6918
      }
    ],
    "25957": [
      {
        "length": 32,
        "start": 6852
      }
    ]
  },
  "source": "// SPDX-License-Identifier: MIT\n\npragma solidity ^0.8.0;\n\nimport \"../governance/Governor.sol\";\nimport \"../governance/extensions/GovernorCountingSimple.sol\";\nimport \"../governance/extensions/GovernorVotesComp.sol\";\n\ncontract GovernorCompMock is Governor, GovernorVotesComp, GovernorCountingSimple {\n    uint256 immutable _votingDelay;\n    uint256 immutable _votingPeriod;\n\n    constructor(\n        string memory name_,\n        ERC20VotesComp token_,\n        uint256 votingDelay_,\n        uint256 votingPeriod_\n    ) Governor(name_) GovernorVotesComp(token_) {\n        _votingDelay = votingDelay_;\n        _votingPeriod = votingPeriod_;\n    }\n\n    function votingDelay() public view override returns (uint256) {\n        return _votingDelay;\n    }\n\n    function votingPeriod() public view override returns (uint256) {\n        return _votingPeriod;\n    }\n\n    function quorum(uint256) public pure override returns (uint256) {\n        return 0;\n    }\n\n    function cancel(\n        address[] memory targets,\n        uint256[] memory values,\n        bytes[] memory calldatas,\n        bytes32 salt\n    ) public returns (uint256 proposalId) {\n        return _cancel(targets, values, calldatas, salt);\n    }\n\n    function getVotes(address account, uint256 blockNumber)\n        public\n        view\n        virtual\n        override(IGovernor, GovernorVotesComp)\n        returns (uint256)\n    {\n        return super.getVotes(account, blockNumber);\n    }\n}\n",
  "sourcePath": "D:\\marketplace\\frontend (2)\\contracts\\openzeppelin-solidity\\contracts\\mocks\\GovernorCompMock.sol",
  "compiler": {
    "name": "solc",
    "version": "0.8.2+commit.661d1103.Emscripten.clang"
  },
  "schemaVersion": "3.4.4",
  "updatedAt": "2022-02-01T11:28:54.763Z",
  "devdoc": {
    "kind": "dev",
    "methods": {
      "COUNTING_MODE()": {
        "details": "See {IGovernor-COUNTING_MODE}."
      },
      "castVote(uint256,uint8)": {
        "details": "See {IGovernor-castVote}."
      },
      "castVoteBySig(uint256,uint8,uint8,bytes32,bytes32)": {
        "details": "See {IGovernor-castVoteBySig}."
      },
      "castVoteWithReason(uint256,uint8,string)": {
        "details": "See {IGovernor-castVoteWithReason}."
      },
      "execute(address[],uint256[],bytes[],bytes32)": {
        "details": "See {IGovernor-execute}."
      },
      "hasVoted(uint256,address)": {
        "details": "See {IGovernor-hasVoted}."
      },
      "hashProposal(address[],uint256[],bytes[],bytes32)": {
        "details": "See {IGovernor-hashProposal}. The proposal id is produced by hashing the RLC encoded `targets` array, the `values` array, the `calldatas` array and the descriptionHash (bytes32 which itself is the keccak256 hash of the description string). This proposal id can be produced from the proposal data which is part of the {ProposalCreated} event. It can even be computed in advance, before the proposal is submitted. Note that the chainId and the governor address are not part of the proposal id computation. Consequently, the same proposal (with same operation and same description) will have the same id if submitted on multiple governors accross multiple networks. This also means that in order to execute the same operation twice (on the same governor) the proposer will have to change the description in order to avoid proposal id conflicts."
      },
      "name()": {
        "details": "See {IGovernor-name}."
      },
      "proposalDeadline(uint256)": {
        "details": "See {IGovernor-proposalDeadline}."
      },
      "proposalSnapshot(uint256)": {
        "details": "See {IGovernor-proposalSnapshot}."
      },
      "proposalVotes(uint256)": {
        "details": "Accessor to the internal vote counts."
      },
      "propose(address[],uint256[],bytes[],string)": {
        "details": "See {IGovernor-propose}."
      },
      "state(uint256)": {
        "details": "See {IGovernor-state}."
      },
      "supportsInterface(bytes4)": {
        "details": "See {IERC165-supportsInterface}."
      },
      "version()": {
        "details": "See {IGovernor-version}."
      },
      "votingDelay()": {
        "details": "delay, in number of block, between the proposal is created and the vote starts. This can be increassed to leave time for users to buy voting power, of delegate it, before the voting of a proposal starts."
      },
      "votingPeriod()": {
        "details": "delay, in number of blocks, between the vote start and vote ends. Note: the {votingDelay} can delay the start of the vote. This must be considered when setting the voting duration compared to the voting delay."
      }
    },
    "version": 1
  },
  "userdoc": {
    "kind": "user",
    "methods": {
      "votingDelay()": {
        "notice": "module:user-config"
      },
      "votingPeriod()": {
        "notice": "module:user-config"
      }
    },
    "version": 1
  }
}