{
  "contractName": "GovernorMock",
  "abi": [
    {
      "inputs": [
        {
          "internalType": "string",
          "name": "name_",
          "type": "string"
        },
        {
          "internalType": "contract ERC20Votes",
          "name": "token_",
          "type": "address"
        },
        {
          "internalType": "uint256",
          "name": "votingDelay_",
          "type": "uint256"
        },
        {
          "internalType": "uint256",
          "name": "votingPeriod_",
          "type": "uint256"
        },
        {
          "internalType": "uint256",
          "name": "quorumNumerator_",
          "type": "uint256"
        }
      ],
      "stateMutability": "nonpayable",
      "type": "constructor"
    },
    {
      "anonymous": false,
      "inputs": [
        {
          "indexed": false,
          "internalType": "uint256",
          "name": "proposalId",
          "type": "uint256"
        }
      ],
      "name": "ProposalCanceled",
      "type": "event"
    },
    {
      "anonymous": false,
      "inputs": [
        {
          "indexed": false,
          "internalType": "uint256",
          "name": "proposalId",
          "type": "uint256"
        },
        {
          "indexed": false,
          "internalType": "address",
          "name": "proposer",
          "type": "address"
        },
        {
          "indexed": false,
          "internalType": "address[]",
          "name": "targets",
          "type": "address[]"
        },
        {
          "indexed": false,
          "internalType": "uint256[]",
          "name": "values",
          "type": "uint256[]"
        },
        {
          "indexed": false,
          "internalType": "string[]",
          "name": "signatures",
          "type": "string[]"
        },
        {
          "indexed": false,
          "internalType": "bytes[]",
          "name": "calldatas",
          "type": "bytes[]"
        },
        {
          "indexed": false,
          "internalType": "uint256",
          "name": "startBlock",
          "type": "uint256"
        },
        {
          "indexed": false,
          "internalType": "uint256",
          "name": "endBlock",
          "type": "uint256"
        },
        {
          "indexed": false,
          "internalType": "string",
          "name": "description",
          "type": "string"
        }
      ],
      "name": "ProposalCreated",
      "type": "event"
    },
    {
      "anonymous": false,
      "inputs": [
        {
          "indexed": false,
          "internalType": "uint256",
          "name": "proposalId",
          "type": "uint256"
        }
      ],
      "name": "ProposalExecuted",
      "type": "event"
    },
    {
      "anonymous": false,
      "inputs": [
        {
          "indexed": false,
          "internalType": "uint256",
          "name": "oldQuorumNumerator",
          "type": "uint256"
        },
        {
          "indexed": false,
          "internalType": "uint256",
          "name": "newQuorumNumerator",
          "type": "uint256"
        }
      ],
      "name": "QuorumNumeratorUpdated",
      "type": "event"
    },
    {
      "anonymous": false,
      "inputs": [
        {
          "indexed": true,
          "internalType": "address",
          "name": "voter",
          "type": "address"
        },
        {
          "indexed": false,
          "internalType": "uint256",
          "name": "proposalId",
          "type": "uint256"
        },
        {
          "indexed": false,
          "internalType": "uint8",
          "name": "support",
          "type": "uint8"
        },
        {
          "indexed": false,
          "internalType": "uint256",
          "name": "weight",
          "type": "uint256"
        },
        {
          "indexed": false,
          "internalType": "string",
          "name": "reason",
          "type": "string"
        }
      ],
      "name": "VoteCast",
      "type": "event"
    },
    {
      "inputs": [],
      "name": "BALLOT_TYPEHASH",
      "outputs": [
        {
          "internalType": "bytes32",
          "name": "",
          "type": "bytes32"
        }
      ],
      "stateMutability": "view",
      "type": "function"
    },
    {
      "inputs": [],
      "name": "COUNTING_MODE",
      "outputs": [
        {
          "internalType": "string",
          "name": "",
          "type": "string"
        }
      ],
      "stateMutability": "pure",
      "type": "function"
    },
    {
      "inputs": [
        {
          "internalType": "uint256",
          "name": "proposalId",
          "type": "uint256"
        },
        {
          "internalType": "uint8",
          "name": "support",
          "type": "uint8"
        }
      ],
      "name": "castVote",
      "outputs": [
        {
          "internalType": "uint256",
          "name": "",
          "type": "uint256"
        }
      ],
      "stateMutability": "nonpayable",
      "type": "function"
    },
    {
      "inputs": [
        {
          "internalType": "uint256",
          "name": "proposalId",
          "type": "uint256"
        },
        {
          "internalType": "uint8",
          "name": "support",
          "type": "uint8"
        },
        {
          "internalType": "uint8",
          "name": "v",
          "type": "uint8"
        },
        {
          "internalType": "bytes32",
          "name": "r",
          "type": "bytes32"
        },
        {
          "internalType": "bytes32",
          "name": "s",
          "type": "bytes32"
        }
      ],
      "name": "castVoteBySig",
      "outputs": [
        {
          "internalType": "uint256",
          "name": "",
          "type": "uint256"
        }
      ],
      "stateMutability": "nonpayable",
      "type": "function"
    },
    {
      "inputs": [
        {
          "internalType": "uint256",
          "name": "proposalId",
          "type": "uint256"
        },
        {
          "internalType": "uint8",
          "name": "support",
          "type": "uint8"
        },
        {
          "internalType": "string",
          "name": "reason",
          "type": "string"
        }
      ],
      "name": "castVoteWithReason",
      "outputs": [
        {
          "internalType": "uint256",
          "name": "",
          "type": "uint256"
        }
      ],
      "stateMutability": "nonpayable",
      "type": "function"
    },
    {
      "inputs": [
        {
          "internalType": "address[]",
          "name": "targets",
          "type": "address[]"
        },
        {
          "internalType": "uint256[]",
          "name": "values",
          "type": "uint256[]"
        },
        {
          "internalType": "bytes[]",
          "name": "calldatas",
          "type": "bytes[]"
        },
        {
          "internalType": "bytes32",
          "name": "descriptionHash",
          "type": "bytes32"
        }
      ],
      "name": "execute",
      "outputs": [
        {
          "internalType": "uint256",
          "name": "",
          "type": "uint256"
        }
      ],
      "stateMutability": "payable",
      "type": "function"
    },
    {
      "inputs": [
        {
          "internalType": "uint256",
          "name": "proposalId",
          "type": "uint256"
        },
        {
          "internalType": "address",
          "name": "account",
          "type": "address"
        }
      ],
      "name": "hasVoted",
      "outputs": [
        {
          "internalType": "bool",
          "name": "",
          "type": "bool"
        }
      ],
      "stateMutability": "view",
      "type": "function"
    },
    {
      "inputs": [
        {
          "internalType": "address[]",
          "name": "targets",
          "type": "address[]"
        },
        {
          "internalType": "uint256[]",
          "name": "values",
          "type": "uint256[]"
        },
        {
          "internalType": "bytes[]",
          "name": "calldatas",
          "type": "bytes[]"
        },
        {
          "internalType": "bytes32",
          "name": "descriptionHash",
          "type": "bytes32"
        }
      ],
      "name": "hashProposal",
      "outputs": [
        {
          "internalType": "uint256",
          "name": "",
          "type": "uint256"
        }
      ],
      "stateMutability": "pure",
      "type": "function"
    },
    {
      "inputs": [],
      "name": "name",
      "outputs": [
        {
          "internalType": "string",
          "name": "",
          "type": "string"
        }
      ],
      "stateMutability": "view",
      "type": "function"
    },
    {
      "inputs": [
        {
          "internalType": "uint256",
          "name": "proposalId",
          "type": "uint256"
        }
      ],
      "name": "proposalDeadline",
      "outputs": [
        {
          "internalType": "uint256",
          "name": "",
          "type": "uint256"
        }
      ],
      "stateMutability": "view",
      "type": "function"
    },
    {
      "inputs": [
        {
          "internalType": "uint256",
          "name": "proposalId",
          "type": "uint256"
        }
      ],
      "name": "proposalSnapshot",
      "outputs": [
        {
          "internalType": "uint256",
          "name": "",
          "type": "uint256"
        }
      ],
      "stateMutability": "view",
      "type": "function"
    },
    {
      "inputs": [
        {
          "internalType": "uint256",
          "name": "proposalId",
          "type": "uint256"
        }
      ],
      "name": "proposalVotes",
      "outputs": [
        {
          "internalType": "uint256",
          "name": "againstVotes",
          "type": "uint256"
        },
        {
          "internalType": "uint256",
          "name": "forVotes",
          "type": "uint256"
        },
        {
          "internalType": "uint256",
          "name": "abstainVotes",
          "type": "uint256"
        }
      ],
      "stateMutability": "view",
      "type": "function"
    },
    {
      "inputs": [
        {
          "internalType": "address[]",
          "name": "targets",
          "type": "address[]"
        },
        {
          "internalType": "uint256[]",
          "name": "values",
          "type": "uint256[]"
        },
        {
          "internalType": "bytes[]",
          "name": "calldatas",
          "type": "bytes[]"
        },
        {
          "internalType": "string",
          "name": "description",
          "type": "string"
        }
      ],
      "name": "propose",
      "outputs": [
        {
          "internalType": "uint256",
          "name": "",
          "type": "uint256"
        }
      ],
      "stateMutability": "nonpayable",
      "type": "function"
    },
    {
      "inputs": [
        {
          "internalType": "uint256",
          "name": "blockNumber",
          "type": "uint256"
        }
      ],
      "name": "quorum",
      "outputs": [
        {
          "internalType": "uint256",
          "name": "",
          "type": "uint256"
        }
      ],
      "stateMutability": "view",
      "type": "function"
    },
    {
      "inputs": [],
      "name": "quorumDenominator",
      "outputs": [
        {
          "internalType": "uint256",
          "name": "",
          "type": "uint256"
        }
      ],
      "stateMutability": "view",
      "type": "function"
    },
    {
      "inputs": [],
      "name": "quorumNumerator",
      "outputs": [
        {
          "internalType": "uint256",
          "name": "",
          "type": "uint256"
        }
      ],
      "stateMutability": "view",
      "type": "function"
    },
    {
      "inputs": [
        {
          "internalType": "uint256",
          "name": "proposalId",
          "type": "uint256"
        }
      ],
      "name": "state",
      "outputs": [
        {
          "internalType": "enum IGovernor.ProposalState",
          "name": "",
          "type": "uint8"
        }
      ],
      "stateMutability": "view",
      "type": "function"
    },
    {
      "inputs": [
        {
          "internalType": "bytes4",
          "name": "interfaceId",
          "type": "bytes4"
        }
      ],
      "name": "supportsInterface",
      "outputs": [
        {
          "internalType": "bool",
          "name": "",
          "type": "bool"
        }
      ],
      "stateMutability": "view",
      "type": "function"
    },
    {
      "inputs": [],
      "name": "token",
      "outputs": [
        {
          "internalType": "contract ERC20Votes",
          "name": "",
          "type": "address"
        }
      ],
      "stateMutability": "view",
      "type": "function"
    },
    {
      "inputs": [
        {
          "internalType": "uint256",
          "name": "newQuorumNumerator",
          "type": "uint256"
        }
      ],
      "name": "updateQuorumNumerator",
      "outputs": [],
      "stateMutability": "nonpayable",
      "type": "function"
    },
    {
      "inputs": [],
      "name": "version",
      "outputs": [
        {
          "internalType": "string",
          "name": "",
          "type": "string"
        }
      ],
      "stateMutability": "view",
      "type": "function"
    },
    {
      "stateMutability": "payable",
      "type": "receive"
    },
    {
      "inputs": [],
      "name": "votingDelay",
      "outputs": [
        {
          "internalType": "uint256",
          "name": "",
          "type": "uint256"
        }
      ],
      "stateMutability": "view",
      "type": "function"
    },
    {
      "inputs": [],
      "name": "votingPeriod",
      "outputs": [
        {
          "internalType": "uint256",
          "name": "",
          "type": "uint256"
        }
      ],
      "stateMutability": "view",
      "type": "function"
    },
    {
      "inputs": [
        {
          "internalType": "address[]",
          "name": "targets",
          "type": "address[]"
        },
        {
          "internalType": "uint256[]",
          "name": "values",
          "type": "uint256[]"
        },
        {
          "internalType": "bytes[]",
          "name": "calldatas",
          "type": "bytes[]"
        },
        {
          "internalType": "bytes32",
          "name": "salt",
          "type": "bytes32"
        }
      ],
      "name": "cancel",
      "outputs": [
        {
          "internalType": "uint256",
          "name": "proposalId",
          "type": "uint256"
        }
      ],
      "stateMutability": "nonpayable",
      "type": "function"
    },
    {
      "inputs": [
        {
          "internalType": "address",
          "name": "account",
          "type": "address"
        },
        {
          "internalType": "uint256",
          "name": "blockNumber",
          "type": "uint256"
        }
      ],
      "name": "getVotes",
      "outputs": [
        {
          "internalType": "uint256",
          "name": "",
          "type": "uint256"
        }
      ],
      "stateMutability": "view",
      "type": "function"
    }
  ],
  "bytecode": "0x6101806040523480156200001257600080fd5b5060405162004b6f38038062004b6f8339818101604052810190620000389190620003bf565b808486806200004c6200014b60201b60201c565b60008280519060200120905060008280519060200120905060007f8b73c3c69bb8fe3d512ecc4cf759cc79239f7b179b0ffacaa9a75d522b39400f90508260c081815250508160e081815250504660a08181525050620000b48184846200018860201b60201c565b6080818152505080610100818152505050505050508060009080519060200190620000e19291906200026f565b50508073ffffffffffffffffffffffffffffffffffffffff166101208173ffffffffffffffffffffffffffffffffffffffff1660601b81525050506200012d81620001c460201b60201c565b508261014081815250508161016081815250505050505050620007e6565b60606040518060400160405280600181526020017f3100000000000000000000000000000000000000000000000000000000000000815250905090565b60008383834630604051602001620001a5959493929190620004b4565b6040516020818303038152906040528051906020012090509392505050565b620001d46200026660201b60201c565b81111562000219576040517f08c379a0000000000000000000000000000000000000000000000000000000008152600401620002109062000511565b60405180910390fd5b60006002549050816002819055507f0553476bf02ef2726e8ce5ced78d63e26e602e4a2257b1f559418e24b463399781836040516200025a92919062000533565b60405180910390a15050565b60006064905090565b8280546200027d9062000662565b90600052602060002090601f016020900481019282620002a15760008555620002ed565b82601f10620002bc57805160ff1916838001178555620002ed565b82800160010185558215620002ed579182015b82811115620002ec578251825591602001919060010190620002cf565b5b509050620002fc919062000300565b5090565b5b808211156200031b57600081600090555060010162000301565b5090565b600062000336620003308462000589565b62000560565b9050828152602081018484840111156200034f57600080fd5b6200035c8482856200062c565b509392505050565b6000815190506200037581620007b2565b92915050565b600082601f8301126200038d57600080fd5b81516200039f8482602086016200031f565b91505092915050565b600081519050620003b981620007cc565b92915050565b600080600080600060a08688031215620003d857600080fd5b600086015167ffffffffffffffff811115620003f357600080fd5b62000401888289016200037b565b9550506020620004148882890162000364565b94505060406200042788828901620003a8565b93505060606200043a88828901620003a8565b92505060806200044d88828901620003a8565b9150509295509295909350565b6200046581620005d0565b82525050565b6200047681620005e4565b82525050565b60006200048b604383620005bf565b915062000498826200073d565b606082019050919050565b620004ae8162000622565b82525050565b600060a082019050620004cb60008301886200046b565b620004da60208301876200046b565b620004e960408301866200046b565b620004f86060830185620004a3565b6200050760808301846200045a565b9695505050505050565b600060208201905081810360008301526200052c816200047c565b9050919050565b60006040820190506200054a6000830185620004a3565b620005596020830184620004a3565b9392505050565b60006200056c6200057f565b90506200057a828262000698565b919050565b6000604051905090565b600067ffffffffffffffff821115620005a757620005a6620006fd565b5b620005b2826200072c565b9050602081019050919050565b600082825260208201905092915050565b6000620005dd8262000602565b9050919050565b6000819050919050565b6000620005fb82620005d0565b9050919050565b600073ffffffffffffffffffffffffffffffffffffffff82169050919050565b6000819050919050565b60005b838110156200064c5780820151818401526020810190506200062f565b838111156200065c576000848401525b50505050565b600060028204905060018216806200067b57607f821691505b60208210811415620006925762000691620006ce565b5b50919050565b620006a3826200072c565b810181811067ffffffffffffffff82111715620006c557620006c4620006fd565b5b80604052505050565b7f4e487b7100000000000000000000000000000000000000000000000000000000600052602260045260246000fd5b7f4e487b7100000000000000000000000000000000000000000000000000000000600052604160045260246000fd5b6000601f19601f8301169050919050565b7f476f7665726e6f72566f74657351756f72756d4672616374696f6e3a2071756f60008201527f72756d4e756d657261746f72206f7665722071756f72756d44656e6f6d696e6160208201527f746f720000000000000000000000000000000000000000000000000000000000604082015250565b620007bd81620005ee565b8114620007c957600080fd5b50565b620007d78162000622565b8114620007e357600080fd5b50565b60805160a05160c05160e051610100516101205160601c61014051610160516143126200085d600039600061076f01526000610aea0152600081816112fc015281816113c00152611bf601526000611d6501526000611da701526000611d8601526000611d1201526000611d3a01526143126000f3fe60806040526004361061016a5760003560e01c806354fd4d50116100d1578063c01f9e371161008a578063deaaa7cc11610064578063deaaa7cc14610619578063eb9019d414610644578063f8ce560a14610681578063fc0c546a146106be576101b0565b8063c01f9e3714610574578063c59057e4146105b1578063dd4e2ba5146105ee576101b0565b806354fd4d501461043c57806356781388146104675780637b3c71d3146104a45780637d5e81e2146104e157806397c3d3341461051e578063a7713a7014610549576101b0565b80633932abb1116101235780633932abb1146102de5780633bccf4fd146103095780633e4f49e6146103465780634385963214610383578063452115d6146103c0578063544ffc9c146103fd576101b0565b806301ffc9a7146101b557806302a251a3146101f257806306f3f9e61461021d57806306fdde03146102465780632656227d146102715780632d63f693146102a1576101b0565b366101b0573073ffffffffffffffffffffffffffffffffffffffff1661018e6106e9565b73ffffffffffffffffffffffffffffffffffffffff16146101ae57600080fd5b005b600080fd5b3480156101c157600080fd5b506101dc60048036038101906101d79190612a23565b6106f1565b6040516101e991906132a4565b60405180910390f35b3480156101fe57600080fd5b5061020761076b565b6040516102149190613601565b60405180910390f35b34801561022957600080fd5b50610244600480360381019061023f9190612a4c565b610793565b005b34801561025257600080fd5b5061025b61081b565b60405161026891906133df565b60405180910390f35b61028b600480360381019061028691906128b5565b6108ad565b6040516102989190613601565b60405180910390f35b3480156102ad57600080fd5b506102c860048036038101906102c39190612a4c565b610a78565b6040516102d59190613601565b60405180910390f35b3480156102ea57600080fd5b506102f3610ae6565b6040516103009190613601565b60405180910390f35b34801561031557600080fd5b50610330600480360381019061032b9190612b82565b610b0e565b60405161033d9190613601565b60405180910390f35b34801561035257600080fd5b5061036d60048036038101906103689190612a4c565b610b98565b60405161037a91906133c4565b60405180910390f35b34801561038f57600080fd5b506103aa60048036038101906103a59190612a9e565b610d5f565b6040516103b791906132a4565b60405180910390f35b3480156103cc57600080fd5b506103e760048036038101906103e291906128b5565b610dca565b6040516103f49190613601565b60405180910390f35b34801561040957600080fd5b50610424600480360381019061041f9190612a4c565b610de2565b604051610433939291906136f5565b60405180910390f35b34801561044857600080fd5b50610451610e1a565b60405161045e91906133df565b60405180910390f35b34801561047357600080fd5b5061048e60048036038101906104899190612ada565b610e57565b60405161049b9190613601565b60405180910390f35b3480156104b057600080fd5b506104cb60048036038101906104c69190612b16565b610e88565b6040516104d89190613601565b60405180910390f35b3480156104ed57600080fd5b5061050860048036038101906105039190612960565b610ef0565b6040516105159190613601565b60405180910390f35b34801561052a57600080fd5b506105336111b6565b6040516105409190613601565b60405180910390f35b34801561055557600080fd5b5061055e6111bf565b60405161056b9190613601565b60405180910390f35b34801561058057600080fd5b5061059b60048036038101906105969190612a4c565b6111c9565b6040516105a89190613601565b60405180910390f35b3480156105bd57600080fd5b506105d860048036038101906105d391906128b5565b611237565b6040516105e59190613601565b60405180910390f35b3480156105fa57600080fd5b50610603611273565b60405161061091906133df565b60405180910390f35b34801561062557600080fd5b5061062e6112b0565b60405161063b91906132bf565b60405180910390f35b34801561065057600080fd5b5061066b60048036038101906106669190612879565b6112d4565b6040516106789190613601565b60405180910390f35b34801561068d57600080fd5b506106a860048036038101906106a39190612a4c565b6112e8565b6040516106b59190613601565b60405180910390f35b3480156106ca57600080fd5b506106d36113be565b6040516106e091906133a9565b60405180910390f35b600030905090565b60007fbf26d897000000000000000000000000000000000000000000000000000000007bffffffffffffffffffffffffffffffffffffffffffffffffffffffff1916827bffffffffffffffffffffffffffffffffffffffffffffffffffffffff191614806107645750610763826113e2565b5b9050919050565b60007f0000000000000000000000000000000000000000000000000000000000000000905090565b61079b6106e9565b73ffffffffffffffffffffffffffffffffffffffff166107b961144c565b73ffffffffffffffffffffffffffffffffffffffff161461080f576040517f08c379a000000000000000000000000000000000000000000000000000000000815260040161080690613421565b60405180910390fd5b61081881611454565b50565b60606000805461082a90613c21565b80601f016020809104026020016040519081016040528092919081815260200182805461085690613c21565b80156108a35780601f10610878576101008083540402835291602001916108a3565b820191906000526020600020905b81548152906001019060200180831161088657829003601f168201915b5050505050905090565b6000806108bc86868686611237565b905060006108c982610b98565b905060046007811115610905577f4e487b7100000000000000000000000000000000000000000000000000000000600052602160045260246000fd5b81600781111561093e577f4e487b7100000000000000000000000000000000000000000000000000000000600052602160045260246000fd5b14806109ba57506005600781111561097f577f4e487b7100000000000000000000000000000000000000000000000000000000600052602160045260246000fd5b8160078111156109b8577f4e487b7100000000000000000000000000000000000000000000000000000000600052602160045260246000fd5b145b6109f9576040517f08c379a00000000000000000000000000000000000000000000000000000000081526004016109f090613581565b60405180910390fd5b600180600084815260200190815260200160002060020160006101000a81548160ff0219169083151502179055507f712ae1383f79ac853f8d882153778e0260ef8f03b504e2866e0593e04d2b291f82604051610a569190613601565b60405180910390a1610a6b82888888886114e9565b8192505050949350505050565b6000610ad5600160008481526020019081526020016000206000016040518060200160405290816000820160009054906101000a900467ffffffffffffffff1667ffffffffffffffff1667ffffffffffffffff168152505061166a565b67ffffffffffffffff169050919050565b60007f0000000000000000000000000000000000000000000000000000000000000000905090565b600080610b6f610b677f150214d74d59b7d1e90c73fc22ef3d991dd0a76b046543d4d80ab92d2a50328f8989604051602001610b4c9392919061332d565b60405160208183030381529060405280519060200120611678565b868686611692565b9050610b8c878288604051806020016040528060008152506116bd565b91505095945050505050565b60008060016000848152602001908152602001600020604051806080016040529081600082016040518060200160405290816000820160009054906101000a900467ffffffffffffffff1667ffffffffffffffff1667ffffffffffffffff16815250508152602001600182016040518060200160405290816000820160009054906101000a900467ffffffffffffffff1667ffffffffffffffff1667ffffffffffffffff168152505081526020016002820160009054906101000a900460ff161515151581526020016002820160019054906101000a900460ff1615151515815250509050806040015115610c91576007915050610d5a565b806060015115610ca5576002915050610d5a565b610cb2816000015161185d565b15610cc1576000915050610d5a565b610cce816020015161185d565b15610cdd576001915050610d5a565b610cea8160200151611877565b15610d1f57610cf8836118a3565b8015610d095750610d08836118ea565b5b610d14576003610d17565b60045b915050610d5a565b6040517f08c379a0000000000000000000000000000000000000000000000000000000008152600401610d51906135a1565b60405180910390fd5b919050565b60006003600084815260200190815260200160002060030160008373ffffffffffffffffffffffffffffffffffffffff1673ffffffffffffffffffffffffffffffffffffffff16815260200190815260200160002060009054906101000a900460ff16905092915050565b6000610dd885858585611915565b9050949350505050565b600080600080600360008681526020019081526020016000209050806000015481600101548260020154935093509350509193909250565b60606040518060400160405280600181526020017f3100000000000000000000000000000000000000000000000000000000000000815250905090565b600080610e6261144c565b9050610e7f848285604051806020016040528060008152506116bd565b91505092915050565b600080610e9361144c565b9050610ee586828787878080601f016020809104026020016040519081016040528093929190818152602001838380828437600081840152601f19601f820116905080830192505050505050506116bd565b915050949350505050565b600080610f068686868680519060200120611237565b90508451865114610f4c576040517f08c379a0000000000000000000000000000000000000000000000000000000008152600401610f4390613481565b60405180910390fd5b8351865114610f90576040517f08c379a0000000000000000000000000000000000000000000000000000000008152600401610f8790613481565b60405180910390fd5b6000865111610fd4576040517f08c379a0000000000000000000000000000000000000000000000000000000008152600401610fcb90613501565b60405180910390fd5b6000600160008381526020019081526020016000209050611034816000016040518060200160405290816000820160009054906101000a900467ffffffffffffffff1667ffffffffffffffff1667ffffffffffffffff1681525050611b52565b611073576040517f08c379a000000000000000000000000000000000000000000000000000000000815260040161106a906135e1565b60405180910390fd5b6000611085611080610ae6565b611b6c565b61108e43611b6c565b6110989190613a1c565b905060006110ac6110a761076b565b611b6c565b826110b79190613a1c565b90506110cf8284600001611bc390919063ffffffff16565b6110e58184600101611bc390919063ffffffff16565b7f7d84a6263ae0d98d3329bd7b46bb4e8d6f98cd35a7adb45c274c8b7fd5ebd5e08461110f61144c565b8b8b8d5167ffffffffffffffff811115611152577f4e487b7100000000000000000000000000000000000000000000000000000000600052604160045260246000fd5b60405190808252806020026020018201604052801561118557816020015b60608152602001906001900390816111705790505b508c88888e60405161119f9998979695949392919061361c565b60405180910390a183945050505050949350505050565b60006064905090565b6000600254905090565b6000611226600160008481526020019081526020016000206001016040518060200160405290816000820160009054906101000a900467ffffffffffffffff1667ffffffffffffffff1667ffffffffffffffff168152505061166a565b67ffffffffffffffff169050919050565b600084848484604051602001611250949392919061324a565b6040516020818303038152906040528051906020012060001c9050949350505050565b60606040518060400160405280602081526020017f737570706f72743d627261766f2671756f72756d3d666f722c6162737461696e815250905090565b7f150214d74d59b7d1e90c73fc22ef3d991dd0a76b046543d4d80ab92d2a50328f81565b60006112e08383611bf2565b905092915050565b60006112f26111b6565b6112fa6111bf565b7f000000000000000000000000000000000000000000000000000000000000000073ffffffffffffffffffffffffffffffffffffffff16638e539e8c856040518263ffffffff1660e01b81526004016113539190613601565b60206040518083038186803b15801561136b57600080fd5b505afa15801561137f573d6000803e3d6000fd5b505050506040513d601f19601f820116820180604052508101906113a39190612a75565b6113ad9190613a8b565b6113b79190613a5a565b9050919050565b7f000000000000000000000000000000000000000000000000000000000000000081565b60007f01ffc9a7000000000000000000000000000000000000000000000000000000007bffffffffffffffffffffffffffffffffffffffffffffffffffffffff1916827bffffffffffffffffffffffffffffffffffffffffffffffffffffffff1916149050919050565b600033905090565b61145c6111b6565b81111561149e576040517f08c379a000000000000000000000000000000000000000000000000000000000815260040161149590613441565b60405180910390fd5b60006002549050816002819055507f0553476bf02ef2726e8ce5ced78d63e26e602e4a2257b1f559418e24b463399781836040516114dd9291906136cc565b60405180910390a15050565b60006040518060600160405280602781526020016142b660279139905060005b85518110156116615760008087838151811061154e577f4e487b7100000000000000000000000000000000000000000000000000000000600052603260045260246000fd5b602002602001015173ffffffffffffffffffffffffffffffffffffffff168784815181106115a5577f4e487b7100000000000000000000000000000000000000000000000000000000600052603260045260246000fd5b60200260200101518785815181106115e6577f4e487b7100000000000000000000000000000000000000000000000000000000600052603260045260246000fd5b60200260200101516040516115fb91906131d3565b60006040518083038185875af1925050503d8060008114611638576040519150601f19603f3d011682016040523d82523d6000602084013e61163d565b606091505b509150915061164d828286611ca7565b5050508061165a90613c84565b9050611509565b50505050505050565b600081600001519050919050565b600061168b611685611d0e565b83611dd1565b9050919050565b60008060006116a387878787611e04565b915091506116b081611f11565b8192505050949350505050565b6000806001600087815260200190815260200160002090506001600781111561170f577f4e487b7100000000000000000000000000000000000000000000000000000000600052602160045260246000fd5b61171887610b98565b6007811115611750577f4e487b7100000000000000000000000000000000000000000000000000000000600052602160045260246000fd5b14611790576040517f08c379a0000000000000000000000000000000000000000000000000000000008152600401611787906134e1565b60405180910390fd5b60006117ee866117df846000016040518060200160405290816000820160009054906101000a900467ffffffffffffffff1667ffffffffffffffff1667ffffffffffffffff168152505061166a565b67ffffffffffffffff166112d4565b90506117fc87878784612262565b8573ffffffffffffffffffffffffffffffffffffffff167fb8e138887d0aa13bab447e82de9d5c1777041ecd21ca36ba824ff1e6c07ddda488878488604051611848949392919061372c565b60405180910390a28092505050949350505050565b600043826000015167ffffffffffffffff16119050919050565b6000611882826124da565b801561189c575043826000015167ffffffffffffffff1611155b9050919050565b600080600360008481526020019081526020016000209050806002015481600101546118cf91906139c6565b6118e06118db85610a78565b6112e8565b1115915050919050565b6000806003600084815260200190815260200160002090508060000154816001015411915050919050565b60008061192486868686611237565b9050600061193182610b98565b90506002600781111561196d577f4e487b7100000000000000000000000000000000000000000000000000000000600052602160045260246000fd5b8160078111156119a6577f4e487b7100000000000000000000000000000000000000000000000000000000600052602160045260246000fd5b14158015611a255750600660078111156119e9577f4e487b7100000000000000000000000000000000000000000000000000000000600052602160045260246000fd5b816007811115611a22577f4e487b7100000000000000000000000000000000000000000000000000000000600052602160045260246000fd5b14155b8015611aa15750600780811115611a65577f4e487b7100000000000000000000000000000000000000000000000000000000600052602160045260246000fd5b816007811115611a9e577f4e487b7100000000000000000000000000000000000000000000000000000000600052602160045260246000fd5b14155b611ae0576040517f08c379a0000000000000000000000000000000000000000000000000000000008152600401611ad790613561565b60405180910390fd5b600180600084815260200190815260200160002060020160016101000a81548160ff0219169083151502179055507f789cf55be980739dad1d0699b93b58e806b51c9d96619bfa8fe0a28abaa7b30c82604051611b3d9190613601565b60405180910390a18192505050949350505050565b600080826000015167ffffffffffffffff16149050919050565b600067ffffffffffffffff8016821115611bbb576040517f08c379a0000000000000000000000000000000000000000000000000000000008152600401611bb290613541565b60405180910390fd5b819050919050565b808260000160006101000a81548167ffffffffffffffff021916908367ffffffffffffffff1602179055505050565b60007f000000000000000000000000000000000000000000000000000000000000000073ffffffffffffffffffffffffffffffffffffffff16633a46b1a884846040518363ffffffff1660e01b8152600401611c4f929190613221565b60206040518083038186803b158015611c6757600080fd5b505afa158015611c7b573d6000803e3d6000fd5b505050506040513d601f19601f82011682018060405250810190611c9f9190612a75565b905092915050565b60608315611cb757829050611d07565b600083511115611cca5782518084602001fd5b816040517f08c379a0000000000000000000000000000000000000000000000000000000008152600401611cfe91906133df565b60405180910390fd5b9392505050565b60007f0000000000000000000000000000000000000000000000000000000000000000461415611d60577f00000000000000000000000000000000000000000000000000000000000000009050611dce565b611dcb7f00000000000000000000000000000000000000000000000000000000000000007f00000000000000000000000000000000000000000000000000000000000000007f00000000000000000000000000000000000000000000000000000000000000006124f4565b90505b90565b60008282604051602001611de69291906131ea565b60405160208183030381529060405280519060200120905092915050565b6000807f7fffffffffffffffffffffffffffffff5d576e7357a4501ddfe92f46681b20a08360001c1115611e3f576000600391509150611f08565b601b8560ff1614158015611e575750601c8560ff1614155b15611e69576000600491509150611f08565b600060018787878760405160008152602001604052604051611e8e9493929190613364565b6020604051602081039080840390855afa158015611eb0573d6000803e3d6000fd5b505050602060405103519050600073ffffffffffffffffffffffffffffffffffffffff168173ffffffffffffffffffffffffffffffffffffffff161415611eff57600060019250925050611f08565b80600092509250505b94509492505050565b60006004811115611f4b577f4e487b7100000000000000000000000000000000000000000000000000000000600052602160045260246000fd5b816004811115611f84577f4e487b7100000000000000000000000000000000000000000000000000000000600052602160045260246000fd5b1415611f8f5761225f565b60016004811115611fc9577f4e487b7100000000000000000000000000000000000000000000000000000000600052602160045260246000fd5b816004811115612002577f4e487b7100000000000000000000000000000000000000000000000000000000600052602160045260246000fd5b1415612043576040517f08c379a000000000000000000000000000000000000000000000000000000000815260040161203a90613401565b60405180910390fd5b6002600481111561207d577f4e487b7100000000000000000000000000000000000000000000000000000000600052602160045260246000fd5b8160048111156120b6577f4e487b7100000000000000000000000000000000000000000000000000000000600052602160045260246000fd5b14156120f7576040517f08c379a00000000000000000000000000000000000000000000000000000000081526004016120ee90613461565b60405180910390fd5b60036004811115612131577f4e487b7100000000000000000000000000000000000000000000000000000000600052602160045260246000fd5b81600481111561216a577f4e487b7100000000000000000000000000000000000000000000000000000000600052602160045260246000fd5b14156121ab576040517f08c379a00000000000000000000000000000000000000000000000000000000081526004016121a2906134a1565b60405180910390fd5b6004808111156121e4577f4e487b7100000000000000000000000000000000000000000000000000000000600052602160045260246000fd5b81600481111561221d577f4e487b7100000000000000000000000000000000000000000000000000000000600052602160045260246000fd5b141561225e576040517f08c379a000000000000000000000000000000000000000000000000000000000815260040161225590613521565b60405180910390fd5b5b50565b60006003600086815260200190815260200160002090508060030160008573ffffffffffffffffffffffffffffffffffffffff1673ffffffffffffffffffffffffffffffffffffffff16815260200190815260200160002060009054906101000a900460ff1615612308576040517f08c379a00000000000000000000000000000000000000000000000000000000081526004016122ff906134c1565b60405180910390fd5b60018160030160008673ffffffffffffffffffffffffffffffffffffffff1673ffffffffffffffffffffffffffffffffffffffff16815260200190815260200160002060006101000a81548160ff0219169083151502179055506000600281111561239c577f4e487b7100000000000000000000000000000000000000000000000000000000600052602160045260246000fd5b60ff168360ff1614156123c957818160000160008282546123bd91906139c6565b925050819055506124d3565b60016002811115612403577f4e487b7100000000000000000000000000000000000000000000000000000000600052602160045260246000fd5b60ff168360ff161415612430578181600101600082825461242491906139c6565b925050819055506124d2565b600280811115612469577f4e487b7100000000000000000000000000000000000000000000000000000000600052602160045260246000fd5b60ff168360ff161415612496578181600201600082825461248a91906139c6565b925050819055506124d1565b6040517f08c379a00000000000000000000000000000000000000000000000000000000081526004016124c8906135c1565b60405180910390fd5b5b5b5050505050565b600080826000015167ffffffffffffffff16119050919050565b6000838383463060405160200161250f9594939291906132da565b6040516020818303038152906040528051906020012090509392505050565b600061254161253c8461379d565b613778565b9050808382526020820190508285602086028201111561256057600080fd5b60005b85811015612590578161257688826126df565b845260208401935060208301925050600181019050612563565b5050509392505050565b60006125ad6125a8846137c9565b613778565b9050808382526020820190508260005b858110156125ed57813585016125d3888261279c565b8452602084019350602083019250506001810190506125bd565b5050509392505050565b600061260a612605846137f5565b613778565b9050808382526020820190508285602086028201111561262957600080fd5b60005b85811015612659578161263f888261283a565b84526020840193506020830192505060018101905061262c565b5050509392505050565b600061267661267184613821565b613778565b90508281526020810184848401111561268e57600080fd5b612699848285613bdf565b509392505050565b60006126b46126af84613852565b613778565b9050828152602081018484840111156126cc57600080fd5b6126d7848285613bdf565b509392505050565b6000813590506126ee81614242565b92915050565b600082601f83011261270557600080fd5b813561271584826020860161252e565b91505092915050565b600082601f83011261272f57600080fd5b813561273f84826020860161259a565b91505092915050565b600082601f83011261275957600080fd5b81356127698482602086016125f7565b91505092915050565b60008135905061278181614259565b92915050565b60008135905061279681614270565b92915050565b600082601f8301126127ad57600080fd5b81356127bd848260208601612663565b91505092915050565b60008083601f8401126127d857600080fd5b8235905067ffffffffffffffff8111156127f157600080fd5b60208301915083600182028301111561280957600080fd5b9250929050565b600082601f83011261282157600080fd5b81356128318482602086016126a1565b91505092915050565b60008135905061284981614287565b92915050565b60008151905061285e81614287565b92915050565b6000813590506128738161429e565b92915050565b6000806040838503121561288c57600080fd5b600061289a858286016126df565b92505060206128ab8582860161283a565b9150509250929050565b600080600080608085870312156128cb57600080fd5b600085013567ffffffffffffffff8111156128e557600080fd5b6128f1878288016126f4565b945050602085013567ffffffffffffffff81111561290e57600080fd5b61291a87828801612748565b935050604085013567ffffffffffffffff81111561293757600080fd5b6129438782880161271e565b925050606061295487828801612772565b91505092959194509250565b6000806000806080858703121561297657600080fd5b600085013567ffffffffffffffff81111561299057600080fd5b61299c878288016126f4565b945050602085013567ffffffffffffffff8111156129b957600080fd5b6129c587828801612748565b935050604085013567ffffffffffffffff8111156129e257600080fd5b6129ee8782880161271e565b925050606085013567ffffffffffffffff811115612a0b57600080fd5b612a1787828801612810565b91505092959194509250565b600060208284031215612a3557600080fd5b6000612a4384828501612787565b91505092915050565b600060208284031215612a5e57600080fd5b6000612a6c8482850161283a565b91505092915050565b600060208284031215612a8757600080fd5b6000612a958482850161284f565b91505092915050565b60008060408385031215612ab157600080fd5b6000612abf8582860161283a565b9250506020612ad0858286016126df565b9150509250929050565b60008060408385031215612aed57600080fd5b6000612afb8582860161283a565b9250506020612b0c85828601612864565b9150509250929050565b60008060008060608587031215612b2c57600080fd5b6000612b3a8782880161283a565b9450506020612b4b87828801612864565b935050604085013567ffffffffffffffff811115612b6857600080fd5b612b74878288016127c6565b925092505092959194509250565b600080600080600060a08688031215612b9a57600080fd5b6000612ba88882890161283a565b9550506020612bb988828901612864565b9450506040612bca88828901612864565b9350506060612bdb88828901612772565b9250506080612bec88828901612772565b9150509295509295909350565b6000612c058383612c51565b60208301905092915050565b6000612c1d8383612e4a565b905092915050565b6000612c318383612ed2565b905092915050565b6000612c458383613197565b60208301905092915050565b612c5a81613ae5565b82525050565b612c6981613ae5565b82525050565b6000612c7a826138c3565b612c848185613939565b9350612c8f83613883565b8060005b83811015612cc0578151612ca78882612bf9565b9750612cb283613905565b925050600181019050612c93565b5085935050505092915050565b6000612cd8826138ce565b612ce2818561394a565b935083602082028501612cf485613893565b8060005b85811015612d305784840389528151612d118582612c11565b9450612d1c83613912565b925060208a01995050600181019050612cf8565b50829750879550505050505092915050565b6000612d4d826138d9565b612d57818561395b565b935083602082028501612d69856138a3565b8060005b85811015612da55784840389528151612d868582612c25565b9450612d918361391f565b925060208a01995050600181019050612d6d565b50829750879550505050505092915050565b6000612dc2826138e4565b612dcc818561396c565b9350612dd7836138b3565b8060005b83811015612e08578151612def8882612c39565b9750612dfa8361392c565b925050600181019050612ddb565b5085935050505092915050565b612e1e81613af7565b82525050565b612e2d81613b03565b82525050565b612e44612e3f82613b03565b613ccd565b82525050565b6000612e55826138ef565b612e5f818561397d565b9350612e6f818560208601613bee565b612e7881613dc2565b840191505092915050565b6000612e8e826138ef565b612e98818561398e565b9350612ea8818560208601613bee565b80840191505092915050565b612ebd81613b97565b82525050565b612ecc81613bbb565b82525050565b6000612edd826138fa565b612ee78185613999565b9350612ef7818560208601613bee565b612f0081613dc2565b840191505092915050565b6000612f16826138fa565b612f2081856139aa565b9350612f30818560208601613bee565b612f3981613dc2565b840191505092915050565b6000612f516018836139aa565b9150612f5c82613dd3565b602082019050919050565b6000612f746018836139aa565b9150612f7f82613dfc565b602082019050919050565b6000612f976043836139aa565b9150612fa282613e25565b606082019050919050565b6000612fba601f836139aa565b9150612fc582613e9a565b602082019050919050565b6000612fdd6002836139bb565b9150612fe882613ec3565b600282019050919050565b60006130006021836139aa565b915061300b82613eec565b604082019050919050565b60006130236022836139aa565b915061302e82613f3b565b604082019050919050565b60006130466027836139aa565b915061305182613f8a565b604082019050919050565b60006130696023836139aa565b915061307482613fd9565b604082019050919050565b600061308c6018836139aa565b915061309782614028565b602082019050919050565b60006130af6022836139aa565b91506130ba82614051565b604082019050919050565b60006130d26026836139aa565b91506130dd826140a0565b604082019050919050565b60006130f5601d836139aa565b9150613100826140ef565b602082019050919050565b60006131186021836139aa565b915061312382614118565b604082019050919050565b600061313b601d836139aa565b915061314682614167565b602082019050919050565b600061315e6035836139aa565b915061316982614190565b604082019050919050565b60006131816021836139aa565b915061318c826141df565b604082019050919050565b6131a081613b6c565b82525050565b6131af81613b6c565b82525050565b6131be81613bcd565b82525050565b6131cd81613b8a565b82525050565b60006131df8284612e83565b915081905092915050565b60006131f582612fd0565b91506132018285612e33565b6020820191506132118284612e33565b6020820191508190509392505050565b60006040820190506132366000830185612c60565b61324360208301846131a6565b9392505050565b600060808201905081810360008301526132648187612c6f565b905081810360208301526132788186612db7565b9050818103604083015261328c8185612ccd565b905061329b6060830184612e24565b95945050505050565b60006020820190506132b96000830184612e15565b92915050565b60006020820190506132d46000830184612e24565b92915050565b600060a0820190506132ef6000830188612e24565b6132fc6020830187612e24565b6133096040830186612e24565b61331660608301856131a6565b6133236080830184612c60565b9695505050505050565b60006060820190506133426000830186612e24565b61334f60208301856131a6565b61335c60408301846131c4565b949350505050565b60006080820190506133796000830187612e24565b61338660208301866131c4565b6133936040830185612e24565b6133a06060830184612e24565b95945050505050565b60006020820190506133be6000830184612eb4565b92915050565b60006020820190506133d96000830184612ec3565b92915050565b600060208201905081810360008301526133f98184612f0b565b905092915050565b6000602082019050818103600083015261341a81612f44565b9050919050565b6000602082019050818103600083015261343a81612f67565b9050919050565b6000602082019050818103600083015261345a81612f8a565b9050919050565b6000602082019050818103600083015261347a81612fad565b9050919050565b6000602082019050818103600083015261349a81612ff3565b9050919050565b600060208201905081810360008301526134ba81613016565b9050919050565b600060208201905081810360008301526134da81613039565b9050919050565b600060208201905081810360008301526134fa8161305c565b9050919050565b6000602082019050818103600083015261351a8161307f565b9050919050565b6000602082019050818103600083015261353a816130a2565b9050919050565b6000602082019050818103600083015261355a816130c5565b9050919050565b6000602082019050818103600083015261357a816130e8565b9050919050565b6000602082019050818103600083015261359a8161310b565b9050919050565b600060208201905081810360008301526135ba8161312e565b9050919050565b600060208201905081810360008301526135da81613151565b9050919050565b600060208201905081810360008301526135fa81613174565b9050919050565b600060208201905061361660008301846131a6565b92915050565b600061012082019050613632600083018c6131a6565b61363f602083018b612c60565b8181036040830152613651818a612c6f565b905081810360608301526136658189612db7565b905081810360808301526136798188612d42565b905081810360a083015261368d8187612ccd565b905061369c60c08301866131b5565b6136a960e08301856131b5565b8181036101008301526136bc8184612f0b565b90509a9950505050505050505050565b60006040820190506136e160008301856131a6565b6136ee60208301846131a6565b9392505050565b600060608201905061370a60008301866131a6565b61371760208301856131a6565b61372460408301846131a6565b949350505050565b600060808201905061374160008301876131a6565b61374e60208301866131c4565b61375b60408301856131a6565b818103606083015261376d8184612f0b565b905095945050505050565b6000613782613793565b905061378e8282613c53565b919050565b6000604051905090565b600067ffffffffffffffff8211156137b8576137b7613d93565b5b602082029050602081019050919050565b600067ffffffffffffffff8211156137e4576137e3613d93565b5b602082029050602081019050919050565b600067ffffffffffffffff8211156138105761380f613d93565b5b602082029050602081019050919050565b600067ffffffffffffffff82111561383c5761383b613d93565b5b61384582613dc2565b9050602081019050919050565b600067ffffffffffffffff82111561386d5761386c613d93565b5b61387682613dc2565b9050602081019050919050565b6000819050602082019050919050565b6000819050602082019050919050565b6000819050602082019050919050565b6000819050602082019050919050565b600081519050919050565b600081519050919050565b600081519050919050565b600081519050919050565b600081519050919050565b600081519050919050565b6000602082019050919050565b6000602082019050919050565b6000602082019050919050565b6000602082019050919050565b600082825260208201905092915050565b600082825260208201905092915050565b600082825260208201905092915050565b600082825260208201905092915050565b600082825260208201905092915050565b600081905092915050565b600082825260208201905092915050565b600082825260208201905092915050565b600081905092915050565b60006139d182613b6c565b91506139dc83613b6c565b9250827fffffffffffffffffffffffffffffffffffffffffffffffffffffffffffffffff03821115613a1157613a10613cd7565b5b828201905092915050565b6000613a2782613b76565b9150613a3283613b76565b92508267ffffffffffffffff03821115613a4f57613a4e613cd7565b5b828201905092915050565b6000613a6582613b6c565b9150613a7083613b6c565b925082613a8057613a7f613d06565b5b828204905092915050565b6000613a9682613b6c565b9150613aa183613b6c565b9250817fffffffffffffffffffffffffffffffffffffffffffffffffffffffffffffffff0483118215151615613ada57613ad9613cd7565b5b828202905092915050565b6000613af082613b4c565b9050919050565b60008115159050919050565b6000819050919050565b60007fffffffff0000000000000000000000000000000000000000000000000000000082169050919050565b6000819050613b478261422e565b919050565b600073ffffffffffffffffffffffffffffffffffffffff82169050919050565b6000819050919050565b600067ffffffffffffffff82169050919050565b600060ff82169050919050565b6000613ba282613ba9565b9050919050565b6000613bb482613b4c565b9050919050565b6000613bc682613b39565b9050919050565b6000613bd882613b76565b9050919050565b82818337600083830152505050565b60005b83811015613c0c578082015181840152602081019050613bf1565b83811115613c1b576000848401525b50505050565b60006002820490506001821680613c3957607f821691505b60208210811415613c4d57613c4c613d64565b5b50919050565b613c5c82613dc2565b810181811067ffffffffffffffff82111715613c7b57613c7a613d93565b5b80604052505050565b6000613c8f82613b6c565b91507fffffffffffffffffffffffffffffffffffffffffffffffffffffffffffffffff821415613cc257613cc1613cd7565b5b600182019050919050565b6000819050919050565b7f4e487b7100000000000000000000000000000000000000000000000000000000600052601160045260246000fd5b7f4e487b7100000000000000000000000000000000000000000000000000000000600052601260045260246000fd5b7f4e487b7100000000000000000000000000000000000000000000000000000000600052602160045260246000fd5b7f4e487b7100000000000000000000000000000000000000000000000000000000600052602260045260246000fd5b7f4e487b7100000000000000000000000000000000000000000000000000000000600052604160045260246000fd5b6000601f19601f8301169050919050565b7f45434453413a20696e76616c6964207369676e61747572650000000000000000600082015250565b7f476f7665726e6f723a206f6e6c79476f7665726e616e63650000000000000000600082015250565b7f476f7665726e6f72566f74657351756f72756d4672616374696f6e3a2071756f60008201527f72756d4e756d657261746f72206f7665722071756f72756d44656e6f6d696e6160208201527f746f720000000000000000000000000000000000000000000000000000000000604082015250565b7f45434453413a20696e76616c6964207369676e6174757265206c656e67746800600082015250565b7f1901000000000000000000000000000000000000000000000000000000000000600082015250565b7f476f7665726e6f723a20696e76616c69642070726f706f73616c206c656e677460008201527f6800000000000000000000000000000000000000000000000000000000000000602082015250565b7f45434453413a20696e76616c6964207369676e6174757265202773272076616c60008201527f7565000000000000000000000000000000000000000000000000000000000000602082015250565b7f476f7665726e6f72566f74696e6753696d706c653a20766f746520616c72656160008201527f6479206361737400000000000000000000000000000000000000000000000000602082015250565b7f476f7665726e6f723a20766f7465206e6f742063757272656e746c792061637460008201527f6976650000000000000000000000000000000000000000000000000000000000602082015250565b7f476f7665726e6f723a20656d7074792070726f706f73616c0000000000000000600082015250565b7f45434453413a20696e76616c6964207369676e6174757265202776272076616c60008201527f7565000000000000000000000000000000000000000000000000000000000000602082015250565b7f53616665436173743a2076616c756520646f65736e27742066697420696e203660008201527f3420626974730000000000000000000000000000000000000000000000000000602082015250565b7f476f7665726e6f723a2070726f706f73616c206e6f7420616374697665000000600082015250565b7f476f7665726e6f723a2070726f706f73616c206e6f742073756363657373667560008201527f6c00000000000000000000000000000000000000000000000000000000000000602082015250565b7f476f7665726e6f723a20756e6b6e6f776e2070726f706f73616c206964000000600082015250565b7f476f7665726e6f72566f74696e6753696d706c653a20696e76616c696420766160008201527f6c756520666f7220656e756d20566f7465547970650000000000000000000000602082015250565b7f476f7665726e6f723a2070726f706f73616c20616c726561647920657869737460008201527f7300000000000000000000000000000000000000000000000000000000000000602082015250565b6008811061423f5761423e613d35565b5b50565b61424b81613ae5565b811461425657600080fd5b50565b61426281613b03565b811461426d57600080fd5b50565b61427981613b0d565b811461428457600080fd5b50565b61429081613b6c565b811461429b57600080fd5b50565b6142a781613b8a565b81146142b257600080fd5b5056fe476f7665726e6f723a2063616c6c20726576657274656420776974686f7574206d657373616765a26469706673582212207f29667f0d05e123e242d2e19b9227fb40c472037e77d48e132f78b4463ffbf264736f6c63430008020033",
  "immutableReferences": {
    "6702": [
      {
        "length": 32,
        "start": 4860
      },
      {
        "length": 32,
        "start": 5056
      },
      {
        "length": 32,
        "start": 7158
      }
    ],
    "11872": [
      {
        "length": 32,
        "start": 2794
      }
    ],
    "11874": [
      {
        "length": 32,
        "start": 1903
      }
    ],
    "25949": [
      {
        "length": 32,
        "start": 7482
      }
    ],
    "25951": [
      {
        "length": 32,
        "start": 7442
      }
    ],
    "25953": [
      {
        "length": 32,
        "start": 7558
      }
    ],
    "25955": [
      {
        "length": 32,
        "start": 7591
      }
    ],
    "25957": [
      {
        "length": 32,
        "start": 7525
      }
    ]
  },
  "source": "// SPDX-License-Identifier: MIT\n\npragma solidity ^0.8.0;\n\nimport \"../governance/Governor.sol\";\nimport \"../governance/extensions/GovernorCountingSimple.sol\";\nimport \"../governance/extensions/GovernorVotesQuorumFraction.sol\";\n\ncontract GovernorMock is Governor, GovernorVotesQuorumFraction, GovernorCountingSimple {\n    uint256 immutable _votingDelay;\n    uint256 immutable _votingPeriod;\n\n    constructor(\n        string memory name_,\n        ERC20Votes token_,\n        uint256 votingDelay_,\n        uint256 votingPeriod_,\n        uint256 quorumNumerator_\n    ) Governor(name_) GovernorVotes(token_) GovernorVotesQuorumFraction(quorumNumerator_) {\n        _votingDelay = votingDelay_;\n        _votingPeriod = votingPeriod_;\n    }\n\n    function votingDelay() public view override returns (uint256) {\n        return _votingDelay;\n    }\n\n    function votingPeriod() public view override returns (uint256) {\n        return _votingPeriod;\n    }\n\n    function cancel(\n        address[] memory targets,\n        uint256[] memory values,\n        bytes[] memory calldatas,\n        bytes32 salt\n    ) public returns (uint256 proposalId) {\n        return _cancel(targets, values, calldatas, salt);\n    }\n\n    function getVotes(address account, uint256 blockNumber)\n        public\n        view\n        virtual\n        override(IGovernor, GovernorVotes)\n        returns (uint256)\n    {\n        return super.getVotes(account, blockNumber);\n    }\n}\n",
  "sourcePath": "D:\\marketplace\\frontend (2)\\contracts\\openzeppelin-solidity\\contracts\\mocks\\GovernorMock.sol",
  "compiler": {
    "name": "solc",
    "version": "0.8.2+commit.661d1103.Emscripten.clang"
  },
  "schemaVersion": "3.4.4",
  "updatedAt": "2022-02-01T11:28:54.907Z",
  "devdoc": {
    "kind": "dev",
    "methods": {
      "COUNTING_MODE()": {
        "details": "See {IGovernor-COUNTING_MODE}."
      },
      "castVote(uint256,uint8)": {
        "details": "See {IGovernor-castVote}."
      },
      "castVoteBySig(uint256,uint8,uint8,bytes32,bytes32)": {
        "details": "See {IGovernor-castVoteBySig}."
      },
      "castVoteWithReason(uint256,uint8,string)": {
        "details": "See {IGovernor-castVoteWithReason}."
      },
      "execute(address[],uint256[],bytes[],bytes32)": {
        "details": "See {IGovernor-execute}."
      },
      "hasVoted(uint256,address)": {
        "details": "See {IGovernor-hasVoted}."
      },
      "hashProposal(address[],uint256[],bytes[],bytes32)": {
        "details": "See {IGovernor-hashProposal}. The proposal id is produced by hashing the RLC encoded `targets` array, the `values` array, the `calldatas` array and the descriptionHash (bytes32 which itself is the keccak256 hash of the description string). This proposal id can be produced from the proposal data which is part of the {ProposalCreated} event. It can even be computed in advance, before the proposal is submitted. Note that the chainId and the governor address are not part of the proposal id computation. Consequently, the same proposal (with same operation and same description) will have the same id if submitted on multiple governors accross multiple networks. This also means that in order to execute the same operation twice (on the same governor) the proposer will have to change the description in order to avoid proposal id conflicts."
      },
      "name()": {
        "details": "See {IGovernor-name}."
      },
      "proposalDeadline(uint256)": {
        "details": "See {IGovernor-proposalDeadline}."
      },
      "proposalSnapshot(uint256)": {
        "details": "See {IGovernor-proposalSnapshot}."
      },
      "proposalVotes(uint256)": {
        "details": "Accessor to the internal vote counts."
      },
      "propose(address[],uint256[],bytes[],string)": {
        "details": "See {IGovernor-propose}."
      },
      "quorum(uint256)": {
        "details": "Minimum number of cast voted required for a proposal to be successful. Note: The `blockNumber` parameter corresponds to the snaphot used for counting vote. This allows to scale the quroum depending on values such as the totalSupply of a token at this block (see {ERC20Votes})."
      },
      "state(uint256)": {
        "details": "See {IGovernor-state}."
      },
      "supportsInterface(bytes4)": {
        "details": "See {IERC165-supportsInterface}."
      },
      "version()": {
        "details": "See {IGovernor-version}."
      },
      "votingDelay()": {
        "details": "delay, in number of block, between the proposal is created and the vote starts. This can be increassed to leave time for users to buy voting power, of delegate it, before the voting of a proposal starts."
      },
      "votingPeriod()": {
        "details": "delay, in number of blocks, between the vote start and vote ends. Note: the {votingDelay} can delay the start of the vote. This must be considered when setting the voting duration compared to the voting delay."
      }
    },
    "version": 1
  },
  "userdoc": {
    "kind": "user",
    "methods": {
      "quorum(uint256)": {
        "notice": "module:user-config"
      },
      "votingDelay()": {
        "notice": "module:user-config"
      },
      "votingPeriod()": {
        "notice": "module:user-config"
      }
    },
    "version": 1
  }
}