{
  "contractName": "GovernorTimelockControlMock",
  "abi": [
    {
      "inputs": [
        {
          "internalType": "string",
          "name": "name_",
          "type": "string"
        },
        {
          "internalType": "contract ERC20Votes",
          "name": "token_",
          "type": "address"
        },
        {
          "internalType": "uint256",
          "name": "votingDelay_",
          "type": "uint256"
        },
        {
          "internalType": "uint256",
          "name": "votingPeriod_",
          "type": "uint256"
        },
        {
          "internalType": "contract TimelockController",
          "name": "timelock_",
          "type": "address"
        },
        {
          "internalType": "uint256",
          "name": "quorumNumerator_",
          "type": "uint256"
        }
      ],
      "stateMutability": "nonpayable",
      "type": "constructor"
    },
    {
      "anonymous": false,
      "inputs": [
        {
          "indexed": false,
          "internalType": "uint256",
          "name": "proposalId",
          "type": "uint256"
        }
      ],
      "name": "ProposalCanceled",
      "type": "event"
    },
    {
      "anonymous": false,
      "inputs": [
        {
          "indexed": false,
          "internalType": "uint256",
          "name": "proposalId",
          "type": "uint256"
        },
        {
          "indexed": false,
          "internalType": "address",
          "name": "proposer",
          "type": "address"
        },
        {
          "indexed": false,
          "internalType": "address[]",
          "name": "targets",
          "type": "address[]"
        },
        {
          "indexed": false,
          "internalType": "uint256[]",
          "name": "values",
          "type": "uint256[]"
        },
        {
          "indexed": false,
          "internalType": "string[]",
          "name": "signatures",
          "type": "string[]"
        },
        {
          "indexed": false,
          "internalType": "bytes[]",
          "name": "calldatas",
          "type": "bytes[]"
        },
        {
          "indexed": false,
          "internalType": "uint256",
          "name": "startBlock",
          "type": "uint256"
        },
        {
          "indexed": false,
          "internalType": "uint256",
          "name": "endBlock",
          "type": "uint256"
        },
        {
          "indexed": false,
          "internalType": "string",
          "name": "description",
          "type": "string"
        }
      ],
      "name": "ProposalCreated",
      "type": "event"
    },
    {
      "anonymous": false,
      "inputs": [
        {
          "indexed": false,
          "internalType": "uint256",
          "name": "proposalId",
          "type": "uint256"
        }
      ],
      "name": "ProposalExecuted",
      "type": "event"
    },
    {
      "anonymous": false,
      "inputs": [
        {
          "indexed": false,
          "internalType": "uint256",
          "name": "proposalId",
          "type": "uint256"
        },
        {
          "indexed": false,
          "internalType": "uint256",
          "name": "eta",
          "type": "uint256"
        }
      ],
      "name": "ProposalQueued",
      "type": "event"
    },
    {
      "anonymous": false,
      "inputs": [
        {
          "indexed": false,
          "internalType": "uint256",
          "name": "oldQuorumNumerator",
          "type": "uint256"
        },
        {
          "indexed": false,
          "internalType": "uint256",
          "name": "newQuorumNumerator",
          "type": "uint256"
        }
      ],
      "name": "QuorumNumeratorUpdated",
      "type": "event"
    },
    {
      "anonymous": false,
      "inputs": [
        {
          "indexed": false,
          "internalType": "address",
          "name": "oldTimelock",
          "type": "address"
        },
        {
          "indexed": false,
          "internalType": "address",
          "name": "newTimelock",
          "type": "address"
        }
      ],
      "name": "TimelockChange",
      "type": "event"
    },
    {
      "anonymous": false,
      "inputs": [
        {
          "indexed": true,
          "internalType": "address",
          "name": "voter",
          "type": "address"
        },
        {
          "indexed": false,
          "internalType": "uint256",
          "name": "proposalId",
          "type": "uint256"
        },
        {
          "indexed": false,
          "internalType": "uint8",
          "name": "support",
          "type": "uint8"
        },
        {
          "indexed": false,
          "internalType": "uint256",
          "name": "weight",
          "type": "uint256"
        },
        {
          "indexed": false,
          "internalType": "string",
          "name": "reason",
          "type": "string"
        }
      ],
      "name": "VoteCast",
      "type": "event"
    },
    {
      "inputs": [],
      "name": "BALLOT_TYPEHASH",
      "outputs": [
        {
          "internalType": "bytes32",
          "name": "",
          "type": "bytes32"
        }
      ],
      "stateMutability": "view",
      "type": "function"
    },
    {
      "inputs": [],
      "name": "COUNTING_MODE",
      "outputs": [
        {
          "internalType": "string",
          "name": "",
          "type": "string"
        }
      ],
      "stateMutability": "pure",
      "type": "function"
    },
    {
      "inputs": [
        {
          "internalType": "uint256",
          "name": "proposalId",
          "type": "uint256"
        },
        {
          "internalType": "uint8",
          "name": "support",
          "type": "uint8"
        }
      ],
      "name": "castVote",
      "outputs": [
        {
          "internalType": "uint256",
          "name": "",
          "type": "uint256"
        }
      ],
      "stateMutability": "nonpayable",
      "type": "function"
    },
    {
      "inputs": [
        {
          "internalType": "uint256",
          "name": "proposalId",
          "type": "uint256"
        },
        {
          "internalType": "uint8",
          "name": "support",
          "type": "uint8"
        },
        {
          "internalType": "uint8",
          "name": "v",
          "type": "uint8"
        },
        {
          "internalType": "bytes32",
          "name": "r",
          "type": "bytes32"
        },
        {
          "internalType": "bytes32",
          "name": "s",
          "type": "bytes32"
        }
      ],
      "name": "castVoteBySig",
      "outputs": [
        {
          "internalType": "uint256",
          "name": "",
          "type": "uint256"
        }
      ],
      "stateMutability": "nonpayable",
      "type": "function"
    },
    {
      "inputs": [
        {
          "internalType": "uint256",
          "name": "proposalId",
          "type": "uint256"
        },
        {
          "internalType": "uint8",
          "name": "support",
          "type": "uint8"
        },
        {
          "internalType": "string",
          "name": "reason",
          "type": "string"
        }
      ],
      "name": "castVoteWithReason",
      "outputs": [
        {
          "internalType": "uint256",
          "name": "",
          "type": "uint256"
        }
      ],
      "stateMutability": "nonpayable",
      "type": "function"
    },
    {
      "inputs": [
        {
          "internalType": "address[]",
          "name": "targets",
          "type": "address[]"
        },
        {
          "internalType": "uint256[]",
          "name": "values",
          "type": "uint256[]"
        },
        {
          "internalType": "bytes[]",
          "name": "calldatas",
          "type": "bytes[]"
        },
        {
          "internalType": "bytes32",
          "name": "descriptionHash",
          "type": "bytes32"
        }
      ],
      "name": "execute",
      "outputs": [
        {
          "internalType": "uint256",
          "name": "",
          "type": "uint256"
        }
      ],
      "stateMutability": "payable",
      "type": "function"
    },
    {
      "inputs": [
        {
          "internalType": "uint256",
          "name": "proposalId",
          "type": "uint256"
        },
        {
          "internalType": "address",
          "name": "account",
          "type": "address"
        }
      ],
      "name": "hasVoted",
      "outputs": [
        {
          "internalType": "bool",
          "name": "",
          "type": "bool"
        }
      ],
      "stateMutability": "view",
      "type": "function"
    },
    {
      "inputs": [
        {
          "internalType": "address[]",
          "name": "targets",
          "type": "address[]"
        },
        {
          "internalType": "uint256[]",
          "name": "values",
          "type": "uint256[]"
        },
        {
          "internalType": "bytes[]",
          "name": "calldatas",
          "type": "bytes[]"
        },
        {
          "internalType": "bytes32",
          "name": "descriptionHash",
          "type": "bytes32"
        }
      ],
      "name": "hashProposal",
      "outputs": [
        {
          "internalType": "uint256",
          "name": "",
          "type": "uint256"
        }
      ],
      "stateMutability": "pure",
      "type": "function"
    },
    {
      "inputs": [],
      "name": "name",
      "outputs": [
        {
          "internalType": "string",
          "name": "",
          "type": "string"
        }
      ],
      "stateMutability": "view",
      "type": "function"
    },
    {
      "inputs": [
        {
          "internalType": "uint256",
          "name": "proposalId",
          "type": "uint256"
        }
      ],
      "name": "proposalDeadline",
      "outputs": [
        {
          "internalType": "uint256",
          "name": "",
          "type": "uint256"
        }
      ],
      "stateMutability": "view",
      "type": "function"
    },
    {
      "inputs": [
        {
          "internalType": "uint256",
          "name": "proposalId",
          "type": "uint256"
        }
      ],
      "name": "proposalEta",
      "outputs": [
        {
          "internalType": "uint256",
          "name": "",
          "type": "uint256"
        }
      ],
      "stateMutability": "view",
      "type": "function"
    },
    {
      "inputs": [
        {
          "internalType": "uint256",
          "name": "proposalId",
          "type": "uint256"
        }
      ],
      "name": "proposalSnapshot",
      "outputs": [
        {
          "internalType": "uint256",
          "name": "",
          "type": "uint256"
        }
      ],
      "stateMutability": "view",
      "type": "function"
    },
    {
      "inputs": [
        {
          "internalType": "uint256",
          "name": "proposalId",
          "type": "uint256"
        }
      ],
      "name": "proposalVotes",
      "outputs": [
        {
          "internalType": "uint256",
          "name": "againstVotes",
          "type": "uint256"
        },
        {
          "internalType": "uint256",
          "name": "forVotes",
          "type": "uint256"
        },
        {
          "internalType": "uint256",
          "name": "abstainVotes",
          "type": "uint256"
        }
      ],
      "stateMutability": "view",
      "type": "function"
    },
    {
      "inputs": [
        {
          "internalType": "address[]",
          "name": "targets",
          "type": "address[]"
        },
        {
          "internalType": "uint256[]",
          "name": "values",
          "type": "uint256[]"
        },
        {
          "internalType": "bytes[]",
          "name": "calldatas",
          "type": "bytes[]"
        },
        {
          "internalType": "string",
          "name": "description",
          "type": "string"
        }
      ],
      "name": "propose",
      "outputs": [
        {
          "internalType": "uint256",
          "name": "",
          "type": "uint256"
        }
      ],
      "stateMutability": "nonpayable",
      "type": "function"
    },
    {
      "inputs": [
        {
          "internalType": "address[]",
          "name": "targets",
          "type": "address[]"
        },
        {
          "internalType": "uint256[]",
          "name": "values",
          "type": "uint256[]"
        },
        {
          "internalType": "bytes[]",
          "name": "calldatas",
          "type": "bytes[]"
        },
        {
          "internalType": "bytes32",
          "name": "descriptionHash",
          "type": "bytes32"
        }
      ],
      "name": "queue",
      "outputs": [
        {
          "internalType": "uint256",
          "name": "",
          "type": "uint256"
        }
      ],
      "stateMutability": "nonpayable",
      "type": "function"
    },
    {
      "inputs": [],
      "name": "quorumDenominator",
      "outputs": [
        {
          "internalType": "uint256",
          "name": "",
          "type": "uint256"
        }
      ],
      "stateMutability": "view",
      "type": "function"
    },
    {
      "inputs": [],
      "name": "quorumNumerator",
      "outputs": [
        {
          "internalType": "uint256",
          "name": "",
          "type": "uint256"
        }
      ],
      "stateMutability": "view",
      "type": "function"
    },
    {
      "inputs": [],
      "name": "timelock",
      "outputs": [
        {
          "internalType": "address",
          "name": "",
          "type": "address"
        }
      ],
      "stateMutability": "view",
      "type": "function"
    },
    {
      "inputs": [],
      "name": "token",
      "outputs": [
        {
          "internalType": "contract ERC20Votes",
          "name": "",
          "type": "address"
        }
      ],
      "stateMutability": "view",
      "type": "function"
    },
    {
      "inputs": [
        {
          "internalType": "uint256",
          "name": "newQuorumNumerator",
          "type": "uint256"
        }
      ],
      "name": "updateQuorumNumerator",
      "outputs": [],
      "stateMutability": "nonpayable",
      "type": "function"
    },
    {
      "inputs": [
        {
          "internalType": "contract TimelockController",
          "name": "newTimelock",
          "type": "address"
        }
      ],
      "name": "updateTimelock",
      "outputs": [],
      "stateMutability": "nonpayable",
      "type": "function"
    },
    {
      "inputs": [],
      "name": "version",
      "outputs": [
        {
          "internalType": "string",
          "name": "",
          "type": "string"
        }
      ],
      "stateMutability": "view",
      "type": "function"
    },
    {
      "stateMutability": "payable",
      "type": "receive"
    },
    {
      "inputs": [
        {
          "internalType": "bytes4",
          "name": "interfaceId",
          "type": "bytes4"
        }
      ],
      "name": "supportsInterface",
      "outputs": [
        {
          "internalType": "bool",
          "name": "",
          "type": "bool"
        }
      ],
      "stateMutability": "view",
      "type": "function"
    },
    {
      "inputs": [],
      "name": "votingDelay",
      "outputs": [
        {
          "internalType": "uint256",
          "name": "",
          "type": "uint256"
        }
      ],
      "stateMutability": "view",
      "type": "function"
    },
    {
      "inputs": [],
      "name": "votingPeriod",
      "outputs": [
        {
          "internalType": "uint256",
          "name": "",
          "type": "uint256"
        }
      ],
      "stateMutability": "view",
      "type": "function"
    },
    {
      "inputs": [
        {
          "internalType": "uint256",
          "name": "blockNumber",
          "type": "uint256"
        }
      ],
      "name": "quorum",
      "outputs": [
        {
          "internalType": "uint256",
          "name": "",
          "type": "uint256"
        }
      ],
      "stateMutability": "view",
      "type": "function"
    },
    {
      "inputs": [
        {
          "internalType": "address[]",
          "name": "targets",
          "type": "address[]"
        },
        {
          "internalType": "uint256[]",
          "name": "values",
          "type": "uint256[]"
        },
        {
          "internalType": "bytes[]",
          "name": "calldatas",
          "type": "bytes[]"
        },
        {
          "internalType": "bytes32",
          "name": "descriptionHash",
          "type": "bytes32"
        }
      ],
      "name": "cancel",
      "outputs": [
        {
          "internalType": "uint256",
          "name": "proposalId",
          "type": "uint256"
        }
      ],
      "stateMutability": "nonpayable",
      "type": "function"
    },
    {
      "inputs": [
        {
          "internalType": "uint256",
          "name": "proposalId",
          "type": "uint256"
        }
      ],
      "name": "state",
      "outputs": [
        {
          "internalType": "enum IGovernor.ProposalState",
          "name": "",
          "type": "uint8"
        }
      ],
      "stateMutability": "view",
      "type": "function"
    },
    {
      "inputs": [
        {
          "internalType": "address",
          "name": "account",
          "type": "address"
        },
        {
          "internalType": "uint256",
          "name": "blockNumber",
          "type": "uint256"
        }
      ],
      "name": "getVotes",
      "outputs": [
        {
          "internalType": "uint256",
          "name": "",
          "type": "uint256"
        }
      ],
      "stateMutability": "view",
      "type": "function"
    }
  ],
  "bytecode": "0x6101806040523480156200001257600080fd5b506040516200571c3803806200571c83398181016040528101906200003891906200048b565b80858388806200004d6200015f60201b60201c565b60008280519060200120905060008280519060200120905060007f8b73c3c69bb8fe3d512ecc4cf759cc79239f7b179b0ffacaa9a75d522b39400f90508260c081815250508160e081815250504660a08181525050620000b58184846200019c60201b60201c565b6080818152505080610100818152505050505050508060009080519060200190620000e292919062000324565b5050620000f581620001d860201b60201c565b508073ffffffffffffffffffffffffffffffffffffffff166101208173ffffffffffffffffffffffffffffffffffffffff1660601b815250505062000140816200027960201b60201c565b5083610140818152505082610160818152505050505050505062000935565b60606040518060400160405280600181526020017f3100000000000000000000000000000000000000000000000000000000000000815250905090565b60008383834630604051602001620001b9959493929190620005c1565b6040516020818303038152906040528051906020012090509392505050565b7f08f74ea46ef7894f65eabfb5e6e695de773a000b47c529ab559178069b226401600260009054906101000a900473ffffffffffffffffffffffffffffffffffffffff16826040516200022d92919062000594565b60405180910390a180600260006101000a81548173ffffffffffffffffffffffffffffffffffffffff021916908373ffffffffffffffffffffffffffffffffffffffff16021790555050565b620002896200031b60201b60201c565b811115620002ce576040517f08c379a0000000000000000000000000000000000000000000000000000000008152600401620002c5906200061e565b60405180910390fd5b60006004549050816004819055507f0553476bf02ef2726e8ce5ced78d63e26e602e4a2257b1f559418e24b463399781836040516200030f92919062000640565b60405180910390a15050565b60006064905090565b828054620003329062000797565b90600052602060002090601f016020900481019282620003565760008555620003a2565b82601f106200037157805160ff1916838001178555620003a2565b82800160010185558215620003a2579182015b82811115620003a157825182559160200191906001019062000384565b5b509050620003b19190620003b5565b5090565b5b80821115620003d0576000816000905550600101620003b6565b5090565b6000620003eb620003e58462000696565b6200066d565b9050828152602081018484840111156200040457600080fd5b6200041184828562000761565b509392505050565b6000815190506200042a81620008e7565b92915050565b600081519050620004418162000901565b92915050565b600082601f8301126200045957600080fd5b81516200046b848260208601620003d4565b91505092915050565b60008151905062000485816200091b565b92915050565b60008060008060008060c08789031215620004a557600080fd5b600087015167ffffffffffffffff811115620004c057600080fd5b620004ce89828a0162000447565b9650506020620004e189828a0162000419565b9550506040620004f489828a0162000474565b94505060606200050789828a0162000474565b93505060806200051a89828a0162000430565b92505060a06200052d89828a0162000474565b9150509295509295509295565b6200054581620006dd565b82525050565b620005568162000705565b82525050565b60006200056b604383620006cc565b9150620005788262000872565b606082019050919050565b6200058e8162000757565b82525050565b6000604082019050620005ab60008301856200053a565b620005ba60208301846200053a565b9392505050565b600060a082019050620005d860008301886200054b565b620005e760208301876200054b565b620005f660408301866200054b565b62000605606083018562000583565b6200061460808301846200053a565b9695505050505050565b6000602082019050818103600083015262000639816200055c565b9050919050565b600060408201905062000657600083018562000583565b62000666602083018462000583565b9392505050565b6000620006796200068c565b9050620006878282620007cd565b919050565b6000604051905090565b600067ffffffffffffffff821115620006b457620006b362000832565b5b620006bf8262000861565b9050602081019050919050565b600082825260208201905092915050565b6000620006ea8262000737565b9050919050565b6000620006fe8262000737565b9050919050565b6000819050919050565b60006200071c82620006dd565b9050919050565b60006200073082620006f1565b9050919050565b600073ffffffffffffffffffffffffffffffffffffffff82169050919050565b6000819050919050565b60005b838110156200078157808201518184015260208101905062000764565b8381111562000791576000848401525b50505050565b60006002820490506001821680620007b057607f821691505b60208210811415620007c757620007c662000803565b5b50919050565b620007d88262000861565b810181811067ffffffffffffffff82111715620007fa57620007f962000832565b5b80604052505050565b7f4e487b7100000000000000000000000000000000000000000000000000000000600052602260045260246000fd5b7f4e487b7100000000000000000000000000000000000000000000000000000000600052604160045260246000fd5b6000601f19601f8301169050919050565b7f476f7665726e6f72566f74657351756f72756d4672616374696f6e3a2071756f60008201527f72756d4e756d657261746f72206f7665722071756f72756d44656e6f6d696e6160208201527f746f720000000000000000000000000000000000000000000000000000000000604082015250565b620008f2816200070f565b8114620008fe57600080fd5b50565b6200090c8162000723565b81146200091857600080fd5b50565b620009268162000757565b81146200093257600080fd5b50565b60805160a05160c05160e051610100516101205160601c6101405161016051614d70620009ac600039600061083801526000610ed70152600081816116c201528181611d0a0152611dcf01526000612000015260006120420152600061202101526000611fad01526000611fd50152614d706000f3fe6080604052600436106101c65760003560e01c806356781388116100f7578063c01f9e3711610095578063deaaa7cc11610064578063deaaa7cc14610743578063eb9019d41461076e578063f8ce560a146107ab578063fc0c546a146107e85761020c565b8063c01f9e3714610673578063c59057e4146106b0578063d33219b4146106ed578063dd4e2ba5146107185761020c565b806397c3d334116100d157806397c3d334146105b7578063a7713a70146105e2578063a890c9101461060d578063ab58fb8e146106365761020c565b806356781388146105005780637b3c71d31461053d5780637d5e81e21461057a5761020c565b80633932abb111610164578063438596321161013e578063438596321461041c578063452115d614610459578063544ffc9c1461049657806354fd4d50146104d55761020c565b80633932abb1146103775780633bccf4fd146103a25780633e4f49e6146103df5761020c565b806306fdde03116101a057806306fdde03146102a2578063160cbed7146102cd5780632656227d1461030a5780632d63f6931461033a5761020c565b806301ffc9a71461021157806302a251a31461024e57806306f3f9e6146102795761020c565b3661020c573073ffffffffffffffffffffffffffffffffffffffff166101ea610813565b73ffffffffffffffffffffffffffffffffffffffff161461020a57600080fd5b005b600080fd5b34801561021d57600080fd5b5061023860048036038101906102339190613367565b610822565b6040516102459190613cfa565b60405180910390f35b34801561025a57600080fd5b50610263610834565b6040516102709190614057565b60405180910390f35b34801561028557600080fd5b506102a0600480360381019061029b91906133b9565b61085c565b005b3480156102ae57600080fd5b506102b76108e4565b6040516102c49190613e35565b60405180910390f35b3480156102d957600080fd5b506102f460048036038101906102ef91906131a7565b610976565b6040516103019190614057565b60405180910390f35b610324600480360381019061031f91906131a7565b610c9a565b6040516103319190614057565b60405180910390f35b34801561034657600080fd5b50610361600480360381019061035c91906133b9565b610e65565b60405161036e9190614057565b60405180910390f35b34801561038357600080fd5b5061038c610ed3565b6040516103999190614057565b60405180910390f35b3480156103ae57600080fd5b506103c960048036038101906103c491906134ef565b610efb565b6040516103d69190614057565b60405180910390f35b3480156103eb57600080fd5b50610406600480360381019061040191906133b9565b610f85565b6040516104139190613e1a565b60405180910390f35b34801561042857600080fd5b50610443600480360381019061043e919061340b565b610f97565b6040516104509190613cfa565b60405180910390f35b34801561046557600080fd5b50610480600480360381019061047b91906131a7565b611002565b60405161048d9190614057565b60405180910390f35b3480156104a257600080fd5b506104bd60048036038101906104b891906133b9565b61101a565b6040516104cc9392919061414b565b60405180910390f35b3480156104e157600080fd5b506104ea611052565b6040516104f79190613e35565b60405180910390f35b34801561050c57600080fd5b5061052760048036038101906105229190613447565b61108f565b6040516105349190614057565b60405180910390f35b34801561054957600080fd5b50610564600480360381019061055f9190613483565b6110c0565b6040516105719190614057565b60405180910390f35b34801561058657600080fd5b506105a1600480360381019061059c9190613252565b611128565b6040516105ae9190614057565b60405180910390f35b3480156105c357600080fd5b506105cc6113ee565b6040516105d99190614057565b60405180910390f35b3480156105ee57600080fd5b506105f76113f7565b6040516106049190614057565b60405180910390f35b34801561061957600080fd5b50610634600480360381019061062f9190613390565b611401565b005b34801561064257600080fd5b5061065d600480360381019061065891906133b9565b611489565b60405161066a9190614057565b60405180910390f35b34801561067f57600080fd5b5061069a600480360381019061069591906133b9565b611565565b6040516106a79190614057565b60405180910390f35b3480156106bc57600080fd5b506106d760048036038101906106d291906131a7565b6115d3565b6040516106e49190614057565b60405180910390f35b3480156106f957600080fd5b5061070261160f565b60405161070f9190613b55565b60405180910390f35b34801561072457600080fd5b5061072d611639565b60405161073a9190613e35565b60405180910390f35b34801561074f57600080fd5b50610758611676565b6040516107659190613d15565b60405180910390f35b34801561077a57600080fd5b506107956004803603810190610790919061316b565b61169a565b6040516107a29190614057565b60405180910390f35b3480156107b757600080fd5b506107d260048036038101906107cd91906133b9565b6116ae565b6040516107df9190614057565b60405180910390f35b3480156107f457600080fd5b506107fd6116c0565b60405161080a9190613dff565b60405180910390f35b600061081d6116e4565b905090565b600061082d8261170e565b9050919050565b60007f0000000000000000000000000000000000000000000000000000000000000000905090565b610864610813565b73ffffffffffffffffffffffffffffffffffffffff16610882611788565b73ffffffffffffffffffffffffffffffffffffffff16146108d8576040517f08c379a00000000000000000000000000000000000000000000000000000000081526004016108cf90613e77565b60405180910390fd5b6108e181611790565b50565b6060600080546108f3906146b4565b80601f016020809104026020016040519081016040528092919081815260200182805461091f906146b4565b801561096c5780601f106109415761010080835404028352916020019161096c565b820191906000526020600020905b81548152906001019060200180831161094f57829003601f168201915b5050505050905090565b600080610985868686866115d3565b9050600460078111156109c1577f4e487b7100000000000000000000000000000000000000000000000000000000600052602160045260246000fd5b6109ca82610f85565b6007811115610a02577f4e487b7100000000000000000000000000000000000000000000000000000000600052602160045260246000fd5b14610a42576040517f08c379a0000000000000000000000000000000000000000000000000000000008152600401610a3990613fd7565b60405180910390fd5b6000600260009054906101000a900473ffffffffffffffffffffffffffffffffffffffff1673ffffffffffffffffffffffffffffffffffffffff1663f27a0c926040518163ffffffff1660e01b815260040160206040518083038186803b158015610aac57600080fd5b505afa158015610ac0573d6000803e3d6000fd5b505050506040513d601f19601f82011682018060405250810190610ae491906133e2565b9050600260009054906101000a900473ffffffffffffffffffffffffffffffffffffffff1673ffffffffffffffffffffffffffffffffffffffff1663b1c5f4278888886000896040518663ffffffff1660e01b8152600401610b4a959493929190613c1c565b60206040518083038186803b158015610b6257600080fd5b505afa158015610b76573d6000803e3d6000fd5b505050506040513d601f19601f82011682018060405250810190610b9a919061333e565b6003600084815260200190815260200160002081905550600260009054906101000a900473ffffffffffffffffffffffffffffffffffffffff1673ffffffffffffffffffffffffffffffffffffffff16638f2a0bb0888888600089876040518763ffffffff1660e01b8152600401610c1796959493929190613c84565b600060405180830381600087803b158015610c3157600080fd5b505af1158015610c45573d6000803e3d6000fd5b505050507f9a2e42fd6722813d69113e7d0079d3d940171428df7373df9c7f7617cfda2892828242610c779190614411565b604051610c85929190614122565b60405180910390a18192505050949350505050565b600080610ca9868686866115d3565b90506000610cb682610f85565b905060046007811115610cf2577f4e487b7100000000000000000000000000000000000000000000000000000000600052602160045260246000fd5b816007811115610d2b577f4e487b7100000000000000000000000000000000000000000000000000000000600052602160045260246000fd5b1480610da7575060056007811115610d6c577f4e487b7100000000000000000000000000000000000000000000000000000000600052602160045260246000fd5b816007811115610da5577f4e487b7100000000000000000000000000000000000000000000000000000000600052602160045260246000fd5b145b610de6576040517f08c379a0000000000000000000000000000000000000000000000000000000008152600401610ddd90613fd7565b60405180910390fd5b600180600084815260200190815260200160002060020160006101000a81548160ff0219169083151502179055507f712ae1383f79ac853f8d882153778e0260ef8f03b504e2866e0593e04d2b291f82604051610e439190614057565b60405180910390a1610e588288888888611825565b8192505050949350505050565b6000610ec2600160008481526020019081526020016000206000016040518060200160405290816000820160009054906101000a900467ffffffffffffffff1667ffffffffffffffff1667ffffffffffffffff1681525050611839565b67ffffffffffffffff169050919050565b60007f0000000000000000000000000000000000000000000000000000000000000000905090565b600080610f5c610f547f150214d74d59b7d1e90c73fc22ef3d991dd0a76b046543d4d80ab92d2a50328f8989604051602001610f3993929190613d83565b60405160208183030381529060405280519060200120611847565b868686611861565b9050610f798782886040518060200160405280600081525061188c565b91505095945050505050565b6000610f9082611a2c565b9050919050565b60006005600084815260200190815260200160002060030160008373ffffffffffffffffffffffffffffffffffffffff1673ffffffffffffffffffffffffffffffffffffffff16815260200190815260200160002060009054906101000a900460ff16905092915050565b600061101085858585611baf565b9050949350505050565b600080600080600560008681526020019081526020016000209050806000015481600101548260020154935093509350509193909250565b60606040518060400160405280600181526020017f3100000000000000000000000000000000000000000000000000000000000000815250905090565b60008061109a611788565b90506110b78482856040518060200160405280600081525061188c565b91505092915050565b6000806110cb611788565b905061111d86828787878080601f016020809104026020016040519081016040528093929190818152602001838380828437600081840152601f19601f8201169050808301925050505050505061188c565b915050949350505050565b60008061113e86868686805190602001206115d3565b90508451865114611184576040517f08c379a000000000000000000000000000000000000000000000000000000000815260040161117b90613ed7565b60405180910390fd5b83518651146111c8576040517f08c379a00000000000000000000000000000000000000000000000000000000081526004016111bf90613ed7565b60405180910390fd5b600086511161120c576040517f08c379a000000000000000000000000000000000000000000000000000000000815260040161120390613f57565b60405180910390fd5b600060016000838152602001908152602001600020905061126c816000016040518060200160405290816000820160009054906101000a900467ffffffffffffffff1667ffffffffffffffff1667ffffffffffffffff1681525050611bc7565b6112ab576040517f08c379a00000000000000000000000000000000000000000000000000000000081526004016112a290614037565b60405180910390fd5b60006112bd6112b8610ed3565b611be1565b6112c643611be1565b6112d09190614467565b905060006112e46112df610834565b611be1565b826112ef9190614467565b90506113078284600001611c3890919063ffffffff16565b61131d8184600101611c3890919063ffffffff16565b7f7d84a6263ae0d98d3329bd7b46bb4e8d6f98cd35a7adb45c274c8b7fd5ebd5e084611347611788565b8b8b8d5167ffffffffffffffff81111561138a577f4e487b7100000000000000000000000000000000000000000000000000000000600052604160045260246000fd5b6040519080825280602002602001820160405280156113bd57816020015b60608152602001906001900390816113a85790505b508c88888e6040516113d799989796959493929190614072565b60405180910390a183945050505050949350505050565b60006064905090565b6000600454905090565b611409610813565b73ffffffffffffffffffffffffffffffffffffffff16611427611788565b73ffffffffffffffffffffffffffffffffffffffff161461147d576040517f08c379a000000000000000000000000000000000000000000000000000000000815260040161147490613e77565b60405180910390fd5b61148681611c67565b50565b600080600260009054906101000a900473ffffffffffffffffffffffffffffffffffffffff1673ffffffffffffffffffffffffffffffffffffffff1663d45c443560036000868152602001908152602001600020546040518263ffffffff1660e01b81526004016114fa9190613d15565b60206040518083038186803b15801561151257600080fd5b505afa158015611526573d6000803e3d6000fd5b505050506040513d601f19601f8201168201806040525081019061154a91906133e2565b90506001811461155a578061155d565b60005b915050919050565b60006115c2600160008481526020019081526020016000206001016040518060200160405290816000820160009054906101000a900467ffffffffffffffff1667ffffffffffffffff1667ffffffffffffffff1681525050611839565b67ffffffffffffffff169050919050565b6000848484846040516020016115ec9493929190613bc2565b6040516020818303038152906040528051906020012060001c9050949350505050565b6000600260009054906101000a900473ffffffffffffffffffffffffffffffffffffffff16905090565b60606040518060400160405280602081526020017f737570706f72743d627261766f2671756f72756d3d666f722c6162737461696e815250905090565b7f150214d74d59b7d1e90c73fc22ef3d991dd0a76b046543d4d80ab92d2a50328f81565b60006116a68383611d06565b905092915050565b60006116b982611dbb565b9050919050565b7f000000000000000000000000000000000000000000000000000000000000000081565b6000600260009054906101000a900473ffffffffffffffffffffffffffffffffffffffff16905090565b60007f6e665ced000000000000000000000000000000000000000000000000000000007bffffffffffffffffffffffffffffffffffffffffffffffffffffffff1916827bffffffffffffffffffffffffffffffffffffffffffffffffffffffff19161480611781575061178082611e91565b5b9050919050565b600033905090565b6117986113ee565b8111156117da576040517f08c379a00000000000000000000000000000000000000000000000000000000081526004016117d190613e97565b60405180910390fd5b60006004549050816004819055507f0553476bf02ef2726e8ce5ced78d63e26e602e4a2257b1f559418e24b46339978183604051611819929190614122565b60405180910390a15050565b6118328585858585611f0b565b5050505050565b600081600001519050919050565b600061185a611854611fa9565b8361206c565b9050919050565b60008060006118728787878761209f565b9150915061187f816121ac565b8192505050949350505050565b600080600160008781526020019081526020016000209050600160078111156118de577f4e487b7100000000000000000000000000000000000000000000000000000000600052602160045260246000fd5b6118e787610f85565b600781111561191f577f4e487b7100000000000000000000000000000000000000000000000000000000600052602160045260246000fd5b1461195f576040517f08c379a000000000000000000000000000000000000000000000000000000000815260040161195690613f37565b60405180910390fd5b60006119bd866119ae846000016040518060200160405290816000820160009054906101000a900467ffffffffffffffff1667ffffffffffffffff1667ffffffffffffffff1681525050611839565b67ffffffffffffffff1661169a565b90506119cb878787846124fd565b8573ffffffffffffffffffffffffffffffffffffffff167fb8e138887d0aa13bab447e82de9d5c1777041ecd21ca36ba824ff1e6c07ddda488878488604051611a179493929190614182565b60405180910390a28092505050949350505050565b600080611a3883612775565b905060046007811115611a74577f4e487b7100000000000000000000000000000000000000000000000000000000600052602160045260246000fd5b816007811115611aad577f4e487b7100000000000000000000000000000000000000000000000000000000600052602160045260246000fd5b14611abb5780915050611baa565b6000600360008581526020019081526020016000205490506000801b811415611ae8578192505050611baa565b600260009054906101000a900473ffffffffffffffffffffffffffffffffffffffff1673ffffffffffffffffffffffffffffffffffffffff16632ab0f529826040518263ffffffff1660e01b8152600401611b439190613d15565b60206040518083038186803b158015611b5b57600080fd5b505afa158015611b6f573d6000803e3d6000fd5b505050506040513d601f19601f82011682018060405250810190611b939190613315565b15611ba357600792505050611baa565b6005925050505b919050565b6000611bbd8585858561293c565b9050949350505050565b600080826000015167ffffffffffffffff16149050919050565b600067ffffffffffffffff8016821115611c30576040517f08c379a0000000000000000000000000000000000000000000000000000000008152600401611c2790613f97565b60405180910390fd5b819050919050565b808260000160006101000a81548167ffffffffffffffff021916908367ffffffffffffffff1602179055505050565b7f08f74ea46ef7894f65eabfb5e6e695de773a000b47c529ab559178069b226401600260009054906101000a900473ffffffffffffffffffffffffffffffffffffffff1682604051611cba929190613b70565b60405180910390a180600260006101000a81548173ffffffffffffffffffffffffffffffffffffffff021916908373ffffffffffffffffffffffffffffffffffffffff16021790555050565b60007f000000000000000000000000000000000000000000000000000000000000000073ffffffffffffffffffffffffffffffffffffffff16633a46b1a884846040518363ffffffff1660e01b8152600401611d63929190613b99565b60206040518083038186803b158015611d7b57600080fd5b505afa158015611d8f573d6000803e3d6000fd5b505050506040513d601f19601f82011682018060405250810190611db391906133e2565b905092915050565b6000611dc56113ee565b611dcd6113f7565b7f000000000000000000000000000000000000000000000000000000000000000073ffffffffffffffffffffffffffffffffffffffff16638e539e8c856040518263ffffffff1660e01b8152600401611e269190614057565b60206040518083038186803b158015611e3e57600080fd5b505afa158015611e52573d6000803e3d6000fd5b505050506040513d601f19601f82011682018060405250810190611e7691906133e2565b611e8091906144d6565b611e8a91906144a5565b9050919050565b60007fbf26d897000000000000000000000000000000000000000000000000000000007bffffffffffffffffffffffffffffffffffffffffffffffffffffffff1916827bffffffffffffffffffffffffffffffffffffffffffffffffffffffff19161480611f045750611f0382612a2e565b5b9050919050565b600260009054906101000a900473ffffffffffffffffffffffffffffffffffffffff1673ffffffffffffffffffffffffffffffffffffffff1663e38335e5348686866000876040518763ffffffff1660e01b8152600401611f70959493929190613c1c565b6000604051808303818588803b158015611f8957600080fd5b505af1158015611f9d573d6000803e3d6000fd5b50505050505050505050565b60007f0000000000000000000000000000000000000000000000000000000000000000461415611ffb577f00000000000000000000000000000000000000000000000000000000000000009050612069565b6120667f00000000000000000000000000000000000000000000000000000000000000007f00000000000000000000000000000000000000000000000000000000000000007f0000000000000000000000000000000000000000000000000000000000000000612a98565b90505b90565b60008282604051602001612081929190613b1e565b60405160208183030381529060405280519060200120905092915050565b6000807f7fffffffffffffffffffffffffffffff5d576e7357a4501ddfe92f46681b20a08360001c11156120da5760006003915091506121a3565b601b8560ff16141580156120f25750601c8560ff1614155b156121045760006004915091506121a3565b6000600187878787604051600081526020016040526040516121299493929190613dba565b6020604051602081039080840390855afa15801561214b573d6000803e3d6000fd5b505050602060405103519050600073ffffffffffffffffffffffffffffffffffffffff168173ffffffffffffffffffffffffffffffffffffffff16141561219a576000600192509250506121a3565b80600092509250505b94509492505050565b600060048111156121e6577f4e487b7100000000000000000000000000000000000000000000000000000000600052602160045260246000fd5b81600481111561221f577f4e487b7100000000000000000000000000000000000000000000000000000000600052602160045260246000fd5b141561222a576124fa565b60016004811115612264577f4e487b7100000000000000000000000000000000000000000000000000000000600052602160045260246000fd5b81600481111561229d577f4e487b7100000000000000000000000000000000000000000000000000000000600052602160045260246000fd5b14156122de576040517f08c379a00000000000000000000000000000000000000000000000000000000081526004016122d590613e57565b60405180910390fd5b60026004811115612318577f4e487b7100000000000000000000000000000000000000000000000000000000600052602160045260246000fd5b816004811115612351577f4e487b7100000000000000000000000000000000000000000000000000000000600052602160045260246000fd5b1415612392576040517f08c379a000000000000000000000000000000000000000000000000000000000815260040161238990613eb7565b60405180910390fd5b600360048111156123cc577f4e487b7100000000000000000000000000000000000000000000000000000000600052602160045260246000fd5b816004811115612405577f4e487b7100000000000000000000000000000000000000000000000000000000600052602160045260246000fd5b1415612446576040517f08c379a000000000000000000000000000000000000000000000000000000000815260040161243d90613ef7565b60405180910390fd5b60048081111561247f577f4e487b7100000000000000000000000000000000000000000000000000000000600052602160045260246000fd5b8160048111156124b8577f4e487b7100000000000000000000000000000000000000000000000000000000600052602160045260246000fd5b14156124f9576040517f08c379a00000000000000000000000000000000000000000000000000000000081526004016124f090613f77565b60405180910390fd5b5b50565b60006005600086815260200190815260200160002090508060030160008573ffffffffffffffffffffffffffffffffffffffff1673ffffffffffffffffffffffffffffffffffffffff16815260200190815260200160002060009054906101000a900460ff16156125a3576040517f08c379a000000000000000000000000000000000000000000000000000000000815260040161259a90613f17565b60405180910390fd5b60018160030160008673ffffffffffffffffffffffffffffffffffffffff1673ffffffffffffffffffffffffffffffffffffffff16815260200190815260200160002060006101000a81548160ff02191690831515021790555060006002811115612637577f4e487b7100000000000000000000000000000000000000000000000000000000600052602160045260246000fd5b60ff168360ff16141561266457818160000160008282546126589190614411565b9250508190555061276e565b6001600281111561269e577f4e487b7100000000000000000000000000000000000000000000000000000000600052602160045260246000fd5b60ff168360ff1614156126cb57818160010160008282546126bf9190614411565b9250508190555061276d565b600280811115612704577f4e487b7100000000000000000000000000000000000000000000000000000000600052602160045260246000fd5b60ff168360ff16141561273157818160020160008282546127259190614411565b9250508190555061276c565b6040517f08c379a000000000000000000000000000000000000000000000000000000000815260040161276390614017565b60405180910390fd5b5b5b5050505050565b60008060016000848152602001908152602001600020604051806080016040529081600082016040518060200160405290816000820160009054906101000a900467ffffffffffffffff1667ffffffffffffffff1667ffffffffffffffff16815250508152602001600182016040518060200160405290816000820160009054906101000a900467ffffffffffffffff1667ffffffffffffffff1667ffffffffffffffff168152505081526020016002820160009054906101000a900460ff161515151581526020016002820160019054906101000a900460ff161515151581525050905080604001511561286e576007915050612937565b806060015115612882576002915050612937565b61288f8160000151612ad2565b1561289e576000915050612937565b6128ab8160200151612ad2565b156128ba576001915050612937565b6128c78160200151612aec565b156128fc576128d583612b18565b80156128e657506128e583612b5f565b5b6128f15760036128f4565b60045b915050612937565b6040517f08c379a000000000000000000000000000000000000000000000000000000000815260040161292e90613ff7565b60405180910390fd5b919050565b60008061294b86868686612b8a565b90506000801b600360008381526020019081526020016000205414612a2257600260009054906101000a900473ffffffffffffffffffffffffffffffffffffffff1673ffffffffffffffffffffffffffffffffffffffff1663c4d252f560036000848152602001908152602001600020546040518263ffffffff1660e01b81526004016129d89190613d15565b600060405180830381600087803b1580156129f257600080fd5b505af1158015612a06573d6000803e3d6000fd5b5050505060036000828152602001908152602001600020600090555b80915050949350505050565b60007f01ffc9a7000000000000000000000000000000000000000000000000000000007bffffffffffffffffffffffffffffffffffffffffffffffffffffffff1916827bffffffffffffffffffffffffffffffffffffffffffffffffffffffff1916149050919050565b60008383834630604051602001612ab3959493929190613d30565b6040516020818303038152906040528051906020012090509392505050565b600043826000015167ffffffffffffffff16119050919050565b6000612af782612dc7565b8015612b11575043826000015167ffffffffffffffff1611155b9050919050565b60008060056000848152602001908152602001600020905080600201548160010154612b449190614411565b612b55612b5085610e65565b6116ae565b1115915050919050565b6000806005600084815260200190815260200160002090508060000154816001015411915050919050565b600080612b99868686866115d3565b90506000612ba682610f85565b905060026007811115612be2577f4e487b7100000000000000000000000000000000000000000000000000000000600052602160045260246000fd5b816007811115612c1b577f4e487b7100000000000000000000000000000000000000000000000000000000600052602160045260246000fd5b14158015612c9a575060066007811115612c5e577f4e487b7100000000000000000000000000000000000000000000000000000000600052602160045260246000fd5b816007811115612c97577f4e487b7100000000000000000000000000000000000000000000000000000000600052602160045260246000fd5b14155b8015612d165750600780811115612cda577f4e487b7100000000000000000000000000000000000000000000000000000000600052602160045260246000fd5b816007811115612d13577f4e487b7100000000000000000000000000000000000000000000000000000000600052602160045260246000fd5b14155b612d55576040517f08c379a0000000000000000000000000000000000000000000000000000000008152600401612d4c90613fb7565b60405180910390fd5b600180600084815260200190815260200160002060020160016101000a81548160ff0219169083151502179055507f789cf55be980739dad1d0699b93b58e806b51c9d96619bfa8fe0a28abaa7b30c82604051612db29190614057565b60405180910390a18192505050949350505050565b600080826000015167ffffffffffffffff16119050919050565b6000612df4612def846141f3565b6141ce565b90508083825260208201905082856020860282011115612e1357600080fd5b60005b85811015612e435781612e298882612f92565b845260208401935060208301925050600181019050612e16565b5050509392505050565b6000612e60612e5b8461421f565b6141ce565b9050808382526020820190508260005b85811015612ea05781358501612e868882613079565b845260208401935060208301925050600181019050612e70565b5050509392505050565b6000612ebd612eb88461424b565b6141ce565b90508083825260208201905082856020860282011115612edc57600080fd5b60005b85811015612f0c5781612ef2888261312c565b845260208401935060208301925050600181019050612edf565b5050509392505050565b6000612f29612f2484614277565b6141ce565b905082815260208101848484011115612f4157600080fd5b612f4c848285614672565b509392505050565b6000612f67612f62846142a8565b6141ce565b905082815260208101848484011115612f7f57600080fd5b612f8a848285614672565b509392505050565b600081359050612fa181614c99565b92915050565b600082601f830112612fb857600080fd5b8135612fc8848260208601612de1565b91505092915050565b600082601f830112612fe257600080fd5b8135612ff2848260208601612e4d565b91505092915050565b600082601f83011261300c57600080fd5b813561301c848260208601612eaa565b91505092915050565b60008151905061303481614cb0565b92915050565b60008135905061304981614cc7565b92915050565b60008151905061305e81614cc7565b92915050565b60008135905061307381614cde565b92915050565b600082601f83011261308a57600080fd5b813561309a848260208601612f16565b91505092915050565b6000813590506130b281614cf5565b92915050565b60008083601f8401126130ca57600080fd5b8235905067ffffffffffffffff8111156130e357600080fd5b6020830191508360018202830111156130fb57600080fd5b9250929050565b600082601f83011261311357600080fd5b8135613123848260208601612f54565b91505092915050565b60008135905061313b81614d0c565b92915050565b60008151905061315081614d0c565b92915050565b60008135905061316581614d23565b92915050565b6000806040838503121561317e57600080fd5b600061318c85828601612f92565b925050602061319d8582860161312c565b9150509250929050565b600080600080608085870312156131bd57600080fd5b600085013567ffffffffffffffff8111156131d757600080fd5b6131e387828801612fa7565b945050602085013567ffffffffffffffff81111561320057600080fd5b61320c87828801612ffb565b935050604085013567ffffffffffffffff81111561322957600080fd5b61323587828801612fd1565b92505060606132468782880161303a565b91505092959194509250565b6000806000806080858703121561326857600080fd5b600085013567ffffffffffffffff81111561328257600080fd5b61328e87828801612fa7565b945050602085013567ffffffffffffffff8111156132ab57600080fd5b6132b787828801612ffb565b935050604085013567ffffffffffffffff8111156132d457600080fd5b6132e087828801612fd1565b925050606085013567ffffffffffffffff8111156132fd57600080fd5b61330987828801613102565b91505092959194509250565b60006020828403121561332757600080fd5b600061333584828501613025565b91505092915050565b60006020828403121561335057600080fd5b600061335e8482850161304f565b91505092915050565b60006020828403121561337957600080fd5b600061338784828501613064565b91505092915050565b6000602082840312156133a257600080fd5b60006133b0848285016130a3565b91505092915050565b6000602082840312156133cb57600080fd5b60006133d98482850161312c565b91505092915050565b6000602082840312156133f457600080fd5b600061340284828501613141565b91505092915050565b6000806040838503121561341e57600080fd5b600061342c8582860161312c565b925050602061343d85828601612f92565b9150509250929050565b6000806040838503121561345a57600080fd5b60006134688582860161312c565b925050602061347985828601613156565b9150509250929050565b6000806000806060858703121561349957600080fd5b60006134a78782880161312c565b94505060206134b887828801613156565b935050604085013567ffffffffffffffff8111156134d557600080fd5b6134e1878288016130b8565b925092505092959194509250565b600080600080600060a0868803121561350757600080fd5b60006135158882890161312c565b955050602061352688828901613156565b945050604061353788828901613156565b93505060606135488882890161303a565b92505060806135598882890161303a565b9150509295509295909350565b600061357283836135be565b60208301905092915050565b600061358a83836137b7565b905092915050565b600061359e838361381d565b905092915050565b60006135b28383613ae2565b60208301905092915050565b6135c781614530565b82525050565b6135d681614530565b82525050565b60006135e782614319565b6135f1818561438f565b93506135fc836142d9565b8060005b8381101561362d5781516136148882613566565b975061361f8361435b565b925050600181019050613600565b5085935050505092915050565b600061364582614324565b61364f81856143a0565b935083602082028501613661856142e9565b8060005b8581101561369d578484038952815161367e858261357e565b945061368983614368565b925060208a01995050600181019050613665565b50829750879550505050505092915050565b60006136ba8261432f565b6136c481856143b1565b9350836020820285016136d6856142f9565b8060005b8581101561371257848403895281516136f38582613592565b94506136fe83614375565b925060208a019950506001810190506136da565b50829750879550505050505092915050565b600061372f8261433a565b61373981856143c2565b935061374483614309565b8060005b8381101561377557815161375c88826135a6565b975061376783614382565b925050600181019050613748565b5085935050505092915050565b61378b81614554565b82525050565b61379a81614560565b82525050565b6137b16137ac82614560565b614717565b82525050565b60006137c282614345565b6137cc81856143d3565b93506137dc818560208601614681565b6137e58161480c565b840191505092915050565b6137f981614610565b82525050565b61380881614634565b82525050565b61381781614646565b82525050565b600061382882614350565b61383281856143e4565b9350613842818560208601614681565b61384b8161480c565b840191505092915050565b600061386182614350565b61386b81856143f5565b935061387b818560208601614681565b6138848161480c565b840191505092915050565b600061389c6018836143f5565b91506138a78261482a565b602082019050919050565b60006138bf6018836143f5565b91506138ca82614853565b602082019050919050565b60006138e26043836143f5565b91506138ed8261487c565b606082019050919050565b6000613905601f836143f5565b9150613910826148f1565b602082019050919050565b6000613928600283614406565b91506139338261491a565b600282019050919050565b600061394b6021836143f5565b915061395682614943565b604082019050919050565b600061396e6022836143f5565b915061397982614992565b604082019050919050565b60006139916027836143f5565b915061399c826149e1565b604082019050919050565b60006139b46023836143f5565b91506139bf82614a30565b604082019050919050565b60006139d76018836143f5565b91506139e282614a7f565b602082019050919050565b60006139fa6022836143f5565b9150613a0582614aa8565b604082019050919050565b6000613a1d6026836143f5565b9150613a2882614af7565b604082019050919050565b6000613a40601d836143f5565b9150613a4b82614b46565b602082019050919050565b6000613a636021836143f5565b9150613a6e82614b6f565b604082019050919050565b6000613a86601d836143f5565b9150613a9182614bbe565b602082019050919050565b6000613aa96035836143f5565b9150613ab482614be7565b604082019050919050565b6000613acc6021836143f5565b9150613ad782614c36565b604082019050919050565b613aeb816145e5565b82525050565b613afa816145e5565b82525050565b613b0981614660565b82525050565b613b1881614603565b82525050565b6000613b298261391b565b9150613b3582856137a0565b602082019150613b4582846137a0565b6020820191508190509392505050565b6000602082019050613b6a60008301846135cd565b92915050565b6000604082019050613b8560008301856135cd565b613b9260208301846135cd565b9392505050565b6000604082019050613bae60008301856135cd565b613bbb6020830184613af1565b9392505050565b60006080820190508181036000830152613bdc81876135dc565b90508181036020830152613bf08186613724565b90508181036040830152613c04818561363a565b9050613c136060830184613791565b95945050505050565b600060a0820190508181036000830152613c3681886135dc565b90508181036020830152613c4a8187613724565b90508181036040830152613c5e818661363a565b9050613c6d606083018561380e565b613c7a6080830184613791565b9695505050505050565b600060c0820190508181036000830152613c9e81896135dc565b90508181036020830152613cb28188613724565b90508181036040830152613cc6818761363a565b9050613cd5606083018661380e565b613ce26080830185613791565b613cef60a0830184613af1565b979650505050505050565b6000602082019050613d0f6000830184613782565b92915050565b6000602082019050613d2a6000830184613791565b92915050565b600060a082019050613d456000830188613791565b613d526020830187613791565b613d5f6040830186613791565b613d6c6060830185613af1565b613d7960808301846135cd565b9695505050505050565b6000606082019050613d986000830186613791565b613da56020830185613af1565b613db26040830184613b0f565b949350505050565b6000608082019050613dcf6000830187613791565b613ddc6020830186613b0f565b613de96040830185613791565b613df66060830184613791565b95945050505050565b6000602082019050613e1460008301846137f0565b92915050565b6000602082019050613e2f60008301846137ff565b92915050565b60006020820190508181036000830152613e4f8184613856565b905092915050565b60006020820190508181036000830152613e708161388f565b9050919050565b60006020820190508181036000830152613e90816138b2565b9050919050565b60006020820190508181036000830152613eb0816138d5565b9050919050565b60006020820190508181036000830152613ed0816138f8565b9050919050565b60006020820190508181036000830152613ef08161393e565b9050919050565b60006020820190508181036000830152613f1081613961565b9050919050565b60006020820190508181036000830152613f3081613984565b9050919050565b60006020820190508181036000830152613f50816139a7565b9050919050565b60006020820190508181036000830152613f70816139ca565b9050919050565b60006020820190508181036000830152613f90816139ed565b9050919050565b60006020820190508181036000830152613fb081613a10565b9050919050565b60006020820190508181036000830152613fd081613a33565b9050919050565b60006020820190508181036000830152613ff081613a56565b9050919050565b6000602082019050818103600083015261401081613a79565b9050919050565b6000602082019050818103600083015261403081613a9c565b9050919050565b6000602082019050818103600083015261405081613abf565b9050919050565b600060208201905061406c6000830184613af1565b92915050565b600061012082019050614088600083018c613af1565b614095602083018b6135cd565b81810360408301526140a7818a6135dc565b905081810360608301526140bb8189613724565b905081810360808301526140cf81886136af565b905081810360a08301526140e3818761363a565b90506140f260c0830186613b00565b6140ff60e0830185613b00565b8181036101008301526141128184613856565b90509a9950505050505050505050565b60006040820190506141376000830185613af1565b6141446020830184613af1565b9392505050565b60006060820190506141606000830186613af1565b61416d6020830185613af1565b61417a6040830184613af1565b949350505050565b60006080820190506141976000830187613af1565b6141a46020830186613b0f565b6141b16040830185613af1565b81810360608301526141c38184613856565b905095945050505050565b60006141d86141e9565b90506141e482826146e6565b919050565b6000604051905090565b600067ffffffffffffffff82111561420e5761420d6147dd565b5b602082029050602081019050919050565b600067ffffffffffffffff82111561423a576142396147dd565b5b602082029050602081019050919050565b600067ffffffffffffffff821115614266576142656147dd565b5b602082029050602081019050919050565b600067ffffffffffffffff821115614292576142916147dd565b5b61429b8261480c565b9050602081019050919050565b600067ffffffffffffffff8211156142c3576142c26147dd565b5b6142cc8261480c565b9050602081019050919050565b6000819050602082019050919050565b6000819050602082019050919050565b6000819050602082019050919050565b6000819050602082019050919050565b600081519050919050565b600081519050919050565b600081519050919050565b600081519050919050565b600081519050919050565b600081519050919050565b6000602082019050919050565b6000602082019050919050565b6000602082019050919050565b6000602082019050919050565b600082825260208201905092915050565b600082825260208201905092915050565b600082825260208201905092915050565b600082825260208201905092915050565b600082825260208201905092915050565b600082825260208201905092915050565b600082825260208201905092915050565b600081905092915050565b600061441c826145e5565b9150614427836145e5565b9250827fffffffffffffffffffffffffffffffffffffffffffffffffffffffffffffffff0382111561445c5761445b614721565b5b828201905092915050565b6000614472826145ef565b915061447d836145ef565b92508267ffffffffffffffff0382111561449a57614499614721565b5b828201905092915050565b60006144b0826145e5565b91506144bb836145e5565b9250826144cb576144ca614750565b5b828204905092915050565b60006144e1826145e5565b91506144ec836145e5565b9250817fffffffffffffffffffffffffffffffffffffffffffffffffffffffffffffffff048311821515161561452557614524614721565b5b828202905092915050565b600061453b826145c5565b9050919050565b600061454d826145c5565b9050919050565b60008115159050919050565b6000819050919050565b60007fffffffff0000000000000000000000000000000000000000000000000000000082169050919050565b60006145a182614542565b9050919050565b60008190506145b682614c85565b919050565b6000819050919050565b600073ffffffffffffffffffffffffffffffffffffffff82169050919050565b6000819050919050565b600067ffffffffffffffff82169050919050565b600060ff82169050919050565b600061461b82614622565b9050919050565b600061462d826145c5565b9050919050565b600061463f826145a8565b9050919050565b6000614659614654836145bb565b61481d565b9050919050565b600061466b826145ef565b9050919050565b82818337600083830152505050565b60005b8381101561469f578082015181840152602081019050614684565b838111156146ae576000848401525b50505050565b600060028204905060018216806146cc57607f821691505b602082108114156146e0576146df6147ae565b5b50919050565b6146ef8261480c565b810181811067ffffffffffffffff8211171561470e5761470d6147dd565b5b80604052505050565b6000819050919050565b7f4e487b7100000000000000000000000000000000000000000000000000000000600052601160045260246000fd5b7f4e487b7100000000000000000000000000000000000000000000000000000000600052601260045260246000fd5b7f4e487b7100000000000000000000000000000000000000000000000000000000600052602160045260246000fd5b7f4e487b7100000000000000000000000000000000000000000000000000000000600052602260045260246000fd5b7f4e487b7100000000000000000000000000000000000000000000000000000000600052604160045260246000fd5b6000601f19601f8301169050919050565b60008160001b9050919050565b7f45434453413a20696e76616c6964207369676e61747572650000000000000000600082015250565b7f476f7665726e6f723a206f6e6c79476f7665726e616e63650000000000000000600082015250565b7f476f7665726e6f72566f74657351756f72756d4672616374696f6e3a2071756f60008201527f72756d4e756d657261746f72206f7665722071756f72756d44656e6f6d696e6160208201527f746f720000000000000000000000000000000000000000000000000000000000604082015250565b7f45434453413a20696e76616c6964207369676e6174757265206c656e67746800600082015250565b7f1901000000000000000000000000000000000000000000000000000000000000600082015250565b7f476f7665726e6f723a20696e76616c69642070726f706f73616c206c656e677460008201527f6800000000000000000000000000000000000000000000000000000000000000602082015250565b7f45434453413a20696e76616c6964207369676e6174757265202773272076616c60008201527f7565000000000000000000000000000000000000000000000000000000000000602082015250565b7f476f7665726e6f72566f74696e6753696d706c653a20766f746520616c72656160008201527f6479206361737400000000000000000000000000000000000000000000000000602082015250565b7f476f7665726e6f723a20766f7465206e6f742063757272656e746c792061637460008201527f6976650000000000000000000000000000000000000000000000000000000000602082015250565b7f476f7665726e6f723a20656d7074792070726f706f73616c0000000000000000600082015250565b7f45434453413a20696e76616c6964207369676e6174757265202776272076616c60008201527f7565000000000000000000000000000000000000000000000000000000000000602082015250565b7f53616665436173743a2076616c756520646f65736e27742066697420696e203660008201527f3420626974730000000000000000000000000000000000000000000000000000602082015250565b7f476f7665726e6f723a2070726f706f73616c206e6f7420616374697665000000600082015250565b7f476f7665726e6f723a2070726f706f73616c206e6f742073756363657373667560008201527f6c00000000000000000000000000000000000000000000000000000000000000602082015250565b7f476f7665726e6f723a20756e6b6e6f776e2070726f706f73616c206964000000600082015250565b7f476f7665726e6f72566f74696e6753696d706c653a20696e76616c696420766160008201527f6c756520666f7220656e756d20566f7465547970650000000000000000000000602082015250565b7f476f7665726e6f723a2070726f706f73616c20616c726561647920657869737460008201527f7300000000000000000000000000000000000000000000000000000000000000602082015250565b60088110614c9657614c9561477f565b5b50565b614ca281614530565b8114614cad57600080fd5b50565b614cb981614554565b8114614cc457600080fd5b50565b614cd081614560565b8114614cdb57600080fd5b50565b614ce78161456a565b8114614cf257600080fd5b50565b614cfe81614596565b8114614d0957600080fd5b50565b614d15816145e5565b8114614d2057600080fd5b50565b614d2c81614603565b8114614d3757600080fd5b5056fea2646970667358221220a19a2f0743aae18033e835f72f41228fcf27af2f4346f7b081bed555f1a96a3164736f6c63430008020033",
  "immutableReferences": {
    "6702": [
      {
        "length": 32,
        "start": 5826
      },
      {
        "length": 32,
        "start": 7434
      },
      {
        "length": 32,
        "start": 7631
      }
    ],
    "12217": [
      {
        "length": 32,
        "start": 3799
      }
    ],
    "12219": [
      {
        "length": 32,
        "start": 2104
      }
    ],
    "25949": [
      {
        "length": 32,
        "start": 8149
      }
    ],
    "25951": [
      {
        "length": 32,
        "start": 8109
      }
    ],
    "25953": [
      {
        "length": 32,
        "start": 8225
      }
    ],
    "25955": [
      {
        "length": 32,
        "start": 8258
      }
    ],
    "25957": [
      {
        "length": 32,
        "start": 8192
      }
    ]
  },
  "source": "// SPDX-License-Identifier: MIT\n\npragma solidity ^0.8.0;\n\nimport \"../governance/extensions/GovernorTimelockControl.sol\";\nimport \"../governance/extensions/GovernorCountingSimple.sol\";\nimport \"../governance/extensions/GovernorVotesQuorumFraction.sol\";\n\ncontract GovernorTimelockControlMock is GovernorTimelockControl, GovernorVotesQuorumFraction, GovernorCountingSimple {\n    uint256 immutable _votingDelay;\n    uint256 immutable _votingPeriod;\n\n    constructor(\n        string memory name_,\n        ERC20Votes token_,\n        uint256 votingDelay_,\n        uint256 votingPeriod_,\n        TimelockController timelock_,\n        uint256 quorumNumerator_\n    )\n        Governor(name_)\n        GovernorTimelockControl(timelock_)\n        GovernorVotes(token_)\n        GovernorVotesQuorumFraction(quorumNumerator_)\n    {\n        _votingDelay = votingDelay_;\n        _votingPeriod = votingPeriod_;\n    }\n\n    function supportsInterface(bytes4 interfaceId)\n        public\n        view\n        virtual\n        override(Governor, GovernorTimelockControl)\n        returns (bool)\n    {\n        return super.supportsInterface(interfaceId);\n    }\n\n    function votingDelay() public view override returns (uint256) {\n        return _votingDelay;\n    }\n\n    function votingPeriod() public view override returns (uint256) {\n        return _votingPeriod;\n    }\n\n    function quorum(uint256 blockNumber)\n        public\n        view\n        override(IGovernor, GovernorVotesQuorumFraction)\n        returns (uint256)\n    {\n        return super.quorum(blockNumber);\n    }\n\n    function cancel(\n        address[] memory targets,\n        uint256[] memory values,\n        bytes[] memory calldatas,\n        bytes32 descriptionHash\n    ) public returns (uint256 proposalId) {\n        return _cancel(targets, values, calldatas, descriptionHash);\n    }\n\n    /**\n     * Overriding nightmare\n     */\n    function state(uint256 proposalId)\n        public\n        view\n        virtual\n        override(Governor, GovernorTimelockControl)\n        returns (ProposalState)\n    {\n        return super.state(proposalId);\n    }\n\n    function _execute(\n        uint256 proposalId,\n        address[] memory targets,\n        uint256[] memory values,\n        bytes[] memory calldatas,\n        bytes32 descriptionHash\n    ) internal virtual override(Governor, GovernorTimelockControl) {\n        super._execute(proposalId, targets, values, calldatas, descriptionHash);\n    }\n\n    function _cancel(\n        address[] memory targets,\n        uint256[] memory values,\n        bytes[] memory calldatas,\n        bytes32 descriptionHash\n    ) internal virtual override(Governor, GovernorTimelockControl) returns (uint256 proposalId) {\n        return super._cancel(targets, values, calldatas, descriptionHash);\n    }\n\n    function getVotes(address account, uint256 blockNumber)\n        public\n        view\n        virtual\n        override(IGovernor, GovernorVotes)\n        returns (uint256)\n    {\n        return super.getVotes(account, blockNumber);\n    }\n\n    function _executor() internal view virtual override(Governor, GovernorTimelockControl) returns (address) {\n        return super._executor();\n    }\n}\n",
  "sourcePath": "D:\\marketplace\\frontend (2)\\contracts\\openzeppelin-solidity\\contracts\\mocks\\GovernorTimelockControlMock.sol",
  "compiler": {
    "name": "solc",
    "version": "0.8.2+commit.661d1103.Emscripten.clang"
  },
  "schemaVersion": "3.4.4",
  "updatedAt": "2022-02-01T11:28:55.037Z",
  "devdoc": {
    "kind": "dev",
    "methods": {
      "COUNTING_MODE()": {
        "details": "See {IGovernor-COUNTING_MODE}."
      },
      "castVote(uint256,uint8)": {
        "details": "See {IGovernor-castVote}."
      },
      "castVoteBySig(uint256,uint8,uint8,bytes32,bytes32)": {
        "details": "See {IGovernor-castVoteBySig}."
      },
      "castVoteWithReason(uint256,uint8,string)": {
        "details": "See {IGovernor-castVoteWithReason}."
      },
      "execute(address[],uint256[],bytes[],bytes32)": {
        "details": "See {IGovernor-execute}."
      },
      "hasVoted(uint256,address)": {
        "details": "See {IGovernor-hasVoted}."
      },
      "hashProposal(address[],uint256[],bytes[],bytes32)": {
        "details": "See {IGovernor-hashProposal}. The proposal id is produced by hashing the RLC encoded `targets` array, the `values` array, the `calldatas` array and the descriptionHash (bytes32 which itself is the keccak256 hash of the description string). This proposal id can be produced from the proposal data which is part of the {ProposalCreated} event. It can even be computed in advance, before the proposal is submitted. Note that the chainId and the governor address are not part of the proposal id computation. Consequently, the same proposal (with same operation and same description) will have the same id if submitted on multiple governors accross multiple networks. This also means that in order to execute the same operation twice (on the same governor) the proposer will have to change the description in order to avoid proposal id conflicts."
      },
      "name()": {
        "details": "See {IGovernor-name}."
      },
      "proposalDeadline(uint256)": {
        "details": "See {IGovernor-proposalDeadline}."
      },
      "proposalEta(uint256)": {
        "details": "Public accessor to check the eta of a queued proposal"
      },
      "proposalSnapshot(uint256)": {
        "details": "See {IGovernor-proposalSnapshot}."
      },
      "proposalVotes(uint256)": {
        "details": "Accessor to the internal vote counts."
      },
      "propose(address[],uint256[],bytes[],string)": {
        "details": "See {IGovernor-propose}."
      },
      "queue(address[],uint256[],bytes[],bytes32)": {
        "details": "Function to queue a proposal to the timelock."
      },
      "timelock()": {
        "details": "Public accessor to check the address of the timelock"
      },
      "updateTimelock(address)": {
        "details": "Public endpoint to update the underlying timelock instance. Restricted to the timelock itself, so updates must be proposed, scheduled and executed using the {Governor} workflow."
      },
      "version()": {
        "details": "See {IGovernor-version}."
      },
      "votingDelay()": {
        "details": "delay, in number of block, between the proposal is created and the vote starts. This can be increassed to leave time for users to buy voting power, of delegate it, before the voting of a proposal starts."
      },
      "votingPeriod()": {
        "details": "delay, in number of blocks, between the vote start and vote ends. Note: the {votingDelay} can delay the start of the vote. This must be considered when setting the voting duration compared to the voting delay."
      }
    },
    "version": 1
  },
  "userdoc": {
    "kind": "user",
    "methods": {
      "state(uint256)": {
        "notice": "Overriding nightmare"
      },
      "votingDelay()": {
        "notice": "module:user-config"
      },
      "votingPeriod()": {
        "notice": "module:user-config"
      }
    },
    "version": 1
  }
}