{
  "contractName": "MigratableMockV1",
  "abi": [
    {
      "inputs": [],
      "name": "x",
      "outputs": [
        {
          "internalType": "uint256",
          "name": "",
          "type": "uint256"
        }
      ],
      "stateMutability": "view",
      "type": "function"
    },
    {
      "inputs": [
        {
          "internalType": "uint256",
          "name": "value",
          "type": "uint256"
        }
      ],
      "name": "initialize",
      "outputs": [],
      "stateMutability": "payable",
      "type": "function"
    }
  ],
  "bytecode": "0x608060405234801561001057600080fd5b506102be806100206000396000f3fe6080604052600436106100295760003560e01c80630c55699c1461002e578063fe4b84df14610059575b600080fd5b34801561003a57600080fd5b50610043610075565b60405161005091906101ec565b60405180910390f35b610073600480360381019061006e9190610171565b61007b565b005b60015481565b600060019054906101000a900460ff16806100a1575060008054906101000a900460ff16155b6100e0576040517f08c379a00000000000000000000000000000000000000000000000000000000081526004016100d7906101cc565b60405180910390fd5b60008060019054906101000a900460ff161590508015610130576001600060016101000a81548160ff02191690831515021790555060016000806101000a81548160ff0219169083151502179055505b8160018190555080156101585760008060016101000a81548160ff0219169083151502179055505b5050565b60008135905061016b81610271565b92915050565b60006020828403121561018357600080fd5b60006101918482850161015c565b91505092915050565b60006101a7602e83610207565b91506101b282610222565b604082019050919050565b6101c681610218565b82525050565b600060208201905081810360008301526101e58161019a565b9050919050565b600060208201905061020160008301846101bd565b92915050565b600082825260208201905092915050565b6000819050919050565b7f496e697469616c697a61626c653a20636f6e747261637420697320616c72656160008201527f647920696e697469616c697a6564000000000000000000000000000000000000602082015250565b61027a81610218565b811461028557600080fd5b5056fea26469706673582212201b840b6ed8c832e6a4a1c7aa3303d5e1be98f26eaaf801a7deff811c74cc27ea64736f6c63430008020033",
  "immutableReferences": {},
  "source": "// SPDX-License-Identifier: MIT\n\npragma solidity ^0.8.0;\n\nimport \"../proxy/utils/Initializable.sol\";\n\n/**\n * @title MigratableMockV1\n * @dev This contract is a mock to test initializable functionality through migrations\n */\ncontract MigratableMockV1 is Initializable {\n    uint256 public x;\n\n    function initialize(uint256 value) public payable initializer {\n        x = value;\n    }\n}\n\n/**\n * @title MigratableMockV2\n * @dev This contract is a mock to test migratable functionality with params\n */\ncontract MigratableMockV2 is MigratableMockV1 {\n    bool internal _migratedV2;\n    uint256 public y;\n\n    function migrate(uint256 value, uint256 anotherValue) public payable {\n        require(!_migratedV2);\n        x = value;\n        y = anotherValue;\n        _migratedV2 = true;\n    }\n}\n\n/**\n * @title MigratableMockV3\n * @dev This contract is a mock to test migratable functionality without params\n */\ncontract MigratableMockV3 is MigratableMockV2 {\n    bool internal _migratedV3;\n\n    function migrate() public payable {\n        require(!_migratedV3);\n        uint256 oldX = x;\n        x = y;\n        y = oldX;\n        _migratedV3 = true;\n    }\n}\n",
  "sourcePath": "D:\\marketplace\\frontend (2)\\contracts\\openzeppelin-solidity\\contracts\\mocks\\SingleInheritanceInitializableMocks.sol",
  "compiler": {
    "name": "solc",
    "version": "0.8.2+commit.661d1103.Emscripten.clang"
  },
  "schemaVersion": "3.4.4",
  "updatedAt": "2022-02-01T11:28:55.427Z",
  "devdoc": {
    "details": "This contract is a mock to test initializable functionality through migrations",
    "kind": "dev",
    "methods": {},
    "title": "MigratableMockV1",
    "version": 1
  },
  "userdoc": {
    "kind": "user",
    "methods": {},
    "version": 1
  }
}