{
  "contractName": "PhotoNFTData",
  "abi": [
    {
      "inputs": [],
      "stateMutability": "nonpayable",
      "type": "constructor"
    },
    {
      "inputs": [
        {
          "internalType": "uint256",
          "name": "",
          "type": "uint256"
        }
      ],
      "name": "photoAddresses",
      "outputs": [
        {
          "internalType": "address",
          "name": "",
          "type": "address"
        }
      ],
      "stateMutability": "view",
      "type": "function"
    },
    {
      "inputs": [
        {
          "internalType": "uint256",
          "name": "",
          "type": "uint256"
        }
      ],
      "name": "photos",
      "outputs": [
        {
          "internalType": "contract PhotoNFT",
          "name": "photoNFT",
          "type": "address"
        },
        {
          "internalType": "string",
          "name": "photoNFTName",
          "type": "string"
        },
        {
          "internalType": "address",
          "name": "ownerAddress",
          "type": "address"
        },
        {
          "internalType": "uint256",
          "name": "photoPrice",
          "type": "uint256"
        },
        {
          "internalType": "string",
          "name": "ipfsHashOfPhoto",
          "type": "string"
        },
        {
          "internalType": "string",
          "name": "status",
          "type": "string"
        },
        {
          "internalType": "uint256",
          "name": "reputation",
          "type": "uint256"
        },
        {
          "internalType": "bool",
          "name": "premiumStatus",
          "type": "bool"
        },
        {
          "internalType": "string",
          "name": "photoNFTDesc",
          "type": "string"
        },
        {
          "internalType": "string",
          "name": "photoCollect",
          "type": "string"
        },
        {
          "internalType": "uint256",
          "name": "premiumTimestamp",
          "type": "uint256"
        },
        {
          "internalType": "uint256",
          "name": "createdAt",
          "type": "uint256"
        }
      ],
      "stateMutability": "view",
      "type": "function"
    },
    {
      "inputs": [],
      "name": "premiumLimit",
      "outputs": [
        {
          "internalType": "uint256",
          "name": "",
          "type": "uint256"
        }
      ],
      "stateMutability": "view",
      "type": "function"
    },
    {
      "inputs": [
        {
          "internalType": "address[]",
          "name": "_photoAddresses",
          "type": "address[]"
        },
        {
          "internalType": "contract PhotoNFT",
          "name": "_photoNFT",
          "type": "address"
        },
        {
          "internalType": "string",
          "name": "_photoNFTName",
          "type": "string"
        },
        {
          "internalType": "address",
          "name": "_ownerAddress",
          "type": "address"
        },
        {
          "internalType": "uint256",
          "name": "_photoPrice",
          "type": "uint256"
        },
        {
          "internalType": "string",
          "name": "_ipfsHashOfPhoto",
          "type": "string"
        },
        {
          "internalType": "string",
          "name": "desc",
          "type": "string"
        },
        {
          "internalType": "string",
          "name": "_collect",
          "type": "string"
        }
      ],
      "name": "saveMetadataOfPhotoNFT",
      "outputs": [
        {
          "internalType": "bool",
          "name": "",
          "type": "bool"
        }
      ],
      "stateMutability": "nonpayable",
      "type": "function"
    },
    {
      "inputs": [
        {
          "internalType": "contract PhotoNFT",
          "name": "_photoNFT",
          "type": "address"
        },
        {
          "internalType": "address",
          "name": "_newOwner",
          "type": "address"
        }
      ],
      "name": "updateOwnerOfPhotoNFT",
      "outputs": [
        {
          "internalType": "bool",
          "name": "",
          "type": "bool"
        }
      ],
      "stateMutability": "nonpayable",
      "type": "function"
    },
    {
      "inputs": [
        {
          "internalType": "contract PhotoNFT",
          "name": "_photoNFT",
          "type": "address"
        },
        {
          "internalType": "string",
          "name": "_newStatus",
          "type": "string"
        },
        {
          "internalType": "uint256",
          "name": "price",
          "type": "uint256"
        }
      ],
      "name": "updateStatus",
      "outputs": [
        {
          "internalType": "bool",
          "name": "",
          "type": "bool"
        }
      ],
      "stateMutability": "nonpayable",
      "type": "function"
    },
    {
      "inputs": [
        {
          "internalType": "contract PhotoNFT",
          "name": "_photoNFT",
          "type": "address"
        },
        {
          "internalType": "bool",
          "name": "_newStatus",
          "type": "bool"
        }
      ],
      "name": "updatePremiumStatus",
      "outputs": [
        {
          "internalType": "bool",
          "name": "",
          "type": "bool"
        }
      ],
      "stateMutability": "nonpayable",
      "type": "function"
    },
    {
      "inputs": [
        {
          "internalType": "uint256",
          "name": "index",
          "type": "uint256"
        }
      ],
      "name": "getPhoto",
      "outputs": [
        {
          "components": [
            {
              "internalType": "contract PhotoNFT",
              "name": "photoNFT",
              "type": "address"
            },
            {
              "internalType": "string",
              "name": "photoNFTName",
              "type": "string"
            },
            {
              "internalType": "address",
              "name": "ownerAddress",
              "type": "address"
            },
            {
              "internalType": "uint256",
              "name": "photoPrice",
              "type": "uint256"
            },
            {
              "internalType": "string",
              "name": "ipfsHashOfPhoto",
              "type": "string"
            },
            {
              "internalType": "string",
              "name": "status",
              "type": "string"
            },
            {
              "internalType": "uint256",
              "name": "reputation",
              "type": "uint256"
            },
            {
              "internalType": "bool",
              "name": "premiumStatus",
              "type": "bool"
            },
            {
              "internalType": "string",
              "name": "photoNFTDesc",
              "type": "string"
            },
            {
              "internalType": "string",
              "name": "photoCollect",
              "type": "string"
            },
            {
              "internalType": "uint256",
              "name": "premiumTimestamp",
              "type": "uint256"
            },
            {
              "internalType": "uint256",
              "name": "createdAt",
              "type": "uint256"
            }
          ],
          "internalType": "struct PhotoNFTDataObjects.Photo",
          "name": "_photo",
          "type": "tuple"
        }
      ],
      "stateMutability": "view",
      "type": "function"
    },
    {
      "inputs": [
        {
          "internalType": "contract PhotoNFT",
          "name": "photoNFT",
          "type": "address"
        }
      ],
      "name": "getPhotoIndex",
      "outputs": [
        {
          "internalType": "uint256",
          "name": "_photoIndex",
          "type": "uint256"
        }
      ],
      "stateMutability": "view",
      "type": "function"
    },
    {
      "inputs": [
        {
          "internalType": "contract PhotoNFT",
          "name": "photoNFT",
          "type": "address"
        }
      ],
      "name": "getPhotoByNFTAddress",
      "outputs": [
        {
          "components": [
            {
              "internalType": "contract PhotoNFT",
              "name": "photoNFT",
              "type": "address"
            },
            {
              "internalType": "string",
              "name": "photoNFTName",
              "type": "string"
            },
            {
              "internalType": "address",
              "name": "ownerAddress",
              "type": "address"
            },
            {
              "internalType": "uint256",
              "name": "photoPrice",
              "type": "uint256"
            },
            {
              "internalType": "string",
              "name": "ipfsHashOfPhoto",
              "type": "string"
            },
            {
              "internalType": "string",
              "name": "status",
              "type": "string"
            },
            {
              "internalType": "uint256",
              "name": "reputation",
              "type": "uint256"
            },
            {
              "internalType": "bool",
              "name": "premiumStatus",
              "type": "bool"
            },
            {
              "internalType": "string",
              "name": "photoNFTDesc",
              "type": "string"
            },
            {
              "internalType": "string",
              "name": "photoCollect",
              "type": "string"
            },
            {
              "internalType": "uint256",
              "name": "premiumTimestamp",
              "type": "uint256"
            },
            {
              "internalType": "uint256",
              "name": "createdAt",
              "type": "uint256"
            }
          ],
          "internalType": "struct PhotoNFTDataObjects.Photo",
          "name": "_photo",
          "type": "tuple"
        }
      ],
      "stateMutability": "view",
      "type": "function"
    },
    {
      "inputs": [],
      "name": "getAllPhotos",
      "outputs": [
        {
          "components": [
            {
              "internalType": "contract PhotoNFT",
              "name": "photoNFT",
              "type": "address"
            },
            {
              "internalType": "string",
              "name": "photoNFTName",
              "type": "string"
            },
            {
              "internalType": "address",
              "name": "ownerAddress",
              "type": "address"
            },
            {
              "internalType": "uint256",
              "name": "photoPrice",
              "type": "uint256"
            },
            {
              "internalType": "string",
              "name": "ipfsHashOfPhoto",
              "type": "string"
            },
            {
              "internalType": "string",
              "name": "status",
              "type": "string"
            },
            {
              "internalType": "uint256",
              "name": "reputation",
              "type": "uint256"
            },
            {
              "internalType": "bool",
              "name": "premiumStatus",
              "type": "bool"
            },
            {
              "internalType": "string",
              "name": "photoNFTDesc",
              "type": "string"
            },
            {
              "internalType": "string",
              "name": "photoCollect",
              "type": "string"
            },
            {
              "internalType": "uint256",
              "name": "premiumTimestamp",
              "type": "uint256"
            },
            {
              "internalType": "uint256",
              "name": "createdAt",
              "type": "uint256"
            }
          ],
          "internalType": "struct PhotoNFTDataObjects.Photo[]",
          "name": "_photos",
          "type": "tuple[]"
        }
      ],
      "stateMutability": "view",
      "type": "function"
    }
  ],
  "bytecode": "0x608060405262278d0060025534801561001757600080fd5b506129db806100276000396000f3fe608060405234801561001057600080fd5b50600436106100a95760003560e01c8063af2a5d6f11610071578063af2a5d6f1461018c578063b6be128a146101c7578063bd8afa9f146101f7578063c359f94614610227578063c4d55c6814610245578063dc0985c314610275576100a9565b80631f4342be146100ae57806348c31171146100de57806376c312cd146100fc5780637cb1479b1461012c5780637fd6c4051461015c575b600080fd5b6100c860048036038101906100c39190611f19565b6102a5565b6040516100d59190612597565b60405180910390f35b6100e661037a565b6040516100f3919061243b565b60405180910390f35b61011660048036038101906101119190611def565b61090d565b604051610123919061245d565b60405180910390f35b61014660048036038101906101419190611f42565b610b87565b604051610153919061245d565b60405180910390f35b61017660048036038101906101719190611f19565b610c9b565b6040516101839190612575565b60405180910390f35b6101a660048036038101906101a19190612021565b611198565b6040516101be9c9b9a99989796959493929190612478565b60405180910390f35b6101e160048036038101906101dc9190612021565b6114fd565b6040516101ee9190612575565b60405180910390f35b610211600480360381019061020c9190611fba565b611973565b60405161021e919061245d565b60405180910390f35b61022f611a00565b60405161023c9190612597565b60405180910390f35b61025f600480360381019061025a9190611f7e565b611a06565b60405161026c919061245d565b60405180910390f35b61028f600480360381019061028a9190612021565b611aa2565b60405161029c9190612420565b60405180910390f35b600080829050600080600090505b60018054905081101561036f578273ffffffffffffffffffffffffffffffffffffffff1660018281548110610311577f4e487b7100000000000000000000000000000000000000000000000000000000600052603260045260246000fd5b9060005260206000200160009054906101000a900473ffffffffffffffffffffffffffffffffffffffff1673ffffffffffffffffffffffffffffffffffffffff16141561035c578091505b808061036790612813565b9150506102b3565b508092505050919050565b6060806000805480602002602001604051908101604052809291908181526020016000905b8282101561079b57838290600052602060002090600c0201604051806101800160405290816000820160009054906101000a900473ffffffffffffffffffffffffffffffffffffffff1673ffffffffffffffffffffffffffffffffffffffff1673ffffffffffffffffffffffffffffffffffffffff168152602001600182018054610429906127b0565b80601f0160208091040260200160405190810160405280929190818152602001828054610455906127b0565b80156104a25780601f10610477576101008083540402835291602001916104a2565b820191906000526020600020905b81548152906001019060200180831161048557829003601f168201915b505050505081526020016002820160009054906101000a900473ffffffffffffffffffffffffffffffffffffffff1673ffffffffffffffffffffffffffffffffffffffff1673ffffffffffffffffffffffffffffffffffffffff1681526020016003820154815260200160048201805461051b906127b0565b80601f0160208091040260200160405190810160405280929190818152602001828054610547906127b0565b80156105945780601f1061056957610100808354040283529160200191610594565b820191906000526020600020905b81548152906001019060200180831161057757829003601f168201915b505050505081526020016005820180546105ad906127b0565b80601f01602080910402602001604051908101604052809291908181526020018280546105d9906127b0565b80156106265780601f106105fb57610100808354040283529160200191610626565b820191906000526020600020905b81548152906001019060200180831161060957829003601f168201915b50505050508152602001600682015481526020016007820160009054906101000a900460ff16151515158152602001600882018054610664906127b0565b80601f0160208091040260200160405190810160405280929190818152602001828054610690906127b0565b80156106dd5780601f106106b2576101008083540402835291602001916106dd565b820191906000526020600020905b8154815290600101906020018083116106c057829003601f168201915b505050505081526020016009820180546106f6906127b0565b80601f0160208091040260200160405190810160405280929190818152602001828054610722906127b0565b801561076f5780601f106107445761010080835404028352916020019161076f565b820191906000526020600020905b81548152906001019060200180831161075257829003601f168201915b50505050508152602001600a8201548152602001600b820154815250508152602001906001019061039f565b50505050905060005b8151811015610905578181815181106107e6577f4e487b7100000000000000000000000000000000000000000000000000000000600052603260045260246000fd5b602002602001015160e00151801561084f575042600254838381518110610836577f4e487b7100000000000000000000000000000000000000000000000000000000600052603260045260246000fd5b6020026020010151610140015161084d919061269a565b105b156108f257600082828151811061088f577f4e487b7100000000000000000000000000000000000000000000000000000000600052603260045260246000fd5b602002602001015160e001901515908115158152505060008282815181106108e0577f4e487b7100000000000000000000000000000000000000000000000000000000600052603260045260246000fd5b60200260200101516101400181815250505b80806108fd90612813565b9150506107a4565b508091505090565b6000806040518061018001604052808a73ffffffffffffffffffffffffffffffffffffffff1681526020018981526020018873ffffffffffffffffffffffffffffffffffffffff1681526020018781526020018681526020016040518060400160405280600981526020017f43616e63656c6c656400000000000000000000000000000000000000000000008152508152602001600081526020016000151581526020018581526020018481526020016000815260200142815250905060008190806001815401808255809150506001900390600052602060002090600c020160009091909190915060008201518160000160006101000a81548173ffffffffffffffffffffffffffffffffffffffff021916908373ffffffffffffffffffffffffffffffffffffffff1602179055506020820151816001019080519060200190610a59929190611ae1565b5060408201518160020160006101000a81548173ffffffffffffffffffffffffffffffffffffffff021916908373ffffffffffffffffffffffffffffffffffffffff160217905550606082015181600301556080820151816004019080519060200190610ac7929190611ae1565b5060a0820151816005019080519060200190610ae4929190611ae1565b5060c0820151816006015560e08201518160070160006101000a81548160ff021916908315150217905550610100820151816008019080519060200190610b2c929190611ae1565b50610120820151816009019080519060200190610b4a929190611ae1565b5061014082015181600a015561016082015181600b015550508960019080519060200190610b79929190611b67565b505098975050505050505050565b600080610b93846102a5565b90506000808281548110610bd0577f4e487b7100000000000000000000000000000000000000000000000000000000600052603260045260246000fd5b90600052602060002090600c02019050600073ffffffffffffffffffffffffffffffffffffffff168473ffffffffffffffffffffffffffffffffffffffff161415610c50576040517f08c379a0000000000000000000000000000000000000000000000000000000008152600401610c4790612555565b60405180910390fd5b838160020160006101000a81548173ffffffffffffffffffffffffffffffffffffffff021916908373ffffffffffffffffffffffffffffffffffffffff160217905550505092915050565b610ca3611bf1565b6000829050600080600090505b600180549050811015610d6c578273ffffffffffffffffffffffffffffffffffffffff1660018281548110610d0e577f4e487b7100000000000000000000000000000000000000000000000000000000600052603260045260246000fd5b9060005260206000200160009054906101000a900473ffffffffffffffffffffffffffffffffffffffff1673ffffffffffffffffffffffffffffffffffffffff161415610d59578091505b8080610d6490612813565b915050610cb0565b506000808281548110610da8577f4e487b7100000000000000000000000000000000000000000000000000000000600052603260045260246000fd5b90600052602060002090600c0201604051806101800160405290816000820160009054906101000a900473ffffffffffffffffffffffffffffffffffffffff1673ffffffffffffffffffffffffffffffffffffffff1673ffffffffffffffffffffffffffffffffffffffff168152602001600182018054610e28906127b0565b80601f0160208091040260200160405190810160405280929190818152602001828054610e54906127b0565b8015610ea15780601f10610e7657610100808354040283529160200191610ea1565b820191906000526020600020905b815481529060010190602001808311610e8457829003601f168201915b505050505081526020016002820160009054906101000a900473ffffffffffffffffffffffffffffffffffffffff1673ffffffffffffffffffffffffffffffffffffffff1673ffffffffffffffffffffffffffffffffffffffff16815260200160038201548152602001600482018054610f1a906127b0565b80601f0160208091040260200160405190810160405280929190818152602001828054610f46906127b0565b8015610f935780601f10610f6857610100808354040283529160200191610f93565b820191906000526020600020905b815481529060010190602001808311610f7657829003601f168201915b50505050508152602001600582018054610fac906127b0565b80601f0160208091040260200160405190810160405280929190818152602001828054610fd8906127b0565b80156110255780601f10610ffa57610100808354040283529160200191611025565b820191906000526020600020905b81548152906001019060200180831161100857829003601f168201915b50505050508152602001600682015481526020016007820160009054906101000a900460ff16151515158152602001600882018054611063906127b0565b80601f016020809104026020016040519081016040528092919081815260200182805461108f906127b0565b80156110dc5780601f106110b1576101008083540402835291602001916110dc565b820191906000526020600020905b8154815290600101906020018083116110bf57829003601f168201915b505050505081526020016009820180546110f5906127b0565b80601f0160208091040260200160405190810160405280929190818152602001828054611121906127b0565b801561116e5780601f106111435761010080835404028352916020019161116e565b820191906000526020600020905b81548152906001019060200180831161115157829003601f168201915b50505050508152602001600a8201548152602001600b820154815250509050809350505050919050565b600081815481106111a857600080fd5b90600052602060002090600c02016000915090508060000160009054906101000a900473ffffffffffffffffffffffffffffffffffffffff16908060010180546111f1906127b0565b80601f016020809104026020016040519081016040528092919081815260200182805461121d906127b0565b801561126a5780601f1061123f5761010080835404028352916020019161126a565b820191906000526020600020905b81548152906001019060200180831161124d57829003601f168201915b5050505050908060020160009054906101000a900473ffffffffffffffffffffffffffffffffffffffff16908060030154908060040180546112ab906127b0565b80601f01602080910402602001604051908101604052809291908181526020018280546112d7906127b0565b80156113245780601f106112f957610100808354040283529160200191611324565b820191906000526020600020905b81548152906001019060200180831161130757829003601f168201915b505050505090806005018054611339906127b0565b80601f0160208091040260200160405190810160405280929190818152602001828054611365906127b0565b80156113b25780601f10611387576101008083540402835291602001916113b2565b820191906000526020600020905b81548152906001019060200180831161139557829003601f168201915b5050505050908060060154908060070160009054906101000a900460ff16908060080180546113e0906127b0565b80601f016020809104026020016040519081016040528092919081815260200182805461140c906127b0565b80156114595780601f1061142e57610100808354040283529160200191611459565b820191906000526020600020905b81548152906001019060200180831161143c57829003601f168201915b50505050509080600901805461146e906127b0565b80601f016020809104026020016040519081016040528092919081815260200182805461149a906127b0565b80156114e75780601f106114bc576101008083540402835291602001916114e7565b820191906000526020600020905b8154815290600101906020018083116114ca57829003601f168201915b50505050509080600a01549080600b015490508c565b611505611bf1565b6000808381548110611540577f4e487b7100000000000000000000000000000000000000000000000000000000600052603260045260246000fd5b90600052602060002090600c0201604051806101800160405290816000820160009054906101000a900473ffffffffffffffffffffffffffffffffffffffff1673ffffffffffffffffffffffffffffffffffffffff1673ffffffffffffffffffffffffffffffffffffffff1681526020016001820180546115c0906127b0565b80601f01602080910402602001604051908101604052809291908181526020018280546115ec906127b0565b80156116395780601f1061160e57610100808354040283529160200191611639565b820191906000526020600020905b81548152906001019060200180831161161c57829003601f168201915b505050505081526020016002820160009054906101000a900473ffffffffffffffffffffffffffffffffffffffff1673ffffffffffffffffffffffffffffffffffffffff1673ffffffffffffffffffffffffffffffffffffffff168152602001600382015481526020016004820180546116b2906127b0565b80601f01602080910402602001604051908101604052809291908181526020018280546116de906127b0565b801561172b5780601f106117005761010080835404028352916020019161172b565b820191906000526020600020905b81548152906001019060200180831161170e57829003601f168201915b50505050508152602001600582018054611744906127b0565b80601f0160208091040260200160405190810160405280929190818152602001828054611770906127b0565b80156117bd5780601f10611792576101008083540402835291602001916117bd565b820191906000526020600020905b8154815290600101906020018083116117a057829003601f168201915b50505050508152602001600682015481526020016007820160009054906101000a900460ff161515151581526020016008820180546117fb906127b0565b80601f0160208091040260200160405190810160405280929190818152602001828054611827906127b0565b80156118745780601f1061184957610100808354040283529160200191611874565b820191906000526020600020905b81548152906001019060200180831161185757829003601f168201915b5050505050815260200160098201805461188d906127b0565b80601f01602080910402602001604051908101604052809291908181526020018280546118b9906127b0565b80156119065780601f106118db57610100808354040283529160200191611906565b820191906000526020600020905b8154815290600101906020018083116118e957829003601f168201915b50505050508152602001600a8201548152602001600b8201548152505090508060e001518015611947575042600254826101400151611945919061269a565b115b1561196a5760008160e00190151590811515815250506000816101400181815250505b80915050919050565b60008061197f856102a5565b905060008082815481106119bc577f4e487b7100000000000000000000000000000000000000000000000000000000600052603260045260246000fd5b90600052602060002090600c02019050848160050190805190602001906119e4929190611ae1565b50600084146119f7578381600301819055505b50509392505050565b60025481565b600080611a12846102a5565b90506000808281548110611a4f577f4e487b7100000000000000000000000000000000000000000000000000000000600052603260045260246000fd5b90600052602060002090600c02019050838160070160006101000a81548160ff0219169083151502179055508315611a8f574281600a0181905550611a9a565b600081600a01819055505b505092915050565b60018181548110611ab257600080fd5b906000526020600020016000915054906101000a900473ffffffffffffffffffffffffffffffffffffffff1681565b828054611aed906127b0565b90600052602060002090601f016020900481019282611b0f5760008555611b56565b82601f10611b2857805160ff1916838001178555611b56565b82800160010185558215611b56579182015b82811115611b55578251825591602001919060010190611b3a565b5b509050611b639190611c80565b5090565b828054828255906000526020600020908101928215611be0579160200282015b82811115611bdf5782518260006101000a81548173ffffffffffffffffffffffffffffffffffffffff021916908373ffffffffffffffffffffffffffffffffffffffff16021790555091602001919060010190611b87565b5b509050611bed9190611c80565b5090565b604051806101800160405280600073ffffffffffffffffffffffffffffffffffffffff16815260200160608152602001600073ffffffffffffffffffffffffffffffffffffffff16815260200160008152602001606081526020016060815260200160008152602001600015158152602001606081526020016060815260200160008152602001600081525090565b5b80821115611c99576000816000905550600101611c81565b5090565b6000611cb0611cab846125d7565b6125b2565b90508083825260208201905082856020860282011115611ccf57600080fd5b60005b85811015611cff5781611ce58882611d47565b845260208401935060208301925050600181019050611cd2565b5050509392505050565b6000611d1c611d1784612603565b6125b2565b905082815260208101848484011115611d3457600080fd5b611d3f84828561276e565b509392505050565b600081359050611d5681612949565b92915050565b600082601f830112611d6d57600080fd5b8135611d7d848260208601611c9d565b91505092915050565b600081359050611d9581612960565b92915050565b600081359050611daa81612977565b92915050565b600082601f830112611dc157600080fd5b8135611dd1848260208601611d09565b91505092915050565b600081359050611de98161298e565b92915050565b600080600080600080600080610100898b031215611e0c57600080fd5b600089013567ffffffffffffffff811115611e2657600080fd5b611e328b828c01611d5c565b9850506020611e438b828c01611d9b565b975050604089013567ffffffffffffffff811115611e6057600080fd5b611e6c8b828c01611db0565b9650506060611e7d8b828c01611d47565b9550506080611e8e8b828c01611dda565b94505060a089013567ffffffffffffffff811115611eab57600080fd5b611eb78b828c01611db0565b93505060c089013567ffffffffffffffff811115611ed457600080fd5b611ee08b828c01611db0565b92505060e089013567ffffffffffffffff811115611efd57600080fd5b611f098b828c01611db0565b9150509295985092959890939650565b600060208284031215611f2b57600080fd5b6000611f3984828501611d9b565b91505092915050565b60008060408385031215611f5557600080fd5b6000611f6385828601611d9b565b9250506020611f7485828601611d47565b9150509250929050565b60008060408385031215611f9157600080fd5b6000611f9f85828601611d9b565b9250506020611fb085828601611d86565b9150509250929050565b600080600060608486031215611fcf57600080fd5b6000611fdd86828701611d9b565b935050602084013567ffffffffffffffff811115611ffa57600080fd5b61200686828701611db0565b925050604061201786828701611dda565b9150509250925092565b60006020828403121561203357600080fd5b600061204184828501611dda565b91505092915050565b600061205683836121c2565b905092915050565b612067816126f0565b82525050565b612076816126f0565b82525050565b600061208782612644565b6120918185612667565b9350836020820285016120a385612634565b8060005b858110156120df57848403895281516120c0858261204a565b94506120cb8361265a565b925060208a019950506001810190506120a7565b50829750879550505050505092915050565b6120fa81612702565b82525050565b61210981612702565b82525050565b6121188161274a565b82525050565b6121278161274a565b82525050565b60006121388261264f565b6121428185612678565b935061215281856020860161277d565b61215b816128e9565b840191505092915050565b60006121718261264f565b61217b8185612689565b935061218b81856020860161277d565b612194816128e9565b840191505092915050565b60006121ac602783612689565b91506121b7826128fa565b604082019050919050565b6000610180830160008301516121db600086018261210f565b50602083015184820360208601526121f3828261212d565b9150506040830151612208604086018261205e565b50606083015161221b6060860182612402565b5060808301518482036080860152612233828261212d565b91505060a083015184820360a086015261224d828261212d565b91505060c083015161226260c0860182612402565b5060e083015161227560e08601826120f1565b5061010083015184820361010086015261228f828261212d565b9150506101208301518482036101208601526122ab828261212d565b9150506101408301516122c2610140860182612402565b506101608301516122d7610160860182612402565b508091505092915050565b6000610180830160008301516122fb600086018261210f565b5060208301518482036020860152612313828261212d565b9150506040830151612328604086018261205e565b50606083015161233b6060860182612402565b5060808301518482036080860152612353828261212d565b91505060a083015184820360a086015261236d828261212d565b91505060c083015161238260c0860182612402565b5060e083015161239560e08601826120f1565b506101008301518482036101008601526123af828261212d565b9150506101208301518482036101208601526123cb828261212d565b9150506101408301516123e2610140860182612402565b506101608301516123f7610160860182612402565b508091505092915050565b61240b81612740565b82525050565b61241a81612740565b82525050565b6000602082019050612435600083018461206d565b92915050565b60006020820190508181036000830152612455818461207c565b905092915050565b60006020820190506124726000830184612100565b92915050565b60006101808201905061248e600083018f61211e565b81810360208301526124a0818e612166565b90506124af604083018d61206d565b6124bc606083018c612411565b81810360808301526124ce818b612166565b905081810360a08301526124e2818a612166565b90506124f160c0830189612411565b6124fe60e0830188612100565b8181036101008301526125118187612166565b90508181036101208301526125268186612166565b9050612536610140830185612411565b612544610160830184612411565b9d9c50505050505050505050505050565b6000602082019050818103600083015261256e8161219f565b9050919050565b6000602082019050818103600083015261258f81846122e2565b905092915050565b60006020820190506125ac6000830184612411565b92915050565b60006125bc6125cd565b90506125c882826127e2565b919050565b6000604051905090565b600067ffffffffffffffff8211156125f2576125f16128ba565b5b602082029050602081019050919050565b600067ffffffffffffffff82111561261e5761261d6128ba565b5b612627826128e9565b9050602081019050919050565b6000819050602082019050919050565b600081519050919050565b600081519050919050565b6000602082019050919050565b600082825260208201905092915050565b600082825260208201905092915050565b600082825260208201905092915050565b60006126a582612740565b91506126b083612740565b9250827fffffffffffffffffffffffffffffffffffffffffffffffffffffffffffffffff038211156126e5576126e461285c565b5b828201905092915050565b60006126fb82612720565b9050919050565b60008115159050919050565b6000612719826126f0565b9050919050565b600073ffffffffffffffffffffffffffffffffffffffff82169050919050565b6000819050919050565b60006127558261275c565b9050919050565b600061276782612720565b9050919050565b82818337600083830152505050565b60005b8381101561279b578082015181840152602081019050612780565b838111156127aa576000848401525b50505050565b600060028204905060018216806127c857607f821691505b602082108114156127dc576127db61288b565b5b50919050565b6127eb826128e9565b810181811067ffffffffffffffff8211171561280a576128096128ba565b5b80604052505050565b600061281e82612740565b91507fffffffffffffffffffffffffffffffffffffffffffffffffffffffffffffffff8214156128515761285061285c565b5b600182019050919050565b7f4e487b7100000000000000000000000000000000000000000000000000000000600052601160045260246000fd5b7f4e487b7100000000000000000000000000000000000000000000000000000000600052602260045260246000fd5b7f4e487b7100000000000000000000000000000000000000000000000000000000600052604160045260246000fd5b6000601f19601f8301169050919050565b7f41206e6577206f776e657220616464726573732073686f756c64206265206e6f60008201527f7420656d70747900000000000000000000000000000000000000000000000000602082015250565b612952816126f0565b811461295d57600080fd5b50565b61296981612702565b811461297457600080fd5b50565b6129808161270e565b811461298b57600080fd5b50565b61299781612740565b81146129a257600080fd5b5056fea264697066735822122029c97a2f9781bdeeb53790c14d2f0ba137d7ed2b0d2d7577deca74cd28b448b664736f6c63430008020033",
  "immutableReferences": {},
  "source": "// SPDX-License-Identifier: MIT\npragma solidity ^0.8.0;\npragma experimental ABIEncoderV2;\n\nimport {PhotoNFTDataStorages} from \"./photo-nft-data/commons/PhotoNFTDataStorages.sol\";\nimport {PhotoNFT} from \"./PhotoNFT.sol\";\n\n/**\n * @notice - This is the storage contract for photoNFTs\n */\ncontract PhotoNFTData is PhotoNFTDataStorages {\n    address[] public photoAddresses;\n\n    uint256 public premiumLimit = 2592000; //30 * 24 * 3600\n\n    constructor() public {}\n\n    /**\n     * @notice - Save metadata of a photoNFT\n     */\n    function saveMetadataOfPhotoNFT(\n        address[] memory _photoAddresses,\n        PhotoNFT _photoNFT,\n        string memory _photoNFTName,\n        // string memory _photoNFTSymbol,\n        address _ownerAddress,\n        uint256 _photoPrice,\n        string memory _ipfsHashOfPhoto,\n        string memory desc,\n        string memory _collect\n    ) public returns (bool) {\n        Photo memory photo = Photo({ ///make a photo data\n            photoNFT: _photoNFT,\n            photoNFTName: _photoNFTName,\n            // photoNFTSymbol: _photoNFTSymbol,\n            ownerAddress: _ownerAddress,\n            photoPrice: _photoPrice,\n            ipfsHashOfPhoto: _ipfsHashOfPhoto,\n            status: \"Cancelled\",\n            reputation: 0,\n            premiumStatus: false,\n            photoNFTDesc: desc,\n            photoCollect: _collect,\n            premiumTimestamp: 0,\n            createdAt: block.timestamp\n        });\n        photos.push(photo);\n\n        /// Update photoAddresses\n        photoAddresses = _photoAddresses;\n    }\n\n    /**\n     * @notice - Update owner address of a photoNFT by transferring ownership\n     */\n    function updateOwnerOfPhotoNFT(PhotoNFT _photoNFT, address _newOwner)\n        public\n        returns (bool)\n    {\n        uint256 photoIndex = getPhotoIndex(_photoNFT);\n        Photo storage photo = photos[photoIndex];\n        require(\n            _newOwner != address(0),\n            \"A new owner address should be not empty\"\n        );\n        photo.ownerAddress = _newOwner;\n    }\n\n    /**\n     * @notice - Update status (\"Open\" or \"Cancelled\")\n     */\n    function updateStatus(\n        PhotoNFT _photoNFT,\n        string memory _newStatus,\n        uint256 price\n    ) public returns (bool) {\n        uint256 photoIndex = getPhotoIndex(_photoNFT);\n        Photo storage photo = photos[photoIndex];\n        photo.status = _newStatus;\n        if (price != 0) photo.photoPrice = price;\n    }\n\n    /**\n     * @notice - Update status (\"Open\" or \"Cancelled\")\n     */\n    function updatePremiumStatus(PhotoNFT _photoNFT, bool _newStatus)\n        public\n        returns (bool)\n    {\n        uint256 photoIndex = getPhotoIndex(_photoNFT); // Identify photo's index\n\n        Photo storage photo = photos[photoIndex]; // Update metadata of a photoNFT of photo\n        photo.premiumStatus = _newStatus;\n\n        //if _newstatus : true then save timestamp\n        if (_newStatus) photo.premiumTimestamp = block.timestamp;\n        else photo.premiumTimestamp = 0;\n    }\n\n    ///-----------------\n    /// Getter methods\n    ///-----------------\n    function getPhoto(uint256 index) public view returns (Photo memory _photo) {\n        Photo memory photo = photos[index];\n        if (\n            (photo.premiumStatus) &&\n            (photo.premiumTimestamp + premiumLimit > block.timestamp)\n        ) {\n            photo.premiumStatus = false;\n            photo.premiumTimestamp = 0;\n        }\n        return photo;\n    }\n\n    function getPhotoIndex(PhotoNFT photoNFT)\n        public\n        view\n        returns (uint256 _photoIndex)\n    {\n        address PHOTO_NFT = address(photoNFT);\n\n        uint256 photoIndex; /// Identify member's index\n        for (uint256 i = 0; i < photoAddresses.length; i++) {\n            if (photoAddresses[i] == PHOTO_NFT) {\n                photoIndex = i;\n            }\n        }\n\n        return photoIndex;\n    }\n\n    function getPhotoByNFTAddress(PhotoNFT photoNFT)\n        public\n        view\n        returns (Photo memory _photo)\n    {\n        address PHOTO_NFT = address(photoNFT);\n\n        uint256 photoIndex; /// Identify member's index\n        for (uint256 i = 0; i < photoAddresses.length; i++) {\n            if (photoAddresses[i] == PHOTO_NFT) {\n                photoIndex = i;\n            }\n        }\n\n        Photo memory photo = photos[photoIndex];\n        return photo;\n    }\n\n    function getAllPhotos() public view returns (Photo[] memory _photos) {\n        Photo[] memory result;\n        result = photos;\n        for (uint256 i = 0; i < result.length; i++) {\n            if (\n                (result[i].premiumStatus) &&\n                (result[i].premiumTimestamp + premiumLimit < block.timestamp)\n            ) {\n                result[i].premiumStatus = false;\n                result[i].premiumTimestamp = 0;\n            }\n        }\n        return result;\n    }\n}\n",
  "sourcePath": "D:\\marketplace\\frontend (2)\\contracts\\PhotoNFTData.sol",
  "compiler": {
    "name": "solc",
    "version": "0.8.2+commit.661d1103.Emscripten.clang"
  },
  "schemaVersion": "3.4.4",
  "updatedAt": "2022-02-01T11:28:49.716Z",
  "devdoc": {
    "kind": "dev",
    "methods": {},
    "version": 1
  },
  "userdoc": {
    "kind": "user",
    "methods": {
      "getPhoto(uint256)": {
        "notice": "----------------- Getter methods -----------------"
      },
      "saveMetadataOfPhotoNFT(address[],address,string,address,uint256,string,string,string)": {
        "notice": "- Save metadata of a photoNFT"
      },
      "updateOwnerOfPhotoNFT(address,address)": {
        "notice": "- Update owner address of a photoNFT by transferring ownership"
      },
      "updatePremiumStatus(address,bool)": {
        "notice": "- Update status (\"Open\" or \"Cancelled\")"
      },
      "updateStatus(address,string,uint256)": {
        "notice": "- Update status (\"Open\" or \"Cancelled\")"
      }
    },
    "notice": "- This is the storage contract for photoNFTs",
    "version": 1
  }
}