{
  "contractName": "PhotoNFTFactory",
  "abi": [
    {
      "inputs": [
        {
          "internalType": "contract PhotoNFTMarketplace",
          "name": "_photoNFTMarketplace",
          "type": "address"
        },
        {
          "internalType": "contract PhotoNFTData",
          "name": "_photoNFTData",
          "type": "address"
        }
      ],
      "stateMutability": "nonpayable",
      "type": "constructor"
    },
    {
      "anonymous": false,
      "inputs": [
        {
          "indexed": false,
          "internalType": "uint256",
          "name": "tokenId",
          "type": "uint256"
        },
        {
          "indexed": false,
          "internalType": "uint256",
          "name": "reputationCount",
          "type": "uint256"
        }
      ],
      "name": "AddReputation",
      "type": "event"
    },
    {
      "anonymous": false,
      "inputs": [
        {
          "indexed": false,
          "internalType": "address",
          "name": "owner",
          "type": "address"
        },
        {
          "indexed": false,
          "internalType": "contract PhotoNFT",
          "name": "photoNFT",
          "type": "address"
        },
        {
          "indexed": false,
          "internalType": "string",
          "name": "nftName",
          "type": "string"
        },
        {
          "indexed": false,
          "internalType": "uint256",
          "name": "photoPrice",
          "type": "uint256"
        },
        {
          "indexed": false,
          "internalType": "string",
          "name": "ipfsHashOfPhoto",
          "type": "string"
        }
      ],
      "name": "PhotoNFTCreated",
      "type": "event"
    },
    {
      "inputs": [
        {
          "internalType": "uint256",
          "name": "",
          "type": "uint256"
        }
      ],
      "name": "photoAddresses",
      "outputs": [
        {
          "internalType": "address",
          "name": "",
          "type": "address"
        }
      ],
      "stateMutability": "view",
      "type": "function"
    },
    {
      "inputs": [],
      "name": "photoNFTData",
      "outputs": [
        {
          "internalType": "contract PhotoNFTData",
          "name": "",
          "type": "address"
        }
      ],
      "stateMutability": "view",
      "type": "function"
    },
    {
      "inputs": [],
      "name": "photoNFTMarketplace",
      "outputs": [
        {
          "internalType": "contract PhotoNFTMarketplace",
          "name": "",
          "type": "address"
        }
      ],
      "stateMutability": "view",
      "type": "function"
    },
    {
      "inputs": [
        {
          "internalType": "string",
          "name": "nftName",
          "type": "string"
        },
        {
          "internalType": "uint256",
          "name": "photoPrice",
          "type": "uint256"
        },
        {
          "internalType": "string",
          "name": "ipfsHashOfPhoto",
          "type": "string"
        },
        {
          "internalType": "string",
          "name": "description",
          "type": "string"
        },
        {
          "internalType": "string",
          "name": "collection",
          "type": "string"
        },
        {
          "internalType": "uint256",
          "name": "amount",
          "type": "uint256"
        }
      ],
      "name": "createNewPhotoNFT",
      "outputs": [
        {
          "internalType": "bool",
          "name": "",
          "type": "bool"
        }
      ],
      "stateMutability": "payable",
      "type": "function"
    },
    {
      "inputs": [],
      "name": "baseTokenURI",
      "outputs": [
        {
          "internalType": "string",
          "name": "",
          "type": "string"
        }
      ],
      "stateMutability": "pure",
      "type": "function"
    },
    {
      "inputs": [
        {
          "internalType": "string",
          "name": "_ipfsHashOfPhoto",
          "type": "string"
        }
      ],
      "name": "getTokenURI",
      "outputs": [
        {
          "internalType": "string",
          "name": "",
          "type": "string"
        }
      ],
      "stateMutability": "view",
      "type": "function"
    }
  ],
  "bytecode": "0x60806040523480156200001157600080fd5b5060405162004feb38038062004feb833981810160405281019062000037919062000152565b81600260006101000a81548173ffffffffffffffffffffffffffffffffffffffff021916908373ffffffffffffffffffffffffffffffffffffffff16021790555080600360006101000a81548173ffffffffffffffffffffffffffffffffffffffff021916908373ffffffffffffffffffffffffffffffffffffffff160217905550600260009054906101000a900473ffffffffffffffffffffffffffffffffffffffff16600160006101000a81548173ffffffffffffffffffffffffffffffffffffffff021916908373ffffffffffffffffffffffffffffffffffffffff160217905550505062000223565b6000815190506200013581620001ef565b92915050565b6000815190506200014c8162000209565b92915050565b600080604083850312156200016657600080fd5b600062000176858286016200013b565b9250506020620001898582860162000124565b9150509250929050565b6000620001a082620001cf565b9050919050565b6000620001b48262000193565b9050919050565b6000620001c88262000193565b9050919050565b600073ffffffffffffffffffffffffffffffffffffffff82169050919050565b620001fa81620001a7565b81146200020657600080fd5b50565b6200021481620001bb565b81146200022057600080fd5b50565b614db880620002336000396000f3fe6080604052600436106200005c5760003560e01c80639597cec91462000061578063c4188f111462000097578063d3e1f6e314620000c7578063d547cfb7146200010b578063dc0985c3146200013b578063ec039514146200017f575b600080fd5b6200007f600480360381019062000079919062000d7a565b620001af565b6040516200008e9190620011df565b60405180910390f35b348015620000a457600080fd5b50620000af620005a4565b604051620000be919062001219565b60405180910390f35b348015620000d457600080fd5b50620000f36004803603810190620000ed919062000d35565b620005ca565b60405162000102919062001283565b60405180910390f35b3480156200011857600080fd5b5062000123620005e8565b60405162000132919062001283565b60405180910390f35b3480156200014857600080fd5b5062000167600480360381019062000161919062000e74565b62000625565b6040516200017691906200101d565b60405180910390f35b3480156200018c57600080fd5b506200019762000665565b604051620001a69190620011fc565b60405180910390f35b6000803390506000601488620001c69190620013df565b90508034146200020d576040517f08c379a00000000000000000000000000000000000000000000000000000000081526004016200020490620012a7565b60405180910390fd5b6000600260009054906101000a900473ffffffffffffffffffffffffffffffffffffffff1673ffffffffffffffffffffffffffffffffffffffff1663f41fc1bb6040518163ffffffff1660e01b8152600401602060405180830381600087803b1580156200027a57600080fd5b505af11580156200028f573d6000803e3d6000fd5b505050506040513d601f19601f82011682018060405250810190620002b5919062000cdd565b90508073ffffffffffffffffffffffffffffffffffffffff166108fc839081150290604051600060405180830381858888f19350505050158015620002fe573d6000803e3d6000fd5b5060005b85811015620005965760008b9050600089905060008b905060008a905060008e905060006200033184620005ca565b905060008a8783858988604051620003499062000c18565b6200035a96959493929190620010a5565b604051809103906000f08015801562000377573d6000803e3d6000fd5b5090506000819080600181540180825580915050600190039060005260206000200160009091909190916101000a81548173ffffffffffffffffffffffffffffffffffffffff021916908373ffffffffffffffffffffffffffffffffffffffff160217905550600360009054906101000a900473ffffffffffffffffffffffffffffffffffffffff1673ffffffffffffffffffffffffffffffffffffffff166376c312cd6000838a33888b8d8c6040518963ffffffff1660e01b8152600401620004499897969594939291906200112e565b602060405180830381600087803b1580156200046457600080fd5b505af115801562000479573d6000803e3d6000fd5b505050506040513d601f19601f820116820180604052508101906200049f919062000d09565b50600260009054906101000a900473ffffffffffffffffffffffffffffffffffffffff1673ffffffffffffffffffffffffffffffffffffffff1663dee98aad82600186336040518563ffffffff1660e01b815260040162000504949392919062001236565b600060405180830381600087803b1580156200051f57600080fd5b505af115801562000534573d6000803e3d6000fd5b505050507f5bb9fec0dd472d88a2e732277e517ac6b20e6af72713b3401174136a4f24b1a03382898689604051620005719594939291906200103a565b60405180910390a15050505050505080806200058d90620015ba565b91505062000302565b505050509695505050505050565b600260009054906101000a900473ffffffffffffffffffffffffffffffffffffffff1681565b6060620005e1620005da620005e8565b836200068b565b9050919050565b60606040518060400160405280601581526020017f68747470733a2f2f697066732e696f2f697066732f0000000000000000000000815250905090565b600081815481106200063657600080fd5b906000526020600020016000915054906101000a900473ffffffffffffffffffffffffffffffffffffffff1681565b600360009054906101000a900473ffffffffffffffffffffffffffffffffffffffff1681565b6060620006c98383604051806020016040528060008152506040518060200160405280600081525060405180602001604052806000815250620006d1565b905092915050565b60606000869050600086905060008690506000869050600086905060008151835185518751895162000704919062001382565b62000710919062001382565b6200071c919062001382565b62000728919062001382565b67ffffffffffffffff81111562000768577f4e487b7100000000000000000000000000000000000000000000000000000000600052604160045260246000fd5b6040519080825280601f01601f1916602001820160405280156200079b5781602001600182028036833780820191505090505b50905060008190506000805b88518110156200088357888181518110620007eb577f4e487b7100000000000000000000000000000000000000000000000000000000600052603260045260246000fd5b602001015160f81c60f81b8383806200080490620015ba565b9450815181106200083e577f4e487b7100000000000000000000000000000000000000000000000000000000600052603260045260246000fd5b60200101907effffffffffffffffffffffffffffffffffffffffffffffffffffffffffffff1916908160001a90535080806200087a90620015ba565b915050620007a7565b5060005b87518110156200096357878181518110620008cb577f4e487b7100000000000000000000000000000000000000000000000000000000600052603260045260246000fd5b602001015160f81c60f81b838380620008e490620015ba565b9450815181106200091e577f4e487b7100000000000000000000000000000000000000000000000000000000600052603260045260246000fd5b60200101907effffffffffffffffffffffffffffffffffffffffffffffffffffffffffffff1916908160001a90535080806200095a90620015ba565b91505062000887565b5060005b865181101562000a4357868181518110620009ab577f4e487b7100000000000000000000000000000000000000000000000000000000600052603260045260246000fd5b602001015160f81c60f81b838380620009c490620015ba565b945081518110620009fe577f4e487b7100000000000000000000000000000000000000000000000000000000600052603260045260246000fd5b60200101907effffffffffffffffffffffffffffffffffffffffffffffffffffffffffffff1916908160001a905350808062000a3a90620015ba565b91505062000967565b5060005b855181101562000b235785818151811062000a8b577f4e487b7100000000000000000000000000000000000000000000000000000000600052603260045260246000fd5b602001015160f81c60f81b83838062000aa490620015ba565b94508151811062000ade577f4e487b7100000000000000000000000000000000000000000000000000000000600052603260045260246000fd5b60200101907effffffffffffffffffffffffffffffffffffffffffffffffffffffffffffff1916908160001a905350808062000b1a90620015ba565b91505062000a47565b5060005b845181101562000c035784818151811062000b6b577f4e487b7100000000000000000000000000000000000000000000000000000000600052603260045260246000fd5b602001015160f81c60f81b83838062000b8490620015ba565b94508151811062000bbe577f4e487b7100000000000000000000000000000000000000000000000000000000600052603260045260246000fd5b60200101907effffffffffffffffffffffffffffffffffffffffffffffffffffffffffffff1916908160001a905350808062000bfa90620015ba565b91505062000b27565b50819850505050505050505095945050505050565b613643806200174083390190565b600062000c3d62000c3784620012f2565b620012c9565b90508281526020810184848401111562000c5657600080fd5b62000c6384828562001521565b509392505050565b60008151905062000c7c81620016f1565b92915050565b60008151905062000c93816200170b565b92915050565b600082601f83011262000cab57600080fd5b813562000cbd84826020860162000c26565b91505092915050565b60008135905062000cd78162001725565b92915050565b60006020828403121562000cf057600080fd5b600062000d008482850162000c6b565b91505092915050565b60006020828403121562000d1c57600080fd5b600062000d2c8482850162000c82565b91505092915050565b60006020828403121562000d4857600080fd5b600082013567ffffffffffffffff81111562000d6357600080fd5b62000d718482850162000c99565b91505092915050565b60008060008060008060c0878903121562000d9457600080fd5b600087013567ffffffffffffffff81111562000daf57600080fd5b62000dbd89828a0162000c99565b965050602062000dd089828a0162000cc6565b955050604087013567ffffffffffffffff81111562000dee57600080fd5b62000dfc89828a0162000c99565b945050606087013567ffffffffffffffff81111562000e1a57600080fd5b62000e2889828a0162000c99565b935050608087013567ffffffffffffffff81111562000e4657600080fd5b62000e5489828a0162000c99565b92505060a062000e6789828a0162000cc6565b9150509295509295509295565b60006020828403121562000e8757600080fd5b600062000e978482850162000cc6565b91505092915050565b600062000eae838362000eba565b60208301905092915050565b62000ec58162001437565b82525050565b62000ed68162001437565b82525050565b600062000ee9826200133d565b62000ef5818562001360565b935062000f028362001328565b8060005b8381101562000f425762000f1a8262001695565b62000f26888262000ea0565b975062000f338362001353565b92505060018101905062000f06565b5085935050505092915050565b62000f5a816200145f565b82525050565b62000f6b8162001495565b82525050565b62000f7c81620014bd565b82525050565b62000f8d81620014e5565b82525050565b62000f9e816200150d565b82525050565b600062000fb18262001348565b62000fbd818562001371565b935062000fcf81856020860162001530565b62000fda81620016aa565b840191505092915050565b600062000ff460108362001371565b91506200100182620016c8565b602082019050919050565b62001017816200148b565b82525050565b600060208201905062001034600083018462000ecb565b92915050565b600060a08201905062001051600083018862000ecb565b62001060602083018762000f82565b818103604083015262001074818662000fa4565b90506200108560608301856200100c565b818103608083015262001099818462000fa4565b90509695505050505050565b600060c082019050620010bc600083018962000ecb565b8181036020830152620010d0818862000fa4565b90508181036040830152620010e6818762000fa4565b9050620010f760608301866200100c565b81810360808301526200110b818562000fa4565b905081810360a083015262001121818462000fa4565b9050979650505050505050565b60006101008201905081810360008301526200114b818b62000edc565b90506200115c602083018a62000f82565b818103604083015262001170818962000fa4565b905062001181606083018862000ecb565b6200119060808301876200100c565b81810360a0830152620011a4818662000fa4565b905081810360c0830152620011ba818562000fa4565b905081810360e0830152620011d0818462000fa4565b90509998505050505050505050565b6000602082019050620011f6600083018462000f4f565b92915050565b600060208201905062001213600083018462000f60565b92915050565b600060208201905062001230600083018462000f71565b92915050565b60006080820190506200124d600083018762000f82565b6200125c602083018662000f93565b6200126b60408301856200100c565b6200127a606083018462000ecb565b95945050505050565b600060208201905081810360008301526200129f818462000fa4565b905092915050565b60006020820190508181036000830152620012c28162000fe5565b9050919050565b6000620012d5620012e8565b9050620012e3828262001584565b919050565b6000604051905090565b600067ffffffffffffffff82111562001310576200130f62001666565b5b6200131b82620016aa565b9050602081019050919050565b60008190508160005260206000209050919050565b600081549050919050565b600081519050919050565b6000600182019050919050565b600082825260208201905092915050565b600082825260208201905092915050565b60006200138f826200148b565b91506200139c836200148b565b9250827fffffffffffffffffffffffffffffffffffffffffffffffffffffffffffffffff03821115620013d457620013d362001608565b5b828201905092915050565b6000620013ec826200148b565b9150620013f9836200148b565b9250826200140c576200140b62001637565b5b828204905092915050565b600073ffffffffffffffffffffffffffffffffffffffff82169050919050565b600062001444826200146b565b9050919050565b600062001458826200146b565b9050919050565b60008115159050919050565b600073ffffffffffffffffffffffffffffffffffffffff82169050919050565b6000819050919050565b6000620014a282620014a9565b9050919050565b6000620014b6826200146b565b9050919050565b6000620014ca82620014d1565b9050919050565b6000620014de826200146b565b9050919050565b6000620014f282620014f9565b9050919050565b600062001506826200146b565b9050919050565b60006200151a826200148b565b9050919050565b82818337600083830152505050565b60005b838110156200155057808201518184015260208101905062001533565b8381111562001560576000848401525b50505050565b60006200157d6200157783620016bb565b62001417565b9050919050565b6200158f82620016aa565b810181811067ffffffffffffffff82111715620015b157620015b062001666565b5b80604052505050565b6000620015c7826200148b565b91507fffffffffffffffffffffffffffffffffffffffffffffffffffffffffffffffff821415620015fd57620015fc62001608565b5b600182019050919050565b7f4e487b7100000000000000000000000000000000000000000000000000000000600052601160045260246000fd5b7f4e487b7100000000000000000000000000000000000000000000000000000000600052601260045260246000fd5b7f4e487b7100000000000000000000000000000000000000000000000000000000600052604160045260246000fd5b6000620016a3825462001566565b9050919050565b6000601f19601f8301169050919050565b60008160001c9050919050565b7f466565206d757374206265207061696400000000000000000000000000000000600082015250565b620016fc816200144b565b81146200170857600080fd5b50565b62001716816200145f565b81146200172257600080fd5b50565b62001730816200148b565b81146200173c57600080fd5b5056fe60806040523480156200001157600080fd5b50604051620036433803806200364383398181016040528101906200003791906200055b565b846040518060400160405280600581526020017f43495a44450000000000000000000000000000000000000000000000000000008152508160009080519060200190620000869291906200040b565b5080600190805190602001906200009f9291906200040b565b505050620000b48685620000c160201b60201c565b5050505050505062000a9e565b600080620000d46200011b60201b60201c565b905060076000815480929190620000eb90620008dd565b91905055506200010284826200013360201b60201c565b6200011481846200031960201b60201c565b5092915050565b600060016007546200012e9190620007a0565b905090565b600073ffffffffffffffffffffffffffffffffffffffff168273ffffffffffffffffffffffffffffffffffffffff161415620001a6576040517f08c379a00000000000000000000000000000000000000000000000000000000081526004016200019d906200070e565b60405180910390fd5b620001b7816200039a60201b60201c565b15620001fa576040517f08c379a0000000000000000000000000000000000000000000000000000000008152600401620001f190620006ca565b60405180910390fd5b6200020e600083836200040660201b60201c565b6001600360008473ffffffffffffffffffffffffffffffffffffffff1673ffffffffffffffffffffffffffffffffffffffff1681526020019081526020016000206000828254620002609190620007a0565b92505081905550816002600083815260200190815260200160002060006101000a81548173ffffffffffffffffffffffffffffffffffffffff021916908373ffffffffffffffffffffffffffffffffffffffff160217905550808273ffffffffffffffffffffffffffffffffffffffff16600073ffffffffffffffffffffffffffffffffffffffff167fddf252ad1be2c89b69c2b068fc378daa952ba7f163c4a11628f55a4df523b3ef60405160405180910390a45050565b6200032a826200039a60201b60201c565b6200036c576040517f08c379a00000000000000000000000000000000000000000000000000000000081526004016200036390620006ec565b60405180910390fd5b80600660008481526020019081526020016000209080519060200190620003959291906200040b565b505050565b60008073ffffffffffffffffffffffffffffffffffffffff166002600084815260200190815260200160002060009054906101000a900473ffffffffffffffffffffffffffffffffffffffff1673ffffffffffffffffffffffffffffffffffffffff1614159050919050565b505050565b828054620004199062000871565b90600052602060002090601f0160209004810192826200043d576000855562000489565b82601f106200045857805160ff191683800117855562000489565b8280016001018555821562000489579182015b82811115620004885782518255916020019190600101906200046b565b5b5090506200049891906200049c565b5090565b5b80821115620004b75760008160009055506001016200049d565b5090565b6000620004d2620004cc8462000759565b62000730565b905082815260208101848484011115620004eb57600080fd5b620004f88482856200083b565b509392505050565b600081519050620005118162000a6a565b92915050565b600082601f8301126200052957600080fd5b81516200053b848260208601620004bb565b91505092915050565b600081519050620005558162000a84565b92915050565b60008060008060008060c087890312156200057557600080fd5b60006200058589828a0162000500565b965050602087015167ffffffffffffffff811115620005a357600080fd5b620005b189828a0162000517565b955050604087015167ffffffffffffffff811115620005cf57600080fd5b620005dd89828a0162000517565b9450506060620005f089828a0162000544565b935050608087015167ffffffffffffffff8111156200060e57600080fd5b6200061c89828a0162000517565b92505060a087015167ffffffffffffffff8111156200063a57600080fd5b6200064889828a0162000517565b9150509295509295509295565b600062000664601c836200078f565b91506200067182620009c9565b602082019050919050565b60006200068b602e836200078f565b91506200069882620009f2565b604082019050919050565b6000620006b26020836200078f565b9150620006bf8262000a41565b602082019050919050565b60006020820190508181036000830152620006e58162000655565b9050919050565b6000602082019050818103600083015262000707816200067c565b9050919050565b600060208201905081810360008301526200072981620006a3565b9050919050565b60006200073c6200074f565b90506200074a8282620008a7565b919050565b6000604051905090565b600067ffffffffffffffff82111562000777576200077662000989565b5b6200078282620009b8565b9050602081019050919050565b600082825260208201905092915050565b6000620007ad8262000831565b9150620007ba8362000831565b9250827fffffffffffffffffffffffffffffffffffffffffffffffffffffffffffffffff03821115620007f257620007f16200092b565b5b828201905092915050565b60006200080a8262000811565b9050919050565b600073ffffffffffffffffffffffffffffffffffffffff82169050919050565b6000819050919050565b60005b838110156200085b5780820151818401526020810190506200083e565b838111156200086b576000848401525b50505050565b600060028204905060018216806200088a57607f821691505b60208210811415620008a157620008a06200095a565b5b50919050565b620008b282620009b8565b810181811067ffffffffffffffff82111715620008d457620008d362000989565b5b80604052505050565b6000620008ea8262000831565b91507fffffffffffffffffffffffffffffffffffffffffffffffffffffffffffffffff82141562000920576200091f6200092b565b5b600182019050919050565b7f4e487b7100000000000000000000000000000000000000000000000000000000600052601160045260246000fd5b7f4e487b7100000000000000000000000000000000000000000000000000000000600052602260045260246000fd5b7f4e487b7100000000000000000000000000000000000000000000000000000000600052604160045260246000fd5b6000601f19601f8301169050919050565b7f4552433732313a20746f6b656e20616c7265616479206d696e74656400000000600082015250565b7f45524337323155524953746f726167653a2055524920736574206f66206e6f6e60008201527f6578697374656e7420746f6b656e000000000000000000000000000000000000602082015250565b7f4552433732313a206d696e7420746f20746865207a65726f2061646472657373600082015250565b62000a7581620007fd565b811462000a8157600080fd5b50565b62000a8f8162000831565b811462000a9b57600080fd5b50565b612b958062000aae6000396000f3fe608060405234801561001057600080fd5b50600436106100f55760003560e01c806370a0823111610097578063b88d4fde11610066578063b88d4fde14610284578063c87b56dd146102a0578063d0def521146102d0578063e985e9c514610300576100f5565b806370a08231146101fc57806395d89b411461022c578063a22cb4651461024a578063b4a5b64614610266576100f5565b8063095ea7b3116100d3578063095ea7b31461017857806323b872dd1461019457806342842e0e146101b05780636352211e146101cc576100f5565b806301ffc9a7146100fa57806306fdde031461012a578063081812fc14610148575b600080fd5b610114600480360381019061010f9190611c42565b610330565b6040516101219190612048565b60405180910390f35b610132610412565b60405161013f9190612063565b60405180910390f35b610162600480360381019061015d9190611c94565b6104a4565b60405161016f9190611fe1565b60405180910390f35b610192600480360381019061018d9190611c06565b610529565b005b6101ae60048036038101906101a99190611aac565b610641565b005b6101ca60048036038101906101c59190611aac565b6106a1565b005b6101e660048036038101906101e19190611c94565b6106c1565b6040516101f39190611fe1565b60405180910390f35b61021660048036038101906102119190611a47565b610773565b6040516102239190612285565b60405180910390f35b61023461082b565b6040516102419190612063565b60405180910390f35b610264600480360381019061025f9190611b76565b6108bd565b005b61026e610a3e565b60405161027b9190612285565b60405180910390f35b61029e60048036038101906102999190611afb565b610a44565b005b6102ba60048036038101906102b59190611c94565b610aa6565b6040516102c79190612063565b60405180910390f35b6102ea60048036038101906102e59190611bb2565b610bf8565b6040516102f79190612048565b60405180910390f35b61031a60048036038101906103159190611a70565b610c38565b6040516103279190612048565b60405180910390f35b60007f80ac58cd000000000000000000000000000000000000000000000000000000007bffffffffffffffffffffffffffffffffffffffffffffffffffffffff1916827bffffffffffffffffffffffffffffffffffffffffffffffffffffffff191614806103fb57507f5b5e139f000000000000000000000000000000000000000000000000000000007bffffffffffffffffffffffffffffffffffffffffffffffffffffffff1916827bffffffffffffffffffffffffffffffffffffffffffffffffffffffff1916145b8061040b575061040a82610ccc565b5b9050919050565b606060008054610421906124db565b80601f016020809104026020016040519081016040528092919081815260200182805461044d906124db565b801561049a5780601f1061046f5761010080835404028352916020019161049a565b820191906000526020600020905b81548152906001019060200180831161047d57829003601f168201915b5050505050905090565b60006104af82610d36565b6104ee576040517f08c379a00000000000000000000000000000000000000000000000000000000081526004016104e5906121e5565b60405180910390fd5b6004600083815260200190815260200160002060009054906101000a900473ffffffffffffffffffffffffffffffffffffffff169050919050565b6000610534826106c1565b90508073ffffffffffffffffffffffffffffffffffffffff168373ffffffffffffffffffffffffffffffffffffffff1614156105a5576040517f08c379a000000000000000000000000000000000000000000000000000000000815260040161059c90612245565b60405180910390fd5b8073ffffffffffffffffffffffffffffffffffffffff166105c4610da2565b73ffffffffffffffffffffffffffffffffffffffff1614806105f357506105f2816105ed610da2565b610c38565b5b610632576040517f08c379a000000000000000000000000000000000000000000000000000000000815260040161062990612125565b60405180910390fd5b61063c8383610daa565b505050565b61065261064c610da2565b82610e63565b610691576040517f08c379a000000000000000000000000000000000000000000000000000000000815260040161068890612265565b60405180910390fd5b61069c838383610f41565b505050565b6106bc83838360405180602001604052806000815250610a44565b505050565b6000806002600084815260200190815260200160002060009054906101000a900473ffffffffffffffffffffffffffffffffffffffff169050600073ffffffffffffffffffffffffffffffffffffffff168173ffffffffffffffffffffffffffffffffffffffff16141561076a576040517f08c379a000000000000000000000000000000000000000000000000000000000815260040161076190612165565b60405180910390fd5b80915050919050565b60008073ffffffffffffffffffffffffffffffffffffffff168273ffffffffffffffffffffffffffffffffffffffff1614156107e4576040517f08c379a00000000000000000000000000000000000000000000000000000000081526004016107db90612145565b60405180910390fd5b600360008373ffffffffffffffffffffffffffffffffffffffff1673ffffffffffffffffffffffffffffffffffffffff168152602001908152602001600020549050919050565b60606001805461083a906124db565b80601f0160208091040260200160405190810160405280929190818152602001828054610866906124db565b80156108b35780601f10610888576101008083540402835291602001916108b3565b820191906000526020600020905b81548152906001019060200180831161089657829003601f168201915b5050505050905090565b6108c5610da2565b73ffffffffffffffffffffffffffffffffffffffff168273ffffffffffffffffffffffffffffffffffffffff161415610933576040517f08c379a000000000000000000000000000000000000000000000000000000000815260040161092a906120e5565b60405180910390fd5b8060056000610940610da2565b73ffffffffffffffffffffffffffffffffffffffff1673ffffffffffffffffffffffffffffffffffffffff16815260200190815260200160002060008473ffffffffffffffffffffffffffffffffffffffff1673ffffffffffffffffffffffffffffffffffffffff16815260200190815260200160002060006101000a81548160ff0219169083151502179055508173ffffffffffffffffffffffffffffffffffffffff166109ed610da2565b73ffffffffffffffffffffffffffffffffffffffff167f17307eab39ab6107e8899845ad3d59bd9653f200f220920489ca2b5937696c3183604051610a329190612048565b60405180910390a35050565b60075481565b610a55610a4f610da2565b83610e63565b610a94576040517f08c379a0000000000000000000000000000000000000000000000000000000008152600401610a8b90612265565b60405180910390fd5b610aa08484848461119d565b50505050565b6060610ab182610d36565b610af0576040517f08c379a0000000000000000000000000000000000000000000000000000000008152600401610ae7906121c5565b60405180910390fd5b6000600660008481526020019081526020016000208054610b10906124db565b80601f0160208091040260200160405190810160405280929190818152602001828054610b3c906124db565b8015610b895780601f10610b5e57610100808354040283529160200191610b89565b820191906000526020600020905b815481529060010190602001808311610b6c57829003601f168201915b505050505090506000610b9a6111f9565b9050600081511415610bb0578192505050610bf3565b600082511115610be5578082604051602001610bcd929190611fbd565b60405160208183030381529060405292505050610bf3565b610bee84611210565b925050505b919050565b600080610c036112b7565b905060076000815480929190610c189061253e565b9190505550610c2784826112cd565b610c31818461149b565b5092915050565b6000600560008473ffffffffffffffffffffffffffffffffffffffff1673ffffffffffffffffffffffffffffffffffffffff16815260200190815260200160002060008373ffffffffffffffffffffffffffffffffffffffff1673ffffffffffffffffffffffffffffffffffffffff16815260200190815260200160002060009054906101000a900460ff16905092915050565b60007f01ffc9a7000000000000000000000000000000000000000000000000000000007bffffffffffffffffffffffffffffffffffffffffffffffffffffffff1916827bffffffffffffffffffffffffffffffffffffffffffffffffffffffff1916149050919050565b60008073ffffffffffffffffffffffffffffffffffffffff166002600084815260200190815260200160002060009054906101000a900473ffffffffffffffffffffffffffffffffffffffff1673ffffffffffffffffffffffffffffffffffffffff1614159050919050565b600033905090565b816004600083815260200190815260200160002060006101000a81548173ffffffffffffffffffffffffffffffffffffffff021916908373ffffffffffffffffffffffffffffffffffffffff160217905550808273ffffffffffffffffffffffffffffffffffffffff16610e1d836106c1565b73ffffffffffffffffffffffffffffffffffffffff167f8c5be1e5ebec7d5bd14f71427d1e84f3dd0314c0f7b2291e5b200ac8c7c3b92560405160405180910390a45050565b6000610e6e82610d36565b610ead576040517f08c379a0000000000000000000000000000000000000000000000000000000008152600401610ea490612105565b60405180910390fd5b6000610eb8836106c1565b90508073ffffffffffffffffffffffffffffffffffffffff168473ffffffffffffffffffffffffffffffffffffffff161480610f2757508373ffffffffffffffffffffffffffffffffffffffff16610f0f846104a4565b73ffffffffffffffffffffffffffffffffffffffff16145b80610f385750610f378185610c38565b5b91505092915050565b8273ffffffffffffffffffffffffffffffffffffffff16610f61826106c1565b73ffffffffffffffffffffffffffffffffffffffff1614610fb7576040517f08c379a0000000000000000000000000000000000000000000000000000000008152600401610fae90612205565b60405180910390fd5b600073ffffffffffffffffffffffffffffffffffffffff168273ffffffffffffffffffffffffffffffffffffffff161415611027576040517f08c379a000000000000000000000000000000000000000000000000000000000815260040161101e906120c5565b60405180910390fd5b61103283838361150f565b61103d600082610daa565b6001600360008573ffffffffffffffffffffffffffffffffffffffff1673ffffffffffffffffffffffffffffffffffffffff168152602001908152602001600020600082825461108d91906123f1565b925050819055506001600360008473ffffffffffffffffffffffffffffffffffffffff1673ffffffffffffffffffffffffffffffffffffffff16815260200190815260200160002060008282546110e4919061236a565b92505081905550816002600083815260200190815260200160002060006101000a81548173ffffffffffffffffffffffffffffffffffffffff021916908373ffffffffffffffffffffffffffffffffffffffff160217905550808273ffffffffffffffffffffffffffffffffffffffff168473ffffffffffffffffffffffffffffffffffffffff167fddf252ad1be2c89b69c2b068fc378daa952ba7f163c4a11628f55a4df523b3ef60405160405180910390a4505050565b6111a8848484610f41565b6111b484848484611514565b6111f3576040517f08c379a00000000000000000000000000000000000000000000000000000000081526004016111ea90612085565b60405180910390fd5b50505050565b606060405180602001604052806000815250905090565b606061121b82610d36565b61125a576040517f08c379a000000000000000000000000000000000000000000000000000000000815260040161125190612225565b60405180910390fd5b60006112646111f9565b9050600081511161128457604051806020016040528060008152506112af565b8061128e846116ab565b60405160200161129f929190611fbd565b6040516020818303038152906040525b915050919050565b600060016007546112c8919061236a565b905090565b600073ffffffffffffffffffffffffffffffffffffffff168273ffffffffffffffffffffffffffffffffffffffff16141561133d576040517f08c379a0000000000000000000000000000000000000000000000000000000008152600401611334906121a5565b60405180910390fd5b61134681610d36565b15611386576040517f08c379a000000000000000000000000000000000000000000000000000000000815260040161137d906120a5565b60405180910390fd5b6113926000838361150f565b6001600360008473ffffffffffffffffffffffffffffffffffffffff1673ffffffffffffffffffffffffffffffffffffffff16815260200190815260200160002060008282546113e2919061236a565b92505081905550816002600083815260200190815260200160002060006101000a81548173ffffffffffffffffffffffffffffffffffffffff021916908373ffffffffffffffffffffffffffffffffffffffff160217905550808273ffffffffffffffffffffffffffffffffffffffff16600073ffffffffffffffffffffffffffffffffffffffff167fddf252ad1be2c89b69c2b068fc378daa952ba7f163c4a11628f55a4df523b3ef60405160405180910390a45050565b6114a482610d36565b6114e3576040517f08c379a00000000000000000000000000000000000000000000000000000000081526004016114da90612185565b60405180910390fd5b8060066000848152602001908152602001600020908051906020019061150a92919061186b565b505050565b505050565b60006115358473ffffffffffffffffffffffffffffffffffffffff16611858565b1561169e578373ffffffffffffffffffffffffffffffffffffffff1663150b7a0261155e610da2565b8786866040518563ffffffff1660e01b81526004016115809493929190611ffc565b602060405180830381600087803b15801561159a57600080fd5b505af19250505080156115cb57506040513d601f19601f820116820180604052508101906115c89190611c6b565b60015b61164e573d80600081146115fb576040519150601f19603f3d011682016040523d82523d6000602084013e611600565b606091505b50600081511415611646576040517f08c379a000000000000000000000000000000000000000000000000000000000815260040161163d90612085565b60405180910390fd5b805181602001fd5b63150b7a0260e01b7bffffffffffffffffffffffffffffffffffffffffffffffffffffffff1916817bffffffffffffffffffffffffffffffffffffffffffffffffffffffff1916149150506116a3565b600190505b949350505050565b606060008214156116f3576040518060400160405280600181526020017f30000000000000000000000000000000000000000000000000000000000000008152509050611853565b600082905060005b6000821461172557808061170e9061253e565b915050600a8261171e91906123c0565b91506116fb565b60008167ffffffffffffffff811115611767577f4e487b7100000000000000000000000000000000000000000000000000000000600052604160045260246000fd5b6040519080825280601f01601f1916602001820160405280156117995781602001600182028036833780820191505090505b5090505b6000851461184c576001826117b291906123f1565b9150600a856117c19190612587565b60306117cd919061236a565b60f81b818381518110611809577f4e487b7100000000000000000000000000000000000000000000000000000000600052603260045260246000fd5b60200101907effffffffffffffffffffffffffffffffffffffffffffffffffffffffffffff1916908160001a905350600a8561184591906123c0565b945061179d565b8093505050505b919050565b600080823b905060008111915050919050565b828054611877906124db565b90600052602060002090601f01602090048101928261189957600085556118e0565b82601f106118b257805160ff19168380011785556118e0565b828001600101855582156118e0579182015b828111156118df5782518255916020019190600101906118c4565b5b5090506118ed91906118f1565b5090565b5b8082111561190a5760008160009055506001016118f2565b5090565b600061192161191c846122c5565b6122a0565b90508281526020810184848401111561193957600080fd5b611944848285612499565b509392505050565b600061195f61195a846122f6565b6122a0565b90508281526020810184848401111561197757600080fd5b611982848285612499565b509392505050565b60008135905061199981612b03565b92915050565b6000813590506119ae81612b1a565b92915050565b6000813590506119c381612b31565b92915050565b6000815190506119d881612b31565b92915050565b600082601f8301126119ef57600080fd5b81356119ff84826020860161190e565b91505092915050565b600082601f830112611a1957600080fd5b8135611a2984826020860161194c565b91505092915050565b600081359050611a4181612b48565b92915050565b600060208284031215611a5957600080fd5b6000611a678482850161198a565b91505092915050565b60008060408385031215611a8357600080fd5b6000611a918582860161198a565b9250506020611aa28582860161198a565b9150509250929050565b600080600060608486031215611ac157600080fd5b6000611acf8682870161198a565b9350506020611ae08682870161198a565b9250506040611af186828701611a32565b9150509250925092565b60008060008060808587031215611b1157600080fd5b6000611b1f8782880161198a565b9450506020611b308782880161198a565b9350506040611b4187828801611a32565b925050606085013567ffffffffffffffff811115611b5e57600080fd5b611b6a878288016119de565b91505092959194509250565b60008060408385031215611b8957600080fd5b6000611b978582860161198a565b9250506020611ba88582860161199f565b9150509250929050565b60008060408385031215611bc557600080fd5b6000611bd38582860161198a565b925050602083013567ffffffffffffffff811115611bf057600080fd5b611bfc85828601611a08565b9150509250929050565b60008060408385031215611c1957600080fd5b6000611c278582860161198a565b9250506020611c3885828601611a32565b9150509250929050565b600060208284031215611c5457600080fd5b6000611c62848285016119b4565b91505092915050565b600060208284031215611c7d57600080fd5b6000611c8b848285016119c9565b91505092915050565b600060208284031215611ca657600080fd5b6000611cb484828501611a32565b91505092915050565b611cc681612425565b82525050565b611cd581612437565b82525050565b6000611ce682612327565b611cf0818561233d565b9350611d008185602086016124a8565b611d0981612674565b840191505092915050565b6000611d1f82612332565b611d29818561234e565b9350611d398185602086016124a8565b611d4281612674565b840191505092915050565b6000611d5882612332565b611d62818561235f565b9350611d728185602086016124a8565b80840191505092915050565b6000611d8b60328361234e565b9150611d9682612685565b604082019050919050565b6000611dae601c8361234e565b9150611db9826126d4565b602082019050919050565b6000611dd160248361234e565b9150611ddc826126fd565b604082019050919050565b6000611df460198361234e565b9150611dff8261274c565b602082019050919050565b6000611e17602c8361234e565b9150611e2282612775565b604082019050919050565b6000611e3a60388361234e565b9150611e45826127c4565b604082019050919050565b6000611e5d602a8361234e565b9150611e6882612813565b604082019050919050565b6000611e8060298361234e565b9150611e8b82612862565b604082019050919050565b6000611ea3602e8361234e565b9150611eae826128b1565b604082019050919050565b6000611ec660208361234e565b9150611ed182612900565b602082019050919050565b6000611ee960318361234e565b9150611ef482612929565b604082019050919050565b6000611f0c602c8361234e565b9150611f1782612978565b604082019050919050565b6000611f2f60298361234e565b9150611f3a826129c7565b604082019050919050565b6000611f52602f8361234e565b9150611f5d82612a16565b604082019050919050565b6000611f7560218361234e565b9150611f8082612a65565b604082019050919050565b6000611f9860318361234e565b9150611fa382612ab4565b604082019050919050565b611fb78161248f565b82525050565b6000611fc98285611d4d565b9150611fd58284611d4d565b91508190509392505050565b6000602082019050611ff66000830184611cbd565b92915050565b60006080820190506120116000830187611cbd565b61201e6020830186611cbd565b61202b6040830185611fae565b818103606083015261203d8184611cdb565b905095945050505050565b600060208201905061205d6000830184611ccc565b92915050565b6000602082019050818103600083015261207d8184611d14565b905092915050565b6000602082019050818103600083015261209e81611d7e565b9050919050565b600060208201905081810360008301526120be81611da1565b9050919050565b600060208201905081810360008301526120de81611dc4565b9050919050565b600060208201905081810360008301526120fe81611de7565b9050919050565b6000602082019050818103600083015261211e81611e0a565b9050919050565b6000602082019050818103600083015261213e81611e2d565b9050919050565b6000602082019050818103600083015261215e81611e50565b9050919050565b6000602082019050818103600083015261217e81611e73565b9050919050565b6000602082019050818103600083015261219e81611e96565b9050919050565b600060208201905081810360008301526121be81611eb9565b9050919050565b600060208201905081810360008301526121de81611edc565b9050919050565b600060208201905081810360008301526121fe81611eff565b9050919050565b6000602082019050818103600083015261221e81611f22565b9050919050565b6000602082019050818103600083015261223e81611f45565b9050919050565b6000602082019050818103600083015261225e81611f68565b9050919050565b6000602082019050818103600083015261227e81611f8b565b9050919050565b600060208201905061229a6000830184611fae565b92915050565b60006122aa6122bb565b90506122b6828261250d565b919050565b6000604051905090565b600067ffffffffffffffff8211156122e0576122df612645565b5b6122e982612674565b9050602081019050919050565b600067ffffffffffffffff82111561231157612310612645565b5b61231a82612674565b9050602081019050919050565b600081519050919050565b600081519050919050565b600082825260208201905092915050565b600082825260208201905092915050565b600081905092915050565b60006123758261248f565b91506123808361248f565b9250827fffffffffffffffffffffffffffffffffffffffffffffffffffffffffffffffff038211156123b5576123b46125b8565b5b828201905092915050565b60006123cb8261248f565b91506123d68361248f565b9250826123e6576123e56125e7565b5b828204905092915050565b60006123fc8261248f565b91506124078361248f565b92508282101561241a576124196125b8565b5b828203905092915050565b60006124308261246f565b9050919050565b60008115159050919050565b60007fffffffff0000000000000000000000000000000000000000000000000000000082169050919050565b600073ffffffffffffffffffffffffffffffffffffffff82169050919050565b6000819050919050565b82818337600083830152505050565b60005b838110156124c65780820151818401526020810190506124ab565b838111156124d5576000848401525b50505050565b600060028204905060018216806124f357607f821691505b6020821081141561250757612506612616565b5b50919050565b61251682612674565b810181811067ffffffffffffffff8211171561253557612534612645565b5b80604052505050565b60006125498261248f565b91507fffffffffffffffffffffffffffffffffffffffffffffffffffffffffffffffff82141561257c5761257b6125b8565b5b600182019050919050565b60006125928261248f565b915061259d8361248f565b9250826125ad576125ac6125e7565b5b828206905092915050565b7f4e487b7100000000000000000000000000000000000000000000000000000000600052601160045260246000fd5b7f4e487b7100000000000000000000000000000000000000000000000000000000600052601260045260246000fd5b7f4e487b7100000000000000000000000000000000000000000000000000000000600052602260045260246000fd5b7f4e487b7100000000000000000000000000000000000000000000000000000000600052604160045260246000fd5b6000601f19601f8301169050919050565b7f4552433732313a207472616e7366657220746f206e6f6e20455243373231526560008201527f63656976657220696d706c656d656e7465720000000000000000000000000000602082015250565b7f4552433732313a20746f6b656e20616c7265616479206d696e74656400000000600082015250565b7f4552433732313a207472616e7366657220746f20746865207a65726f2061646460008201527f7265737300000000000000000000000000000000000000000000000000000000602082015250565b7f4552433732313a20617070726f766520746f2063616c6c657200000000000000600082015250565b7f4552433732313a206f70657261746f7220717565727920666f72206e6f6e657860008201527f697374656e7420746f6b656e0000000000000000000000000000000000000000602082015250565b7f4552433732313a20617070726f76652063616c6c6572206973206e6f74206f7760008201527f6e6572206e6f7220617070726f76656420666f7220616c6c0000000000000000602082015250565b7f4552433732313a2062616c616e636520717565727920666f7220746865207a6560008201527f726f206164647265737300000000000000000000000000000000000000000000602082015250565b7f4552433732313a206f776e657220717565727920666f72206e6f6e657869737460008201527f656e7420746f6b656e0000000000000000000000000000000000000000000000602082015250565b7f45524337323155524953746f726167653a2055524920736574206f66206e6f6e60008201527f6578697374656e7420746f6b656e000000000000000000000000000000000000602082015250565b7f4552433732313a206d696e7420746f20746865207a65726f2061646472657373600082015250565b7f45524337323155524953746f726167653a2055524920717565727920666f722060008201527f6e6f6e6578697374656e7420746f6b656e000000000000000000000000000000602082015250565b7f4552433732313a20617070726f76656420717565727920666f72206e6f6e657860008201527f697374656e7420746f6b656e0000000000000000000000000000000000000000602082015250565b7f4552433732313a207472616e73666572206f6620746f6b656e2074686174206960008201527f73206e6f74206f776e0000000000000000000000000000000000000000000000602082015250565b7f4552433732314d657461646174613a2055524920717565727920666f72206e6f60008201527f6e6578697374656e7420746f6b656e0000000000000000000000000000000000602082015250565b7f4552433732313a20617070726f76616c20746f2063757272656e74206f776e6560008201527f7200000000000000000000000000000000000000000000000000000000000000602082015250565b7f4552433732313a207472616e736665722063616c6c6572206973206e6f74206f60008201527f776e6572206e6f7220617070726f766564000000000000000000000000000000602082015250565b612b0c81612425565b8114612b1757600080fd5b50565b612b2381612437565b8114612b2e57600080fd5b50565b612b3a81612443565b8114612b4557600080fd5b50565b612b518161248f565b8114612b5c57600080fd5b5056fea26469706673582212209e26efd164befe7767a9d1e13700690152c3131ddffe674d71ea387e82baf1a564736f6c63430008020033a26469706673582212202964857b18f19ba7c0c12e2fcb506f969dd78f6f2d43bf54c1ab85d2a96a800364736f6c63430008020033",
  "immutableReferences": {},
  "source": "// SPDX-License-Identifier: MIT\npragma solidity ^0.8.0;\npragma experimental ABIEncoderV2;\n\nimport {Strings} from \"./libraries/Strings.sol\";\nimport {PhotoNFTFactoryStorages} from \"./photo-nft-factory/commons/PhotoNFTFactoryStorages.sol\";\nimport {PhotoNFT} from \"./PhotoNFT.sol\";\nimport {PhotoNFTMarketplace} from \"./PhotoNFTMarketplace.sol\";\nimport {PhotoNFTData} from \"./PhotoNFTData.sol\";\n\n/**\n * @notice - This is the factory contract for a NFT of photo\n */\ncontract PhotoNFTFactory is PhotoNFTFactoryStorages {\n    using Strings for string;\n\n    // error FeeNotSufficient();\n\n    address[] public photoAddresses;\n    address PHOTO_NFT_MARKETPLACE;\n\n    PhotoNFTMarketplace public photoNFTMarketplace;\n    PhotoNFTData public photoNFTData;\n\n    constructor(\n        PhotoNFTMarketplace _photoNFTMarketplace,\n        PhotoNFTData _photoNFTData\n    ) public {\n        photoNFTMarketplace = _photoNFTMarketplace;\n        photoNFTData = _photoNFTData;\n        PHOTO_NFT_MARKETPLACE = address(photoNFTMarketplace);\n    }\n\n    /**\n     * @notice - Create a new photoNFT when a seller (owner) upload a photo onto IPFS\n     */\n    function createNewPhotoNFT(\n        string memory nftName,\n        // string memory nftSymbol,\n        uint256 photoPrice,\n        string memory ipfsHashOfPhoto,\n        string memory description,\n        string memory collection,\n        uint256 amount\n    ) public payable returns (bool) {\n        address owner = msg.sender; // [Note]: Initial owner of photoNFT is msg.sender\n\n        uint256 feeValue = photoPrice / 20;\n        require(msg.value == feeValue, \"Fee must be paid\");\n\n        //transfer fee\n\n        address payable marketOwner = photoNFTMarketplace\n            .getOwnerPayableAddress();\n        marketOwner.transfer(feeValue);\n\n        for (uint256 i = 0; i < amount; i++) {\n            string memory tokenName = nftName;\n            // string memory tokenSymbol = nftSymbol;\n            string memory tokenDes = description;\n            string memory tokenPhoto = ipfsHashOfPhoto;\n            string memory tokenCollect = collection;\n            uint256 tokenPrice = photoPrice;\n            string memory tokenURI = getTokenURI(tokenPhoto); // [Note]: IPFS hash + URL\n            PhotoNFT photoNFT = new PhotoNFT(\n                owner,\n                tokenName,\n                // tokenSymbol,\n                tokenURI,\n                tokenPrice,\n                tokenDes,\n                tokenCollect\n            );\n            photoAddresses.push(address(photoNFT));\n\n            // Save metadata of a photoNFT created\n            photoNFTData.saveMetadataOfPhotoNFT(\n                photoAddresses,\n                photoNFT,\n                tokenName,\n                // tokenSymbol,\n                msg.sender,\n                tokenPrice,\n                tokenPhoto,\n                tokenDes,\n                tokenCollect\n            );\n            // photoNFTData.updateStatus(photoNFT, \"Open\", tokenPrice);\n            photoNFTMarketplace.registerTradeWhenCreateNewPhotoNFT(\n                photoNFT,\n                1,\n                tokenPrice,\n                msg.sender\n            );\n\n            emit PhotoNFTCreated(\n                msg.sender,\n                photoNFT,\n                tokenName,\n                // tokenSymbol,\n                tokenPrice,\n                tokenPhoto\n            );\n        }\n    }\n\n    ///-----------------\n    /// Getter methods\n    ///-----------------\n    function baseTokenURI() public pure returns (string memory) {\n        return \"https://ipfs.io/ipfs/\";\n    }\n\n    function getTokenURI(string memory _ipfsHashOfPhoto)\n        public\n        view\n        returns (string memory)\n    {\n        return Strings.strConcat(baseTokenURI(), _ipfsHashOfPhoto);\n    }\n}\n",
  "sourcePath": "D:\\marketplace\\frontend (2)\\contracts\\PhotoNFTFactory.sol",
  "compiler": {
    "name": "solc",
    "version": "0.8.2+commit.661d1103.Emscripten.clang"
  },
  "schemaVersion": "3.4.4",
  "updatedAt": "2022-02-01T11:28:49.806Z",
  "devdoc": {
    "kind": "dev",
    "methods": {},
    "version": 1
  },
  "userdoc": {
    "kind": "user",
    "methods": {
      "baseTokenURI()": {
        "notice": "----------------- Getter methods -----------------"
      },
      "createNewPhotoNFT(string,uint256,string,string,string,uint256)": {
        "notice": "- Create a new photoNFT when a seller (owner) upload a photo onto IPFS"
      }
    },
    "notice": "- This is the factory contract for a NFT of photo",
    "version": 1
  }
}