{
  "contractName": "PhotoNFTDataStorages",
  "abi": [
    {
      "inputs": [
        {
          "internalType": "uint256",
          "name": "",
          "type": "uint256"
        }
      ],
      "name": "photos",
      "outputs": [
        {
          "internalType": "contract PhotoNFT",
          "name": "photoNFT",
          "type": "address"
        },
        {
          "internalType": "string",
          "name": "photoNFTName",
          "type": "string"
        },
        {
          "internalType": "address",
          "name": "ownerAddress",
          "type": "address"
        },
        {
          "internalType": "uint256",
          "name": "photoPrice",
          "type": "uint256"
        },
        {
          "internalType": "string",
          "name": "ipfsHashOfPhoto",
          "type": "string"
        },
        {
          "internalType": "string",
          "name": "status",
          "type": "string"
        },
        {
          "internalType": "uint256",
          "name": "reputation",
          "type": "uint256"
        },
        {
          "internalType": "bool",
          "name": "premiumStatus",
          "type": "bool"
        },
        {
          "internalType": "string",
          "name": "photoNFTDesc",
          "type": "string"
        },
        {
          "internalType": "string",
          "name": "photoCollect",
          "type": "string"
        },
        {
          "internalType": "uint256",
          "name": "premiumTimestamp",
          "type": "uint256"
        },
        {
          "internalType": "uint256",
          "name": "createdAt",
          "type": "uint256"
        }
      ],
      "stateMutability": "view",
      "type": "function"
    }
  ],
  "bytecode": "0x608060405234801561001057600080fd5b506106da806100206000396000f3fe608060405234801561001057600080fd5b506004361061002b5760003560e01c8063af2a5d6f14610030575b600080fd5b61004a600480360381019061004591906103e5565b61006b565b6040516100629c9b9a99989796959493929190610483565b60405180910390f35b6000818154811061007b57600080fd5b90600052602060002090600c02016000915090508060000160009054906101000a900473ffffffffffffffffffffffffffffffffffffffff16908060010180546100c49061061b565b80601f01602080910402602001604051908101604052809291908181526020018280546100f09061061b565b801561013d5780601f106101125761010080835404028352916020019161013d565b820191906000526020600020905b81548152906001019060200180831161012057829003601f168201915b5050505050908060020160009054906101000a900473ffffffffffffffffffffffffffffffffffffffff169080600301549080600401805461017e9061061b565b80601f01602080910402602001604051908101604052809291908181526020018280546101aa9061061b565b80156101f75780601f106101cc576101008083540402835291602001916101f7565b820191906000526020600020905b8154815290600101906020018083116101da57829003601f168201915b50505050509080600501805461020c9061061b565b80601f01602080910402602001604051908101604052809291908181526020018280546102389061061b565b80156102855780601f1061025a57610100808354040283529160200191610285565b820191906000526020600020905b81548152906001019060200180831161026857829003601f168201915b5050505050908060060154908060070160009054906101000a900460ff16908060080180546102b39061061b565b80601f01602080910402602001604051908101604052809291908181526020018280546102df9061061b565b801561032c5780601f106103015761010080835404028352916020019161032c565b820191906000526020600020905b81548152906001019060200180831161030f57829003601f168201915b5050505050908060090180546103419061061b565b80601f016020809104026020016040519081016040528092919081815260200182805461036d9061061b565b80156103ba5780601f1061038f576101008083540402835291602001916103ba565b820191906000526020600020905b81548152906001019060200180831161039d57829003601f168201915b50505050509080600a01549080600b015490508c565b6000813590506103df8161068d565b92915050565b6000602082840312156103f757600080fd5b6000610405848285016103d0565b91505092915050565b6104178161057c565b82525050565b6104268161058e565b82525050565b610435816105c4565b82525050565b600061044682610560565b610450818561056b565b93506104608185602086016105e8565b6104698161067c565b840191505092915050565b61047d816105ba565b82525050565b600061018082019050610499600083018f61042c565b81810360208301526104ab818e61043b565b90506104ba604083018d61040e565b6104c7606083018c610474565b81810360808301526104d9818b61043b565b905081810360a08301526104ed818a61043b565b90506104fc60c0830189610474565b61050960e083018861041d565b81810361010083015261051c818761043b565b9050818103610120830152610531818661043b565b9050610541610140830185610474565b61054f610160830184610474565b9d9c50505050505050505050505050565b600081519050919050565b600082825260208201905092915050565b60006105878261059a565b9050919050565b60008115159050919050565b600073ffffffffffffffffffffffffffffffffffffffff82169050919050565b6000819050919050565b60006105cf826105d6565b9050919050565b60006105e18261059a565b9050919050565b60005b838110156106065780820151818401526020810190506105eb565b83811115610615576000848401525b50505050565b6000600282049050600182168061063357607f821691505b602082108114156106475761064661064d565b5b50919050565b7f4e487b7100000000000000000000000000000000000000000000000000000000600052602260045260246000fd5b6000601f19601f8301169050919050565b610696816105ba565b81146106a157600080fd5b5056fea2646970667358221220cf4bd4cd889bfe09f734f16d3282cfa47712fbeb571b1f5bcc1b3d8d3a76028b64736f6c63430008020033",
  "immutableReferences": {},
  "source": "pragma solidity ^0.8.0;\n\nimport { PhotoNFTDataObjects } from \"./PhotoNFTDataObjects.sol\";\n\n\n// shared storage\ncontract PhotoNFTDataStorages is PhotoNFTDataObjects {\n\n    Photo[] public photos;\n\n}\n\n",
  "sourcePath": "D:\\marketplace\\frontend (2)\\contracts\\photo-nft-data\\commons\\PhotoNFTDataStorages.sol",
  "compiler": {
    "name": "solc",
    "version": "0.8.2+commit.661d1103.Emscripten.clang"
  },
  "schemaVersion": "3.4.4",
  "updatedAt": "2022-02-01T11:28:57.283Z",
  "devdoc": {
    "kind": "dev",
    "methods": {},
    "version": 1
  },
  "userdoc": {
    "kind": "user",
    "methods": {},
    "version": 1
  }
}