{
  "contractName": "SafeCastMock",
  "abi": [
    {
      "inputs": [
        {
          "internalType": "int256",
          "name": "a",
          "type": "int256"
        }
      ],
      "name": "toUint256",
      "outputs": [
        {
          "internalType": "uint256",
          "name": "",
          "type": "uint256"
        }
      ],
      "stateMutability": "pure",
      "type": "function"
    },
    {
      "inputs": [
        {
          "internalType": "uint256",
          "name": "a",
          "type": "uint256"
        }
      ],
      "name": "toUint224",
      "outputs": [
        {
          "internalType": "uint224",
          "name": "",
          "type": "uint224"
        }
      ],
      "stateMutability": "pure",
      "type": "function"
    },
    {
      "inputs": [
        {
          "internalType": "uint256",
          "name": "a",
          "type": "uint256"
        }
      ],
      "name": "toUint128",
      "outputs": [
        {
          "internalType": "uint128",
          "name": "",
          "type": "uint128"
        }
      ],
      "stateMutability": "pure",
      "type": "function"
    },
    {
      "inputs": [
        {
          "internalType": "uint256",
          "name": "a",
          "type": "uint256"
        }
      ],
      "name": "toUint96",
      "outputs": [
        {
          "internalType": "uint96",
          "name": "",
          "type": "uint96"
        }
      ],
      "stateMutability": "pure",
      "type": "function"
    },
    {
      "inputs": [
        {
          "internalType": "uint256",
          "name": "a",
          "type": "uint256"
        }
      ],
      "name": "toUint64",
      "outputs": [
        {
          "internalType": "uint64",
          "name": "",
          "type": "uint64"
        }
      ],
      "stateMutability": "pure",
      "type": "function"
    },
    {
      "inputs": [
        {
          "internalType": "uint256",
          "name": "a",
          "type": "uint256"
        }
      ],
      "name": "toUint32",
      "outputs": [
        {
          "internalType": "uint32",
          "name": "",
          "type": "uint32"
        }
      ],
      "stateMutability": "pure",
      "type": "function"
    },
    {
      "inputs": [
        {
          "internalType": "uint256",
          "name": "a",
          "type": "uint256"
        }
      ],
      "name": "toUint16",
      "outputs": [
        {
          "internalType": "uint16",
          "name": "",
          "type": "uint16"
        }
      ],
      "stateMutability": "pure",
      "type": "function"
    },
    {
      "inputs": [
        {
          "internalType": "uint256",
          "name": "a",
          "type": "uint256"
        }
      ],
      "name": "toUint8",
      "outputs": [
        {
          "internalType": "uint8",
          "name": "",
          "type": "uint8"
        }
      ],
      "stateMutability": "pure",
      "type": "function"
    },
    {
      "inputs": [
        {
          "internalType": "uint256",
          "name": "a",
          "type": "uint256"
        }
      ],
      "name": "toInt256",
      "outputs": [
        {
          "internalType": "int256",
          "name": "",
          "type": "int256"
        }
      ],
      "stateMutability": "pure",
      "type": "function"
    },
    {
      "inputs": [
        {
          "internalType": "int256",
          "name": "a",
          "type": "int256"
        }
      ],
      "name": "toInt128",
      "outputs": [
        {
          "internalType": "int128",
          "name": "",
          "type": "int128"
        }
      ],
      "stateMutability": "pure",
      "type": "function"
    },
    {
      "inputs": [
        {
          "internalType": "int256",
          "name": "a",
          "type": "int256"
        }
      ],
      "name": "toInt64",
      "outputs": [
        {
          "internalType": "int64",
          "name": "",
          "type": "int64"
        }
      ],
      "stateMutability": "pure",
      "type": "function"
    },
    {
      "inputs": [
        {
          "internalType": "int256",
          "name": "a",
          "type": "int256"
        }
      ],
      "name": "toInt32",
      "outputs": [
        {
          "internalType": "int32",
          "name": "",
          "type": "int32"
        }
      ],
      "stateMutability": "pure",
      "type": "function"
    },
    {
      "inputs": [
        {
          "internalType": "int256",
          "name": "a",
          "type": "int256"
        }
      ],
      "name": "toInt16",
      "outputs": [
        {
          "internalType": "int16",
          "name": "",
          "type": "int16"
        }
      ],
      "stateMutability": "pure",
      "type": "function"
    },
    {
      "inputs": [
        {
          "internalType": "int256",
          "name": "a",
          "type": "int256"
        }
      ],
      "name": "toInt8",
      "outputs": [
        {
          "internalType": "int8",
          "name": "",
          "type": "int8"
        }
      ],
      "stateMutability": "pure",
      "type": "function"
    }
  ],
  "bytecode": "0x608060405234801561001057600080fd5b50611378806100206000396000f3fe608060405234801561001057600080fd5b50600436106100ea5760003560e01c8063c81932551161008c578063dd2a031611610066578063dd2a0316146102cf578063dfbe873b146102ff578063f136dc021461032f578063fdcf791b1461035f576100ea565b8063c81932551461023f578063cf65b4d31461026f578063d6bd32aa1461029f576100ea565b80635bb79860116100c85780635bb798601461017f578063809fdd33146101af5780639374068f146101df5780639c6f59be1461020f576100ea565b80630cc4681e146100ef5780631cf887fc1461011f5780632665fad01461014f575b600080fd5b61010960048036038101906101049190610aa2565b61038f565b6040516101169190610f3c565b60405180910390f35b61013960048036038101906101349190610aa2565b6103a1565b6040516101469190610f57565b60405180910390f35b61016960048036038101906101649190610aa2565b6103b3565b6040516101769190610f21565b60405180910390f35b61019960048036038101906101949190610aa2565b6103c5565b6040516101a69190610ed0565b60405180910390f35b6101c960048036038101906101c49190610aa2565b6103d7565b6040516101d69190610e9a565b60405180910390f35b6101f960048036038101906101f49190610aa2565b6103e9565b6040516102069190610eb5565b60405180910390f35b61022960048036038101906102249190610a79565b6103fb565b6040516102369190610d29565b60405180910390f35b61025960048036038101906102549190610aa2565b61040d565b6040516102669190610f06565b60405180910390f35b61028960048036038101906102849190610a79565b61041f565b6040516102969190610cf3565b60405180910390f35b6102b960048036038101906102b49190610a79565b610431565b6040516102c69190610d44565b60405180910390f35b6102e960048036038101906102e49190610a79565b610443565b6040516102f69190610cd8565b60405180910390f35b61031960048036038101906103149190610aa2565b610455565b6040516103269190610d0e565b60405180910390f35b61034960048036038101906103449190610a79565b610467565b6040516103569190610d5f565b60405180910390f35b61037960048036038101906103749190610a79565b610479565b6040516103869190610eeb565b60405180910390f35b600061039a8261048b565b9050919050565b60006103ac826104db565b9050919050565b60006103be82610536565b9050919050565b60006103d08261058d565b9050919050565b60006103e2826105f8565b9050919050565b60006103f482610657565b9050919050565b6000610406826106a8565b9050919050565b60006104188261072b565b9050919050565b600061042a8261077e565b9050919050565b600061043c826107ff565b9050919050565b600061044e82610886565b9050919050565b600061046082610915565b9050919050565b600061047282610982565b9050919050565b600061048482610a02565b9050919050565b600060ff80168211156104d3576040517f08c379a00000000000000000000000000000000000000000000000000000000081526004016104ca90610dba565b60405180910390fd5b819050919050565b60006bffffffffffffffffffffffff801682111561052e576040517f08c379a000000000000000000000000000000000000000000000000000000000815260040161052590610d7a565b60405180910390fd5b819050919050565b600067ffffffffffffffff8016821115610585576040517f08c379a000000000000000000000000000000000000000000000000000000000815260040161057c90610e1a565b60405180910390fd5b819050919050565b60007bffffffffffffffffffffffffffffffffffffffffffffffffffffffff80168211156105f0576040517f08c379a00000000000000000000000000000000000000000000000000000000081526004016105e790610e3a565b60405180910390fd5b819050919050565b60006fffffffffffffffffffffffffffffffff801682111561064f576040517f08c379a000000000000000000000000000000000000000000000000000000000815260040161064690610dda565b60405180910390fd5b819050919050565b600061ffff80168211156106a0576040517f08c379a000000000000000000000000000000000000000000000000000000000815260040161069790610d9a565b60405180910390fd5b819050919050565b60007fffffffffffffffffffffffffffffffffffffffffffffffffffffffff8000000060030b82121580156106e45750637fffffff60030b8213155b610723576040517f08c379a000000000000000000000000000000000000000000000000000000000815260040161071a90610e5a565b60405180910390fd5b819050919050565b600063ffffffff8016821115610776576040517f08c379a000000000000000000000000000000000000000000000000000000000815260040161076d90610e5a565b60405180910390fd5b819050919050565b60007fffffffffffffffffffffffffffffffffffffffffffffffffffffffffffff800060010b82121580156107b85750617fff60010b8213155b6107f7576040517f08c379a00000000000000000000000000000000000000000000000000000000081526004016107ee90610d9a565b60405180910390fd5b819050919050565b60007fffffffffffffffffffffffffffffffffffffffffffffffff800000000000000060070b821215801561083f5750677fffffffffffffff60070b8213155b61087e576040517f08c379a000000000000000000000000000000000000000000000000000000000815260040161087590610e1a565b60405180910390fd5b819050919050565b60007fffffffffffffffffffffffffffffffff80000000000000000000000000000000600f0b82121580156108ce57506f7fffffffffffffffffffffffffffffff600f0b8213155b61090d576040517f08c379a000000000000000000000000000000000000000000000000000000000815260040161090490610dda565b60405180910390fd5b819050919050565b60007f7fffffffffffffffffffffffffffffffffffffffffffffffffffffffffffffff82111561097a576040517f08c379a000000000000000000000000000000000000000000000000000000000815260040161097190610e7a565b60405180910390fd5b819050919050565b60007fffffffffffffffffffffffffffffffffffffffffffffffffffffffffffffff8060000b82121580156109bb5750607f60000b8213155b6109fa576040517f08c379a00000000000000000000000000000000000000000000000000000000081526004016109f190610dba565b60405180910390fd5b819050919050565b600080821215610a47576040517f08c379a0000000000000000000000000000000000000000000000000000000008152600401610a3e90610dfa565b60405180910390fd5b819050919050565b600081359050610a5e81611314565b92915050565b600081359050610a738161132b565b92915050565b600060208284031215610a8b57600080fd5b6000610a9984828501610a4f565b91505092915050565b600060208284031215610ab457600080fd5b6000610ac284828501610a64565b91505092915050565b610ad481610f83565b82525050565b610ae381610f90565b82525050565b610af281610f9d565b82525050565b610b0181610fa7565b82525050565b610b1081610fb4565b82525050565b610b1f81610fc1565b82525050565b6000610b32602683610f72565b9150610b3d82611073565b604082019050919050565b6000610b55602683610f72565b9150610b60826110c2565b604082019050919050565b6000610b78602583610f72565b9150610b8382611111565b604082019050919050565b6000610b9b602783610f72565b9150610ba682611160565b604082019050919050565b6000610bbe602083610f72565b9150610bc9826111af565b602082019050919050565b6000610be1602683610f72565b9150610bec826111d8565b604082019050919050565b6000610c04602783610f72565b9150610c0f82611227565b604082019050919050565b6000610c27602683610f72565b9150610c3282611276565b604082019050919050565b6000610c4a602883610f72565b9150610c55826112c5565b604082019050919050565b610c6981610fce565b82525050565b610c7881610fea565b82525050565b610c8781610ff8565b82525050565b610c9681611020565b82525050565b610ca58161102a565b82525050565b610cb48161103a565b82525050565b610cc38161104e565b82525050565b610cd28161105b565b82525050565b6000602082019050610ced6000830184610acb565b92915050565b6000602082019050610d086000830184610ada565b92915050565b6000602082019050610d236000830184610ae9565b92915050565b6000602082019050610d3e6000830184610af8565b92915050565b6000602082019050610d596000830184610b07565b92915050565b6000602082019050610d746000830184610b16565b92915050565b60006020820190508181036000830152610d9381610b25565b9050919050565b60006020820190508181036000830152610db381610b48565b9050919050565b60006020820190508181036000830152610dd381610b6b565b9050919050565b60006020820190508181036000830152610df381610b8e565b9050919050565b60006020820190508181036000830152610e1381610bb1565b9050919050565b60006020820190508181036000830152610e3381610bd4565b9050919050565b60006020820190508181036000830152610e5381610bf7565b9050919050565b60006020820190508181036000830152610e7381610c1a565b9050919050565b60006020820190508181036000830152610e9381610c3d565b9050919050565b6000602082019050610eaf6000830184610c60565b92915050565b6000602082019050610eca6000830184610c6f565b92915050565b6000602082019050610ee56000830184610c7e565b92915050565b6000602082019050610f006000830184610c8d565b92915050565b6000602082019050610f1b6000830184610c9c565b92915050565b6000602082019050610f366000830184610cab565b92915050565b6000602082019050610f516000830184610cba565b92915050565b6000602082019050610f6c6000830184610cc9565b92915050565b600082825260208201905092915050565b600081600f0b9050919050565b60008160010b9050919050565b6000819050919050565b60008160030b9050919050565b60008160070b9050919050565b60008160000b9050919050565b60006fffffffffffffffffffffffffffffffff82169050919050565b600061ffff82169050919050565b60007bffffffffffffffffffffffffffffffffffffffffffffffffffffffff82169050919050565b6000819050919050565b600063ffffffff82169050919050565b600067ffffffffffffffff82169050919050565b600060ff82169050919050565b60006bffffffffffffffffffffffff82169050919050565b7f53616665436173743a2076616c756520646f65736e27742066697420696e203960008201527f3620626974730000000000000000000000000000000000000000000000000000602082015250565b7f53616665436173743a2076616c756520646f65736e27742066697420696e203160008201527f3620626974730000000000000000000000000000000000000000000000000000602082015250565b7f53616665436173743a2076616c756520646f65736e27742066697420696e203860008201527f2062697473000000000000000000000000000000000000000000000000000000602082015250565b7f53616665436173743a2076616c756520646f65736e27742066697420696e203160008201527f3238206269747300000000000000000000000000000000000000000000000000602082015250565b7f53616665436173743a2076616c7565206d75737420626520706f736974697665600082015250565b7f53616665436173743a2076616c756520646f65736e27742066697420696e203660008201527f3420626974730000000000000000000000000000000000000000000000000000602082015250565b7f53616665436173743a2076616c756520646f65736e27742066697420696e203260008201527f3234206269747300000000000000000000000000000000000000000000000000602082015250565b7f53616665436173743a2076616c756520646f65736e27742066697420696e203360008201527f3220626974730000000000000000000000000000000000000000000000000000602082015250565b7f53616665436173743a2076616c756520646f65736e27742066697420696e206160008201527f6e20696e74323536000000000000000000000000000000000000000000000000602082015250565b61131d81610f9d565b811461132857600080fd5b50565b61133481611020565b811461133f57600080fd5b5056fea26469706673582212209f095e2ce74e27217c5b93ab4bfd82b734c8312f3a16395aa26cb85d0e53287364736f6c63430008020033",
  "immutableReferences": {},
  "source": "// SPDX-License-Identifier: MIT\n\npragma solidity ^0.8.0;\n\nimport \"../utils/math/SafeCast.sol\";\n\ncontract SafeCastMock {\n    using SafeCast for uint256;\n    using SafeCast for int256;\n\n    function toUint256(int256 a) public pure returns (uint256) {\n        return a.toUint256();\n    }\n\n    function toUint224(uint256 a) public pure returns (uint224) {\n        return a.toUint224();\n    }\n\n    function toUint128(uint256 a) public pure returns (uint128) {\n        return a.toUint128();\n    }\n\n    function toUint96(uint256 a) public pure returns (uint96) {\n        return a.toUint96();\n    }\n\n    function toUint64(uint256 a) public pure returns (uint64) {\n        return a.toUint64();\n    }\n\n    function toUint32(uint256 a) public pure returns (uint32) {\n        return a.toUint32();\n    }\n\n    function toUint16(uint256 a) public pure returns (uint16) {\n        return a.toUint16();\n    }\n\n    function toUint8(uint256 a) public pure returns (uint8) {\n        return a.toUint8();\n    }\n\n    function toInt256(uint256 a) public pure returns (int256) {\n        return a.toInt256();\n    }\n\n    function toInt128(int256 a) public pure returns (int128) {\n        return a.toInt128();\n    }\n\n    function toInt64(int256 a) public pure returns (int64) {\n        return a.toInt64();\n    }\n\n    function toInt32(int256 a) public pure returns (int32) {\n        return a.toInt32();\n    }\n\n    function toInt16(int256 a) public pure returns (int16) {\n        return a.toInt16();\n    }\n\n    function toInt8(int256 a) public pure returns (int8) {\n        return a.toInt8();\n    }\n}\n",
  "sourcePath": "D:\\marketplace\\frontend (2)\\contracts\\openzeppelin-solidity\\contracts\\mocks\\SafeCastMock.sol",
  "compiler": {
    "name": "solc",
    "version": "0.8.2+commit.661d1103.Emscripten.clang"
  },
  "schemaVersion": "3.4.4",
  "updatedAt": "2022-02-01T11:28:55.343Z",
  "devdoc": {
    "kind": "dev",
    "methods": {},
    "version": 1
  },
  "userdoc": {
    "kind": "user",
    "methods": {},
    "version": 1
  }
}